{"contracts/Repository.sol":{"Repository":{"abi":[{"inputs":[{"internalType":"address","name":"_address","type":"address"}],"stateMutability":"nonpayable","type":"constructor"},{"inputs":[{"internalType":"address","name":"sender","type":"address"},{"internalType":"uint256","name":"tokenId","type":"uint256"},{"internalType":"address","name":"owner","type":"address"}],"name":"ERC721IncorrectOwner","type":"error"},{"inputs":[{"internalType":"address","name":"operator","type":"address"},{"internalType":"uint256","name":"tokenId","type":"uint256"}],"name":"ERC721InsufficientApproval","type":"error"},{"inputs":[{"internalType":"address","name":"approver","type":"address"}],"name":"ERC721InvalidApprover","type":"error"},{"inputs":[{"internalType":"address","name":"operator","type":"address"}],"name":"ERC721InvalidOperator","type":"error"},{"inputs":[{"internalType":"address","name":"owner","type":"address"}],"name":"ERC721InvalidOwner","type":"error"},{"inputs":[{"internalType":"address","name":"receiver","type":"address"}],"name":"ERC721InvalidReceiver","type":"error"},{"inputs":[{"internalType":"address","name":"sender","type":"address"}],"name":"ERC721InvalidSender","type":"error"},{"inputs":[{"internalType":"uint256","name":"tokenId","type":"uint256"}],"name":"ERC721NonexistentToken","type":"error"},{"anonymous":false,"inputs":[{"indexed":true,"internalType":"address","name":"owner","type":"address"},{"indexed":true,"internalType":"address","name":"approved","type":"address"},{"indexed":true,"internalType":"uint256","name":"tokenId","type":"uint256"}],"name":"Approval","type":"event"},{"anonymous":false,"inputs":[{"indexed":true,"internalType":"address","name":"owner","type":"address"},{"indexed":true,"internalType":"address","name":"operator","type":"address"},{"indexed":false,"internalType":"bool","name":"approved","type":"bool"}],"name":"ApprovalForAll","type":"event"},{"anonymous":false,"inputs":[{"indexed":false,"internalType":"uint256","name":"_fromTokenId","type":"uint256"},{"indexed":false,"internalType":"uint256","name":"_toTokenId","type":"uint256"}],"name":"BatchMetadataUpdate","type":"event"},{"anonymous":false,"inputs":[{"indexed":false,"internalType":"uint256","name":"_tokenId","type":"uint256"}],"name":"MetadataUpdate","type":"event"},{"anonymous":false,"inputs":[{"indexed":true,"internalType":"address","name":"from","type":"address"},{"indexed":true,"internalType":"address","name":"to","type":"address"},{"indexed":true,"internalType":"uint256","name":"tokenId","type":"uint256"}],"name":"Transfer","type":"event"},{"anonymous":false,"inputs":[{"indexed":true,"internalType":"uint256","name":"tokenId","type":"uint256"},{"indexed":true,"internalType":"address","name":"owner","type":"address"},{"indexed":false,"internalType":"address[]","name":"_address_referringList","type":"address[]"},{"indexed":false,"internalType":"uint256[][]","name":"_tokenIds_referringList","type":"uint256[][]"},{"indexed":false,"internalType":"address[]","name":"_address_referredList","type":"address[]"},{"indexed":false,"internalType":"uint256[][]","name":"_tokenIds_referredList","type":"uint256[][]"}],"name":"UpdateNode","type":"event"},{"inputs":[{"internalType":"address","name":"to","type":"address"},{"internalType":"uint256","name":"tokenId","type":"uint256"}],"name":"approve","outputs":[],"stateMutability":"nonpayable","type":"function"},{"inputs":[{"internalType":"address","name":"owner","type":"address"}],"name":"balanceOf","outputs":[{"internalType":"uint256","name":"","type":"uint256"}],"stateMutability":"view","type":"function"},{"inputs":[{"internalType":"address","name":"_address","type":"address"},{"internalType":"uint256","name":"tokenId","type":"uint256"}],"name":"createdTimestampOf","outputs":[{"internalType":"uint256","name":"","type":"uint256"}],"stateMutability":"view","type":"function"},{"inputs":[{"internalType":"uint256","name":"tokenId","type":"uint256"}],"name":"getApproved","outputs":[{"internalType":"address","name":"","type":"address"}],"stateMutability":"view","type":"function"},{"inputs":[{"internalType":"uint256","name":"tokenId","type":"uint256"}],"name":"getCreator","outputs":[{"internalType":"address","name":"","type":"address"}],"stateMutability":"view","type":"function"},{"inputs":[{"internalType":"uint256","name":"tokenId","type":"uint256"}],"name":"getDirectDependencies","outputs":[{"internalType":"address[]","name":"deps","type":"address[]"},{"internalType":"uint256[][]","name":"depTokenIds","type":"uint256[][]"}],"stateMutability":"view","type":"function"},{"inputs":[],"name":"getOwner","outputs":[{"internalType":"address","name":"","type":"address"}],"stateMutability":"view","type":"function"},{"inputs":[{"internalType":"uint256","name":"tokenId","type":"uint256"}],"name":"getSoftwareMeta","outputs":[{"components":[{"internalType":"address","name":"creator","type":"address"},{"internalType":"string","name":"tokenURI","type":"string"},{"internalType":"address[]","name":"deps","type":"address[]"},{"internalType":"uint256[][]","name":"depTokenIds","type":"uint256[][]"}],"internalType":"struct Repository.SoftwareMeta","name":"","type":"tuple"}],"stateMutability":"view","type":"function"},{"inputs":[{"internalType":"uint256","name":"tokenId","type":"uint256"}],"name":"hasDependencies","outputs":[{"internalType":"bool","name":"","type":"bool"}],"stateMutability":"view","type":"function"},{"inputs":[{"internalType":"address","name":"owner","type":"address"},{"internalType":"address","name":"operator","type":"address"}],"name":"isApprovedForAll","outputs":[{"internalType":"bool","name":"","type":"bool"}],"stateMutability":"view","type":"function"},{"inputs":[{"internalType":"uint256","name":"tokenId","type":"uint256"}],"name":"isLicense","outputs":[{"internalType":"bool","name":"","type":"bool"}],"stateMutability":"pure","type":"function"},{"inputs":[{"internalType":"address","name":"licensee","type":"address"},{"internalType":"uint256","name":"softwareId","type":"uint256"},{"internalType":"uint256","name":"licenseId","type":"uint256"}],"name":"mintLicense","outputs":[{"internalType":"uint256","name":"","type":"uint256"}],"stateMutability":"nonpayable","type":"function"},{"inputs":[{"internalType":"uint256","name":"count","type":"uint256"},{"internalType":"string","name":"_tokenURI","type":"string"},{"internalType":"address[]","name":"addresses","type":"address[]"},{"internalType":"uint256[][]","name":"_tokenIds","type":"uint256[][]"}],"name":"mintSoftware","outputs":[{"internalType":"uint256","name":"","type":"uint256"}],"stateMutability":"nonpayable","type":"function"},{"inputs":[],"name":"name","outputs":[{"internalType":"string","name":"","type":"string"}],"stateMutability":"view","type":"function"},{"inputs":[{"internalType":"uint256","name":"tokenId","type":"uint256"}],"name":"ownerOf","outputs":[{"internalType":"address","name":"","type":"address"}],"stateMutability":"view","type":"function"},{"inputs":[{"internalType":"address","name":"_address","type":"address"},{"internalType":"uint256","name":"tokenId","type":"uint256"}],"name":"referredOf","outputs":[{"internalType":"address[]","name":"","type":"address[]"},{"internalType":"uint256[][]","name":"","type":"uint256[][]"}],"stateMutability":"view","type":"function"},{"inputs":[{"internalType":"address","name":"_address","type":"address"},{"internalType":"uint256","name":"tokenId","type":"uint256"}],"name":"referringOf","outputs":[{"internalType":"address[]","name":"","type":"address[]"},{"internalType":"uint256[][]","name":"","type":"uint256[][]"}],"stateMutability":"view","type":"function"},{"inputs":[{"internalType":"uint256","name":"tokenId","type":"uint256"},{"internalType":"address[]","name":"addresses","type":"address[]"},{"internalType":"uint256[][]","name":"_tokenIds","type":"uint256[][]"}],"name":"safeMint","outputs":[],"stateMutability":"nonpayable","type":"function"},{"inputs":[{"internalType":"address","name":"from","type":"address"},{"internalType":"address","name":"to","type":"address"},{"internalType":"uint256","name":"tokenId","type":"uint256"}],"name":"safeTransferFrom","outputs":[],"stateMutability":"nonpayable","type":"function"},{"inputs":[{"internalType":"address","name":"from","type":"address"},{"internalType":"address","name":"to","type":"address"},{"internalType":"uint256","name":"tokenId","type":"uint256"},{"internalType":"bytes","name":"data","type":"bytes"}],"name":"safeTransferFrom","outputs":[],"stateMutability":"nonpayable","type":"function"},{"inputs":[{"internalType":"address","name":"operator","type":"address"},{"internalType":"bool","name":"approved","type":"bool"}],"name":"setApprovalForAll","outputs":[],"stateMutability":"nonpayable","type":"function"},{"inputs":[{"internalType":"uint256","name":"tokenId","type":"uint256"},{"internalType":"address[]","name":"addresses","type":"address[]"},{"internalType":"uint256[][]","name":"tokenIds","type":"uint256[][]"}],"name":"setNode","outputs":[],"stateMutability":"nonpayable","type":"function"},{"inputs":[{"internalType":"address","name":"_address","type":"address"},{"internalType":"uint256","name":"tokenId","type":"uint256"},{"internalType":"uint256[]","name":"_tokenIds","type":"uint256[]"}],"name":"setNodeReferredExternal","outputs":[],"stateMutability":"nonpayable","type":"function"},{"inputs":[{"internalType":"uint256","name":"tokenId","type":"uint256"},{"internalType":"string","name":"_tokenURI","type":"string"}],"name":"setTokenURI","outputs":[],"stateMutability":"nonpayable","type":"function"},{"inputs":[{"internalType":"bytes4","name":"interfaceId","type":"bytes4"}],"name":"supportsInterface","outputs":[{"internalType":"bool","name":"","type":"bool"}],"stateMutability":"view","type":"function"},{"inputs":[],"name":"symbol","outputs":[{"internalType":"string","name":"","type":"string"}],"stateMutability":"view","type":"function"},{"inputs":[{"internalType":"uint256","name":"tokenId","type":"uint256"}],"name":"tokenURI","outputs":[{"internalType":"string","name":"","type":"string"}],"stateMutability":"view","type":"function"},{"inputs":[{"internalType":"address","name":"from","type":"address"},{"internalType":"address","name":"to","type":"address"},{"internalType":"uint256","name":"tokenId","type":"uint256"}],"name":"transferFrom","outputs":[],"stateMutability":"nonpayable","type":"function"}],"evm":{"bytecode":{"linkReferences":{},"object":"60a06040523461036f5761312b6020813803918261001c81610374565b93849283398101031261036f57516001600160a01b038116810361036f576100446040610374565b906008825267536f66747761726560c01b60208301526100646040610374565b600381526229a7a360e91b602082015282519091906001600160401b03811161027a57600054600181811c91168015610365575b602082101461025a57601f8111610301575b506020601f821160011461029b5781929394600092610290575b50508160011b916000199060031b1c1916176000555b81516001600160401b03811161027a57600154600181811c91168015610270575b602082101461025a57601f81116101f5575b50602092601f82116001146101905792819293600092610185575b50508160011b916000199060031b1c1916176001555b600880546001600160a01b03191633179055620f42406009556000600a55608052604051612d91908161039a823960805181818161086501528181610cba0152610e7d0152f35b015190503880610128565b601f198216936001600052806000209160005b8681106101dd57508360019596106101c4575b505050811b0160015561013e565b015160001960f88460031b161c191690553880806101b6565b919260206001819286850151815501940192016101a3565b60016000527fb10e2d527612073b26eecdfd717e6a320cf44b4afac2b0732d9fcbe2b7fa0cf6601f830160051c81019160208410610250575b601f0160051c01905b818110610244575061010d565b60008155600101610237565b909150819061022e565b634e487b7160e01b600052602260045260246000fd5b90607f16906100fb565b634e487b7160e01b600052604160045260246000fd5b0151905038806100c4565b601f1982169060008052806000209160005b8181106102e9575095836001959697106102d0575b505050811b016000556100da565b015160001960f88460031b161c191690553880806102c2565b9192602060018192868b0151815501940192016102ad565b600080527f290decd9548b62a8d60345a988386fc84ba6bc95484008f6362f93160ef3e563601f830160051c8101916020841061035b575b601f0160051c01905b81811061034f57506100aa565b60008155600101610342565b9091508190610339565b90607f1690610098565b600080fd5b6040519190601f01601f191682016001600160401b0381118382101761027a5760405256fe608080604052600436101561001357600080fd5b60003560e01c90816301ffc9a7146114645750806306fdde03146113bf578063081812fc14611381578063095ea7b314611292578063162094c41461122657806323b872dd1461120f57806342842e0e146111df57806355c104401461102a578063616c5535146110135780636352211e14610fe357806364f9b0e614610f1957806366a8b8dc14610f0257806370a0823114610eac578063893d20e814610e6757806389da60ac14610c935780638cf5624814610c7057806395d89b4114610ba357806398ab64ae146107ec5780639d17a35c146106d8578063a22cb46514610637578063a35391ac146104f9578063b88d4fde1461048c578063be5e7d8614610439578063c87b56dd14610406578063d30d968d14610284578063d48e638a1461022e578063dd723698146101b35763e985e9c51461015357600080fd5b346101ae5760403660031901126101ae5761016c611563565b610174611579565b9060018060a01b0316600052600560205260406000209060018060a01b0316600052602052602060ff604060002054166040519015158152f35b600080fd5b346101ae5760203660031901126101ae576004356101e36001600160a01b036101db836127a6565b161515612621565b6101f1620f42408210612664565b6000908152600b60205260409020600381019061021a90610214906002016126af565b9161274e565b9061022a604051928392836118e4565b0390f35b346101ae5760203660031901126101ae576004356102566001600160a01b036101db836127a6565b610264620f42408210612664565b600052600b602052602060018060a01b0360406000205416604051908152f35b346101ae5760403660031901126101ae5761029d611563565b602435906000906001600160a01b038116903082036102f357506102d791506001600160a01b0390506102cf836127a6565b1615156119e7565b600052600760205260206004604060002001545b604051908152f35b6040516301ffc9a760e01b8152630204cbd160e51b600482015292939091602084602481845afa9283156103fb5761033860209461036d9688916103ce575b506121d5565b60405163d30d968d60e01b81526001600160a01b03909116600482015260248101929092529092839190829081906044820190565b03915afa9081156103c3578291610389575b50602091506102eb565b90506020813d6020116103bb575b816103a4602093836115aa565b810103126103b75760209150518261037f565b5080fd5b3d9150610397565b6040513d84823e3d90fd5b6103ee9150863d88116103f4575b6103e681836115aa565b8101906121bd565b88610332565b503d6103dc565b6040513d87823e3d90fd5b346101ae5760203660031901126101ae5761022a610425600435612d28565b60405191829160208352602083019061153e565b346101ae5760203660031901126101ae576004356104616001600160a01b036101db836127a6565b61046f620f42408210612664565b600052600b60205260206002604060002001541515604051908152f35b346101ae5760803660031901126101ae576104a5611563565b6104ad611579565b90604435606435926001600160401b0384116101ae57366023850112156101ae576104e56104f79436906024816004013591016115e6565b926104f1838383611a9b565b33612beb565b005b346101ae5760403660031901126101ae57610512611563565b6001600160a01b038116906024359060009030840361055b575061021a925061054790506001600160a01b036102cf836127a6565b612b27565b61022a604051928392836118e4565b918193604051936301ffc9a760e01b8552630204cbd160e51b6004860152602085602481855afa94851561062c576105d29561059d91869161061357506121d5565b6040516328d4e46b60e21b81526001600160a01b03909116600482015260248101929092529092839190829081906044820190565b03915afa9081156103c3578280926105ed575b50509061054c565b90915061060c92503d8091833e61060481836115aa565b810190612231565b82806105e5565b6103ee915060203d6020116103f4576103e681836115aa565b6040513d86823e3d90fd5b346101ae5760403660031901126101ae57610650611563565b602435908115158092036101ae576001600160a01b03169081156106c357336000526005602052604060002082600052602052604060002060ff1981541660ff83161790556040519081527f17307eab39ab6107e8899845ad3d59bd9653f200f220920489ca2b5937696c3160203392a3005b50630b61174360e31b60005260045260246000fd5b346101ae5760203660031901126101ae576004356060806040516106fb8161158f565b60008152602081018290526040810182905201526107236001600160a01b036101db836127a6565b610731620f42408210612664565b600052600b602052604060002060405161074a8161158f565b81546001600160a01b0316815261022a61076660018401611943565b92602083019384526107d96107906003610782600285016126af565b93604087019485520161274e565b91606085019283526107c66040519687966020885260018060a01b039051166020880152516080604088015260a087019061153e565b9051858203601f19016060870152611822565b9051838203601f1901608085015261185f565b346101ae5760803660031901126101ae576004356024356001600160401b0381116101ae5761081f90369060040161161d565b906044356001600160401b0381116101ae5761083f9036906004016116e9565b6064356001600160401b0381116101ae5761085e903690600401611757565b92610893337f00000000000000000000000000000000000000000000000000000000000000006001600160a01b03161461253e565b60405161089f8161158f565b3281526020808201838152604080840186815260608501898152600a546000908152600b90955291909320935184546001600160a01b0319166001600160a01b0391909116178455905180519193929160018401916001600160401b038211610a7457819061090e8454611909565b601f8111610b66575b50602090601f8311600114610b0157600092610af6575b50508160011b916000199060031b1c19161790555b5180519060028301906001600160401b038311610a7457600160401b8311610a7457602090610977848454818655856125e4565b0190600052602060002060005b838110610ad957505050506003019051805190600160401b8211610a74578254828455808310610a8a575b50602001916000526020600020916000905b828210610a165750505050600a546000198114610a00576020946109f59360016109ef9301600a55856123a1565b826127dd565b6102eb813033612b8f565b634e487b7160e01b600052601160045260246000fd5b80518051906001600160401b038211610a7457602090610a368388612607565b0185600052602060002060005b838110610a605750505050600160208192019401910190926109c1565b600190602084519401938184015501610a43565b634e487b7160e01b600052604160045260246000fd5b8360005282602060002091820191015b818110610aa757506109af565b60019080546000825580610abd575b5001610a9a565b610ad390826000526020600020908101906125cd565b8a610ab6565b82516001600160a01b031681830155602090920191600101610984565b015190508a8061092e565b60008581528281209350601f198516905b818110610b4e5750908460019594939210610b35575b505050811b019055610943565b015160001960f88460031b161c191690558a8080610b28565b92936020600181928786015181550195019301610b12565b610b9390856000526020600020601f850160051c81019160208610610b99575b601f0160051c01906125cd565b8b610917565b9091508190610b86565b346101ae5760003660031901126101ae576040516000600154610bc581611909565b8084529060018116908115610c4c5750600114610bed575b61022a83610425818503826115aa565b600160009081527fb10e2d527612073b26eecdfd717e6a320cf44b4afac2b0732d9fcbe2b7fa0cf6939250905b808210610c3257509091508101602001610425610bdd565b919260018160209254838588010152019101909291610c1a565b60ff191660208086019190915291151560051b840190910191506104259050610bdd565b346101ae5760203660031901126101ae576020604051620f424060043510158152f35b346101ae5760603660031901126101ae57610cac611563565b6024359060443590610ce8337f00000000000000000000000000000000000000000000000000000000000000006001600160a01b03161461253e565b6001600160a01b03610cf9846127a6565b1615610e2257604090815193610d0f83866115aa565b60018552601f1983018036602088013730610d2987611c47565b5283516040969091610d3b88846115aa565b600183529186939194928860209950601f190160005b818110610e1057505090610e0a95610d9e92885190610d708a836115aa565b60018252368c83013784610d8382611c47565b52610d8d83611c47565b52610d9782611c47565b50856123a1565b610df0610daa82612d28565b610dea602c885180936b6c6963656e73652d666f722d60a01b8d830152610dd9815180928f868601910161151b565b81010301601f1981018352826115aa565b846127dd565b600052600c8652610e048285600020611cd7565b33612b8f565b51908152f35b60608185018c01528996508a01610d51565b60405162461bcd60e51b815260206004820152601760248201527f536f66747761726520646f6573206e6f742065786973740000000000000000006044820152606490fd5b346101ae5760003660031901126101ae576040517f00000000000000000000000000000000000000000000000000000000000000006001600160a01b03168152602090f35b346101ae5760203660031901126101ae576001600160a01b03610ecd611563565b168015610eec5760005260036020526020604060002054604051908152f35b6322718ad960e21b600052600060045260246000fd5b346101ae576104f7610f13366117d5565b916123a1565b346101ae5760403660031901126101ae57610f32611563565b6001600160a01b0381169060243590600090308403610f6c575061021a9250610f6790506001600160a01b036102cf836127a6565b612a9a565b918193604051936301ffc9a760e01b8552630204cbd160e51b6004860152602085602481855afa94851561062c576105d295610fae91869161061357506121d5565b60405163327cd87360e11b81526001600160a01b03909116600482015260248101929092529092839190829081906044820190565b346101ae5760203660031901126101ae5760206110016004356127a6565b6040516001600160a01b039091168152f35b346101ae576104f7611024366117d5565b91611d0c565b346101ae5760603660031901126101ae57611043611563565b602435906044356001600160401b0381116101ae5761106690369060040161168c565b6001600160a01b03821630811492919060005b82518110156104f75761108c8184611c6a565b51600052600760205260406000209060018201918660406000868152856020522054156111cd575b61116c576004429101541015611109576110dc87604060019460009087825260205220611cd7565b6111036110e98286611c6a565b516110fd6110f78488611c6a565b516127a6565b90612a06565b01611079565b60405162461bcd60e51b815260206004820152603560248201527f4552435f353532313a2074686520726566657272656420724e4654206e65656460448201527439903a37903132903090383932b232b1b2b9b9b7b960591b6064820152608490fd5b60405162461bcd60e51b815260206004820152603360248201527f4552435f353532313a2074686973206d75737420626520616e2065787465726e604482015272616c20636f6e7472616374206164647265737360681b6064820152608490fd5b6111da8760038401611c96565b6110b4565b346101ae576104f76111f03661163b565b90604051926112006020856115aa565b600084526104f1838383611a9b565b346101ae576104f76112203661163b565b91611a9b565b346101ae5760403660031901126101ae576024356004356001600160401b0382116101ae5761125c6104f792369060040161161d565b906112716001600160a01b036102cf836127a6565b61128d61127d826127a6565b6001600160a01b03163314611a33565b6127dd565b346101ae5760403660031901126101ae576112ab611563565b6024356112b7816127a6565b3315158061136e575b80611340575b61132b5781906001600160a01b0384811691167f8c5be1e5ebec7d5bd14f71427d1e84f3dd0314c0f7b2291e5b200ac8c7c3b925600080a4600090815260046020526040902080546001600160a01b0319166001600160a01b03909216919091179055005b63a9fbf51f60e01b6000523360045260246000fd5b506001600160a01b038116600090815260056020908152604080832033845290915290205460ff16156112c6565b506001600160a01b0381163314156112c0565b346101ae5760203660031901126101ae5760043561139e816127a6565b506000526004602052602060018060a01b0360406000205416604051908152f35b346101ae5760003660031901126101ae57604051600080546113e081611909565b8084529060018116908115610c4c57506001146114075761022a83610425818503826115aa565b60008080527f290decd9548b62a8d60345a988386fc84ba6bc95484008f6362f93160ef3e563939250905b80821061144a57509091508101602001610425610bdd565b919260018160209254838588010152019101909291611432565b346101ae5760203660031901126101ae576004359063ffffffff60e01b82168092036101ae576020916374342b5560e01b811490811561150a575b81156114ad575b5015158152f35b632483248360e11b8114915081156114c7575b50836114a6565b6380ac58cd60e01b8114915081156114f9575b81156114e8575b50836114c0565b6301ffc9a760e01b149050836114e1565b635b5e139f60e01b811491506114da565b630204cbd160e51b8114915061149f565b60005b83811061152e5750506000910152565b818101518382015260200161151e565b906020916115578151809281855285808601910161151b565b601f01601f1916010190565b600435906001600160a01b03821682036101ae57565b602435906001600160a01b03821682036101ae57565b608081019081106001600160401b03821117610a7457604052565b90601f801991011681019081106001600160401b03821117610a7457604052565b6001600160401b038111610a7457601f01601f191660200190565b9291926115f2826115cb565b9161160060405193846115aa565b8294818452818301116101ae578281602093846000960137010152565b9080601f830112156101ae57816020611638933591016115e6565b90565b60609060031901126101ae576004356001600160a01b03811681036101ae57906024356001600160a01b03811681036101ae579060443590565b6001600160401b038111610a745760051b60200190565b9080601f830112156101ae5781356116a381611675565b926116b160405194856115aa565b81845260208085019260051b8201019283116101ae57602001905b8282106116d95750505090565b81358152602091820191016116cc565b9080601f830112156101ae5781359061170182611675565b9261170f60405194856115aa565b82845260208085019360051b8201019182116101ae57602001915b8183106117375750505090565b82356001600160a01b03811681036101ae5781526020928301920161172a565b9080601f830112156101ae57813561176e81611675565b9261177c60405194856115aa565b81845260208085019260051b820101918383116101ae5760208201905b8382106117a857505050505090565b81356001600160401b0381116101ae576020916117ca8784809488010161168c565b815201910190611799565b60606003198201126101ae57600435916024356001600160401b0381116101ae5782611803916004016116e9565b91604435906001600160401b0382116101ae5761163891600401611757565b906020808351928381520192019060005b8181106118405750505090565b82516001600160a01b0316845260209384019390920191600101611833565b9080602083519182815201916020808360051b8301019401926000915b83831061188b57505050505090565b9091929394601f19828203018352855190602080835192838152019201906000905b8082106118cc575050506020806001929701930193019193929061187c565b909192602080600192865181520194019201906118ad565b90916118fb61163893604084526040840190611822565b91602081840391015261185f565b90600182811c92168015611939575b602083101461192357565b634e487b7160e01b600052602260045260246000fd5b91607f1691611918565b906040519182600082549261195784611909565b80845293600181169081156119c5575060011461197e575b5061197c925003836115aa565b565b90506000929192526020600020906000915b8183106119a957505090602061197c928201013861196f565b6020919350806001915483858901015201910190918492611990565b90506020925061197c94915060ff191682840152151560051b8201013861196f565b156119ee57565b60405162461bcd60e51b815260206004820152601e60248201527f4552435f353532313a20746f6b656e204944206e6f74206578697374656400006044820152606490fd5b15611a3a57565b60405162461bcd60e51b815260206004820152603360248201527f4552435f353532313a207472616e736665722063616c6c6572206973206e6f74604482015272081bdddb995c881b9bdc88185c1c1c9bdd9959606a1b6064820152608490fd5b6001600160a01b0390911691908215611c31576000828152600260205260408120546001600160a01b0316938391859033151580611b99575b507fddf252ad1be2c89b69c2b068fc378daa952ba7f163c4a11628f55a4df523b3ef9082611b64575b83815260036020526040812060018154019055848152600260205260408120846bffffffffffffffffffffffff60a01b82541617905580a46001600160a01b0316808303611b4a57505050565b6364283d7b60e01b60005260045260245260445260646000fd5b600085815260046020526040902080546001600160a01b03191690558281526003602052604081208054600019019055611afd565b915091925080611be2575b15611bb3579084849238611ad4565b839085611bcc57602491637e27328960e01b8252600452fd5b60449163177e802f60e01b825233600452602452fd5b503385148015611c10575b80611ba45750838152600460205260408120546001600160a01b03163314611ba4565b5084815260056020908152604080832033845290915281205460ff16611bed565b633250574960e11b600052600060045260246000fd5b805115611c545760200190565b634e487b7160e01b600052603260045260246000fd5b8051821015611c545760209160051b010190565b8054821015611c545760005260206000200190600090565b8054600160401b811015610a7457611cb391600182018155611c7e565b81546001600160a01b0393841660039290921b91821b9390911b1916919091179055565b8054600160401b811015610a7457611cf491600182018155611c7e565b819291549060031b91821b91600019901b1916179055565b9281518351036121595760005b8351811015611d9557611d2c8185611c6a565b515115611d3b57600101611d19565b60405162461bcd60e51b815260206004820152602c60248201527f4552435f353532313a2074686520726566657272696e67206c6973742063616e60448201526b6e6f7420626520656d70747960a01b6064820152608490fd5b5091929092611da661127d836127a6565b81600052600760205260406000209160005b8551811015611e9e5760406001600160a01b03611dd58389611c6a565b51166001600160a01b031660009081526020869052205415611e79575b611dfc8184611c6a565b5160406001600160a01b03611e11848a611c6a565b51166001600160a01b031660009081526020879052208151916001600160401b038311610a7457602090611e458484612607565b0190600052602060002060005b838110611e655750505050600101611db8565b600190602084519401938184015501611e52565b611e996001600160a01b03611e8e8389611c6a565b511660028601611c96565b611df2565b509391600442910155611eb13385612a06565b60005b825181101561215257306001600160a01b03611ed08386611c6a565b51160361202e57309360005b611ee68385611c6a565b515181101561202157611f0381611efd8587611c6a565b51611c6a565b51600090815260076020526040908190206001810192916001600160a01b03611f2c878a611c6a565b51166001600160a01b031660009081526020859052205415611ffc575b611f5782611efd8789611c6a565b518914611fab57600442910154101561110957611f828860406001946000908b825260205220611cd7565b611fa5611f9382611efd8789611c6a565b516110fd6110f784611efd898b611c6a565b01611edc565b60405162461bcd60e51b8152602060048201526024808201527f4552435f353532313a2073656c662d7265666572656e6365206e6f7420616c6c6044820152631bddd95960e21b6064820152608490fd5b61201c6001600160a01b03612011878a611c6a565b511660038301611c96565b611f49565b5093506001905b01611eb4565b6001600160a01b036120408285611c6a565b516040516301ffc9a760e01b8152630204cbd160e51b600482015291169190602081602481865afa90811561210c57600091612134575b50612086575b60019150612028565b6120908184611c6a565b5191803b156101ae576040518093630157041160e61b8252606482013060048401528960248401526060604484015281518091526020608484019201906000905b808210612118575050509181600081819503925af191821561210c576001926120fb575b5061207d565b6000612106916115aa565b386120f5565b6040513d6000823e3d90fd5b91935091602080600192865181520194019201869392916120d1565b61214c915060203d81116103f4576103e681836115aa565b38612077565b5050509050565b60405162461bcd60e51b815260206004820152603660248201527f41646472657373657320616e6420546f6b656e494420617272617973206d75736044820152750e840d0c2ecca40e8d0ca40e6c2daca40d8cadccee8d60531b6064820152608490fd5b908160209103126101ae575180151581036101ae5790565b156121dc57565b60405162461bcd60e51b815260206004820152602760248201527f4552435f353532313a2074617267657420636f6e7472616374206e6f742073756044820152661c1c1bdc9d195960ca1b6064820152608490fd5b91906040838203126101ae5782516001600160401b0381116101ae57830181601f820112156101ae57805161226581611675565b9161227360405193846115aa565b81835260208084019260051b820101908482116101ae57602001915b81831061238157505050926020810151906001600160401b0382116101ae57019080601f830112156101ae578151906122c782611675565b926122d560405194856115aa565b82845260208085019360051b820101908282116101ae5760208101935b82851061230157505050505090565b84516001600160401b0381116101ae57820184603f820112156101ae5760208101519061232d82611675565b9161233b60405193846115aa565b8083526020808085019260051b84010101918783116101ae57604001905b828210612371575050508152602094850194016122f2565b8151815260209182019101612359565b82516001600160a01b03811681036101ae5781526020928301920161228f565b9092916020936040516123b486826115aa565b600081523315611c31576001600160a01b036123d08533612938565b1661252857333b612408575b50908092939450511515806123fe575b6123f557505050565b61197c92611d0c565b50805115156123ec565b856124429160405180938192630a85bd0160e11b83523360048401526000602484015288604484015260806064840152608483019061153e565b03816000335af180916000916124e7575b50906124a957853d156124a2573d61246a816115cb565b9061247860405192836115aa565b81523d60008383013e5b8051918261249f57633250574960e11b6000523360045260246000fd5b01fd5b6060612482565b93945091929091906001600160e01b03191663757a42ff60e11b016124d25790839291386123dc565b633250574960e11b6000523360045260246000fd5b8781813d8311612521575b6124fc81836115aa565b810103126103b75751906001600160e01b03198216820361251e575038612453565b80fd5b503d6124f2565b6339e3563760e11b600052600060045260246000fd5b1561254557565b60405162461bcd60e51b81526020600482015260166024820152752737ba103a34329031b7b73a3930b1ba1037bbb732b960511b6044820152606490fd5b9061258d82611675565b61259a60405191826115aa565b82815280926125ab601f1991611675565b019060005b8281106125bc57505050565b8060606020809385010152016125b0565b8181106125d8575050565b600081556001016125cd565b918181106125f157505050565b61197c92600052602060002091820191016125cd565b90600160401b8111610a7457815481835561197c926125e4565b1561262857565b60405162461bcd60e51b8152602060048201526014602482015273151bdad95b88191bd95cc81b9bdd08195e1a5cdd60621b6044820152606490fd5b1561266b57565b606460405162461bcd60e51b815260206004820152602060248201527f546f6b656e2069732061206c6963656e73652c206e6f7420736f6674776172656044820152fd5b906040519182815491828252602082019060005260206000209260005b8181106126e157505061197c925003836115aa565b84546001600160a01b03168352600194850194879450602090930192016126cc565b906040519182815491828252602082019060005260206000209260005b81811061273557505061197c925003836115aa565b8454835260019485019487945060209093019201612720565b90815461275a81611675565b9261276860405194856115aa565b818452602084019060005260206000206000915b8383106127895750505050565b60016020819261279885612703565b81520192019201919061277c565b6000818152600260205260409020546001600160a01b03169081156127c9575090565b637e27328960e01b60005260045260246000fd5b919091806000526006602052604060002083516001600160401b038111610a74576128088254611909565b601f8111612906575b506020601f821160011461287a57908060209493927ff8e1a15aba9398e019f0b49df1a4fde98ee17ae345cb5f6b5e2c27f5033e8ce7969760009261286f575b50508160011b916000199060031b1c19161790555b604051908152a1565b015190503880612851565b601f1982169583600052816000209660005b8181106128ee575096600192849260209796957ff8e1a15aba9398e019f0b49df1a4fde98ee17ae345cb5f6b5e2c27f5033e8ce7999a106128d5575b505050811b019055612866565b015160001960f88460031b161c191690553880806128c8565b8383015189556001909801976020938401930161288c565b61293290836000526020600020601f840160051c81019160208510610b9957601f0160051c01906125cd565b38612811565b6000828152600260205260409020546001600160a01b03169190826129cf575b6001600160a01b0316806129b5575b8160005260026020526040600020816bffffffffffffffffffffffff60a01b825416179055827fddf252ad1be2c89b69c2b068fc378daa952ba7f163c4a11628f55a4df523b3ef600080a490565b806000526003602052604060002060018154019055612967565b600082815260046020526040902080546001600160a01b031916905582600052600360205260406000206000198154019055612958565b7f81bed52c04e8cd65796985202162bad7e20a8ffaa732fe2e0a0bc79f687e4d66612a60612a7c612a95612a6e95612a3d86612b27565b612a4988959295612a9a565b999091604051978897608089526080890190611822565b90878203602089015261185f565b908582036040870152611822565b83810360608501526001600160a01b039091169661185f565b0390a3565b600090815260076020526040902090612ab5600383016126af565b91612ac08351612583565b92600160009201915b8151811015612b2057600190612b0460406001600160a01b03612aec8487611c6a565b5116600090858060a01b031681528660205220612703565b612b0e8288611c6a565b52612b198187611c6a565b5001612ac9565b5090509190565b6000526007602052604060002090612b41600283016126af565b91612b4c8351612583565b9260005b8151811015612b2057600190612b7360406001600160a01b03612aec8487611c6a565b612b7d8288611c6a565b52612b888187611c6a565b5001612b50565b919291906001600160a01b03811615611c31576001600160a01b0390612bb6908590612938565b169081612bd25783637e27328960e01b60005260045260246000fd5b919290916001600160a01b0316808303611b4a57505050565b823b612bf9575b5050505050565b604051630a85bd0160e11b81526001600160a01b039182166004820152918116602483015260448201939093526080606482015291169160209082908190612c4590608483019061153e565b03816000865af18091600091612ce5575b5090612caf57503d15612ca8573d612c6d816115cb565b90612c7b60405192836115aa565b81523d6000602083013e5b80519081612ca35782633250574960e11b60005260045260246000fd5b602001fd5b6060612c86565b6001600160e01b03191663757a42ff60e11b01612cd157503880808080612bf2565b633250574960e11b60005260045260246000fd5b6020813d602011612d20575b81612cfe602093836115aa565b810103126103b75751906001600160e01b03198216820361251e575038612c56565b3d9150612cf1565b612d31816127a6565b506000526006602052612d476040600020611943565b6000604051612d576020826115aa565b529056fea2646970667358221220070eec9853d5162bcded9923ae30d2fac6b4236b457b075467da5f3f17ba9f5d64736f6c634300081c0033","opcodes":"PUSH1 0xA0 PUSH1 0x40 MSTORE CALLVALUE PUSH2 0x36F JUMPI PUSH2 0x312B PUSH1 0x20 DUP2 CODESIZE SUB SWAP2 DUP3 PUSH2 0x1C DUP2 PUSH2 0x374 JUMP JUMPDEST SWAP4 DUP5 SWAP3 DUP4 CODECOPY DUP2 ADD SUB SLT PUSH2 0x36F JUMPI MLOAD PUSH1 0x1 PUSH1 0x1 PUSH1 0xA0 SHL SUB DUP2 AND DUP2 SUB PUSH2 0x36F JUMPI PUSH2 0x44 PUSH1 0x40 PUSH2 0x374 JUMP JUMPDEST SWAP1 PUSH1 0x8 DUP3 MSTORE PUSH8 0x536F667477617265 PUSH1 0xC0 SHL PUSH1 0x20 DUP4 ADD MSTORE PUSH2 0x64 PUSH1 0x40 PUSH2 0x374 JUMP JUMPDEST PUSH1 0x3 DUP2 MSTORE PUSH3 0x29A7A3 PUSH1 0xE9 SHL PUSH1 0x20 DUP3 ADD MSTORE DUP3 MLOAD SWAP1 SWAP2 SWAP1 PUSH1 0x1 PUSH1 0x1 PUSH1 0x40 SHL SUB DUP2 GT PUSH2 0x27A JUMPI PUSH1 0x0 SLOAD PUSH1 0x1 DUP2 DUP2 SHR SWAP2 AND DUP1 ISZERO PUSH2 0x365 JUMPI JUMPDEST PUSH1 0x20 DUP3 LT EQ PUSH2 0x25A JUMPI PUSH1 0x1F DUP2 GT PUSH2 0x301 JUMPI JUMPDEST POP PUSH1 0x20 PUSH1 0x1F DUP3 GT PUSH1 0x1 EQ PUSH2 0x29B JUMPI DUP2 SWAP3 SWAP4 SWAP5 PUSH1 0x0 SWAP3 PUSH2 0x290 JUMPI JUMPDEST POP POP DUP2 PUSH1 0x1 SHL SWAP2 PUSH1 0x0 NOT SWAP1 PUSH1 0x3 SHL SHR NOT AND OR PUSH1 0x0 SSTORE JUMPDEST DUP2 MLOAD PUSH1 0x1 PUSH1 0x1 PUSH1 0x40 SHL SUB DUP2 GT PUSH2 0x27A JUMPI PUSH1 0x1 SLOAD PUSH1 0x1 DUP2 DUP2 SHR SWAP2 AND DUP1 ISZERO PUSH2 0x270 JUMPI JUMPDEST PUSH1 0x20 DUP3 LT EQ PUSH2 0x25A JUMPI PUSH1 0x1F DUP2 GT PUSH2 0x1F5 JUMPI JUMPDEST POP PUSH1 0x20 SWAP3 PUSH1 0x1F DUP3 GT PUSH1 0x1 EQ PUSH2 0x190 JUMPI SWAP3 DUP2 SWAP3 SWAP4 PUSH1 0x0 SWAP3 PUSH2 0x185 JUMPI JUMPDEST POP POP DUP2 PUSH1 0x1 SHL SWAP2 PUSH1 0x0 NOT SWAP1 PUSH1 0x3 SHL SHR NOT AND OR PUSH1 0x1 SSTORE JUMPDEST PUSH1 0x8 DUP1 SLOAD PUSH1 0x1 PUSH1 0x1 PUSH1 0xA0 SHL SUB NOT AND CALLER OR SWAP1 SSTORE PUSH3 0xF4240 PUSH1 0x9 SSTORE PUSH1 0x0 PUSH1 0xA SSTORE PUSH1 0x80 MSTORE PUSH1 0x40 MLOAD PUSH2 0x2D91 SWAP1 DUP2 PUSH2 0x39A DUP3 CODECOPY PUSH1 0x80 MLOAD DUP2 DUP2 DUP2 PUSH2 0x865 ADD MSTORE DUP2 DUP2 PUSH2 0xCBA ADD MSTORE PUSH2 0xE7D ADD MSTORE RETURN JUMPDEST ADD MLOAD SWAP1 POP CODESIZE DUP1 PUSH2 0x128 JUMP JUMPDEST PUSH1 0x1F NOT DUP3 AND SWAP4 PUSH1 0x1 PUSH1 0x0 MSTORE DUP1 PUSH1 0x0 KECCAK256 SWAP2 PUSH1 0x0 JUMPDEST DUP7 DUP2 LT PUSH2 0x1DD JUMPI POP DUP4 PUSH1 0x1 SWAP6 SWAP7 LT PUSH2 0x1C4 JUMPI JUMPDEST POP POP POP DUP2 SHL ADD PUSH1 0x1 SSTORE PUSH2 0x13E JUMP JUMPDEST ADD MLOAD PUSH1 0x0 NOT PUSH1 0xF8 DUP5 PUSH1 0x3 SHL AND SHR NOT AND SWAP1 SSTORE CODESIZE DUP1 DUP1 PUSH2 0x1B6 JUMP JUMPDEST SWAP2 SWAP3 PUSH1 0x20 PUSH1 0x1 DUP2 SWAP3 DUP7 DUP6 ADD MLOAD DUP2 SSTORE ADD SWAP5 ADD SWAP3 ADD PUSH2 0x1A3 JUMP JUMPDEST PUSH1 0x1 PUSH1 0x0 MSTORE PUSH32 0xB10E2D527612073B26EECDFD717E6A320CF44B4AFAC2B0732D9FCBE2B7FA0CF6 PUSH1 0x1F DUP4 ADD PUSH1 0x5 SHR DUP2 ADD SWAP2 PUSH1 0x20 DUP5 LT PUSH2 0x250 JUMPI JUMPDEST PUSH1 0x1F ADD PUSH1 0x5 SHR ADD SWAP1 JUMPDEST DUP2 DUP2 LT PUSH2 0x244 JUMPI POP PUSH2 0x10D JUMP JUMPDEST PUSH1 0x0 DUP2 SSTORE PUSH1 0x1 ADD PUSH2 0x237 JUMP JUMPDEST SWAP1 SWAP2 POP DUP2 SWAP1 PUSH2 0x22E JUMP JUMPDEST PUSH4 0x4E487B71 PUSH1 0xE0 SHL PUSH1 0x0 MSTORE PUSH1 0x22 PUSH1 0x4 MSTORE PUSH1 0x24 PUSH1 0x0 REVERT JUMPDEST SWAP1 PUSH1 0x7F AND SWAP1 PUSH2 0xFB JUMP JUMPDEST PUSH4 0x4E487B71 PUSH1 0xE0 SHL PUSH1 0x0 MSTORE PUSH1 0x41 PUSH1 0x4 MSTORE PUSH1 0x24 PUSH1 0x0 REVERT JUMPDEST ADD MLOAD SWAP1 POP CODESIZE DUP1 PUSH2 0xC4 JUMP JUMPDEST PUSH1 0x1F NOT DUP3 AND SWAP1 PUSH1 0x0 DUP1 MSTORE DUP1 PUSH1 0x0 KECCAK256 SWAP2 PUSH1 0x0 JUMPDEST DUP2 DUP2 LT PUSH2 0x2E9 JUMPI POP SWAP6 DUP4 PUSH1 0x1 SWAP6 SWAP7 SWAP8 LT PUSH2 0x2D0 JUMPI JUMPDEST POP POP POP DUP2 SHL ADD PUSH1 0x0 SSTORE PUSH2 0xDA JUMP JUMPDEST ADD MLOAD PUSH1 0x0 NOT PUSH1 0xF8 DUP5 PUSH1 0x3 SHL AND SHR NOT AND SWAP1 SSTORE CODESIZE DUP1 DUP1 PUSH2 0x2C2 JUMP JUMPDEST SWAP2 SWAP3 PUSH1 0x20 PUSH1 0x1 DUP2 SWAP3 DUP7 DUP12 ADD MLOAD DUP2 SSTORE ADD SWAP5 ADD SWAP3 ADD PUSH2 0x2AD JUMP JUMPDEST PUSH1 0x0 DUP1 MSTORE PUSH32 0x290DECD9548B62A8D60345A988386FC84BA6BC95484008F6362F93160EF3E563 PUSH1 0x1F DUP4 ADD PUSH1 0x5 SHR DUP2 ADD SWAP2 PUSH1 0x20 DUP5 LT PUSH2 0x35B JUMPI JUMPDEST PUSH1 0x1F ADD PUSH1 0x5 SHR ADD SWAP1 JUMPDEST DUP2 DUP2 LT PUSH2 0x34F JUMPI POP PUSH2 0xAA JUMP JUMPDEST PUSH1 0x0 DUP2 SSTORE PUSH1 0x1 ADD PUSH2 0x342 JUMP JUMPDEST SWAP1 SWAP2 POP DUP2 SWAP1 PUSH2 0x339 JUMP JUMPDEST SWAP1 PUSH1 0x7F AND SWAP1 PUSH2 0x98 JUMP JUMPDEST PUSH1 0x0 DUP1 REVERT JUMPDEST PUSH1 0x40 MLOAD SWAP2 SWAP1 PUSH1 0x1F ADD PUSH1 0x1F NOT AND DUP3 ADD PUSH1 0x1 PUSH1 0x1 PUSH1 0x40 SHL SUB DUP2 GT DUP4 DUP3 LT OR PUSH2 0x27A JUMPI PUSH1 0x40 MSTORE JUMP INVALID PUSH1 0x80 DUP1 PUSH1 0x40 MSTORE PUSH1 0x4 CALLDATASIZE LT ISZERO PUSH2 0x13 JUMPI PUSH1 0x0 DUP1 REVERT JUMPDEST PUSH1 0x0 CALLDATALOAD PUSH1 0xE0 SHR SWAP1 DUP2 PUSH4 0x1FFC9A7 EQ PUSH2 0x1464 JUMPI POP DUP1 PUSH4 0x6FDDE03 EQ PUSH2 0x13BF JUMPI DUP1 PUSH4 0x81812FC EQ PUSH2 0x1381 JUMPI DUP1 PUSH4 0x95EA7B3 EQ PUSH2 0x1292 JUMPI DUP1 PUSH4 0x162094C4 EQ PUSH2 0x1226 JUMPI DUP1 PUSH4 0x23B872DD EQ PUSH2 0x120F JUMPI DUP1 PUSH4 0x42842E0E EQ PUSH2 0x11DF JUMPI DUP1 PUSH4 0x55C10440 EQ PUSH2 0x102A JUMPI DUP1 PUSH4 0x616C5535 EQ PUSH2 0x1013 JUMPI DUP1 PUSH4 0x6352211E EQ PUSH2 0xFE3 JUMPI DUP1 PUSH4 0x64F9B0E6 EQ PUSH2 0xF19 JUMPI DUP1 PUSH4 0x66A8B8DC EQ PUSH2 0xF02 JUMPI DUP1 PUSH4 0x70A08231 EQ PUSH2 0xEAC JUMPI DUP1 PUSH4 0x893D20E8 EQ PUSH2 0xE67 JUMPI DUP1 PUSH4 0x89DA60AC EQ PUSH2 0xC93 JUMPI DUP1 PUSH4 0x8CF56248 EQ PUSH2 0xC70 JUMPI DUP1 PUSH4 0x95D89B41 EQ PUSH2 0xBA3 JUMPI DUP1 PUSH4 0x98AB64AE EQ PUSH2 0x7EC JUMPI DUP1 PUSH4 0x9D17A35C EQ PUSH2 0x6D8 JUMPI DUP1 PUSH4 0xA22CB465 EQ PUSH2 0x637 JUMPI DUP1 PUSH4 0xA35391AC EQ PUSH2 0x4F9 JUMPI DUP1 PUSH4 0xB88D4FDE EQ PUSH2 0x48C JUMPI DUP1 PUSH4 0xBE5E7D86 EQ PUSH2 0x439 JUMPI DUP1 PUSH4 0xC87B56DD EQ PUSH2 0x406 JUMPI DUP1 PUSH4 0xD30D968D EQ PUSH2 0x284 JUMPI DUP1 PUSH4 0xD48E638A EQ PUSH2 0x22E JUMPI DUP1 PUSH4 0xDD723698 EQ PUSH2 0x1B3 JUMPI PUSH4 0xE985E9C5 EQ PUSH2 0x153 JUMPI PUSH1 0x0 DUP1 REVERT JUMPDEST CALLVALUE PUSH2 0x1AE JUMPI PUSH1 0x40 CALLDATASIZE PUSH1 0x3 NOT ADD SLT PUSH2 0x1AE JUMPI PUSH2 0x16C PUSH2 0x1563 JUMP JUMPDEST PUSH2 0x174 PUSH2 0x1579 JUMP JUMPDEST SWAP1 PUSH1 0x1 DUP1 PUSH1 0xA0 SHL SUB AND PUSH1 0x0 MSTORE PUSH1 0x5 PUSH1 0x20 MSTORE PUSH1 0x40 PUSH1 0x0 KECCAK256 SWAP1 PUSH1 0x1 DUP1 PUSH1 0xA0 SHL SUB AND PUSH1 0x0 MSTORE PUSH1 0x20 MSTORE PUSH1 0x20 PUSH1 0xFF PUSH1 0x40 PUSH1 0x0 KECCAK256 SLOAD AND PUSH1 0x40 MLOAD SWAP1 ISZERO ISZERO DUP2 MSTORE RETURN JUMPDEST PUSH1 0x0 DUP1 REVERT JUMPDEST CALLVALUE PUSH2 0x1AE JUMPI PUSH1 0x20 CALLDATASIZE PUSH1 0x3 NOT ADD SLT PUSH2 0x1AE JUMPI PUSH1 0x4 CALLDATALOAD PUSH2 0x1E3 PUSH1 0x1 PUSH1 0x1 PUSH1 0xA0 SHL SUB PUSH2 0x1DB DUP4 PUSH2 0x27A6 JUMP JUMPDEST AND ISZERO ISZERO PUSH2 0x2621 JUMP JUMPDEST PUSH2 0x1F1 PUSH3 0xF4240 DUP3 LT PUSH2 0x2664 JUMP JUMPDEST PUSH1 0x0 SWAP1 DUP2 MSTORE PUSH1 0xB PUSH1 0x20 MSTORE PUSH1 0x40 SWAP1 KECCAK256 PUSH1 0x3 DUP2 ADD SWAP1 PUSH2 0x21A SWAP1 PUSH2 0x214 SWAP1 PUSH1 0x2 ADD PUSH2 0x26AF JUMP JUMPDEST SWAP2 PUSH2 0x274E JUMP JUMPDEST SWAP1 PUSH2 0x22A PUSH1 0x40 MLOAD SWAP3 DUP4 SWAP3 DUP4 PUSH2 0x18E4 JUMP JUMPDEST SUB SWAP1 RETURN JUMPDEST CALLVALUE PUSH2 0x1AE JUMPI PUSH1 0x20 CALLDATASIZE PUSH1 0x3 NOT ADD SLT PUSH2 0x1AE JUMPI PUSH1 0x4 CALLDATALOAD PUSH2 0x256 PUSH1 0x1 PUSH1 0x1 PUSH1 0xA0 SHL SUB PUSH2 0x1DB DUP4 PUSH2 0x27A6 JUMP JUMPDEST PUSH2 0x264 PUSH3 0xF4240 DUP3 LT PUSH2 0x2664 JUMP JUMPDEST PUSH1 0x0 MSTORE PUSH1 0xB PUSH1 0x20 MSTORE PUSH1 0x20 PUSH1 0x1 DUP1 PUSH1 0xA0 SHL SUB PUSH1 0x40 PUSH1 0x0 KECCAK256 SLOAD AND PUSH1 0x40 MLOAD SWAP1 DUP2 MSTORE RETURN JUMPDEST CALLVALUE PUSH2 0x1AE JUMPI PUSH1 0x40 CALLDATASIZE PUSH1 0x3 NOT ADD SLT PUSH2 0x1AE JUMPI PUSH2 0x29D PUSH2 0x1563 JUMP JUMPDEST PUSH1 0x24 CALLDATALOAD SWAP1 PUSH1 0x0 SWAP1 PUSH1 0x1 PUSH1 0x1 PUSH1 0xA0 SHL SUB DUP2 AND SWAP1 ADDRESS DUP3 SUB PUSH2 0x2F3 JUMPI POP PUSH2 0x2D7 SWAP2 POP PUSH1 0x1 PUSH1 0x1 PUSH1 0xA0 SHL SUB SWAP1 POP PUSH2 0x2CF DUP4 PUSH2 0x27A6 JUMP JUMPDEST AND ISZERO ISZERO PUSH2 0x19E7 JUMP JUMPDEST PUSH1 0x0 MSTORE PUSH1 0x7 PUSH1 0x20 MSTORE PUSH1 0x20 PUSH1 0x4 PUSH1 0x40 PUSH1 0x0 KECCAK256 ADD SLOAD JUMPDEST PUSH1 0x40 MLOAD SWAP1 DUP2 MSTORE RETURN JUMPDEST PUSH1 0x40 MLOAD PUSH4 0x1FFC9A7 PUSH1 0xE0 SHL DUP2 MSTORE PUSH4 0x204CBD1 PUSH1 0xE5 SHL PUSH1 0x4 DUP3 ADD MSTORE SWAP3 SWAP4 SWAP1 SWAP2 PUSH1 0x20 DUP5 PUSH1 0x24 DUP2 DUP5 GAS STATICCALL SWAP3 DUP4 ISZERO PUSH2 0x3FB JUMPI PUSH2 0x338 PUSH1 0x20 SWAP5 PUSH2 0x36D SWAP7 DUP9 SWAP2 PUSH2 0x3CE JUMPI JUMPDEST POP PUSH2 0x21D5 JUMP JUMPDEST PUSH1 0x40 MLOAD PUSH4 0xD30D968D PUSH1 0xE0 SHL DUP2 MSTORE PUSH1 0x1 PUSH1 0x1 PUSH1 0xA0 SHL SUB SWAP1 SWAP2 AND PUSH1 0x4 DUP3 ADD MSTORE PUSH1 0x24 DUP2 ADD SWAP3 SWAP1 SWAP3 MSTORE SWAP1 SWAP3 DUP4 SWAP2 SWAP1 DUP3 SWAP1 DUP2 SWAP1 PUSH1 0x44 DUP3 ADD SWAP1 JUMP JUMPDEST SUB SWAP2 GAS STATICCALL SWAP1 DUP2 ISZERO PUSH2 0x3C3 JUMPI DUP3 SWAP2 PUSH2 0x389 JUMPI JUMPDEST POP PUSH1 0x20 SWAP2 POP PUSH2 0x2EB JUMP JUMPDEST SWAP1 POP PUSH1 0x20 DUP2 RETURNDATASIZE PUSH1 0x20 GT PUSH2 0x3BB JUMPI JUMPDEST DUP2 PUSH2 0x3A4 PUSH1 0x20 SWAP4 DUP4 PUSH2 0x15AA JUMP JUMPDEST DUP2 ADD SUB SLT PUSH2 0x3B7 JUMPI PUSH1 0x20 SWAP2 POP MLOAD DUP3 PUSH2 0x37F JUMP JUMPDEST POP DUP1 REVERT JUMPDEST RETURNDATASIZE SWAP2 POP PUSH2 0x397 JUMP JUMPDEST PUSH1 0x40 MLOAD RETURNDATASIZE DUP5 DUP3 RETURNDATACOPY RETURNDATASIZE SWAP1 REVERT JUMPDEST PUSH2 0x3EE SWAP2 POP DUP7 RETURNDATASIZE DUP9 GT PUSH2 0x3F4 JUMPI JUMPDEST PUSH2 0x3E6 DUP2 DUP4 PUSH2 0x15AA JUMP JUMPDEST DUP2 ADD SWAP1 PUSH2 0x21BD JUMP JUMPDEST DUP9 PUSH2 0x332 JUMP JUMPDEST POP RETURNDATASIZE PUSH2 0x3DC JUMP JUMPDEST PUSH1 0x40 MLOAD RETURNDATASIZE DUP8 DUP3 RETURNDATACOPY RETURNDATASIZE SWAP1 REVERT JUMPDEST CALLVALUE PUSH2 0x1AE JUMPI PUSH1 0x20 CALLDATASIZE PUSH1 0x3 NOT ADD SLT PUSH2 0x1AE JUMPI PUSH2 0x22A PUSH2 0x425 PUSH1 0x4 CALLDATALOAD PUSH2 0x2D28 JUMP JUMPDEST PUSH1 0x40 MLOAD SWAP2 DUP3 SWAP2 PUSH1 0x20 DUP4 MSTORE PUSH1 0x20 DUP4 ADD SWAP1 PUSH2 0x153E JUMP JUMPDEST CALLVALUE PUSH2 0x1AE JUMPI PUSH1 0x20 CALLDATASIZE PUSH1 0x3 NOT ADD SLT PUSH2 0x1AE JUMPI PUSH1 0x4 CALLDATALOAD PUSH2 0x461 PUSH1 0x1 PUSH1 0x1 PUSH1 0xA0 SHL SUB PUSH2 0x1DB DUP4 PUSH2 0x27A6 JUMP JUMPDEST PUSH2 0x46F PUSH3 0xF4240 DUP3 LT PUSH2 0x2664 JUMP JUMPDEST PUSH1 0x0 MSTORE PUSH1 0xB PUSH1 0x20 MSTORE PUSH1 0x20 PUSH1 0x2 PUSH1 0x40 PUSH1 0x0 KECCAK256 ADD SLOAD ISZERO ISZERO PUSH1 0x40 MLOAD SWAP1 DUP2 MSTORE RETURN JUMPDEST CALLVALUE PUSH2 0x1AE JUMPI PUSH1 0x80 CALLDATASIZE PUSH1 0x3 NOT ADD SLT PUSH2 0x1AE JUMPI PUSH2 0x4A5 PUSH2 0x1563 JUMP JUMPDEST PUSH2 0x4AD PUSH2 0x1579 JUMP JUMPDEST SWAP1 PUSH1 0x44 CALLDATALOAD PUSH1 0x64 CALLDATALOAD SWAP3 PUSH1 0x1 PUSH1 0x1 PUSH1 0x40 SHL SUB DUP5 GT PUSH2 0x1AE JUMPI CALLDATASIZE PUSH1 0x23 DUP6 ADD SLT ISZERO PUSH2 0x1AE JUMPI PUSH2 0x4E5 PUSH2 0x4F7 SWAP5 CALLDATASIZE SWAP1 PUSH1 0x24 DUP2 PUSH1 0x4 ADD CALLDATALOAD SWAP2 ADD PUSH2 0x15E6 JUMP JUMPDEST SWAP3 PUSH2 0x4F1 DUP4 DUP4 DUP4 PUSH2 0x1A9B JUMP JUMPDEST CALLER PUSH2 0x2BEB JUMP JUMPDEST STOP JUMPDEST CALLVALUE PUSH2 0x1AE JUMPI PUSH1 0x40 CALLDATASIZE PUSH1 0x3 NOT ADD SLT PUSH2 0x1AE JUMPI PUSH2 0x512 PUSH2 0x1563 JUMP JUMPDEST PUSH1 0x1 PUSH1 0x1 PUSH1 0xA0 SHL SUB DUP2 AND SWAP1 PUSH1 0x24 CALLDATALOAD SWAP1 PUSH1 0x0 SWAP1 ADDRESS DUP5 SUB PUSH2 0x55B JUMPI POP PUSH2 0x21A SWAP3 POP PUSH2 0x547 SWAP1 POP PUSH1 0x1 PUSH1 0x1 PUSH1 0xA0 SHL SUB PUSH2 0x2CF DUP4 PUSH2 0x27A6 JUMP JUMPDEST PUSH2 0x2B27 JUMP JUMPDEST PUSH2 0x22A PUSH1 0x40 MLOAD SWAP3 DUP4 SWAP3 DUP4 PUSH2 0x18E4 JUMP JUMPDEST SWAP2 DUP2 SWAP4 PUSH1 0x40 MLOAD SWAP4 PUSH4 0x1FFC9A7 PUSH1 0xE0 SHL DUP6 MSTORE PUSH4 0x204CBD1 PUSH1 0xE5 SHL PUSH1 0x4 DUP7 ADD MSTORE PUSH1 0x20 DUP6 PUSH1 0x24 DUP2 DUP6 GAS STATICCALL SWAP5 DUP6 ISZERO PUSH2 0x62C JUMPI PUSH2 0x5D2 SWAP6 PUSH2 0x59D SWAP2 DUP7 SWAP2 PUSH2 0x613 JUMPI POP PUSH2 0x21D5 JUMP JUMPDEST PUSH1 0x40 MLOAD PUSH4 0x28D4E46B PUSH1 0xE2 SHL DUP2 MSTORE PUSH1 0x1 PUSH1 0x1 PUSH1 0xA0 SHL SUB SWAP1 SWAP2 AND PUSH1 0x4 DUP3 ADD MSTORE PUSH1 0x24 DUP2 ADD SWAP3 SWAP1 SWAP3 MSTORE SWAP1 SWAP3 DUP4 SWAP2 SWAP1 DUP3 SWAP1 DUP2 SWAP1 PUSH1 0x44 DUP3 ADD SWAP1 JUMP JUMPDEST SUB SWAP2 GAS STATICCALL SWAP1 DUP2 ISZERO PUSH2 0x3C3 JUMPI DUP3 DUP1 SWAP3 PUSH2 0x5ED JUMPI JUMPDEST POP POP SWAP1 PUSH2 0x54C JUMP JUMPDEST SWAP1 SWAP2 POP PUSH2 0x60C SWAP3 POP RETURNDATASIZE DUP1 SWAP2 DUP4 RETURNDATACOPY PUSH2 0x604 DUP2 DUP4 PUSH2 0x15AA JUMP JUMPDEST DUP2 ADD SWAP1 PUSH2 0x2231 JUMP JUMPDEST DUP3 DUP1 PUSH2 0x5E5 JUMP JUMPDEST PUSH2 0x3EE SWAP2 POP PUSH1 0x20 RETURNDATASIZE PUSH1 0x20 GT PUSH2 0x3F4 JUMPI PUSH2 0x3E6 DUP2 DUP4 PUSH2 0x15AA JUMP JUMPDEST PUSH1 0x40 MLOAD RETURNDATASIZE DUP7 DUP3 RETURNDATACOPY RETURNDATASIZE SWAP1 REVERT JUMPDEST CALLVALUE PUSH2 0x1AE JUMPI PUSH1 0x40 CALLDATASIZE PUSH1 0x3 NOT ADD SLT PUSH2 0x1AE JUMPI PUSH2 0x650 PUSH2 0x1563 JUMP JUMPDEST PUSH1 0x24 CALLDATALOAD SWAP1 DUP2 ISZERO ISZERO DUP1 SWAP3 SUB PUSH2 0x1AE JUMPI PUSH1 0x1 PUSH1 0x1 PUSH1 0xA0 SHL SUB AND SWAP1 DUP2 ISZERO PUSH2 0x6C3 JUMPI CALLER PUSH1 0x0 MSTORE PUSH1 0x5 PUSH1 0x20 MSTORE PUSH1 0x40 PUSH1 0x0 KECCAK256 DUP3 PUSH1 0x0 MSTORE PUSH1 0x20 MSTORE PUSH1 0x40 PUSH1 0x0 KECCAK256 PUSH1 0xFF NOT DUP2 SLOAD AND PUSH1 0xFF DUP4 AND OR SWAP1 SSTORE PUSH1 0x40 MLOAD SWAP1 DUP2 MSTORE PUSH32 0x17307EAB39AB6107E8899845AD3D59BD9653F200F220920489CA2B5937696C31 PUSH1 0x20 CALLER SWAP3 LOG3 STOP JUMPDEST POP PUSH4 0xB611743 PUSH1 0xE3 SHL PUSH1 0x0 MSTORE PUSH1 0x4 MSTORE PUSH1 0x24 PUSH1 0x0 REVERT JUMPDEST CALLVALUE PUSH2 0x1AE JUMPI PUSH1 0x20 CALLDATASIZE PUSH1 0x3 NOT ADD SLT PUSH2 0x1AE JUMPI PUSH1 0x4 CALLDATALOAD PUSH1 0x60 DUP1 PUSH1 0x40 MLOAD PUSH2 0x6FB DUP2 PUSH2 0x158F JUMP JUMPDEST PUSH1 0x0 DUP2 MSTORE PUSH1 0x20 DUP2 ADD DUP3 SWAP1 MSTORE PUSH1 0x40 DUP2 ADD DUP3 SWAP1 MSTORE ADD MSTORE PUSH2 0x723 PUSH1 0x1 PUSH1 0x1 PUSH1 0xA0 SHL SUB PUSH2 0x1DB DUP4 PUSH2 0x27A6 JUMP JUMPDEST PUSH2 0x731 PUSH3 0xF4240 DUP3 LT PUSH2 0x2664 JUMP JUMPDEST PUSH1 0x0 MSTORE PUSH1 0xB PUSH1 0x20 MSTORE PUSH1 0x40 PUSH1 0x0 KECCAK256 PUSH1 0x40 MLOAD PUSH2 0x74A DUP2 PUSH2 0x158F JUMP JUMPDEST DUP2 SLOAD PUSH1 0x1 PUSH1 0x1 PUSH1 0xA0 SHL SUB AND DUP2 MSTORE PUSH2 0x22A PUSH2 0x766 PUSH1 0x1 DUP5 ADD PUSH2 0x1943 JUMP JUMPDEST SWAP3 PUSH1 0x20 DUP4 ADD SWAP4 DUP5 MSTORE PUSH2 0x7D9 PUSH2 0x790 PUSH1 0x3 PUSH2 0x782 PUSH1 0x2 DUP6 ADD PUSH2 0x26AF JUMP JUMPDEST SWAP4 PUSH1 0x40 DUP8 ADD SWAP5 DUP6 MSTORE ADD PUSH2 0x274E JUMP JUMPDEST SWAP2 PUSH1 0x60 DUP6 ADD SWAP3 DUP4 MSTORE PUSH2 0x7C6 PUSH1 0x40 MLOAD SWAP7 DUP8 SWAP7 PUSH1 0x20 DUP9 MSTORE PUSH1 0x1 DUP1 PUSH1 0xA0 SHL SUB SWAP1 MLOAD AND PUSH1 0x20 DUP9 ADD MSTORE MLOAD PUSH1 0x80 PUSH1 0x40 DUP9 ADD MSTORE PUSH1 0xA0 DUP8 ADD SWAP1 PUSH2 0x153E JUMP JUMPDEST SWAP1 MLOAD DUP6 DUP3 SUB PUSH1 0x1F NOT ADD PUSH1 0x60 DUP8 ADD MSTORE PUSH2 0x1822 JUMP JUMPDEST SWAP1 MLOAD DUP4 DUP3 SUB PUSH1 0x1F NOT ADD PUSH1 0x80 DUP6 ADD MSTORE PUSH2 0x185F JUMP JUMPDEST CALLVALUE PUSH2 0x1AE JUMPI PUSH1 0x80 CALLDATASIZE PUSH1 0x3 NOT ADD SLT PUSH2 0x1AE JUMPI PUSH1 0x4 CALLDATALOAD PUSH1 0x24 CALLDATALOAD PUSH1 0x1 PUSH1 0x1 PUSH1 0x40 SHL SUB DUP2 GT PUSH2 0x1AE JUMPI PUSH2 0x81F SWAP1 CALLDATASIZE SWAP1 PUSH1 0x4 ADD PUSH2 0x161D JUMP JUMPDEST SWAP1 PUSH1 0x44 CALLDATALOAD PUSH1 0x1 PUSH1 0x1 PUSH1 0x40 SHL SUB DUP2 GT PUSH2 0x1AE JUMPI PUSH2 0x83F SWAP1 CALLDATASIZE SWAP1 PUSH1 0x4 ADD PUSH2 0x16E9 JUMP JUMPDEST PUSH1 0x64 CALLDATALOAD PUSH1 0x1 PUSH1 0x1 PUSH1 0x40 SHL SUB DUP2 GT PUSH2 0x1AE JUMPI PUSH2 0x85E SWAP1 CALLDATASIZE SWAP1 PUSH1 0x4 ADD PUSH2 0x1757 JUMP JUMPDEST SWAP3 PUSH2 0x893 CALLER PUSH32 0x0 PUSH1 0x1 PUSH1 0x1 PUSH1 0xA0 SHL SUB AND EQ PUSH2 0x253E JUMP JUMPDEST PUSH1 0x40 MLOAD PUSH2 0x89F DUP2 PUSH2 0x158F JUMP JUMPDEST ORIGIN DUP2 MSTORE PUSH1 0x20 DUP1 DUP3 ADD DUP4 DUP2 MSTORE PUSH1 0x40 DUP1 DUP5 ADD DUP7 DUP2 MSTORE PUSH1 0x60 DUP6 ADD DUP10 DUP2 MSTORE PUSH1 0xA SLOAD PUSH1 0x0 SWAP1 DUP2 MSTORE PUSH1 0xB SWAP1 SWAP6 MSTORE SWAP2 SWAP1 SWAP4 KECCAK256 SWAP4 MLOAD DUP5 SLOAD PUSH1 0x1 PUSH1 0x1 PUSH1 0xA0 SHL SUB NOT AND PUSH1 0x1 PUSH1 0x1 PUSH1 0xA0 SHL SUB SWAP2 SWAP1 SWAP2 AND OR DUP5 SSTORE SWAP1 MLOAD DUP1 MLOAD SWAP2 SWAP4 SWAP3 SWAP2 PUSH1 0x1 DUP5 ADD SWAP2 PUSH1 0x1 PUSH1 0x1 PUSH1 0x40 SHL SUB DUP3 GT PUSH2 0xA74 JUMPI DUP2 SWAP1 PUSH2 0x90E DUP5 SLOAD PUSH2 0x1909 JUMP JUMPDEST PUSH1 0x1F DUP2 GT PUSH2 0xB66 JUMPI JUMPDEST POP PUSH1 0x20 SWAP1 PUSH1 0x1F DUP4 GT PUSH1 0x1 EQ PUSH2 0xB01 JUMPI PUSH1 0x0 SWAP3 PUSH2 0xAF6 JUMPI JUMPDEST POP POP DUP2 PUSH1 0x1 SHL SWAP2 PUSH1 0x0 NOT SWAP1 PUSH1 0x3 SHL SHR NOT AND OR SWAP1 SSTORE JUMPDEST MLOAD DUP1 MLOAD SWAP1 PUSH1 0x2 DUP4 ADD SWAP1 PUSH1 0x1 PUSH1 0x1 PUSH1 0x40 SHL SUB DUP4 GT PUSH2 0xA74 JUMPI PUSH1 0x1 PUSH1 0x40 SHL DUP4 GT PUSH2 0xA74 JUMPI PUSH1 0x20 SWAP1 PUSH2 0x977 DUP5 DUP5 SLOAD DUP2 DUP7 SSTORE DUP6 PUSH2 0x25E4 JUMP JUMPDEST ADD SWAP1 PUSH1 0x0 MSTORE PUSH1 0x20 PUSH1 0x0 KECCAK256 PUSH1 0x0 JUMPDEST DUP4 DUP2 LT PUSH2 0xAD9 JUMPI POP POP POP POP PUSH1 0x3 ADD SWAP1 MLOAD DUP1 MLOAD SWAP1 PUSH1 0x1 PUSH1 0x40 SHL DUP3 GT PUSH2 0xA74 JUMPI DUP3 SLOAD DUP3 DUP5 SSTORE DUP1 DUP4 LT PUSH2 0xA8A JUMPI JUMPDEST POP PUSH1 0x20 ADD SWAP2 PUSH1 0x0 MSTORE PUSH1 0x20 PUSH1 0x0 KECCAK256 SWAP2 PUSH1 0x0 SWAP1 JUMPDEST DUP3 DUP3 LT PUSH2 0xA16 JUMPI POP POP POP POP PUSH1 0xA SLOAD PUSH1 0x0 NOT DUP2 EQ PUSH2 0xA00 JUMPI PUSH1 0x20 SWAP5 PUSH2 0x9F5 SWAP4 PUSH1 0x1 PUSH2 0x9EF SWAP4 ADD PUSH1 0xA SSTORE DUP6 PUSH2 0x23A1 JUMP JUMPDEST DUP3 PUSH2 0x27DD JUMP JUMPDEST PUSH2 0x2EB DUP2 ADDRESS CALLER PUSH2 0x2B8F JUMP JUMPDEST PUSH4 0x4E487B71 PUSH1 0xE0 SHL PUSH1 0x0 MSTORE PUSH1 0x11 PUSH1 0x4 MSTORE PUSH1 0x24 PUSH1 0x0 REVERT JUMPDEST DUP1 MLOAD DUP1 MLOAD SWAP1 PUSH1 0x1 PUSH1 0x1 PUSH1 0x40 SHL SUB DUP3 GT PUSH2 0xA74 JUMPI PUSH1 0x20 SWAP1 PUSH2 0xA36 DUP4 DUP9 PUSH2 0x2607 JUMP JUMPDEST ADD DUP6 PUSH1 0x0 MSTORE PUSH1 0x20 PUSH1 0x0 KECCAK256 PUSH1 0x0 JUMPDEST DUP4 DUP2 LT PUSH2 0xA60 JUMPI POP POP POP POP PUSH1 0x1 PUSH1 0x20 DUP2 SWAP3 ADD SWAP5 ADD SWAP2 ADD SWAP1 SWAP3 PUSH2 0x9C1 JUMP JUMPDEST PUSH1 0x1 SWAP1 PUSH1 0x20 DUP5 MLOAD SWAP5 ADD SWAP4 DUP2 DUP5 ADD SSTORE ADD PUSH2 0xA43 JUMP JUMPDEST PUSH4 0x4E487B71 PUSH1 0xE0 SHL PUSH1 0x0 MSTORE PUSH1 0x41 PUSH1 0x4 MSTORE PUSH1 0x24 PUSH1 0x0 REVERT JUMPDEST DUP4 PUSH1 0x0 MSTORE DUP3 PUSH1 0x20 PUSH1 0x0 KECCAK256 SWAP2 DUP3 ADD SWAP2 ADD JUMPDEST DUP2 DUP2 LT PUSH2 0xAA7 JUMPI POP PUSH2 0x9AF JUMP JUMPDEST PUSH1 0x1 SWAP1 DUP1 SLOAD PUSH1 0x0 DUP3 SSTORE DUP1 PUSH2 0xABD JUMPI JUMPDEST POP ADD PUSH2 0xA9A JUMP JUMPDEST PUSH2 0xAD3 SWAP1 DUP3 PUSH1 0x0 MSTORE PUSH1 0x20 PUSH1 0x0 KECCAK256 SWAP1 DUP2 ADD SWAP1 PUSH2 0x25CD JUMP JUMPDEST DUP11 PUSH2 0xAB6 JUMP JUMPDEST DUP3 MLOAD PUSH1 0x1 PUSH1 0x1 PUSH1 0xA0 SHL SUB AND DUP2 DUP4 ADD SSTORE PUSH1 0x20 SWAP1 SWAP3 ADD SWAP2 PUSH1 0x1 ADD PUSH2 0x984 JUMP JUMPDEST ADD MLOAD SWAP1 POP DUP11 DUP1 PUSH2 0x92E JUMP JUMPDEST PUSH1 0x0 DUP6 DUP2 MSTORE DUP3 DUP2 KECCAK256 SWAP4 POP PUSH1 0x1F NOT DUP6 AND SWAP1 JUMPDEST DUP2 DUP2 LT PUSH2 0xB4E JUMPI POP SWAP1 DUP5 PUSH1 0x1 SWAP6 SWAP5 SWAP4 SWAP3 LT PUSH2 0xB35 JUMPI JUMPDEST POP POP POP DUP2 SHL ADD SWAP1 SSTORE PUSH2 0x943 JUMP JUMPDEST ADD MLOAD PUSH1 0x0 NOT PUSH1 0xF8 DUP5 PUSH1 0x3 SHL AND SHR NOT AND SWAP1 SSTORE DUP11 DUP1 DUP1 PUSH2 0xB28 JUMP JUMPDEST SWAP3 SWAP4 PUSH1 0x20 PUSH1 0x1 DUP2 SWAP3 DUP8 DUP7 ADD MLOAD DUP2 SSTORE ADD SWAP6 ADD SWAP4 ADD PUSH2 0xB12 JUMP JUMPDEST PUSH2 0xB93 SWAP1 DUP6 PUSH1 0x0 MSTORE PUSH1 0x20 PUSH1 0x0 KECCAK256 PUSH1 0x1F DUP6 ADD PUSH1 0x5 SHR DUP2 ADD SWAP2 PUSH1 0x20 DUP7 LT PUSH2 0xB99 JUMPI JUMPDEST PUSH1 0x1F ADD PUSH1 0x5 SHR ADD SWAP1 PUSH2 0x25CD JUMP JUMPDEST DUP12 PUSH2 0x917 JUMP JUMPDEST SWAP1 SWAP2 POP DUP2 SWAP1 PUSH2 0xB86 JUMP JUMPDEST CALLVALUE PUSH2 0x1AE JUMPI PUSH1 0x0 CALLDATASIZE PUSH1 0x3 NOT ADD SLT PUSH2 0x1AE JUMPI PUSH1 0x40 MLOAD PUSH1 0x0 PUSH1 0x1 SLOAD PUSH2 0xBC5 DUP2 PUSH2 0x1909 JUMP JUMPDEST DUP1 DUP5 MSTORE SWAP1 PUSH1 0x1 DUP2 AND SWAP1 DUP2 ISZERO PUSH2 0xC4C JUMPI POP PUSH1 0x1 EQ PUSH2 0xBED JUMPI JUMPDEST PUSH2 0x22A DUP4 PUSH2 0x425 DUP2 DUP6 SUB DUP3 PUSH2 0x15AA JUMP JUMPDEST PUSH1 0x1 PUSH1 0x0 SWAP1 DUP2 MSTORE PUSH32 0xB10E2D527612073B26EECDFD717E6A320CF44B4AFAC2B0732D9FCBE2B7FA0CF6 SWAP4 SWAP3 POP SWAP1 JUMPDEST DUP1 DUP3 LT PUSH2 0xC32 JUMPI POP SWAP1 SWAP2 POP DUP2 ADD PUSH1 0x20 ADD PUSH2 0x425 PUSH2 0xBDD JUMP JUMPDEST SWAP2 SWAP3 PUSH1 0x1 DUP2 PUSH1 0x20 SWAP3 SLOAD DUP4 DUP6 DUP9 ADD ADD MSTORE ADD SWAP2 ADD SWAP1 SWAP3 SWAP2 PUSH2 0xC1A JUMP JUMPDEST PUSH1 0xFF NOT AND PUSH1 0x20 DUP1 DUP7 ADD SWAP2 SWAP1 SWAP2 MSTORE SWAP2 ISZERO ISZERO PUSH1 0x5 SHL DUP5 ADD SWAP1 SWAP2 ADD SWAP2 POP PUSH2 0x425 SWAP1 POP PUSH2 0xBDD JUMP JUMPDEST CALLVALUE PUSH2 0x1AE JUMPI PUSH1 0x20 CALLDATASIZE PUSH1 0x3 NOT ADD SLT PUSH2 0x1AE JUMPI PUSH1 0x20 PUSH1 0x40 MLOAD PUSH3 0xF4240 PUSH1 0x4 CALLDATALOAD LT ISZERO DUP2 MSTORE RETURN JUMPDEST CALLVALUE PUSH2 0x1AE JUMPI PUSH1 0x60 CALLDATASIZE PUSH1 0x3 NOT ADD SLT PUSH2 0x1AE JUMPI PUSH2 0xCAC PUSH2 0x1563 JUMP JUMPDEST PUSH1 0x24 CALLDATALOAD SWAP1 PUSH1 0x44 CALLDATALOAD SWAP1 PUSH2 0xCE8 CALLER PUSH32 0x0 PUSH1 0x1 PUSH1 0x1 PUSH1 0xA0 SHL SUB AND EQ PUSH2 0x253E JUMP JUMPDEST PUSH1 0x1 PUSH1 0x1 PUSH1 0xA0 SHL SUB PUSH2 0xCF9 DUP5 PUSH2 0x27A6 JUMP JUMPDEST AND ISZERO PUSH2 0xE22 JUMPI PUSH1 0x40 SWAP1 DUP2 MLOAD SWAP4 PUSH2 0xD0F DUP4 DUP7 PUSH2 0x15AA JUMP JUMPDEST PUSH1 0x1 DUP6 MSTORE PUSH1 0x1F NOT DUP4 ADD DUP1 CALLDATASIZE PUSH1 0x20 DUP9 ADD CALLDATACOPY ADDRESS PUSH2 0xD29 DUP8 PUSH2 0x1C47 JUMP JUMPDEST MSTORE DUP4 MLOAD PUSH1 0x40 SWAP7 SWAP1 SWAP2 PUSH2 0xD3B DUP9 DUP5 PUSH2 0x15AA JUMP JUMPDEST PUSH1 0x1 DUP4 MSTORE SWAP2 DUP7 SWAP4 SWAP2 SWAP5 SWAP3 DUP9 PUSH1 0x20 SWAP10 POP PUSH1 0x1F NOT ADD PUSH1 0x0 JUMPDEST DUP2 DUP2 LT PUSH2 0xE10 JUMPI POP POP SWAP1 PUSH2 0xE0A SWAP6 PUSH2 0xD9E SWAP3 DUP9 MLOAD SWAP1 PUSH2 0xD70 DUP11 DUP4 PUSH2 0x15AA JUMP JUMPDEST PUSH1 0x1 DUP3 MSTORE CALLDATASIZE DUP13 DUP4 ADD CALLDATACOPY DUP5 PUSH2 0xD83 DUP3 PUSH2 0x1C47 JUMP JUMPDEST MSTORE PUSH2 0xD8D DUP4 PUSH2 0x1C47 JUMP JUMPDEST MSTORE PUSH2 0xD97 DUP3 PUSH2 0x1C47 JUMP JUMPDEST POP DUP6 PUSH2 0x23A1 JUMP JUMPDEST PUSH2 0xDF0 PUSH2 0xDAA DUP3 PUSH2 0x2D28 JUMP JUMPDEST PUSH2 0xDEA PUSH1 0x2C DUP9 MLOAD DUP1 SWAP4 PUSH12 0x6C6963656E73652D666F722D PUSH1 0xA0 SHL DUP14 DUP4 ADD MSTORE PUSH2 0xDD9 DUP2 MLOAD DUP1 SWAP3 DUP16 DUP7 DUP7 ADD SWAP2 ADD PUSH2 0x151B JUMP JUMPDEST DUP2 ADD SUB ADD PUSH1 0x1F NOT DUP2 ADD DUP4 MSTORE DUP3 PUSH2 0x15AA JUMP JUMPDEST DUP5 PUSH2 0x27DD JUMP JUMPDEST PUSH1 0x0 MSTORE PUSH1 0xC DUP7 MSTORE PUSH2 0xE04 DUP3 DUP6 PUSH1 0x0 KECCAK256 PUSH2 0x1CD7 JUMP JUMPDEST CALLER PUSH2 0x2B8F JUMP JUMPDEST MLOAD SWAP1 DUP2 MSTORE RETURN JUMPDEST PUSH1 0x60 DUP2 DUP6 ADD DUP13 ADD MSTORE DUP10 SWAP7 POP DUP11 ADD PUSH2 0xD51 JUMP JUMPDEST PUSH1 0x40 MLOAD PUSH3 0x461BCD PUSH1 0xE5 SHL DUP2 MSTORE PUSH1 0x20 PUSH1 0x4 DUP3 ADD MSTORE PUSH1 0x17 PUSH1 0x24 DUP3 ADD MSTORE PUSH32 0x536F66747761726520646F6573206E6F74206578697374000000000000000000 PUSH1 0x44 DUP3 ADD MSTORE PUSH1 0x64 SWAP1 REVERT JUMPDEST CALLVALUE PUSH2 0x1AE JUMPI PUSH1 0x0 CALLDATASIZE PUSH1 0x3 NOT ADD SLT PUSH2 0x1AE JUMPI PUSH1 0x40 MLOAD PUSH32 0x0 PUSH1 0x1 PUSH1 0x1 PUSH1 0xA0 SHL SUB AND DUP2 MSTORE PUSH1 0x20 SWAP1 RETURN JUMPDEST CALLVALUE PUSH2 0x1AE JUMPI PUSH1 0x20 CALLDATASIZE PUSH1 0x3 NOT ADD SLT PUSH2 0x1AE JUMPI PUSH1 0x1 PUSH1 0x1 PUSH1 0xA0 SHL SUB PUSH2 0xECD PUSH2 0x1563 JUMP JUMPDEST AND DUP1 ISZERO PUSH2 0xEEC JUMPI PUSH1 0x0 MSTORE PUSH1 0x3 PUSH1 0x20 MSTORE PUSH1 0x20 PUSH1 0x40 PUSH1 0x0 KECCAK256 SLOAD PUSH1 0x40 MLOAD SWAP1 DUP2 MSTORE RETURN JUMPDEST PUSH4 0x22718AD9 PUSH1 0xE2 SHL PUSH1 0x0 MSTORE PUSH1 0x0 PUSH1 0x4 MSTORE PUSH1 0x24 PUSH1 0x0 REVERT JUMPDEST CALLVALUE PUSH2 0x1AE JUMPI PUSH2 0x4F7 PUSH2 0xF13 CALLDATASIZE PUSH2 0x17D5 JUMP JUMPDEST SWAP2 PUSH2 0x23A1 JUMP JUMPDEST CALLVALUE PUSH2 0x1AE JUMPI PUSH1 0x40 CALLDATASIZE PUSH1 0x3 NOT ADD SLT PUSH2 0x1AE JUMPI PUSH2 0xF32 PUSH2 0x1563 JUMP JUMPDEST PUSH1 0x1 PUSH1 0x1 PUSH1 0xA0 SHL SUB DUP2 AND SWAP1 PUSH1 0x24 CALLDATALOAD SWAP1 PUSH1 0x0 SWAP1 ADDRESS DUP5 SUB PUSH2 0xF6C JUMPI POP PUSH2 0x21A SWAP3 POP PUSH2 0xF67 SWAP1 POP PUSH1 0x1 PUSH1 0x1 PUSH1 0xA0 SHL SUB PUSH2 0x2CF DUP4 PUSH2 0x27A6 JUMP JUMPDEST PUSH2 0x2A9A JUMP JUMPDEST SWAP2 DUP2 SWAP4 PUSH1 0x40 MLOAD SWAP4 PUSH4 0x1FFC9A7 PUSH1 0xE0 SHL DUP6 MSTORE PUSH4 0x204CBD1 PUSH1 0xE5 SHL PUSH1 0x4 DUP7 ADD MSTORE PUSH1 0x20 DUP6 PUSH1 0x24 DUP2 DUP6 GAS STATICCALL SWAP5 DUP6 ISZERO PUSH2 0x62C JUMPI PUSH2 0x5D2 SWAP6 PUSH2 0xFAE SWAP2 DUP7 SWAP2 PUSH2 0x613 JUMPI POP PUSH2 0x21D5 JUMP JUMPDEST PUSH1 0x40 MLOAD PUSH4 0x327CD873 PUSH1 0xE1 SHL DUP2 MSTORE PUSH1 0x1 PUSH1 0x1 PUSH1 0xA0 SHL SUB SWAP1 SWAP2 AND PUSH1 0x4 DUP3 ADD MSTORE PUSH1 0x24 DUP2 ADD SWAP3 SWAP1 SWAP3 MSTORE SWAP1 SWAP3 DUP4 SWAP2 SWAP1 DUP3 SWAP1 DUP2 SWAP1 PUSH1 0x44 DUP3 ADD SWAP1 JUMP JUMPDEST CALLVALUE PUSH2 0x1AE JUMPI PUSH1 0x20 CALLDATASIZE PUSH1 0x3 NOT ADD SLT PUSH2 0x1AE JUMPI PUSH1 0x20 PUSH2 0x1001 PUSH1 0x4 CALLDATALOAD PUSH2 0x27A6 JUMP JUMPDEST PUSH1 0x40 MLOAD PUSH1 0x1 PUSH1 0x1 PUSH1 0xA0 SHL SUB SWAP1 SWAP2 AND DUP2 MSTORE RETURN JUMPDEST CALLVALUE PUSH2 0x1AE JUMPI PUSH2 0x4F7 PUSH2 0x1024 CALLDATASIZE PUSH2 0x17D5 JUMP JUMPDEST SWAP2 PUSH2 0x1D0C JUMP JUMPDEST CALLVALUE PUSH2 0x1AE JUMPI PUSH1 0x60 CALLDATASIZE PUSH1 0x3 NOT ADD SLT PUSH2 0x1AE JUMPI PUSH2 0x1043 PUSH2 0x1563 JUMP JUMPDEST PUSH1 0x24 CALLDATALOAD SWAP1 PUSH1 0x44 CALLDATALOAD PUSH1 0x1 PUSH1 0x1 PUSH1 0x40 SHL SUB DUP2 GT PUSH2 0x1AE JUMPI PUSH2 0x1066 SWAP1 CALLDATASIZE SWAP1 PUSH1 0x4 ADD PUSH2 0x168C JUMP JUMPDEST PUSH1 0x1 PUSH1 0x1 PUSH1 0xA0 SHL SUB DUP3 AND ADDRESS DUP2 EQ SWAP3 SWAP2 SWAP1 PUSH1 0x0 JUMPDEST DUP3 MLOAD DUP2 LT ISZERO PUSH2 0x4F7 JUMPI PUSH2 0x108C DUP2 DUP5 PUSH2 0x1C6A JUMP JUMPDEST MLOAD PUSH1 0x0 MSTORE PUSH1 0x7 PUSH1 0x20 MSTORE PUSH1 0x40 PUSH1 0x0 KECCAK256 SWAP1 PUSH1 0x1 DUP3 ADD SWAP2 DUP7 PUSH1 0x40 PUSH1 0x0 DUP7 DUP2 MSTORE DUP6 PUSH1 0x20 MSTORE KECCAK256 SLOAD ISZERO PUSH2 0x11CD JUMPI JUMPDEST PUSH2 0x116C JUMPI PUSH1 0x4 TIMESTAMP SWAP2 ADD SLOAD LT ISZERO PUSH2 0x1109 JUMPI PUSH2 0x10DC DUP8 PUSH1 0x40 PUSH1 0x1 SWAP5 PUSH1 0x0 SWAP1 DUP8 DUP3 MSTORE PUSH1 0x20 MSTORE KECCAK256 PUSH2 0x1CD7 JUMP JUMPDEST PUSH2 0x1103 PUSH2 0x10E9 DUP3 DUP7 PUSH2 0x1C6A JUMP JUMPDEST MLOAD PUSH2 0x10FD PUSH2 0x10F7 DUP5 DUP9 PUSH2 0x1C6A JUMP JUMPDEST MLOAD PUSH2 0x27A6 JUMP JUMPDEST SWAP1 PUSH2 0x2A06 JUMP JUMPDEST ADD PUSH2 0x1079 JUMP JUMPDEST PUSH1 0x40 MLOAD PUSH3 0x461BCD PUSH1 0xE5 SHL DUP2 MSTORE PUSH1 0x20 PUSH1 0x4 DUP3 ADD MSTORE PUSH1 0x35 PUSH1 0x24 DUP3 ADD MSTORE PUSH32 0x4552435F353532313A2074686520726566657272656420724E4654206E656564 PUSH1 0x44 DUP3 ADD MSTORE PUSH21 0x39903A37903132903090383932B232B1B2B9B9B7B9 PUSH1 0x59 SHL PUSH1 0x64 DUP3 ADD MSTORE PUSH1 0x84 SWAP1 REVERT JUMPDEST PUSH1 0x40 MLOAD PUSH3 0x461BCD PUSH1 0xE5 SHL DUP2 MSTORE PUSH1 0x20 PUSH1 0x4 DUP3 ADD MSTORE PUSH1 0x33 PUSH1 0x24 DUP3 ADD MSTORE PUSH32 0x4552435F353532313A2074686973206D75737420626520616E2065787465726E PUSH1 0x44 DUP3 ADD MSTORE PUSH19 0x616C20636F6E74726163742061646472657373 PUSH1 0x68 SHL PUSH1 0x64 DUP3 ADD MSTORE PUSH1 0x84 SWAP1 REVERT JUMPDEST PUSH2 0x11DA DUP8 PUSH1 0x3 DUP5 ADD PUSH2 0x1C96 JUMP JUMPDEST PUSH2 0x10B4 JUMP JUMPDEST CALLVALUE PUSH2 0x1AE JUMPI PUSH2 0x4F7 PUSH2 0x11F0 CALLDATASIZE PUSH2 0x163B JUMP JUMPDEST SWAP1 PUSH1 0x40 MLOAD SWAP3 PUSH2 0x1200 PUSH1 0x20 DUP6 PUSH2 0x15AA JUMP JUMPDEST PUSH1 0x0 DUP5 MSTORE PUSH2 0x4F1 DUP4 DUP4 DUP4 PUSH2 0x1A9B JUMP JUMPDEST CALLVALUE PUSH2 0x1AE JUMPI PUSH2 0x4F7 PUSH2 0x1220 CALLDATASIZE PUSH2 0x163B JUMP JUMPDEST SWAP2 PUSH2 0x1A9B JUMP JUMPDEST CALLVALUE PUSH2 0x1AE JUMPI PUSH1 0x40 CALLDATASIZE PUSH1 0x3 NOT ADD SLT PUSH2 0x1AE JUMPI PUSH1 0x24 CALLDATALOAD PUSH1 0x4 CALLDATALOAD PUSH1 0x1 PUSH1 0x1 PUSH1 0x40 SHL SUB DUP3 GT PUSH2 0x1AE JUMPI PUSH2 0x125C PUSH2 0x4F7 SWAP3 CALLDATASIZE SWAP1 PUSH1 0x4 ADD PUSH2 0x161D JUMP JUMPDEST SWAP1 PUSH2 0x1271 PUSH1 0x1 PUSH1 0x1 PUSH1 0xA0 SHL SUB PUSH2 0x2CF DUP4 PUSH2 0x27A6 JUMP JUMPDEST PUSH2 0x128D PUSH2 0x127D DUP3 PUSH2 0x27A6 JUMP JUMPDEST PUSH1 0x1 PUSH1 0x1 PUSH1 0xA0 SHL SUB AND CALLER EQ PUSH2 0x1A33 JUMP JUMPDEST PUSH2 0x27DD JUMP JUMPDEST CALLVALUE PUSH2 0x1AE JUMPI PUSH1 0x40 CALLDATASIZE PUSH1 0x3 NOT ADD SLT PUSH2 0x1AE JUMPI PUSH2 0x12AB PUSH2 0x1563 JUMP JUMPDEST PUSH1 0x24 CALLDATALOAD PUSH2 0x12B7 DUP2 PUSH2 0x27A6 JUMP JUMPDEST CALLER ISZERO ISZERO DUP1 PUSH2 0x136E JUMPI JUMPDEST DUP1 PUSH2 0x1340 JUMPI JUMPDEST PUSH2 0x132B JUMPI DUP2 SWAP1 PUSH1 0x1 PUSH1 0x1 PUSH1 0xA0 SHL SUB DUP5 DUP2 AND SWAP2 AND PUSH32 0x8C5BE1E5EBEC7D5BD14F71427D1E84F3DD0314C0F7B2291E5B200AC8C7C3B925 PUSH1 0x0 DUP1 LOG4 PUSH1 0x0 SWAP1 DUP2 MSTORE PUSH1 0x4 PUSH1 0x20 MSTORE PUSH1 0x40 SWAP1 KECCAK256 DUP1 SLOAD PUSH1 0x1 PUSH1 0x1 PUSH1 0xA0 SHL SUB NOT AND PUSH1 0x1 PUSH1 0x1 PUSH1 0xA0 SHL SUB SWAP1 SWAP3 AND SWAP2 SWAP1 SWAP2 OR SWAP1 SSTORE STOP JUMPDEST PUSH4 0xA9FBF51F PUSH1 0xE0 SHL PUSH1 0x0 MSTORE CALLER PUSH1 0x4 MSTORE PUSH1 0x24 PUSH1 0x0 REVERT JUMPDEST POP PUSH1 0x1 PUSH1 0x1 PUSH1 0xA0 SHL SUB DUP2 AND PUSH1 0x0 SWAP1 DUP2 MSTORE PUSH1 0x5 PUSH1 0x20 SWAP1 DUP2 MSTORE PUSH1 0x40 DUP1 DUP4 KECCAK256 CALLER DUP5 MSTORE SWAP1 SWAP2 MSTORE SWAP1 KECCAK256 SLOAD PUSH1 0xFF AND ISZERO PUSH2 0x12C6 JUMP JUMPDEST POP PUSH1 0x1 PUSH1 0x1 PUSH1 0xA0 SHL SUB DUP2 AND CALLER EQ ISZERO PUSH2 0x12C0 JUMP JUMPDEST CALLVALUE PUSH2 0x1AE JUMPI PUSH1 0x20 CALLDATASIZE PUSH1 0x3 NOT ADD SLT PUSH2 0x1AE JUMPI PUSH1 0x4 CALLDATALOAD PUSH2 0x139E DUP2 PUSH2 0x27A6 JUMP JUMPDEST POP PUSH1 0x0 MSTORE PUSH1 0x4 PUSH1 0x20 MSTORE PUSH1 0x20 PUSH1 0x1 DUP1 PUSH1 0xA0 SHL SUB PUSH1 0x40 PUSH1 0x0 KECCAK256 SLOAD AND PUSH1 0x40 MLOAD SWAP1 DUP2 MSTORE RETURN JUMPDEST CALLVALUE PUSH2 0x1AE JUMPI PUSH1 0x0 CALLDATASIZE PUSH1 0x3 NOT ADD SLT PUSH2 0x1AE JUMPI PUSH1 0x40 MLOAD PUSH1 0x0 DUP1 SLOAD PUSH2 0x13E0 DUP2 PUSH2 0x1909 JUMP JUMPDEST DUP1 DUP5 MSTORE SWAP1 PUSH1 0x1 DUP2 AND SWAP1 DUP2 ISZERO PUSH2 0xC4C JUMPI POP PUSH1 0x1 EQ PUSH2 0x1407 JUMPI PUSH2 0x22A DUP4 PUSH2 0x425 DUP2 DUP6 SUB DUP3 PUSH2 0x15AA JUMP JUMPDEST PUSH1 0x0 DUP1 DUP1 MSTORE PUSH32 0x290DECD9548B62A8D60345A988386FC84BA6BC95484008F6362F93160EF3E563 SWAP4 SWAP3 POP SWAP1 JUMPDEST DUP1 DUP3 LT PUSH2 0x144A JUMPI POP SWAP1 SWAP2 POP DUP2 ADD PUSH1 0x20 ADD PUSH2 0x425 PUSH2 0xBDD JUMP JUMPDEST SWAP2 SWAP3 PUSH1 0x1 DUP2 PUSH1 0x20 SWAP3 SLOAD DUP4 DUP6 DUP9 ADD ADD MSTORE ADD SWAP2 ADD SWAP1 SWAP3 SWAP2 PUSH2 0x1432 JUMP JUMPDEST CALLVALUE PUSH2 0x1AE JUMPI PUSH1 0x20 CALLDATASIZE PUSH1 0x3 NOT ADD SLT PUSH2 0x1AE JUMPI PUSH1 0x4 CALLDATALOAD SWAP1 PUSH4 0xFFFFFFFF PUSH1 0xE0 SHL DUP3 AND DUP1 SWAP3 SUB PUSH2 0x1AE JUMPI PUSH1 0x20 SWAP2 PUSH4 0x74342B55 PUSH1 0xE0 SHL DUP2 EQ SWAP1 DUP2 ISZERO PUSH2 0x150A JUMPI JUMPDEST DUP2 ISZERO PUSH2 0x14AD JUMPI JUMPDEST POP ISZERO ISZERO DUP2 MSTORE RETURN JUMPDEST PUSH4 0x24832483 PUSH1 0xE1 SHL DUP2 EQ SWAP2 POP DUP2 ISZERO PUSH2 0x14C7 JUMPI JUMPDEST POP DUP4 PUSH2 0x14A6 JUMP JUMPDEST PUSH4 0x80AC58CD PUSH1 0xE0 SHL DUP2 EQ SWAP2 POP DUP2 ISZERO PUSH2 0x14F9 JUMPI JUMPDEST DUP2 ISZERO PUSH2 0x14E8 JUMPI JUMPDEST POP DUP4 PUSH2 0x14C0 JUMP JUMPDEST PUSH4 0x1FFC9A7 PUSH1 0xE0 SHL EQ SWAP1 POP DUP4 PUSH2 0x14E1 JUMP JUMPDEST PUSH4 0x5B5E139F PUSH1 0xE0 SHL DUP2 EQ SWAP2 POP PUSH2 0x14DA JUMP JUMPDEST PUSH4 0x204CBD1 PUSH1 0xE5 SHL DUP2 EQ SWAP2 POP PUSH2 0x149F JUMP JUMPDEST PUSH1 0x0 JUMPDEST DUP4 DUP2 LT PUSH2 0x152E JUMPI POP POP PUSH1 0x0 SWAP2 ADD MSTORE JUMP JUMPDEST DUP2 DUP2 ADD MLOAD DUP4 DUP3 ADD MSTORE PUSH1 0x20 ADD PUSH2 0x151E JUMP JUMPDEST SWAP1 PUSH1 0x20 SWAP2 PUSH2 0x1557 DUP2 MLOAD DUP1 SWAP3 DUP2 DUP6 MSTORE DUP6 DUP1 DUP7 ADD SWAP2 ADD PUSH2 0x151B JUMP JUMPDEST PUSH1 0x1F ADD PUSH1 0x1F NOT AND ADD ADD SWAP1 JUMP JUMPDEST PUSH1 0x4 CALLDATALOAD SWAP1 PUSH1 0x1 PUSH1 0x1 PUSH1 0xA0 SHL SUB DUP3 AND DUP3 SUB PUSH2 0x1AE JUMPI JUMP JUMPDEST PUSH1 0x24 CALLDATALOAD SWAP1 PUSH1 0x1 PUSH1 0x1 PUSH1 0xA0 SHL SUB DUP3 AND DUP3 SUB PUSH2 0x1AE JUMPI JUMP JUMPDEST PUSH1 0x80 DUP2 ADD SWAP1 DUP2 LT PUSH1 0x1 PUSH1 0x1 PUSH1 0x40 SHL SUB DUP3 GT OR PUSH2 0xA74 JUMPI PUSH1 0x40 MSTORE JUMP JUMPDEST SWAP1 PUSH1 0x1F DUP1 NOT SWAP2 ADD AND DUP2 ADD SWAP1 DUP2 LT PUSH1 0x1 PUSH1 0x1 PUSH1 0x40 SHL SUB DUP3 GT OR PUSH2 0xA74 JUMPI PUSH1 0x40 MSTORE JUMP JUMPDEST PUSH1 0x1 PUSH1 0x1 PUSH1 0x40 SHL SUB DUP2 GT PUSH2 0xA74 JUMPI PUSH1 0x1F ADD PUSH1 0x1F NOT AND PUSH1 0x20 ADD SWAP1 JUMP JUMPDEST SWAP3 SWAP2 SWAP3 PUSH2 0x15F2 DUP3 PUSH2 0x15CB JUMP JUMPDEST SWAP2 PUSH2 0x1600 PUSH1 0x40 MLOAD SWAP4 DUP5 PUSH2 0x15AA JUMP JUMPDEST DUP3 SWAP5 DUP2 DUP5 MSTORE DUP2 DUP4 ADD GT PUSH2 0x1AE JUMPI DUP3 DUP2 PUSH1 0x20 SWAP4 DUP5 PUSH1 0x0 SWAP7 ADD CALLDATACOPY ADD ADD MSTORE JUMP JUMPDEST SWAP1 DUP1 PUSH1 0x1F DUP4 ADD SLT ISZERO PUSH2 0x1AE JUMPI DUP2 PUSH1 0x20 PUSH2 0x1638 SWAP4 CALLDATALOAD SWAP2 ADD PUSH2 0x15E6 JUMP JUMPDEST SWAP1 JUMP JUMPDEST PUSH1 0x60 SWAP1 PUSH1 0x3 NOT ADD SLT PUSH2 0x1AE JUMPI PUSH1 0x4 CALLDATALOAD PUSH1 0x1 PUSH1 0x1 PUSH1 0xA0 SHL SUB DUP2 AND DUP2 SUB PUSH2 0x1AE JUMPI SWAP1 PUSH1 0x24 CALLDATALOAD PUSH1 0x1 PUSH1 0x1 PUSH1 0xA0 SHL SUB DUP2 AND DUP2 SUB PUSH2 0x1AE JUMPI SWAP1 PUSH1 0x44 CALLDATALOAD SWAP1 JUMP JUMPDEST PUSH1 0x1 PUSH1 0x1 PUSH1 0x40 SHL SUB DUP2 GT PUSH2 0xA74 JUMPI PUSH1 0x5 SHL PUSH1 0x20 ADD SWAP1 JUMP JUMPDEST SWAP1 DUP1 PUSH1 0x1F DUP4 ADD SLT ISZERO PUSH2 0x1AE JUMPI DUP2 CALLDATALOAD PUSH2 0x16A3 DUP2 PUSH2 0x1675 JUMP JUMPDEST SWAP3 PUSH2 0x16B1 PUSH1 0x40 MLOAD SWAP5 DUP6 PUSH2 0x15AA JUMP JUMPDEST DUP2 DUP5 MSTORE PUSH1 0x20 DUP1 DUP6 ADD SWAP3 PUSH1 0x5 SHL DUP3 ADD ADD SWAP3 DUP4 GT PUSH2 0x1AE JUMPI PUSH1 0x20 ADD SWAP1 JUMPDEST DUP3 DUP3 LT PUSH2 0x16D9 JUMPI POP POP POP SWAP1 JUMP JUMPDEST DUP2 CALLDATALOAD DUP2 MSTORE PUSH1 0x20 SWAP2 DUP3 ADD SWAP2 ADD PUSH2 0x16CC JUMP JUMPDEST SWAP1 DUP1 PUSH1 0x1F DUP4 ADD SLT ISZERO PUSH2 0x1AE JUMPI DUP2 CALLDATALOAD SWAP1 PUSH2 0x1701 DUP3 PUSH2 0x1675 JUMP JUMPDEST SWAP3 PUSH2 0x170F PUSH1 0x40 MLOAD SWAP5 DUP6 PUSH2 0x15AA JUMP JUMPDEST DUP3 DUP5 MSTORE PUSH1 0x20 DUP1 DUP6 ADD SWAP4 PUSH1 0x5 SHL DUP3 ADD ADD SWAP2 DUP3 GT PUSH2 0x1AE JUMPI PUSH1 0x20 ADD SWAP2 JUMPDEST DUP2 DUP4 LT PUSH2 0x1737 JUMPI POP POP POP SWAP1 JUMP JUMPDEST DUP3 CALLDATALOAD PUSH1 0x1 PUSH1 0x1 PUSH1 0xA0 SHL SUB DUP2 AND DUP2 SUB PUSH2 0x1AE JUMPI DUP2 MSTORE PUSH1 0x20 SWAP3 DUP4 ADD SWAP3 ADD PUSH2 0x172A JUMP JUMPDEST SWAP1 DUP1 PUSH1 0x1F DUP4 ADD SLT ISZERO PUSH2 0x1AE JUMPI DUP2 CALLDATALOAD PUSH2 0x176E DUP2 PUSH2 0x1675 JUMP JUMPDEST SWAP3 PUSH2 0x177C PUSH1 0x40 MLOAD SWAP5 DUP6 PUSH2 0x15AA JUMP JUMPDEST DUP2 DUP5 MSTORE PUSH1 0x20 DUP1 DUP6 ADD SWAP3 PUSH1 0x5 SHL DUP3 ADD ADD SWAP2 DUP4 DUP4 GT PUSH2 0x1AE JUMPI PUSH1 0x20 DUP3 ADD SWAP1 JUMPDEST DUP4 DUP3 LT PUSH2 0x17A8 JUMPI POP POP POP POP POP SWAP1 JUMP JUMPDEST DUP2 CALLDATALOAD PUSH1 0x1 PUSH1 0x1 PUSH1 0x40 SHL SUB DUP2 GT PUSH2 0x1AE JUMPI PUSH1 0x20 SWAP2 PUSH2 0x17CA DUP8 DUP5 DUP1 SWAP5 DUP9 ADD ADD PUSH2 0x168C JUMP JUMPDEST DUP2 MSTORE ADD SWAP2 ADD SWAP1 PUSH2 0x1799 JUMP JUMPDEST PUSH1 0x60 PUSH1 0x3 NOT DUP3 ADD SLT PUSH2 0x1AE JUMPI PUSH1 0x4 CALLDATALOAD SWAP2 PUSH1 0x24 CALLDATALOAD PUSH1 0x1 PUSH1 0x1 PUSH1 0x40 SHL SUB DUP2 GT PUSH2 0x1AE JUMPI DUP3 PUSH2 0x1803 SWAP2 PUSH1 0x4 ADD PUSH2 0x16E9 JUMP JUMPDEST SWAP2 PUSH1 0x44 CALLDATALOAD SWAP1 PUSH1 0x1 PUSH1 0x1 PUSH1 0x40 SHL SUB DUP3 GT PUSH2 0x1AE JUMPI PUSH2 0x1638 SWAP2 PUSH1 0x4 ADD PUSH2 0x1757 JUMP JUMPDEST SWAP1 PUSH1 0x20 DUP1 DUP4 MLOAD SWAP3 DUP4 DUP2 MSTORE ADD SWAP3 ADD SWAP1 PUSH1 0x0 JUMPDEST DUP2 DUP2 LT PUSH2 0x1840 JUMPI POP POP POP SWAP1 JUMP JUMPDEST DUP3 MLOAD PUSH1 0x1 PUSH1 0x1 PUSH1 0xA0 SHL SUB AND DUP5 MSTORE PUSH1 0x20 SWAP4 DUP5 ADD SWAP4 SWAP1 SWAP3 ADD SWAP2 PUSH1 0x1 ADD PUSH2 0x1833 JUMP JUMPDEST SWAP1 DUP1 PUSH1 0x20 DUP4 MLOAD SWAP2 DUP3 DUP2 MSTORE ADD SWAP2 PUSH1 0x20 DUP1 DUP4 PUSH1 0x5 SHL DUP4 ADD ADD SWAP5 ADD SWAP3 PUSH1 0x0 SWAP2 JUMPDEST DUP4 DUP4 LT PUSH2 0x188B JUMPI POP POP POP POP POP SWAP1 JUMP JUMPDEST SWAP1 SWAP2 SWAP3 SWAP4 SWAP5 PUSH1 0x1F NOT DUP3 DUP3 SUB ADD DUP4 MSTORE DUP6 MLOAD SWAP1 PUSH1 0x20 DUP1 DUP4 MLOAD SWAP3 DUP4 DUP2 MSTORE ADD SWAP3 ADD SWAP1 PUSH1 0x0 SWAP1 JUMPDEST DUP1 DUP3 LT PUSH2 0x18CC JUMPI POP POP POP PUSH1 0x20 DUP1 PUSH1 0x1 SWAP3 SWAP8 ADD SWAP4 ADD SWAP4 ADD SWAP2 SWAP4 SWAP3 SWAP1 PUSH2 0x187C JUMP JUMPDEST SWAP1 SWAP2 SWAP3 PUSH1 0x20 DUP1 PUSH1 0x1 SWAP3 DUP7 MLOAD DUP2 MSTORE ADD SWAP5 ADD SWAP3 ADD SWAP1 PUSH2 0x18AD JUMP JUMPDEST SWAP1 SWAP2 PUSH2 0x18FB PUSH2 0x1638 SWAP4 PUSH1 0x40 DUP5 MSTORE PUSH1 0x40 DUP5 ADD SWAP1 PUSH2 0x1822 JUMP JUMPDEST SWAP2 PUSH1 0x20 DUP2 DUP5 SUB SWAP2 ADD MSTORE PUSH2 0x185F JUMP JUMPDEST SWAP1 PUSH1 0x1 DUP3 DUP2 SHR SWAP3 AND DUP1 ISZERO PUSH2 0x1939 JUMPI JUMPDEST PUSH1 0x20 DUP4 LT EQ PUSH2 0x1923 JUMPI JUMP JUMPDEST PUSH4 0x4E487B71 PUSH1 0xE0 SHL PUSH1 0x0 MSTORE PUSH1 0x22 PUSH1 0x4 MSTORE PUSH1 0x24 PUSH1 0x0 REVERT JUMPDEST SWAP2 PUSH1 0x7F AND SWAP2 PUSH2 0x1918 JUMP JUMPDEST SWAP1 PUSH1 0x40 MLOAD SWAP2 DUP3 PUSH1 0x0 DUP3 SLOAD SWAP3 PUSH2 0x1957 DUP5 PUSH2 0x1909 JUMP JUMPDEST DUP1 DUP5 MSTORE SWAP4 PUSH1 0x1 DUP2 AND SWAP1 DUP2 ISZERO PUSH2 0x19C5 JUMPI POP PUSH1 0x1 EQ PUSH2 0x197E JUMPI JUMPDEST POP PUSH2 0x197C SWAP3 POP SUB DUP4 PUSH2 0x15AA JUMP JUMPDEST JUMP JUMPDEST SWAP1 POP PUSH1 0x0 SWAP3 SWAP2 SWAP3 MSTORE PUSH1 0x20 PUSH1 0x0 KECCAK256 SWAP1 PUSH1 0x0 SWAP2 JUMPDEST DUP2 DUP4 LT PUSH2 0x19A9 JUMPI POP POP SWAP1 PUSH1 0x20 PUSH2 0x197C SWAP3 DUP3 ADD ADD CODESIZE PUSH2 0x196F JUMP JUMPDEST PUSH1 0x20 SWAP2 SWAP4 POP DUP1 PUSH1 0x1 SWAP2 SLOAD DUP4 DUP6 DUP10 ADD ADD MSTORE ADD SWAP2 ADD SWAP1 SWAP2 DUP5 SWAP3 PUSH2 0x1990 JUMP JUMPDEST SWAP1 POP PUSH1 0x20 SWAP3 POP PUSH2 0x197C SWAP5 SWAP2 POP PUSH1 0xFF NOT AND DUP3 DUP5 ADD MSTORE ISZERO ISZERO PUSH1 0x5 SHL DUP3 ADD ADD CODESIZE PUSH2 0x196F JUMP JUMPDEST ISZERO PUSH2 0x19EE JUMPI JUMP JUMPDEST PUSH1 0x40 MLOAD PUSH3 0x461BCD PUSH1 0xE5 SHL DUP2 MSTORE PUSH1 0x20 PUSH1 0x4 DUP3 ADD MSTORE PUSH1 0x1E PUSH1 0x24 DUP3 ADD MSTORE PUSH32 0x4552435F353532313A20746F6B656E204944206E6F7420657869737465640000 PUSH1 0x44 DUP3 ADD MSTORE PUSH1 0x64 SWAP1 REVERT JUMPDEST ISZERO PUSH2 0x1A3A JUMPI JUMP JUMPDEST PUSH1 0x40 MLOAD PUSH3 0x461BCD PUSH1 0xE5 SHL DUP2 MSTORE PUSH1 0x20 PUSH1 0x4 DUP3 ADD MSTORE PUSH1 0x33 PUSH1 0x24 DUP3 ADD MSTORE PUSH32 0x4552435F353532313A207472616E736665722063616C6C6572206973206E6F74 PUSH1 0x44 DUP3 ADD MSTORE PUSH19 0x81BDDDB995C881B9BDC88185C1C1C9BDD9959 PUSH1 0x6A SHL PUSH1 0x64 DUP3 ADD MSTORE PUSH1 0x84 SWAP1 REVERT JUMPDEST PUSH1 0x1 PUSH1 0x1 PUSH1 0xA0 SHL SUB SWAP1 SWAP2 AND SWAP2 SWAP1 DUP3 ISZERO PUSH2 0x1C31 JUMPI PUSH1 0x0 DUP3 DUP2 MSTORE PUSH1 0x2 PUSH1 0x20 MSTORE PUSH1 0x40 DUP2 KECCAK256 SLOAD PUSH1 0x1 PUSH1 0x1 PUSH1 0xA0 SHL SUB AND SWAP4 DUP4 SWAP2 DUP6 SWAP1 CALLER ISZERO ISZERO DUP1 PUSH2 0x1B99 JUMPI JUMPDEST POP PUSH32 0xDDF252AD1BE2C89B69C2B068FC378DAA952BA7F163C4A11628F55A4DF523B3EF SWAP1 DUP3 PUSH2 0x1B64 JUMPI JUMPDEST DUP4 DUP2 MSTORE PUSH1 0x3 PUSH1 0x20 MSTORE PUSH1 0x40 DUP2 KECCAK256 PUSH1 0x1 DUP2 SLOAD ADD SWAP1 SSTORE DUP5 DUP2 MSTORE PUSH1 0x2 PUSH1 0x20 MSTORE PUSH1 0x40 DUP2 KECCAK256 DUP5 PUSH12 0xFFFFFFFFFFFFFFFFFFFFFFFF PUSH1 0xA0 SHL DUP3 SLOAD AND OR SWAP1 SSTORE DUP1 LOG4 PUSH1 0x1 PUSH1 0x1 PUSH1 0xA0 SHL SUB AND DUP1 DUP4 SUB PUSH2 0x1B4A JUMPI POP POP POP JUMP JUMPDEST PUSH4 0x64283D7B PUSH1 0xE0 SHL PUSH1 0x0 MSTORE PUSH1 0x4 MSTORE PUSH1 0x24 MSTORE PUSH1 0x44 MSTORE PUSH1 0x64 PUSH1 0x0 REVERT JUMPDEST PUSH1 0x0 DUP6 DUP2 MSTORE PUSH1 0x4 PUSH1 0x20 MSTORE PUSH1 0x40 SWAP1 KECCAK256 DUP1 SLOAD PUSH1 0x1 PUSH1 0x1 PUSH1 0xA0 SHL SUB NOT AND SWAP1 SSTORE DUP3 DUP2 MSTORE PUSH1 0x3 PUSH1 0x20 MSTORE PUSH1 0x40 DUP2 KECCAK256 DUP1 SLOAD PUSH1 0x0 NOT ADD SWAP1 SSTORE PUSH2 0x1AFD JUMP JUMPDEST SWAP2 POP SWAP2 SWAP3 POP DUP1 PUSH2 0x1BE2 JUMPI JUMPDEST ISZERO PUSH2 0x1BB3 JUMPI SWAP1 DUP5 DUP5 SWAP3 CODESIZE PUSH2 0x1AD4 JUMP JUMPDEST DUP4 SWAP1 DUP6 PUSH2 0x1BCC JUMPI PUSH1 0x24 SWAP2 PUSH4 0x7E273289 PUSH1 0xE0 SHL DUP3 MSTORE PUSH1 0x4 MSTORE REVERT JUMPDEST PUSH1 0x44 SWAP2 PUSH4 0x177E802F PUSH1 0xE0 SHL DUP3 MSTORE CALLER PUSH1 0x4 MSTORE PUSH1 0x24 MSTORE REVERT JUMPDEST POP CALLER DUP6 EQ DUP1 ISZERO PUSH2 0x1C10 JUMPI JUMPDEST DUP1 PUSH2 0x1BA4 JUMPI POP DUP4 DUP2 MSTORE PUSH1 0x4 PUSH1 0x20 MSTORE PUSH1 0x40 DUP2 KECCAK256 SLOAD PUSH1 0x1 PUSH1 0x1 PUSH1 0xA0 SHL SUB AND CALLER EQ PUSH2 0x1BA4 JUMP JUMPDEST POP DUP5 DUP2 MSTORE PUSH1 0x5 PUSH1 0x20 SWAP1 DUP2 MSTORE PUSH1 0x40 DUP1 DUP4 KECCAK256 CALLER DUP5 MSTORE SWAP1 SWAP2 MSTORE DUP2 KECCAK256 SLOAD PUSH1 0xFF AND PUSH2 0x1BED JUMP JUMPDEST PUSH4 0x32505749 PUSH1 0xE1 SHL PUSH1 0x0 MSTORE PUSH1 0x0 PUSH1 0x4 MSTORE PUSH1 0x24 PUSH1 0x0 REVERT JUMPDEST DUP1 MLOAD ISZERO PUSH2 0x1C54 JUMPI PUSH1 0x20 ADD SWAP1 JUMP JUMPDEST PUSH4 0x4E487B71 PUSH1 0xE0 SHL PUSH1 0x0 MSTORE PUSH1 0x32 PUSH1 0x4 MSTORE PUSH1 0x24 PUSH1 0x0 REVERT JUMPDEST DUP1 MLOAD DUP3 LT ISZERO PUSH2 0x1C54 JUMPI PUSH1 0x20 SWAP2 PUSH1 0x5 SHL ADD ADD SWAP1 JUMP JUMPDEST DUP1 SLOAD DUP3 LT ISZERO PUSH2 0x1C54 JUMPI PUSH1 0x0 MSTORE PUSH1 0x20 PUSH1 0x0 KECCAK256 ADD SWAP1 PUSH1 0x0 SWAP1 JUMP JUMPDEST DUP1 SLOAD PUSH1 0x1 PUSH1 0x40 SHL DUP2 LT ISZERO PUSH2 0xA74 JUMPI PUSH2 0x1CB3 SWAP2 PUSH1 0x1 DUP3 ADD DUP2 SSTORE PUSH2 0x1C7E JUMP JUMPDEST DUP2 SLOAD PUSH1 0x1 PUSH1 0x1 PUSH1 0xA0 SHL SUB SWAP4 DUP5 AND PUSH1 0x3 SWAP3 SWAP1 SWAP3 SHL SWAP2 DUP3 SHL SWAP4 SWAP1 SWAP2 SHL NOT AND SWAP2 SWAP1 SWAP2 OR SWAP1 SSTORE JUMP JUMPDEST DUP1 SLOAD PUSH1 0x1 PUSH1 0x40 SHL DUP2 LT ISZERO PUSH2 0xA74 JUMPI PUSH2 0x1CF4 SWAP2 PUSH1 0x1 DUP3 ADD DUP2 SSTORE PUSH2 0x1C7E JUMP JUMPDEST DUP2 SWAP3 SWAP2 SLOAD SWAP1 PUSH1 0x3 SHL SWAP2 DUP3 SHL SWAP2 PUSH1 0x0 NOT SWAP1 SHL NOT AND OR SWAP1 SSTORE JUMP JUMPDEST SWAP3 DUP2 MLOAD DUP4 MLOAD SUB PUSH2 0x2159 JUMPI PUSH1 0x0 JUMPDEST DUP4 MLOAD DUP2 LT ISZERO PUSH2 0x1D95 JUMPI PUSH2 0x1D2C DUP2 DUP6 PUSH2 0x1C6A JUMP JUMPDEST MLOAD MLOAD ISZERO PUSH2 0x1D3B JUMPI PUSH1 0x1 ADD PUSH2 0x1D19 JUMP JUMPDEST PUSH1 0x40 MLOAD PUSH3 0x461BCD PUSH1 0xE5 SHL DUP2 MSTORE PUSH1 0x20 PUSH1 0x4 DUP3 ADD MSTORE PUSH1 0x2C PUSH1 0x24 DUP3 ADD MSTORE PUSH32 0x4552435F353532313A2074686520726566657272696E67206C6973742063616E PUSH1 0x44 DUP3 ADD MSTORE PUSH12 0x6E6F7420626520656D707479 PUSH1 0xA0 SHL PUSH1 0x64 DUP3 ADD MSTORE PUSH1 0x84 SWAP1 REVERT JUMPDEST POP SWAP2 SWAP3 SWAP1 SWAP3 PUSH2 0x1DA6 PUSH2 0x127D DUP4 PUSH2 0x27A6 JUMP JUMPDEST DUP2 PUSH1 0x0 MSTORE PUSH1 0x7 PUSH1 0x20 MSTORE PUSH1 0x40 PUSH1 0x0 KECCAK256 SWAP2 PUSH1 0x0 JUMPDEST DUP6 MLOAD DUP2 LT ISZERO PUSH2 0x1E9E JUMPI PUSH1 0x40 PUSH1 0x1 PUSH1 0x1 PUSH1 0xA0 SHL SUB PUSH2 0x1DD5 DUP4 DUP10 PUSH2 0x1C6A JUMP JUMPDEST MLOAD AND PUSH1 0x1 PUSH1 0x1 PUSH1 0xA0 SHL SUB AND PUSH1 0x0 SWAP1 DUP2 MSTORE PUSH1 0x20 DUP7 SWAP1 MSTORE KECCAK256 SLOAD ISZERO PUSH2 0x1E79 JUMPI JUMPDEST PUSH2 0x1DFC DUP2 DUP5 PUSH2 0x1C6A JUMP JUMPDEST MLOAD PUSH1 0x40 PUSH1 0x1 PUSH1 0x1 PUSH1 0xA0 SHL SUB PUSH2 0x1E11 DUP5 DUP11 PUSH2 0x1C6A JUMP JUMPDEST MLOAD AND PUSH1 0x1 PUSH1 0x1 PUSH1 0xA0 SHL SUB AND PUSH1 0x0 SWAP1 DUP2 MSTORE PUSH1 0x20 DUP8 SWAP1 MSTORE KECCAK256 DUP2 MLOAD SWAP2 PUSH1 0x1 PUSH1 0x1 PUSH1 0x40 SHL SUB DUP4 GT PUSH2 0xA74 JUMPI PUSH1 0x20 SWAP1 PUSH2 0x1E45 DUP5 DUP5 PUSH2 0x2607 JUMP JUMPDEST ADD SWAP1 PUSH1 0x0 MSTORE PUSH1 0x20 PUSH1 0x0 KECCAK256 PUSH1 0x0 JUMPDEST DUP4 DUP2 LT PUSH2 0x1E65 JUMPI POP POP POP POP PUSH1 0x1 ADD PUSH2 0x1DB8 JUMP JUMPDEST PUSH1 0x1 SWAP1 PUSH1 0x20 DUP5 MLOAD SWAP5 ADD SWAP4 DUP2 DUP5 ADD SSTORE ADD PUSH2 0x1E52 JUMP JUMPDEST PUSH2 0x1E99 PUSH1 0x1 PUSH1 0x1 PUSH1 0xA0 SHL SUB PUSH2 0x1E8E DUP4 DUP10 PUSH2 0x1C6A JUMP JUMPDEST MLOAD AND PUSH1 0x2 DUP7 ADD PUSH2 0x1C96 JUMP JUMPDEST PUSH2 0x1DF2 JUMP JUMPDEST POP SWAP4 SWAP2 PUSH1 0x4 TIMESTAMP SWAP2 ADD SSTORE PUSH2 0x1EB1 CALLER DUP6 PUSH2 0x2A06 JUMP JUMPDEST PUSH1 0x0 JUMPDEST DUP3 MLOAD DUP2 LT ISZERO PUSH2 0x2152 JUMPI ADDRESS PUSH1 0x1 PUSH1 0x1 PUSH1 0xA0 SHL SUB PUSH2 0x1ED0 DUP4 DUP7 PUSH2 0x1C6A JUMP JUMPDEST MLOAD AND SUB PUSH2 0x202E JUMPI ADDRESS SWAP4 PUSH1 0x0 JUMPDEST PUSH2 0x1EE6 DUP4 DUP6 PUSH2 0x1C6A JUMP JUMPDEST MLOAD MLOAD DUP2 LT ISZERO PUSH2 0x2021 JUMPI PUSH2 0x1F03 DUP2 PUSH2 0x1EFD DUP6 DUP8 PUSH2 0x1C6A JUMP JUMPDEST MLOAD PUSH2 0x1C6A JUMP JUMPDEST MLOAD PUSH1 0x0 SWAP1 DUP2 MSTORE PUSH1 0x7 PUSH1 0x20 MSTORE PUSH1 0x40 SWAP1 DUP2 SWAP1 KECCAK256 PUSH1 0x1 DUP2 ADD SWAP3 SWAP2 PUSH1 0x1 PUSH1 0x1 PUSH1 0xA0 SHL SUB PUSH2 0x1F2C DUP8 DUP11 PUSH2 0x1C6A JUMP JUMPDEST MLOAD AND PUSH1 0x1 PUSH1 0x1 PUSH1 0xA0 SHL SUB AND PUSH1 0x0 SWAP1 DUP2 MSTORE PUSH1 0x20 DUP6 SWAP1 MSTORE KECCAK256 SLOAD ISZERO PUSH2 0x1FFC JUMPI JUMPDEST PUSH2 0x1F57 DUP3 PUSH2 0x1EFD DUP8 DUP10 PUSH2 0x1C6A JUMP JUMPDEST MLOAD DUP10 EQ PUSH2 0x1FAB JUMPI PUSH1 0x4 TIMESTAMP SWAP2 ADD SLOAD LT ISZERO PUSH2 0x1109 JUMPI PUSH2 0x1F82 DUP9 PUSH1 0x40 PUSH1 0x1 SWAP5 PUSH1 0x0 SWAP1 DUP12 DUP3 MSTORE PUSH1 0x20 MSTORE KECCAK256 PUSH2 0x1CD7 JUMP JUMPDEST PUSH2 0x1FA5 PUSH2 0x1F93 DUP3 PUSH2 0x1EFD DUP8 DUP10 PUSH2 0x1C6A JUMP JUMPDEST MLOAD PUSH2 0x10FD PUSH2 0x10F7 DUP5 PUSH2 0x1EFD DUP10 DUP12 PUSH2 0x1C6A JUMP JUMPDEST ADD PUSH2 0x1EDC JUMP JUMPDEST PUSH1 0x40 MLOAD PUSH3 0x461BCD PUSH1 0xE5 SHL DUP2 MSTORE PUSH1 0x20 PUSH1 0x4 DUP3 ADD MSTORE PUSH1 0x24 DUP1 DUP3 ADD MSTORE PUSH32 0x4552435F353532313A2073656C662D7265666572656E6365206E6F7420616C6C PUSH1 0x44 DUP3 ADD MSTORE PUSH4 0x1BDDD959 PUSH1 0xE2 SHL PUSH1 0x64 DUP3 ADD MSTORE PUSH1 0x84 SWAP1 REVERT JUMPDEST PUSH2 0x201C PUSH1 0x1 PUSH1 0x1 PUSH1 0xA0 SHL SUB PUSH2 0x2011 DUP8 DUP11 PUSH2 0x1C6A JUMP JUMPDEST MLOAD AND PUSH1 0x3 DUP4 ADD PUSH2 0x1C96 JUMP JUMPDEST PUSH2 0x1F49 JUMP JUMPDEST POP SWAP4 POP PUSH1 0x1 SWAP1 JUMPDEST ADD PUSH2 0x1EB4 JUMP JUMPDEST PUSH1 0x1 PUSH1 0x1 PUSH1 0xA0 SHL SUB PUSH2 0x2040 DUP3 DUP6 PUSH2 0x1C6A JUMP JUMPDEST MLOAD PUSH1 0x40 MLOAD PUSH4 0x1FFC9A7 PUSH1 0xE0 SHL DUP2 MSTORE PUSH4 0x204CBD1 PUSH1 0xE5 SHL PUSH1 0x4 DUP3 ADD MSTORE SWAP2 AND SWAP2 SWAP1 PUSH1 0x20 DUP2 PUSH1 0x24 DUP2 DUP7 GAS STATICCALL SWAP1 DUP2 ISZERO PUSH2 0x210C JUMPI PUSH1 0x0 SWAP2 PUSH2 0x2134 JUMPI JUMPDEST POP PUSH2 0x2086 JUMPI JUMPDEST PUSH1 0x1 SWAP2 POP PUSH2 0x2028 JUMP JUMPDEST PUSH2 0x2090 DUP2 DUP5 PUSH2 0x1C6A JUMP JUMPDEST MLOAD SWAP2 DUP1 EXTCODESIZE ISZERO PUSH2 0x1AE JUMPI PUSH1 0x40 MLOAD DUP1 SWAP4 PUSH4 0x1570411 PUSH1 0xE6 SHL DUP3 MSTORE PUSH1 0x64 DUP3 ADD ADDRESS PUSH1 0x4 DUP5 ADD MSTORE DUP10 PUSH1 0x24 DUP5 ADD MSTORE PUSH1 0x60 PUSH1 0x44 DUP5 ADD MSTORE DUP2 MLOAD DUP1 SWAP2 MSTORE PUSH1 0x20 PUSH1 0x84 DUP5 ADD SWAP3 ADD SWAP1 PUSH1 0x0 SWAP1 JUMPDEST DUP1 DUP3 LT PUSH2 0x2118 JUMPI POP POP POP SWAP2 DUP2 PUSH1 0x0 DUP2 DUP2 SWAP6 SUB SWAP3 GAS CALL SWAP2 DUP3 ISZERO PUSH2 0x210C JUMPI PUSH1 0x1 SWAP3 PUSH2 0x20FB JUMPI JUMPDEST POP PUSH2 0x207D JUMP JUMPDEST PUSH1 0x0 PUSH2 0x2106 SWAP2 PUSH2 0x15AA JUMP JUMPDEST CODESIZE PUSH2 0x20F5 JUMP JUMPDEST PUSH1 0x40 MLOAD RETURNDATASIZE PUSH1 0x0 DUP3 RETURNDATACOPY RETURNDATASIZE SWAP1 REVERT JUMPDEST SWAP2 SWAP4 POP SWAP2 PUSH1 0x20 DUP1 PUSH1 0x1 SWAP3 DUP7 MLOAD DUP2 MSTORE ADD SWAP5 ADD SWAP3 ADD DUP7 SWAP4 SWAP3 SWAP2 PUSH2 0x20D1 JUMP JUMPDEST PUSH2 0x214C SWAP2 POP PUSH1 0x20 RETURNDATASIZE DUP2 GT PUSH2 0x3F4 JUMPI PUSH2 0x3E6 DUP2 DUP4 PUSH2 0x15AA JUMP JUMPDEST CODESIZE PUSH2 0x2077 JUMP JUMPDEST POP POP POP SWAP1 POP JUMP JUMPDEST PUSH1 0x40 MLOAD PUSH3 0x461BCD PUSH1 0xE5 SHL DUP2 MSTORE PUSH1 0x20 PUSH1 0x4 DUP3 ADD MSTORE PUSH1 0x36 PUSH1 0x24 DUP3 ADD MSTORE PUSH32 0x41646472657373657320616E6420546F6B656E494420617272617973206D7573 PUSH1 0x44 DUP3 ADD MSTORE PUSH22 0xE840D0C2ECCA40E8D0CA40E6C2DACA40D8CADCCEE8D PUSH1 0x53 SHL PUSH1 0x64 DUP3 ADD MSTORE PUSH1 0x84 SWAP1 REVERT JUMPDEST SWAP1 DUP2 PUSH1 0x20 SWAP2 SUB SLT PUSH2 0x1AE JUMPI MLOAD DUP1 ISZERO ISZERO DUP2 SUB PUSH2 0x1AE JUMPI SWAP1 JUMP JUMPDEST ISZERO PUSH2 0x21DC JUMPI JUMP JUMPDEST PUSH1 0x40 MLOAD PUSH3 0x461BCD PUSH1 0xE5 SHL DUP2 MSTORE PUSH1 0x20 PUSH1 0x4 DUP3 ADD MSTORE PUSH1 0x27 PUSH1 0x24 DUP3 ADD MSTORE PUSH32 0x4552435F353532313A2074617267657420636F6E7472616374206E6F74207375 PUSH1 0x44 DUP3 ADD MSTORE PUSH7 0x1C1C1BDC9D1959 PUSH1 0xCA SHL PUSH1 0x64 DUP3 ADD MSTORE PUSH1 0x84 SWAP1 REVERT JUMPDEST SWAP2 SWAP1 PUSH1 0x40 DUP4 DUP3 SUB SLT PUSH2 0x1AE JUMPI DUP3 MLOAD PUSH1 0x1 PUSH1 0x1 PUSH1 0x40 SHL SUB DUP2 GT PUSH2 0x1AE JUMPI DUP4 ADD DUP2 PUSH1 0x1F DUP3 ADD SLT ISZERO PUSH2 0x1AE JUMPI DUP1 MLOAD PUSH2 0x2265 DUP2 PUSH2 0x1675 JUMP JUMPDEST SWAP2 PUSH2 0x2273 PUSH1 0x40 MLOAD SWAP4 DUP5 PUSH2 0x15AA JUMP JUMPDEST DUP2 DUP4 MSTORE PUSH1 0x20 DUP1 DUP5 ADD SWAP3 PUSH1 0x5 SHL DUP3 ADD ADD SWAP1 DUP5 DUP3 GT PUSH2 0x1AE JUMPI PUSH1 0x20 ADD SWAP2 JUMPDEST DUP2 DUP4 LT PUSH2 0x2381 JUMPI POP POP POP SWAP3 PUSH1 0x20 DUP2 ADD MLOAD SWAP1 PUSH1 0x1 PUSH1 0x1 PUSH1 0x40 SHL SUB DUP3 GT PUSH2 0x1AE JUMPI ADD SWAP1 DUP1 PUSH1 0x1F DUP4 ADD SLT ISZERO PUSH2 0x1AE JUMPI DUP2 MLOAD SWAP1 PUSH2 0x22C7 DUP3 PUSH2 0x1675 JUMP JUMPDEST SWAP3 PUSH2 0x22D5 PUSH1 0x40 MLOAD SWAP5 DUP6 PUSH2 0x15AA JUMP JUMPDEST DUP3 DUP5 MSTORE PUSH1 0x20 DUP1 DUP6 ADD SWAP4 PUSH1 0x5 SHL DUP3 ADD ADD SWAP1 DUP3 DUP3 GT PUSH2 0x1AE JUMPI PUSH1 0x20 DUP2 ADD SWAP4 JUMPDEST DUP3 DUP6 LT PUSH2 0x2301 JUMPI POP POP POP POP POP SWAP1 JUMP JUMPDEST DUP5 MLOAD PUSH1 0x1 PUSH1 0x1 PUSH1 0x40 SHL SUB DUP2 GT PUSH2 0x1AE JUMPI DUP3 ADD DUP5 PUSH1 0x3F DUP3 ADD SLT ISZERO PUSH2 0x1AE JUMPI PUSH1 0x20 DUP2 ADD MLOAD SWAP1 PUSH2 0x232D DUP3 PUSH2 0x1675 JUMP JUMPDEST SWAP2 PUSH2 0x233B PUSH1 0x40 MLOAD SWAP4 DUP5 PUSH2 0x15AA JUMP JUMPDEST DUP1 DUP4 MSTORE PUSH1 0x20 DUP1 DUP1 DUP6 ADD SWAP3 PUSH1 0x5 SHL DUP5 ADD ADD ADD SWAP2 DUP8 DUP4 GT PUSH2 0x1AE JUMPI PUSH1 0x40 ADD SWAP1 JUMPDEST DUP3 DUP3 LT PUSH2 0x2371 JUMPI POP POP POP DUP2 MSTORE PUSH1 0x20 SWAP5 DUP6 ADD SWAP5 ADD PUSH2 0x22F2 JUMP JUMPDEST DUP2 MLOAD DUP2 MSTORE PUSH1 0x20 SWAP2 DUP3 ADD SWAP2 ADD PUSH2 0x2359 JUMP JUMPDEST DUP3 MLOAD PUSH1 0x1 PUSH1 0x1 PUSH1 0xA0 SHL SUB DUP2 AND DUP2 SUB PUSH2 0x1AE JUMPI DUP2 MSTORE PUSH1 0x20 SWAP3 DUP4 ADD SWAP3 ADD PUSH2 0x228F JUMP JUMPDEST SWAP1 SWAP3 SWAP2 PUSH1 0x20 SWAP4 PUSH1 0x40 MLOAD PUSH2 0x23B4 DUP7 DUP3 PUSH2 0x15AA JUMP JUMPDEST PUSH1 0x0 DUP2 MSTORE CALLER ISZERO PUSH2 0x1C31 JUMPI PUSH1 0x1 PUSH1 0x1 PUSH1 0xA0 SHL SUB PUSH2 0x23D0 DUP6 CALLER PUSH2 0x2938 JUMP JUMPDEST AND PUSH2 0x2528 JUMPI CALLER EXTCODESIZE PUSH2 0x2408 JUMPI JUMPDEST POP SWAP1 DUP1 SWAP3 SWAP4 SWAP5 POP MLOAD ISZERO ISZERO DUP1 PUSH2 0x23FE JUMPI JUMPDEST PUSH2 0x23F5 JUMPI POP POP POP JUMP JUMPDEST PUSH2 0x197C SWAP3 PUSH2 0x1D0C JUMP JUMPDEST POP DUP1 MLOAD ISZERO ISZERO PUSH2 0x23EC JUMP JUMPDEST DUP6 PUSH2 0x2442 SWAP2 PUSH1 0x40 MLOAD DUP1 SWAP4 DUP2 SWAP3 PUSH4 0xA85BD01 PUSH1 0xE1 SHL DUP4 MSTORE CALLER PUSH1 0x4 DUP5 ADD MSTORE PUSH1 0x0 PUSH1 0x24 DUP5 ADD MSTORE DUP9 PUSH1 0x44 DUP5 ADD MSTORE PUSH1 0x80 PUSH1 0x64 DUP5 ADD MSTORE PUSH1 0x84 DUP4 ADD SWAP1 PUSH2 0x153E JUMP JUMPDEST SUB DUP2 PUSH1 0x0 CALLER GAS CALL DUP1 SWAP2 PUSH1 0x0 SWAP2 PUSH2 0x24E7 JUMPI JUMPDEST POP SWAP1 PUSH2 0x24A9 JUMPI DUP6 RETURNDATASIZE ISZERO PUSH2 0x24A2 JUMPI RETURNDATASIZE PUSH2 0x246A DUP2 PUSH2 0x15CB JUMP JUMPDEST SWAP1 PUSH2 0x2478 PUSH1 0x40 MLOAD SWAP3 DUP4 PUSH2 0x15AA JUMP JUMPDEST DUP2 MSTORE RETURNDATASIZE PUSH1 0x0 DUP4 DUP4 ADD RETURNDATACOPY JUMPDEST DUP1 MLOAD SWAP2 DUP3 PUSH2 0x249F JUMPI PUSH4 0x32505749 PUSH1 0xE1 SHL PUSH1 0x0 MSTORE CALLER PUSH1 0x4 MSTORE PUSH1 0x24 PUSH1 0x0 REVERT JUMPDEST ADD REVERT JUMPDEST PUSH1 0x60 PUSH2 0x2482 JUMP JUMPDEST SWAP4 SWAP5 POP SWAP2 SWAP3 SWAP1 SWAP2 SWAP1 PUSH1 0x1 PUSH1 0x1 PUSH1 0xE0 SHL SUB NOT AND PUSH4 0x757A42FF PUSH1 0xE1 SHL ADD PUSH2 0x24D2 JUMPI SWAP1 DUP4 SWAP3 SWAP2 CODESIZE PUSH2 0x23DC JUMP JUMPDEST PUSH4 0x32505749 PUSH1 0xE1 SHL PUSH1 0x0 MSTORE CALLER PUSH1 0x4 MSTORE PUSH1 0x24 PUSH1 0x0 REVERT JUMPDEST DUP8 DUP2 DUP2 RETURNDATASIZE DUP4 GT PUSH2 0x2521 JUMPI JUMPDEST PUSH2 0x24FC DUP2 DUP4 PUSH2 0x15AA JUMP JUMPDEST DUP2 ADD SUB SLT PUSH2 0x3B7 JUMPI MLOAD SWAP1 PUSH1 0x1 PUSH1 0x1 PUSH1 0xE0 SHL SUB NOT DUP3 AND DUP3 SUB PUSH2 0x251E JUMPI POP CODESIZE PUSH2 0x2453 JUMP JUMPDEST DUP1 REVERT JUMPDEST POP RETURNDATASIZE PUSH2 0x24F2 JUMP JUMPDEST PUSH4 0x39E35637 PUSH1 0xE1 SHL PUSH1 0x0 MSTORE PUSH1 0x0 PUSH1 0x4 MSTORE PUSH1 0x24 PUSH1 0x0 REVERT JUMPDEST ISZERO PUSH2 0x2545 JUMPI JUMP JUMPDEST PUSH1 0x40 MLOAD PUSH3 0x461BCD PUSH1 0xE5 SHL DUP2 MSTORE PUSH1 0x20 PUSH1 0x4 DUP3 ADD MSTORE PUSH1 0x16 PUSH1 0x24 DUP3 ADD MSTORE PUSH22 0x2737BA103A34329031B7B73A3930B1BA1037BBB732B9 PUSH1 0x51 SHL PUSH1 0x44 DUP3 ADD MSTORE PUSH1 0x64 SWAP1 REVERT JUMPDEST SWAP1 PUSH2 0x258D DUP3 PUSH2 0x1675 JUMP JUMPDEST PUSH2 0x259A PUSH1 0x40 MLOAD SWAP2 DUP3 PUSH2 0x15AA JUMP JUMPDEST DUP3 DUP2 MSTORE DUP1 SWAP3 PUSH2 0x25AB PUSH1 0x1F NOT SWAP2 PUSH2 0x1675 JUMP JUMPDEST ADD SWAP1 PUSH1 0x0 JUMPDEST DUP3 DUP2 LT PUSH2 0x25BC JUMPI POP POP POP JUMP JUMPDEST DUP1 PUSH1 0x60 PUSH1 0x20 DUP1 SWAP4 DUP6 ADD ADD MSTORE ADD PUSH2 0x25B0 JUMP JUMPDEST DUP2 DUP2 LT PUSH2 0x25D8 JUMPI POP POP JUMP JUMPDEST PUSH1 0x0 DUP2 SSTORE PUSH1 0x1 ADD PUSH2 0x25CD JUMP JUMPDEST SWAP2 DUP2 DUP2 LT PUSH2 0x25F1 JUMPI POP POP POP JUMP JUMPDEST PUSH2 0x197C SWAP3 PUSH1 0x0 MSTORE PUSH1 0x20 PUSH1 0x0 KECCAK256 SWAP2 DUP3 ADD SWAP2 ADD PUSH2 0x25CD JUMP JUMPDEST SWAP1 PUSH1 0x1 PUSH1 0x40 SHL DUP2 GT PUSH2 0xA74 JUMPI DUP2 SLOAD DUP2 DUP4 SSTORE PUSH2 0x197C SWAP3 PUSH2 0x25E4 JUMP JUMPDEST ISZERO PUSH2 0x2628 JUMPI JUMP JUMPDEST PUSH1 0x40 MLOAD PUSH3 0x461BCD PUSH1 0xE5 SHL DUP2 MSTORE PUSH1 0x20 PUSH1 0x4 DUP3 ADD MSTORE PUSH1 0x14 PUSH1 0x24 DUP3 ADD MSTORE PUSH20 0x151BDAD95B88191BD95CC81B9BDD08195E1A5CDD PUSH1 0x62 SHL PUSH1 0x44 DUP3 ADD MSTORE PUSH1 0x64 SWAP1 REVERT JUMPDEST ISZERO PUSH2 0x266B JUMPI JUMP JUMPDEST PUSH1 0x64 PUSH1 0x40 MLOAD PUSH3 0x461BCD PUSH1 0xE5 SHL DUP2 MSTORE PUSH1 0x20 PUSH1 0x4 DUP3 ADD MSTORE PUSH1 0x20 PUSH1 0x24 DUP3 ADD MSTORE PUSH32 0x546F6B656E2069732061206C6963656E73652C206E6F7420736F667477617265 PUSH1 0x44 DUP3 ADD MSTORE REVERT JUMPDEST SWAP1 PUSH1 0x40 MLOAD SWAP2 DUP3 DUP2 SLOAD SWAP2 DUP3 DUP3 MSTORE PUSH1 0x20 DUP3 ADD SWAP1 PUSH1 0x0 MSTORE PUSH1 0x20 PUSH1 0x0 KECCAK256 SWAP3 PUSH1 0x0 JUMPDEST DUP2 DUP2 LT PUSH2 0x26E1 JUMPI POP POP PUSH2 0x197C SWAP3 POP SUB DUP4 PUSH2 0x15AA JUMP JUMPDEST DUP5 SLOAD PUSH1 0x1 PUSH1 0x1 PUSH1 0xA0 SHL SUB AND DUP4 MSTORE PUSH1 0x1 SWAP5 DUP6 ADD SWAP5 DUP8 SWAP5 POP PUSH1 0x20 SWAP1 SWAP4 ADD SWAP3 ADD PUSH2 0x26CC JUMP JUMPDEST SWAP1 PUSH1 0x40 MLOAD SWAP2 DUP3 DUP2 SLOAD SWAP2 DUP3 DUP3 MSTORE PUSH1 0x20 DUP3 ADD SWAP1 PUSH1 0x0 MSTORE PUSH1 0x20 PUSH1 0x0 KECCAK256 SWAP3 PUSH1 0x0 JUMPDEST DUP2 DUP2 LT PUSH2 0x2735 JUMPI POP POP PUSH2 0x197C SWAP3 POP SUB DUP4 PUSH2 0x15AA JUMP JUMPDEST DUP5 SLOAD DUP4 MSTORE PUSH1 0x1 SWAP5 DUP6 ADD SWAP5 DUP8 SWAP5 POP PUSH1 0x20 SWAP1 SWAP4 ADD SWAP3 ADD PUSH2 0x2720 JUMP JUMPDEST SWAP1 DUP2 SLOAD PUSH2 0x275A DUP2 PUSH2 0x1675 JUMP JUMPDEST SWAP3 PUSH2 0x2768 PUSH1 0x40 MLOAD SWAP5 DUP6 PUSH2 0x15AA JUMP JUMPDEST DUP2 DUP5 MSTORE PUSH1 0x20 DUP5 ADD SWAP1 PUSH1 0x0 MSTORE PUSH1 0x20 PUSH1 0x0 KECCAK256 PUSH1 0x0 SWAP2 JUMPDEST DUP4 DUP4 LT PUSH2 0x2789 JUMPI POP POP POP POP JUMP JUMPDEST PUSH1 0x1 PUSH1 0x20 DUP2 SWAP3 PUSH2 0x2798 DUP6 PUSH2 0x2703 JUMP JUMPDEST DUP2 MSTORE ADD SWAP3 ADD SWAP3 ADD SWAP2 SWAP1 PUSH2 0x277C JUMP JUMPDEST PUSH1 0x0 DUP2 DUP2 MSTORE PUSH1 0x2 PUSH1 0x20 MSTORE PUSH1 0x40 SWAP1 KECCAK256 SLOAD PUSH1 0x1 PUSH1 0x1 PUSH1 0xA0 SHL SUB AND SWAP1 DUP2 ISZERO PUSH2 0x27C9 JUMPI POP SWAP1 JUMP JUMPDEST PUSH4 0x7E273289 PUSH1 0xE0 SHL PUSH1 0x0 MSTORE PUSH1 0x4 MSTORE PUSH1 0x24 PUSH1 0x0 REVERT JUMPDEST SWAP2 SWAP1 SWAP2 DUP1 PUSH1 0x0 MSTORE PUSH1 0x6 PUSH1 0x20 MSTORE PUSH1 0x40 PUSH1 0x0 KECCAK256 DUP4 MLOAD PUSH1 0x1 PUSH1 0x1 PUSH1 0x40 SHL SUB DUP2 GT PUSH2 0xA74 JUMPI PUSH2 0x2808 DUP3 SLOAD PUSH2 0x1909 JUMP JUMPDEST PUSH1 0x1F DUP2 GT PUSH2 0x2906 JUMPI JUMPDEST POP PUSH1 0x20 PUSH1 0x1F DUP3 GT PUSH1 0x1 EQ PUSH2 0x287A JUMPI SWAP1 DUP1 PUSH1 0x20 SWAP5 SWAP4 SWAP3 PUSH32 0xF8E1A15ABA9398E019F0B49DF1A4FDE98EE17AE345CB5F6B5E2C27F5033E8CE7 SWAP7 SWAP8 PUSH1 0x0 SWAP3 PUSH2 0x286F JUMPI JUMPDEST POP POP DUP2 PUSH1 0x1 SHL SWAP2 PUSH1 0x0 NOT SWAP1 PUSH1 0x3 SHL SHR NOT AND OR SWAP1 SSTORE JUMPDEST PUSH1 0x40 MLOAD SWAP1 DUP2 MSTORE LOG1 JUMP JUMPDEST ADD MLOAD SWAP1 POP CODESIZE DUP1 PUSH2 0x2851 JUMP JUMPDEST PUSH1 0x1F NOT DUP3 AND SWAP6 DUP4 PUSH1 0x0 MSTORE DUP2 PUSH1 0x0 KECCAK256 SWAP7 PUSH1 0x0 JUMPDEST DUP2 DUP2 LT PUSH2 0x28EE JUMPI POP SWAP7 PUSH1 0x1 SWAP3 DUP5 SWAP3 PUSH1 0x20 SWAP8 SWAP7 SWAP6 PUSH32 0xF8E1A15ABA9398E019F0B49DF1A4FDE98EE17AE345CB5F6B5E2C27F5033E8CE7 SWAP10 SWAP11 LT PUSH2 0x28D5 JUMPI JUMPDEST POP POP POP DUP2 SHL ADD SWAP1 SSTORE PUSH2 0x2866 JUMP JUMPDEST ADD MLOAD PUSH1 0x0 NOT PUSH1 0xF8 DUP5 PUSH1 0x3 SHL AND SHR NOT AND SWAP1 SSTORE CODESIZE DUP1 DUP1 PUSH2 0x28C8 JUMP JUMPDEST DUP4 DUP4 ADD MLOAD DUP10 SSTORE PUSH1 0x1 SWAP1 SWAP9 ADD SWAP8 PUSH1 0x20 SWAP4 DUP5 ADD SWAP4 ADD PUSH2 0x288C JUMP JUMPDEST PUSH2 0x2932 SWAP1 DUP4 PUSH1 0x0 MSTORE PUSH1 0x20 PUSH1 0x0 KECCAK256 PUSH1 0x1F DUP5 ADD PUSH1 0x5 SHR DUP2 ADD SWAP2 PUSH1 0x20 DUP6 LT PUSH2 0xB99 JUMPI PUSH1 0x1F ADD PUSH1 0x5 SHR ADD SWAP1 PUSH2 0x25CD JUMP JUMPDEST CODESIZE PUSH2 0x2811 JUMP JUMPDEST PUSH1 0x0 DUP3 DUP2 MSTORE PUSH1 0x2 PUSH1 0x20 MSTORE PUSH1 0x40 SWAP1 KECCAK256 SLOAD PUSH1 0x1 PUSH1 0x1 PUSH1 0xA0 SHL SUB AND SWAP2 SWAP1 DUP3 PUSH2 0x29CF JUMPI JUMPDEST PUSH1 0x1 PUSH1 0x1 PUSH1 0xA0 SHL SUB AND DUP1 PUSH2 0x29B5 JUMPI JUMPDEST DUP2 PUSH1 0x0 MSTORE PUSH1 0x2 PUSH1 0x20 MSTORE PUSH1 0x40 PUSH1 0x0 KECCAK256 DUP2 PUSH12 0xFFFFFFFFFFFFFFFFFFFFFFFF PUSH1 0xA0 SHL DUP3 SLOAD AND OR SWAP1 SSTORE DUP3 PUSH32 0xDDF252AD1BE2C89B69C2B068FC378DAA952BA7F163C4A11628F55A4DF523B3EF PUSH1 0x0 DUP1 LOG4 SWAP1 JUMP JUMPDEST DUP1 PUSH1 0x0 MSTORE PUSH1 0x3 PUSH1 0x20 MSTORE PUSH1 0x40 PUSH1 0x0 KECCAK256 PUSH1 0x1 DUP2 SLOAD ADD SWAP1 SSTORE PUSH2 0x2967 JUMP JUMPDEST PUSH1 0x0 DUP3 DUP2 MSTORE PUSH1 0x4 PUSH1 0x20 MSTORE PUSH1 0x40 SWAP1 KECCAK256 DUP1 SLOAD PUSH1 0x1 PUSH1 0x1 PUSH1 0xA0 SHL SUB NOT AND SWAP1 SSTORE DUP3 PUSH1 0x0 MSTORE PUSH1 0x3 PUSH1 0x20 MSTORE PUSH1 0x40 PUSH1 0x0 KECCAK256 PUSH1 0x0 NOT DUP2 SLOAD ADD SWAP1 SSTORE PUSH2 0x2958 JUMP JUMPDEST PUSH32 0x81BED52C04E8CD65796985202162BAD7E20A8FFAA732FE2E0A0BC79F687E4D66 PUSH2 0x2A60 PUSH2 0x2A7C PUSH2 0x2A95 PUSH2 0x2A6E SWAP6 PUSH2 0x2A3D DUP7 PUSH2 0x2B27 JUMP JUMPDEST PUSH2 0x2A49 DUP9 SWAP6 SWAP3 SWAP6 PUSH2 0x2A9A JUMP JUMPDEST SWAP10 SWAP1 SWAP2 PUSH1 0x40 MLOAD SWAP8 DUP9 SWAP8 PUSH1 0x80 DUP10 MSTORE PUSH1 0x80 DUP10 ADD SWAP1 PUSH2 0x1822 JUMP JUMPDEST SWAP1 DUP8 DUP3 SUB PUSH1 0x20 DUP10 ADD MSTORE PUSH2 0x185F JUMP JUMPDEST SWAP1 DUP6 DUP3 SUB PUSH1 0x40 DUP8 ADD MSTORE PUSH2 0x1822 JUMP JUMPDEST DUP4 DUP2 SUB PUSH1 0x60 DUP6 ADD MSTORE PUSH1 0x1 PUSH1 0x1 PUSH1 0xA0 SHL SUB SWAP1 SWAP2 AND SWAP7 PUSH2 0x185F JUMP JUMPDEST SUB SWAP1 LOG3 JUMP JUMPDEST PUSH1 0x0 SWAP1 DUP2 MSTORE PUSH1 0x7 PUSH1 0x20 MSTORE PUSH1 0x40 SWAP1 KECCAK256 SWAP1 PUSH2 0x2AB5 PUSH1 0x3 DUP4 ADD PUSH2 0x26AF JUMP JUMPDEST SWAP2 PUSH2 0x2AC0 DUP4 MLOAD PUSH2 0x2583 JUMP JUMPDEST SWAP3 PUSH1 0x1 PUSH1 0x0 SWAP3 ADD SWAP2 JUMPDEST DUP2 MLOAD DUP2 LT ISZERO PUSH2 0x2B20 JUMPI PUSH1 0x1 SWAP1 PUSH2 0x2B04 PUSH1 0x40 PUSH1 0x1 PUSH1 0x1 PUSH1 0xA0 SHL SUB PUSH2 0x2AEC DUP5 DUP8 PUSH2 0x1C6A JUMP JUMPDEST MLOAD AND PUSH1 0x0 SWAP1 DUP6 DUP1 PUSH1 0xA0 SHL SUB AND DUP2 MSTORE DUP7 PUSH1 0x20 MSTORE KECCAK256 PUSH2 0x2703 JUMP JUMPDEST PUSH2 0x2B0E DUP3 DUP9 PUSH2 0x1C6A JUMP JUMPDEST MSTORE PUSH2 0x2B19 DUP2 DUP8 PUSH2 0x1C6A JUMP JUMPDEST POP ADD PUSH2 0x2AC9 JUMP JUMPDEST POP SWAP1 POP SWAP2 SWAP1 JUMP JUMPDEST PUSH1 0x0 MSTORE PUSH1 0x7 PUSH1 0x20 MSTORE PUSH1 0x40 PUSH1 0x0 KECCAK256 SWAP1 PUSH2 0x2B41 PUSH1 0x2 DUP4 ADD PUSH2 0x26AF JUMP JUMPDEST SWAP2 PUSH2 0x2B4C DUP4 MLOAD PUSH2 0x2583 JUMP JUMPDEST SWAP3 PUSH1 0x0 JUMPDEST DUP2 MLOAD DUP2 LT ISZERO PUSH2 0x2B20 JUMPI PUSH1 0x1 SWAP1 PUSH2 0x2B73 PUSH1 0x40 PUSH1 0x1 PUSH1 0x1 PUSH1 0xA0 SHL SUB PUSH2 0x2AEC DUP5 DUP8 PUSH2 0x1C6A JUMP JUMPDEST PUSH2 0x2B7D DUP3 DUP9 PUSH2 0x1C6A JUMP JUMPDEST MSTORE PUSH2 0x2B88 DUP2 DUP8 PUSH2 0x1C6A JUMP JUMPDEST POP ADD PUSH2 0x2B50 JUMP JUMPDEST SWAP2 SWAP3 SWAP2 SWAP1 PUSH1 0x1 PUSH1 0x1 PUSH1 0xA0 SHL SUB DUP2 AND ISZERO PUSH2 0x1C31 JUMPI PUSH1 0x1 PUSH1 0x1 PUSH1 0xA0 SHL SUB SWAP1 PUSH2 0x2BB6 SWAP1 DUP6 SWAP1 PUSH2 0x2938 JUMP JUMPDEST AND SWAP1 DUP2 PUSH2 0x2BD2 JUMPI DUP4 PUSH4 0x7E273289 PUSH1 0xE0 SHL PUSH1 0x0 MSTORE PUSH1 0x4 MSTORE PUSH1 0x24 PUSH1 0x0 REVERT JUMPDEST SWAP2 SWAP3 SWAP1 SWAP2 PUSH1 0x1 PUSH1 0x1 PUSH1 0xA0 SHL SUB AND DUP1 DUP4 SUB PUSH2 0x1B4A JUMPI POP POP POP JUMP JUMPDEST DUP3 EXTCODESIZE PUSH2 0x2BF9 JUMPI JUMPDEST POP POP POP POP POP JUMP JUMPDEST PUSH1 0x40 MLOAD PUSH4 0xA85BD01 PUSH1 0xE1 SHL DUP2 MSTORE PUSH1 0x1 PUSH1 0x1 PUSH1 0xA0 SHL SUB SWAP2 DUP3 AND PUSH1 0x4 DUP3 ADD MSTORE SWAP2 DUP2 AND PUSH1 0x24 DUP4 ADD MSTORE PUSH1 0x44 DUP3 ADD SWAP4 SWAP1 SWAP4 MSTORE PUSH1 0x80 PUSH1 0x64 DUP3 ADD MSTORE SWAP2 AND SWAP2 PUSH1 0x20 SWAP1 DUP3 SWAP1 DUP2 SWAP1 PUSH2 0x2C45 SWAP1 PUSH1 0x84 DUP4 ADD SWAP1 PUSH2 0x153E JUMP JUMPDEST SUB DUP2 PUSH1 0x0 DUP7 GAS CALL DUP1 SWAP2 PUSH1 0x0 SWAP2 PUSH2 0x2CE5 JUMPI JUMPDEST POP SWAP1 PUSH2 0x2CAF JUMPI POP RETURNDATASIZE ISZERO PUSH2 0x2CA8 JUMPI RETURNDATASIZE PUSH2 0x2C6D DUP2 PUSH2 0x15CB JUMP JUMPDEST SWAP1 PUSH2 0x2C7B PUSH1 0x40 MLOAD SWAP3 DUP4 PUSH2 0x15AA JUMP JUMPDEST DUP2 MSTORE RETURNDATASIZE PUSH1 0x0 PUSH1 0x20 DUP4 ADD RETURNDATACOPY JUMPDEST DUP1 MLOAD SWAP1 DUP2 PUSH2 0x2CA3 JUMPI DUP3 PUSH4 0x32505749 PUSH1 0xE1 SHL PUSH1 0x0 MSTORE PUSH1 0x4 MSTORE PUSH1 0x24 PUSH1 0x0 REVERT JUMPDEST PUSH1 0x20 ADD REVERT JUMPDEST PUSH1 0x60 PUSH2 0x2C86 JUMP JUMPDEST PUSH1 0x1 PUSH1 0x1 PUSH1 0xE0 SHL SUB NOT AND PUSH4 0x757A42FF PUSH1 0xE1 SHL ADD PUSH2 0x2CD1 JUMPI POP CODESIZE DUP1 DUP1 DUP1 DUP1 PUSH2 0x2BF2 JUMP JUMPDEST PUSH4 0x32505749 PUSH1 0xE1 SHL PUSH1 0x0 MSTORE PUSH1 0x4 MSTORE PUSH1 0x24 PUSH1 0x0 REVERT JUMPDEST PUSH1 0x20 DUP2 RETURNDATASIZE PUSH1 0x20 GT PUSH2 0x2D20 JUMPI JUMPDEST DUP2 PUSH2 0x2CFE PUSH1 0x20 SWAP4 DUP4 PUSH2 0x15AA JUMP JUMPDEST DUP2 ADD SUB SLT PUSH2 0x3B7 JUMPI MLOAD SWAP1 PUSH1 0x1 PUSH1 0x1 PUSH1 0xE0 SHL SUB NOT DUP3 AND DUP3 SUB PUSH2 0x251E JUMPI POP CODESIZE PUSH2 0x2C56 JUMP JUMPDEST RETURNDATASIZE SWAP2 POP PUSH2 0x2CF1 JUMP JUMPDEST PUSH2 0x2D31 DUP2 PUSH2 0x27A6 JUMP JUMPDEST POP PUSH1 0x0 MSTORE PUSH1 0x6 PUSH1 0x20 MSTORE PUSH2 0x2D47 PUSH1 0x40 PUSH1 0x0 KECCAK256 PUSH2 0x1943 JUMP JUMPDEST PUSH1 0x0 PUSH1 0x40 MLOAD PUSH2 0x2D57 PUSH1 0x20 DUP3 PUSH2 0x15AA JUMP JUMPDEST MSTORE SWAP1 JUMP INVALID LOG2 PUSH5 0x6970667358 0x22 SLT KECCAK256 SMOD 0xE 0xEC SWAP9 MSTORE8 0xD5 AND 0x2B 0xCD 0xED SWAP10 0x23 0xAE ADDRESS 0xD2 STATICCALL 0xC6 0xB4 0x23 PUSH12 0x457B075467DA5F3F17BA9F5D PUSH5 0x736F6C6343 STOP ADDMOD SHR STOP CALLER "},"methodIdentifiers":{"approve(address,uint256)":"095ea7b3","balanceOf(address)":"70a08231","createdTimestampOf(address,uint256)":"d30d968d","getApproved(uint256)":"081812fc","getCreator(uint256)":"d48e638a","getDirectDependencies(uint256)":"dd723698","getOwner()":"893d20e8","getSoftwareMeta(uint256)":"9d17a35c","hasDependencies(uint256)":"be5e7d86","isApprovedForAll(address,address)":"e985e9c5","isLicense(uint256)":"8cf56248","mintLicense(address,uint256,uint256)":"89da60ac","mintSoftware(uint256,string,address[],uint256[][])":"98ab64ae","name()":"06fdde03","ownerOf(uint256)":"6352211e","referredOf(address,uint256)":"64f9b0e6","referringOf(address,uint256)":"a35391ac","safeMint(uint256,address[],uint256[][])":"66a8b8dc","safeTransferFrom(address,address,uint256)":"42842e0e","safeTransferFrom(address,address,uint256,bytes)":"b88d4fde","setApprovalForAll(address,bool)":"a22cb465","setNode(uint256,address[],uint256[][])":"616c5535","setNodeReferredExternal(address,uint256,uint256[])":"55c10440","setTokenURI(uint256,string)":"162094c4","supportsInterface(bytes4)":"01ffc9a7","symbol()":"95d89b41","tokenURI(uint256)":"c87b56dd","transferFrom(address,address,uint256)":"23b872dd"}}}}}