{"contracts/ERC_5521.sol":{"ERC_5521":{"abi":[{"inputs":[{"internalType":"string","name":"name_","type":"string"},{"internalType":"string","name":"symbol_","type":"string"}],"stateMutability":"nonpayable","type":"constructor"},{"inputs":[{"internalType":"address","name":"sender","type":"address"},{"internalType":"uint256","name":"tokenId","type":"uint256"},{"internalType":"address","name":"owner","type":"address"}],"name":"ERC721IncorrectOwner","type":"error"},{"inputs":[{"internalType":"address","name":"operator","type":"address"},{"internalType":"uint256","name":"tokenId","type":"uint256"}],"name":"ERC721InsufficientApproval","type":"error"},{"inputs":[{"internalType":"address","name":"approver","type":"address"}],"name":"ERC721InvalidApprover","type":"error"},{"inputs":[{"internalType":"address","name":"operator","type":"address"}],"name":"ERC721InvalidOperator","type":"error"},{"inputs":[{"internalType":"address","name":"owner","type":"address"}],"name":"ERC721InvalidOwner","type":"error"},{"inputs":[{"internalType":"address","name":"receiver","type":"address"}],"name":"ERC721InvalidReceiver","type":"error"},{"inputs":[{"internalType":"address","name":"sender","type":"address"}],"name":"ERC721InvalidSender","type":"error"},{"inputs":[{"internalType":"uint256","name":"tokenId","type":"uint256"}],"name":"ERC721NonexistentToken","type":"error"},{"anonymous":false,"inputs":[{"indexed":true,"internalType":"address","name":"owner","type":"address"},{"indexed":true,"internalType":"address","name":"approved","type":"address"},{"indexed":true,"internalType":"uint256","name":"tokenId","type":"uint256"}],"name":"Approval","type":"event"},{"anonymous":false,"inputs":[{"indexed":true,"internalType":"address","name":"owner","type":"address"},{"indexed":true,"internalType":"address","name":"operator","type":"address"},{"indexed":false,"internalType":"bool","name":"approved","type":"bool"}],"name":"ApprovalForAll","type":"event"},{"anonymous":false,"inputs":[{"indexed":false,"internalType":"uint256","name":"_fromTokenId","type":"uint256"},{"indexed":false,"internalType":"uint256","name":"_toTokenId","type":"uint256"}],"name":"BatchMetadataUpdate","type":"event"},{"anonymous":false,"inputs":[{"indexed":false,"internalType":"uint256","name":"_tokenId","type":"uint256"}],"name":"MetadataUpdate","type":"event"},{"anonymous":false,"inputs":[{"indexed":true,"internalType":"address","name":"from","type":"address"},{"indexed":true,"internalType":"address","name":"to","type":"address"},{"indexed":true,"internalType":"uint256","name":"tokenId","type":"uint256"}],"name":"Transfer","type":"event"},{"anonymous":false,"inputs":[{"indexed":true,"internalType":"uint256","name":"tokenId","type":"uint256"},{"indexed":true,"internalType":"address","name":"owner","type":"address"},{"indexed":false,"internalType":"address[]","name":"_address_referringList","type":"address[]"},{"indexed":false,"internalType":"uint256[][]","name":"_tokenIds_referringList","type":"uint256[][]"},{"indexed":false,"internalType":"address[]","name":"_address_referredList","type":"address[]"},{"indexed":false,"internalType":"uint256[][]","name":"_tokenIds_referredList","type":"uint256[][]"}],"name":"UpdateNode","type":"event"},{"inputs":[{"internalType":"address","name":"to","type":"address"},{"internalType":"uint256","name":"tokenId","type":"uint256"}],"name":"approve","outputs":[],"stateMutability":"nonpayable","type":"function"},{"inputs":[{"internalType":"address","name":"owner","type":"address"}],"name":"balanceOf","outputs":[{"internalType":"uint256","name":"","type":"uint256"}],"stateMutability":"view","type":"function"},{"inputs":[{"internalType":"address","name":"_address","type":"address"},{"internalType":"uint256","name":"tokenId","type":"uint256"}],"name":"createdTimestampOf","outputs":[{"internalType":"uint256","name":"","type":"uint256"}],"stateMutability":"view","type":"function"},{"inputs":[{"internalType":"uint256","name":"tokenId","type":"uint256"}],"name":"getApproved","outputs":[{"internalType":"address","name":"","type":"address"}],"stateMutability":"view","type":"function"},{"inputs":[{"internalType":"address","name":"owner","type":"address"},{"internalType":"address","name":"operator","type":"address"}],"name":"isApprovedForAll","outputs":[{"internalType":"bool","name":"","type":"bool"}],"stateMutability":"view","type":"function"},{"inputs":[],"name":"name","outputs":[{"internalType":"string","name":"","type":"string"}],"stateMutability":"view","type":"function"},{"inputs":[{"internalType":"uint256","name":"tokenId","type":"uint256"}],"name":"ownerOf","outputs":[{"internalType":"address","name":"","type":"address"}],"stateMutability":"view","type":"function"},{"inputs":[{"internalType":"address","name":"_address","type":"address"},{"internalType":"uint256","name":"tokenId","type":"uint256"}],"name":"referredOf","outputs":[{"internalType":"address[]","name":"","type":"address[]"},{"internalType":"uint256[][]","name":"","type":"uint256[][]"}],"stateMutability":"view","type":"function"},{"inputs":[{"internalType":"address","name":"_address","type":"address"},{"internalType":"uint256","name":"tokenId","type":"uint256"}],"name":"referringOf","outputs":[{"internalType":"address[]","name":"","type":"address[]"},{"internalType":"uint256[][]","name":"","type":"uint256[][]"}],"stateMutability":"view","type":"function"},{"inputs":[{"internalType":"uint256","name":"tokenId","type":"uint256"},{"internalType":"address[]","name":"addresses","type":"address[]"},{"internalType":"uint256[][]","name":"_tokenIds","type":"uint256[][]"}],"name":"safeMint","outputs":[],"stateMutability":"nonpayable","type":"function"},{"inputs":[{"internalType":"address","name":"from","type":"address"},{"internalType":"address","name":"to","type":"address"},{"internalType":"uint256","name":"tokenId","type":"uint256"}],"name":"safeTransferFrom","outputs":[],"stateMutability":"nonpayable","type":"function"},{"inputs":[{"internalType":"address","name":"from","type":"address"},{"internalType":"address","name":"to","type":"address"},{"internalType":"uint256","name":"tokenId","type":"uint256"},{"internalType":"bytes","name":"data","type":"bytes"}],"name":"safeTransferFrom","outputs":[],"stateMutability":"nonpayable","type":"function"},{"inputs":[{"internalType":"address","name":"operator","type":"address"},{"internalType":"bool","name":"approved","type":"bool"}],"name":"setApprovalForAll","outputs":[],"stateMutability":"nonpayable","type":"function"},{"inputs":[{"internalType":"uint256","name":"tokenId","type":"uint256"},{"internalType":"address[]","name":"addresses","type":"address[]"},{"internalType":"uint256[][]","name":"tokenIds","type":"uint256[][]"}],"name":"setNode","outputs":[],"stateMutability":"nonpayable","type":"function"},{"inputs":[{"internalType":"address","name":"_address","type":"address"},{"internalType":"uint256","name":"tokenId","type":"uint256"},{"internalType":"uint256[]","name":"_tokenIds","type":"uint256[]"}],"name":"setNodeReferredExternal","outputs":[],"stateMutability":"nonpayable","type":"function"},{"inputs":[{"internalType":"uint256","name":"tokenId","type":"uint256"},{"internalType":"string","name":"_tokenURI","type":"string"}],"name":"setTokenURI","outputs":[],"stateMutability":"nonpayable","type":"function"},{"inputs":[{"internalType":"bytes4","name":"interfaceId","type":"bytes4"}],"name":"supportsInterface","outputs":[{"internalType":"bool","name":"","type":"bool"}],"stateMutability":"view","type":"function"},{"inputs":[],"name":"symbol","outputs":[{"internalType":"string","name":"","type":"string"}],"stateMutability":"view","type":"function"},{"inputs":[{"internalType":"uint256","name":"tokenId","type":"uint256"}],"name":"tokenURI","outputs":[{"internalType":"string","name":"","type":"string"}],"stateMutability":"view","type":"function"},{"inputs":[{"internalType":"address","name":"from","type":"address"},{"internalType":"address","name":"to","type":"address"},{"internalType":"uint256","name":"tokenId","type":"uint256"}],"name":"transferFrom","outputs":[],"stateMutability":"nonpayable","type":"function"}],"evm":{"bytecode":{"linkReferences":{},"object":"608060405234610334576127a68038038061001981610339565b9283398101906040818303126103345780516001600160401b038111610334578261004591830161035e565b60208201519092906001600160401b03811161033457610065920161035e565b81516001600160401b03811161024157600054600181811c9116801561032a575b602082101461022157601f81116102c6575b50602092601f82116001146102625792819293600092610257575b50508160011b916000199060031b1c1916176000555b80516001600160401b03811161024157600154600181811c91168015610237575b602082101461022157601f81116101bc575b50602091601f82116001146101585791819260009261014d575b50508160011b916000199060031b1c1916176001555b600880546001600160a01b031916331790556040516123dc90816103ca8239f35b015190503880610116565b601f198216926001600052806000209160005b8581106101a45750836001951061018b575b505050811b0160015561012c565b015160001960f88460031b161c1916905538808061017d565b9192602060018192868501518155019401920161016b565b60016000527fb10e2d527612073b26eecdfd717e6a320cf44b4afac2b0732d9fcbe2b7fa0cf6601f830160051c81019160208410610217575b601f0160051c01905b81811061020b57506100fc565b600081556001016101fe565b90915081906101f5565b634e487b7160e01b600052602260045260246000fd5b90607f16906100ea565b634e487b7160e01b600052604160045260246000fd5b0151905038806100b3565b601f1982169360008052806000209160005b8681106102ae5750836001959610610295575b505050811b016000556100c9565b015160001960f88460031b161c19169055388080610287565b91926020600181928685015181550194019201610274565b600080527f290decd9548b62a8d60345a988386fc84ba6bc95484008f6362f93160ef3e563601f830160051c81019160208410610320575b601f0160051c01905b8181106103145750610098565b60008155600101610307565b90915081906102fe565b90607f1690610086565b600080fd5b6040519190601f01601f191682016001600160401b0381118382101761024157604052565b81601f82011215610334578051906001600160401b0382116102415761038d601f8301601f1916602001610339565b92828452602083830101116103345760005b8281106103b457505060206000918301015290565b8060208092840101518282870101520161039f56fe608080604052600436101561001357600080fd5b60003560e01c90816301ffc9a71461106f5750806306fdde0314610fca578063081812fc14610f8c578063095ea7b314610e9d578063162094c414610cae57806323b872dd14610c9757806342842e0e14610c6757806355c1044014610ab2578063616c553514610a9b5780636352211e14610a6b57806364f9b0e61461099157806366a8b8dc1461074057806370a08231146106ea57806395d89b411461061c578063a22cb4651461057b578063a35391ac14610381578063b88d4fde14610314578063c87b56dd146102dd578063d30d968d1461015b5763e985e9c5146100fb57600080fd5b3461015657604036600319011261015657610114611165565b61011c61117b565b9060018060a01b0316600052600560205260406000209060018060a01b0316600052602052602060ff604060002054166040519015158152f35b600080fd5b3461015657604036600319011261015657610174611165565b602435906000906001600160a01b038116903082036101ca57506101ae91506001600160a01b0390506101a683611e99565b161515611502565b600052600760205260206004604060002001545b604051908152f35b6040516301ffc9a760e01b8152630204cbd160e51b600482015292939091602084602481845afa9283156102d25761020f6020946102449688916102a5575b50611ccd565b60405163d30d968d60e01b81526001600160a01b03909116600482015260248101929092529092839190829081906044820190565b03915afa90811561029a578291610260575b50602091506101c2565b90506020813d602011610292575b8161027b60209383611191565b8101031261028e57602091505182610256565b5080fd5b3d915061026e565b6040513d84823e3d90fd5b6102c59150863d88116102cb575b6102bd8183611191565b810190611cb5565b88610209565b503d6102b3565b6040513d87823e3d90fd5b34610156576020366003190112610156576103106102fc6004356122da565b604051918291602083526020830190611126565b0390f35b346101565760803660031901126101565761032d611165565b61033561117b565b90604435606435926001600160401b03841161015657366023850112156101565761036d61037f9436906024816004013591016111cd565b926103798383836115b6565b3361219d565b005b346101565760403660031901126101565761039a611165565b6001600160a01b038116906024359060009030840361049f57509091506103cd90506001600160a01b036101a683611e99565b60009081526007602052604081206103e760028201612032565b916103f28351612088565b90805b845181101561048a576001600160a01b03610410828761174c565b51166001600160a01b031682526020848152604080842090518154808252918552828520909283019185905b808210610472575050509061045681600194930382611191565b610460828661174c565b5261046b818561174c565b50016103f5565b9091926001602081928654815201940192019061043c565b50509050905b610310604051928392836114a0565b918193604051936301ffc9a760e01b8552630204cbd160e51b6004860152602085602481855afa94851561057057610516956104e19186916105575750611ccd565b6040516328d4e46b60e21b81526001600160a01b03909116600482015260248101929092529092839190829081906044820190565b03915afa90811561029a57828092610531575b505090610490565b90915061055092503d8091833e6105488183611191565b810190611d29565b8280610529565b6102c5915060203d6020116102cb576102bd8183611191565b6040513d86823e3d90fd5b3461015657604036600319011261015657610594611165565b60243590811515809203610156576001600160a01b031690811561060757336000526005602052604060002082600052602052604060002060ff1981541660ff83161790556040519081527f17307eab39ab6107e8899845ad3d59bd9653f200f220920489ca2b5937696c3160203392a3005b50630b61174360e31b60005260045260246000fd5b3461015657600036600319011261015657604051600060015461063e816114c8565b80845290600181169081156106c65750600114610666575b610310836102fc81850382611191565b91905060016000527fb10e2d527612073b26eecdfd717e6a320cf44b4afac2b0732d9fcbe2b7fa0cf6916000905b8082106106ac575090915081016020016102fc610656565b919260018160209254838588010152019101909291610694565b60ff191660208086019190915291151560051b840190910191506102fc9050610656565b34610156576020366003190112610156576001600160a01b0361070b611165565b16801561072a5760005260036020526020604060002054604051908152f35b6322718ad960e21b600052600060045260246000fd5b346101565761074e366112b2565b60405160209392906107608582611191565b60008152331561097b5760008481526002865260408120546001600160a01b031680151591869083610947575b3380825260038a5260408083208054600101905583835260028b52822080546001600160a01b031916821790559083907fddf252ad1be2c89b69c2b068fc378daa952ba7f163c4a11628f55a4df523b3ef9080a45061093157333b610815575b5090809293505115158061080b575b61080257005b61037f92611804565b50805115156107fc565b8461084f9160405180938192630a85bd0160e11b835233600484015260006024840152886044840152608060648401526084830190611126565b03816000335af180916000916108f0575b50906108b657843d156108af573d610877816111b2565b906108856040519283611191565b81523d60008383013e5b805191826108ac57633250574960e11b6000523360045260246000fd5b01fd5b606061088f565b92935090916001600160e01b03191663757a42ff60e11b016108db57908291846107ed565b633250574960e11b6000523360045260246000fd5b8681813d831161092a575b6109058183611191565b8101031261028e5751906001600160e01b031982168203610927575086610860565b80fd5b503d6108fb565b6339e3563760e11b600052600060045260246000fd5b600082815260046020526040902080546001600160a01b03191690558281526003895260408120805460001901905561078d565b633250574960e11b600052600060045260246000fd5b34610156576040366003190112610156576109aa611165565b6001600160a01b03811690602435906000903084036109f457506109e492506109df90506001600160a01b036101a683611e99565b6120d2565b90610310604051928392836114a0565b918193604051936301ffc9a760e01b8552630204cbd160e51b6004860152602085602481855afa9485156105705761051695610a369186916105575750611ccd565b60405163327cd87360e11b81526001600160a01b03909116600482015260248101929092529092839190829081906044820190565b34610156576020366003190112610156576020610a89600435611e99565b6040516001600160a01b039091168152f35b346101565761037f610aac366112b2565b91611804565b3461015657606036600319011261015657610acb611165565b602435906044356001600160401b03811161015657610aee903690600401611255565b6001600160a01b03821630811492919060005b825181101561037f57610b14818461174c565b5160005260076020526040600020906001820191866040600086815285602052205415610c55575b610bf4576004429101541015610b9157610b64876040600194600090878252602052206117cf565b610b8b610b71828661174c565b51610b85610b7f848861174c565b51611e99565b90611ee7565b01610b01565b60405162461bcd60e51b815260206004820152603560248201527f4552435f353532313a2074686520726566657272656420724e4654206e65656460448201527439903a37903132903090383932b232b1b2b9b9b7b960591b6064820152608490fd5b60405162461bcd60e51b815260206004820152603360248201527f4552435f353532313a2074686973206d75737420626520616e2065787465726e604482015272616c20636f6e7472616374206164647265737360681b6064820152608490fd5b610c62876003840161178e565b610b3c565b346101565761037f610c7836611204565b9060405192610c88602085611191565b600084526103798383836115b6565b346101565761037f610ca836611204565b916115b6565b34610156576040366003190112610156576004356024356001600160401b038111610156573660238201121561015657610cf29036906024816004013591016111cd565b610d066001600160a01b036101a684611e99565b610d22610d1283611e99565b6001600160a01b0316331461154e565b8160005260066020526040600020908051906001600160401b038211610e8757610d4c83546114c8565b601f8111610e4a575b50602090601f8311600114610dbe579180602094927ff8e1a15aba9398e019f0b49df1a4fde98ee17ae345cb5f6b5e2c27f5033e8ce79694600092610db3575b50508160011b916000199060031b1c19161790555b604051908152a1005b015190508680610d95565b90601f1983169184600052816000209260005b818110610e3257509260019285927ff8e1a15aba9398e019f0b49df1a4fde98ee17ae345cb5f6b5e2c27f5033e8ce798966020989610610e19575b505050811b019055610daa565b015160001960f88460031b161c19169055868080610e0c565b92936020600181928786015181550195019301610dd1565b610e7790846000526020600020601f850160051c81019160208610610e7d575b601f0160051c0190611ed0565b84610d55565b9091508190610e6a565b634e487b7160e01b600052604160045260246000fd5b3461015657604036600319011261015657610eb6611165565b602435610ec281611e99565b33151580610f79575b80610f4b575b610f365781906001600160a01b0384811691167f8c5be1e5ebec7d5bd14f71427d1e84f3dd0314c0f7b2291e5b200ac8c7c3b925600080a4600090815260046020526040902080546001600160a01b0319166001600160a01b03909216919091179055005b63a9fbf51f60e01b6000523360045260246000fd5b506001600160a01b038116600090815260056020908152604080832033845290915290205460ff1615610ed1565b506001600160a01b038116331415610ecb565b3461015657602036600319011261015657600435610fa981611e99565b506000526004602052602060018060a01b0360406000205416604051908152f35b346101565760003660031901126101565760405160008054610feb816114c8565b80845290600181169081156106c6575060011461101257610310836102fc81850382611191565b60008080527f290decd9548b62a8d60345a988386fc84ba6bc95484008f6362f93160ef3e563939250905b808210611055575090915081016020016102fc610656565b91926001816020925483858801015201910190929161103d565b34610156576020366003190112610156576004359063ffffffff60e01b8216809203610156576020916374342b5560e01b8114908115611115575b81156110b8575b5015158152f35b632483248360e11b8114915081156110d2575b50836110b1565b6380ac58cd60e01b811491508115611104575b81156110f3575b50836110cb565b6301ffc9a760e01b149050836110ec565b635b5e139f60e01b811491506110e5565b630204cbd160e51b811491506110aa565b919082518082526020808301940160005b828110611155575050600081602094950152601f8019910116010190565b8181015186820152602001611137565b600435906001600160a01b038216820361015657565b602435906001600160a01b038216820361015657565b90601f801991011681019081106001600160401b03821117610e8757604052565b6001600160401b038111610e8757601f01601f191660200190565b9291926111d9826111b2565b916111e76040519384611191565b829481845281830111610156578281602093846000960137010152565b6060906003190112610156576004356001600160a01b038116810361015657906024356001600160a01b0381168103610156579060443590565b6001600160401b038111610e875760051b60200190565b9080601f8301121561015657813561126c8161123e565b9261127a6040519485611191565b81845260208085019260051b82010192831161015657602001905b8282106112a25750505090565b8135815260209182019101611295565b606060031982011261015657600435916024356001600160401b03811161015657826023820112156101565780600401356112ec8161123e565b916112fa6040519384611191565b8183526024602084019260051b8201019085821161015657602401915b8183106113b65750505091604435906001600160401b038211610156578060238301121561015657816004013561134d8161123e565b9261135b6040519485611191565b8184526024602085019260051b820101918383116101565760248201905b83821061138857505050505090565b81356001600160401b038111610156576020916113ab8760248594880101611255565b815201910190611379565b82356001600160a01b038116810361015657815260209283019201611317565b906020808351928381520192019060005b8181106113f45750505090565b82516001600160a01b03168452602093840193909201916001016113e7565b906020808351928381520192019060005b8181106114315750505090565b8251845260209384019390920191600101611424565b9080602083519182815201916020808360051b8301019401926000915b83831061147357505050505090565b9091929394602080611491600193601f198682030187528951611413565b97019301930191939290611464565b90916114b76114c5936040845260408401906113d6565b916020818403910152611447565b90565b90600182811c921680156114f8575b60208310146114e257565b634e487b7160e01b600052602260045260246000fd5b91607f16916114d7565b1561150957565b60405162461bcd60e51b815260206004820152601e60248201527f4552435f353532313a20746f6b656e204944206e6f74206578697374656400006044820152606490fd5b1561155557565b60405162461bcd60e51b815260206004820152603360248201527f4552435f353532313a207472616e736665722063616c6c6572206973206e6f74604482015272081bdddb995c881b9bdc88185c1c1c9bdd9959606a1b6064820152608490fd5b6001600160a01b039091169190821561097b576000828152600260205260408120546001600160a01b03169383918590331515806116b4575b507fddf252ad1be2c89b69c2b068fc378daa952ba7f163c4a11628f55a4df523b3ef908261167f575b83815260036020526040812060018154019055848152600260205260408120846bffffffffffffffffffffffff60a01b82541617905580a46001600160a01b031680830361166557505050565b6364283d7b60e01b60005260045260245260445260646000fd5b600085815260046020526040902080546001600160a01b03191690558281526003602052604081208054600019019055611618565b9150919250806116fd575b156116ce5790848492386115ef565b8390856116e757602491637e27328960e01b8252600452fd5b60449163177e802f60e01b825233600452602452fd5b50338514801561172b575b806116bf5750838152600460205260408120546001600160a01b031633146116bf565b5084815260056020908152604080832033845290915281205460ff16611708565b80518210156117605760209160051b010190565b634e487b7160e01b600052603260045260246000fd5b80548210156117605760005260206000200190600090565b8054600160401b811015610e87576117ab91600182018155611776565b81546001600160a01b0393841660039290921b91821b9390911b1916919091179055565b8054600160401b811015610e87576117ec91600182018155611776565b819291549060031b91821b91600019901b1916179055565b928151835103611c515760005b835181101561188d57611824818561174c565b51511561183357600101611811565b60405162461bcd60e51b815260206004820152602c60248201527f4552435f353532313a2074686520726566657272696e67206c6973742063616e60448201526b6e6f7420626520656d70747960a01b6064820152608490fd5b509192909261189e610d1283611e99565b81600052600760205260406000209160005b85518110156119c25760406001600160a01b036118cd838961174c565b51166001600160a01b03166000908152602086905220541561199d575b6118f4818461174c565b5160406001600160a01b03611909848a61174c565b51166001600160a01b031660009081526020879052208151916001600160401b038311610e8757600160401b8311610e87576020908254848455808510611980575b500190600052602060002060005b83811061196c57505050506001016118b0565b600190602084519401938184015501611959565b611997908460005285846000209182019101611ed0565b3861194b565b6119bd6001600160a01b036119b2838961174c565b51166002860161178e565b6118ea565b5093916004429101556119d53385611ee7565b60005b8251811015611c4a57306001600160a01b036119f4838661174c565b511603611b5257309360005b611a0a838561174c565b5151811015611b4557611a2781611a21858761174c565b5161174c565b51600090815260076020526040908190206001810192916001600160a01b03611a50878a61174c565b51166001600160a01b031660009081526020859052205415611b20575b611a7b82611a21878961174c565b518914611acf576004429101541015610b9157611aa68860406001946000908b8252602052206117cf565b611ac9611ab782611a21878961174c565b51610b85610b7f84611a21898b61174c565b01611a00565b60405162461bcd60e51b8152602060048201526024808201527f4552435f353532313a2073656c662d7265666572656e6365206e6f7420616c6c6044820152631bddd95960e21b6064820152608490fd5b611b406001600160a01b03611b35878a61174c565b51166003830161178e565b611a6d565b5093506001905b016119d8565b6001600160a01b03611b64828561174c565b516040516301ffc9a760e01b8152630204cbd160e51b600482015291169190602081602481865afa908115611c2057600091611c2c575b50611baa575b60019150611b4c565b611bb4818461174c565b5191803b1561015657611bf6600093918492604051958680948193630157041160e61b83523060048401528d6024840152606060448401526064830190611413565b03925af1918215611c2057600192611c0f575b50611ba1565b6000611c1a91611191565b38611c09565b6040513d6000823e3d90fd5b611c44915060203d81116102cb576102bd8183611191565b38611b9b565b5050509050565b60405162461bcd60e51b815260206004820152603660248201527f41646472657373657320616e6420546f6b656e494420617272617973206d75736044820152750e840d0c2ecca40e8d0ca40e6c2daca40d8cadccee8d60531b6064820152608490fd5b90816020910312610156575180151581036101565790565b15611cd457565b60405162461bcd60e51b815260206004820152602760248201527f4552435f353532313a2074617267657420636f6e7472616374206e6f742073756044820152661c1c1bdc9d195960ca1b6064820152608490fd5b91906040838203126101565782516001600160401b03811161015657830181601f82011215610156578051611d5d8161123e565b91611d6b6040519384611191565b81835260208084019260051b8201019084821161015657602001915b818310611e7957505050926020810151906001600160401b03821161015657019080601f8301121561015657815190611dbf8261123e565b92611dcd6040519485611191565b82845260208085019360051b820101908282116101565760208101935b828510611df957505050505090565b84516001600160401b03811161015657820184603f8201121561015657602081015190611e258261123e565b91611e336040519384611191565b8083526020808085019260051b840101019187831161015657604001905b828210611e6957505050815260209485019401611dea565b8151815260209182019101611e51565b82516001600160a01b038116810361015657815260209283019201611d87565b6000818152600260205260409020546001600160a01b0316908115611ebc575090565b637e27328960e01b60005260045260246000fd5b818110611edb575050565b60008155600101611ed0565b6000818152600760205260408120611f0160028201612032565b611f0b8151612088565b93835b8251811015611fa3576001600160a01b03611f29828561174c565b51166001600160a01b031685526020848152604080872090518154808252918852828820909283019188905b808210611f8b5750505090611f6f81600194930382611191565b611f79828961174c565b52611f84818861174c565b5001611f0e565b90919260016020819286548152019401920190611f55565b50937f81bed52c04e8cd65796985202162bad7e20a8ffaa732fe2e0a0bc79f687e4d669350611ff892506120069561201461202d92611fe1886120d2565b9990916040519788976080895260808901906113d6565b908782036020890152611447565b9085820360408701526113d6565b83810360608501526001600160a01b0390911696611447565b0390a3565b906040519182815491828252602082019060005260206000209260005b81811061206657505061206492500383611191565b565b84546001600160a01b031683526001948501948794506020909301920161204f565b906120928261123e565b61209f6040519182611191565b82815280926120b0601f199161123e565b019060005b8281106120c157505050565b8060606020809385010152016120b5565b6000908152600760205260409020906120ed60038301612032565b916120f88351612088565b9060010160005b84518110156121985760406001600160a01b0361211c838861174c565b51166001600160a01b0316600090815260208481529181206040518154808252918352838320909384019290915b808210612180575050509061216481600194930382611191565b61216e828661174c565b52612179818561174c565b50016120ff565b9091926001602081928654815201940192019061214a565b505090565b823b6121ab575b5050505050565b604051630a85bd0160e11b81526001600160a01b0391821660048201529181166024830152604482019390935260806064820152911691602090829081906121f7906084830190611126565b03816000865af18091600091612297575b509061226157503d1561225a573d61221f816111b2565b9061222d6040519283611191565b81523d6000602083013e5b805190816122555782633250574960e11b60005260045260246000fd5b602001fd5b6060612238565b6001600160e01b03191663757a42ff60e11b01612283575038808080806121a4565b633250574960e11b60005260045260246000fd5b6020813d6020116122d2575b816122b060209383611191565b8101031261028e5751906001600160e01b031982168203610927575038612208565b3d91506122a3565b6122e381611e99565b506000526006602052604060002060405190816000825492612304846114c8565b8084529360018116908115612384575060011461233d575b5061232992500382611191565b6000604051612339602082611191565b5290565b90506000929192526020600020906000915b818310612368575050906020612329928201013861231c565b602091935080600191548385880101520191019091839261234f565b90506020925061232994915060ff191682840152151560051b8201013861231c56fea26469706673582212207b105740af2c60c680390d4dc0632716427f0e19b981a07b85ac0f14ff7de8be64736f6c634300081c0033","opcodes":"PUSH1 0x80 PUSH1 0x40 MSTORE CALLVALUE PUSH2 0x334 JUMPI PUSH2 0x27A6 DUP1 CODESIZE SUB DUP1 PUSH2 0x19 DUP2 PUSH2 0x339 JUMP JUMPDEST SWAP3 DUP4 CODECOPY DUP2 ADD SWAP1 PUSH1 0x40 DUP2 DUP4 SUB SLT PUSH2 0x334 JUMPI DUP1 MLOAD PUSH1 0x1 PUSH1 0x1 PUSH1 0x40 SHL SUB DUP2 GT PUSH2 0x334 JUMPI DUP3 PUSH2 0x45 SWAP2 DUP4 ADD PUSH2 0x35E JUMP JUMPDEST PUSH1 0x20 DUP3 ADD MLOAD SWAP1 SWAP3 SWAP1 PUSH1 0x1 PUSH1 0x1 PUSH1 0x40 SHL SUB DUP2 GT PUSH2 0x334 JUMPI PUSH2 0x65 SWAP3 ADD PUSH2 0x35E JUMP JUMPDEST DUP2 MLOAD PUSH1 0x1 PUSH1 0x1 PUSH1 0x40 SHL SUB DUP2 GT PUSH2 0x241 JUMPI PUSH1 0x0 SLOAD PUSH1 0x1 DUP2 DUP2 SHR SWAP2 AND DUP1 ISZERO PUSH2 0x32A JUMPI JUMPDEST PUSH1 0x20 DUP3 LT EQ PUSH2 0x221 JUMPI PUSH1 0x1F DUP2 GT PUSH2 0x2C6 JUMPI JUMPDEST POP PUSH1 0x20 SWAP3 PUSH1 0x1F DUP3 GT PUSH1 0x1 EQ PUSH2 0x262 JUMPI SWAP3 DUP2 SWAP3 SWAP4 PUSH1 0x0 SWAP3 PUSH2 0x257 JUMPI JUMPDEST POP POP DUP2 PUSH1 0x1 SHL SWAP2 PUSH1 0x0 NOT SWAP1 PUSH1 0x3 SHL SHR NOT AND OR PUSH1 0x0 SSTORE JUMPDEST DUP1 MLOAD PUSH1 0x1 PUSH1 0x1 PUSH1 0x40 SHL SUB DUP2 GT PUSH2 0x241 JUMPI PUSH1 0x1 SLOAD PUSH1 0x1 DUP2 DUP2 SHR SWAP2 AND DUP1 ISZERO PUSH2 0x237 JUMPI JUMPDEST PUSH1 0x20 DUP3 LT EQ PUSH2 0x221 JUMPI PUSH1 0x1F DUP2 GT PUSH2 0x1BC JUMPI JUMPDEST POP PUSH1 0x20 SWAP2 PUSH1 0x1F DUP3 GT PUSH1 0x1 EQ PUSH2 0x158 JUMPI SWAP2 DUP2 SWAP3 PUSH1 0x0 SWAP3 PUSH2 0x14D JUMPI JUMPDEST POP POP DUP2 PUSH1 0x1 SHL SWAP2 PUSH1 0x0 NOT SWAP1 PUSH1 0x3 SHL SHR NOT AND OR PUSH1 0x1 SSTORE JUMPDEST PUSH1 0x8 DUP1 SLOAD PUSH1 0x1 PUSH1 0x1 PUSH1 0xA0 SHL SUB NOT AND CALLER OR SWAP1 SSTORE PUSH1 0x40 MLOAD PUSH2 0x23DC SWAP1 DUP2 PUSH2 0x3CA DUP3 CODECOPY RETURN JUMPDEST ADD MLOAD SWAP1 POP CODESIZE DUP1 PUSH2 0x116 JUMP JUMPDEST PUSH1 0x1F NOT DUP3 AND SWAP3 PUSH1 0x1 PUSH1 0x0 MSTORE DUP1 PUSH1 0x0 KECCAK256 SWAP2 PUSH1 0x0 JUMPDEST DUP6 DUP2 LT PUSH2 0x1A4 JUMPI POP DUP4 PUSH1 0x1 SWAP6 LT PUSH2 0x18B JUMPI JUMPDEST POP POP POP DUP2 SHL ADD PUSH1 0x1 SSTORE PUSH2 0x12C JUMP JUMPDEST ADD MLOAD PUSH1 0x0 NOT PUSH1 0xF8 DUP5 PUSH1 0x3 SHL AND SHR NOT AND SWAP1 SSTORE CODESIZE DUP1 DUP1 PUSH2 0x17D JUMP JUMPDEST SWAP2 SWAP3 PUSH1 0x20 PUSH1 0x1 DUP2 SWAP3 DUP7 DUP6 ADD MLOAD DUP2 SSTORE ADD SWAP5 ADD SWAP3 ADD PUSH2 0x16B JUMP JUMPDEST PUSH1 0x1 PUSH1 0x0 MSTORE PUSH32 0xB10E2D527612073B26EECDFD717E6A320CF44B4AFAC2B0732D9FCBE2B7FA0CF6 PUSH1 0x1F DUP4 ADD PUSH1 0x5 SHR DUP2 ADD SWAP2 PUSH1 0x20 DUP5 LT PUSH2 0x217 JUMPI JUMPDEST PUSH1 0x1F ADD PUSH1 0x5 SHR ADD SWAP1 JUMPDEST DUP2 DUP2 LT PUSH2 0x20B JUMPI POP PUSH2 0xFC JUMP JUMPDEST PUSH1 0x0 DUP2 SSTORE PUSH1 0x1 ADD PUSH2 0x1FE JUMP JUMPDEST SWAP1 SWAP2 POP DUP2 SWAP1 PUSH2 0x1F5 JUMP JUMPDEST PUSH4 0x4E487B71 PUSH1 0xE0 SHL PUSH1 0x0 MSTORE PUSH1 0x22 PUSH1 0x4 MSTORE PUSH1 0x24 PUSH1 0x0 REVERT JUMPDEST SWAP1 PUSH1 0x7F AND SWAP1 PUSH2 0xEA JUMP JUMPDEST PUSH4 0x4E487B71 PUSH1 0xE0 SHL PUSH1 0x0 MSTORE PUSH1 0x41 PUSH1 0x4 MSTORE PUSH1 0x24 PUSH1 0x0 REVERT JUMPDEST ADD MLOAD SWAP1 POP CODESIZE DUP1 PUSH2 0xB3 JUMP JUMPDEST PUSH1 0x1F NOT DUP3 AND SWAP4 PUSH1 0x0 DUP1 MSTORE DUP1 PUSH1 0x0 KECCAK256 SWAP2 PUSH1 0x0 JUMPDEST DUP7 DUP2 LT PUSH2 0x2AE JUMPI POP DUP4 PUSH1 0x1 SWAP6 SWAP7 LT PUSH2 0x295 JUMPI JUMPDEST POP POP POP DUP2 SHL ADD PUSH1 0x0 SSTORE PUSH2 0xC9 JUMP JUMPDEST ADD MLOAD PUSH1 0x0 NOT PUSH1 0xF8 DUP5 PUSH1 0x3 SHL AND SHR NOT AND SWAP1 SSTORE CODESIZE DUP1 DUP1 PUSH2 0x287 JUMP JUMPDEST SWAP2 SWAP3 PUSH1 0x20 PUSH1 0x1 DUP2 SWAP3 DUP7 DUP6 ADD MLOAD DUP2 SSTORE ADD SWAP5 ADD SWAP3 ADD PUSH2 0x274 JUMP JUMPDEST PUSH1 0x0 DUP1 MSTORE PUSH32 0x290DECD9548B62A8D60345A988386FC84BA6BC95484008F6362F93160EF3E563 PUSH1 0x1F DUP4 ADD PUSH1 0x5 SHR DUP2 ADD SWAP2 PUSH1 0x20 DUP5 LT PUSH2 0x320 JUMPI JUMPDEST PUSH1 0x1F ADD PUSH1 0x5 SHR ADD SWAP1 JUMPDEST DUP2 DUP2 LT PUSH2 0x314 JUMPI POP PUSH2 0x98 JUMP JUMPDEST PUSH1 0x0 DUP2 SSTORE PUSH1 0x1 ADD PUSH2 0x307 JUMP JUMPDEST SWAP1 SWAP2 POP DUP2 SWAP1 PUSH2 0x2FE JUMP JUMPDEST SWAP1 PUSH1 0x7F AND SWAP1 PUSH2 0x86 JUMP JUMPDEST PUSH1 0x0 DUP1 REVERT JUMPDEST PUSH1 0x40 MLOAD SWAP2 SWAP1 PUSH1 0x1F ADD PUSH1 0x1F NOT AND DUP3 ADD PUSH1 0x1 PUSH1 0x1 PUSH1 0x40 SHL SUB DUP2 GT DUP4 DUP3 LT OR PUSH2 0x241 JUMPI PUSH1 0x40 MSTORE JUMP JUMPDEST DUP2 PUSH1 0x1F DUP3 ADD SLT ISZERO PUSH2 0x334 JUMPI DUP1 MLOAD SWAP1 PUSH1 0x1 PUSH1 0x1 PUSH1 0x40 SHL SUB DUP3 GT PUSH2 0x241 JUMPI PUSH2 0x38D PUSH1 0x1F DUP4 ADD PUSH1 0x1F NOT AND PUSH1 0x20 ADD PUSH2 0x339 JUMP JUMPDEST SWAP3 DUP3 DUP5 MSTORE PUSH1 0x20 DUP4 DUP4 ADD ADD GT PUSH2 0x334 JUMPI PUSH1 0x0 JUMPDEST DUP3 DUP2 LT PUSH2 0x3B4 JUMPI POP POP PUSH1 0x20 PUSH1 0x0 SWAP2 DUP4 ADD ADD MSTORE SWAP1 JUMP JUMPDEST DUP1 PUSH1 0x20 DUP1 SWAP3 DUP5 ADD ADD MLOAD DUP3 DUP3 DUP8 ADD ADD MSTORE ADD PUSH2 0x39F JUMP INVALID PUSH1 0x80 DUP1 PUSH1 0x40 MSTORE PUSH1 0x4 CALLDATASIZE LT ISZERO PUSH2 0x13 JUMPI PUSH1 0x0 DUP1 REVERT JUMPDEST PUSH1 0x0 CALLDATALOAD PUSH1 0xE0 SHR SWAP1 DUP2 PUSH4 0x1FFC9A7 EQ PUSH2 0x106F JUMPI POP DUP1 PUSH4 0x6FDDE03 EQ PUSH2 0xFCA JUMPI DUP1 PUSH4 0x81812FC EQ PUSH2 0xF8C JUMPI DUP1 PUSH4 0x95EA7B3 EQ PUSH2 0xE9D JUMPI DUP1 PUSH4 0x162094C4 EQ PUSH2 0xCAE JUMPI DUP1 PUSH4 0x23B872DD EQ PUSH2 0xC97 JUMPI DUP1 PUSH4 0x42842E0E EQ PUSH2 0xC67 JUMPI DUP1 PUSH4 0x55C10440 EQ PUSH2 0xAB2 JUMPI DUP1 PUSH4 0x616C5535 EQ PUSH2 0xA9B JUMPI DUP1 PUSH4 0x6352211E EQ PUSH2 0xA6B JUMPI DUP1 PUSH4 0x64F9B0E6 EQ PUSH2 0x991 JUMPI DUP1 PUSH4 0x66A8B8DC EQ PUSH2 0x740 JUMPI DUP1 PUSH4 0x70A08231 EQ PUSH2 0x6EA JUMPI DUP1 PUSH4 0x95D89B41 EQ PUSH2 0x61C JUMPI DUP1 PUSH4 0xA22CB465 EQ PUSH2 0x57B JUMPI DUP1 PUSH4 0xA35391AC EQ PUSH2 0x381 JUMPI DUP1 PUSH4 0xB88D4FDE EQ PUSH2 0x314 JUMPI DUP1 PUSH4 0xC87B56DD EQ PUSH2 0x2DD JUMPI DUP1 PUSH4 0xD30D968D EQ PUSH2 0x15B JUMPI PUSH4 0xE985E9C5 EQ PUSH2 0xFB JUMPI PUSH1 0x0 DUP1 REVERT JUMPDEST CALLVALUE PUSH2 0x156 JUMPI PUSH1 0x40 CALLDATASIZE PUSH1 0x3 NOT ADD SLT PUSH2 0x156 JUMPI PUSH2 0x114 PUSH2 0x1165 JUMP JUMPDEST PUSH2 0x11C PUSH2 0x117B JUMP JUMPDEST SWAP1 PUSH1 0x1 DUP1 PUSH1 0xA0 SHL SUB AND PUSH1 0x0 MSTORE PUSH1 0x5 PUSH1 0x20 MSTORE PUSH1 0x40 PUSH1 0x0 KECCAK256 SWAP1 PUSH1 0x1 DUP1 PUSH1 0xA0 SHL SUB AND PUSH1 0x0 MSTORE PUSH1 0x20 MSTORE PUSH1 0x20 PUSH1 0xFF PUSH1 0x40 PUSH1 0x0 KECCAK256 SLOAD AND PUSH1 0x40 MLOAD SWAP1 ISZERO ISZERO DUP2 MSTORE RETURN JUMPDEST PUSH1 0x0 DUP1 REVERT JUMPDEST CALLVALUE PUSH2 0x156 JUMPI PUSH1 0x40 CALLDATASIZE PUSH1 0x3 NOT ADD SLT PUSH2 0x156 JUMPI PUSH2 0x174 PUSH2 0x1165 JUMP JUMPDEST PUSH1 0x24 CALLDATALOAD SWAP1 PUSH1 0x0 SWAP1 PUSH1 0x1 PUSH1 0x1 PUSH1 0xA0 SHL SUB DUP2 AND SWAP1 ADDRESS DUP3 SUB PUSH2 0x1CA JUMPI POP PUSH2 0x1AE SWAP2 POP PUSH1 0x1 PUSH1 0x1 PUSH1 0xA0 SHL SUB SWAP1 POP PUSH2 0x1A6 DUP4 PUSH2 0x1E99 JUMP JUMPDEST AND ISZERO ISZERO PUSH2 0x1502 JUMP JUMPDEST PUSH1 0x0 MSTORE PUSH1 0x7 PUSH1 0x20 MSTORE PUSH1 0x20 PUSH1 0x4 PUSH1 0x40 PUSH1 0x0 KECCAK256 ADD SLOAD JUMPDEST PUSH1 0x40 MLOAD SWAP1 DUP2 MSTORE RETURN JUMPDEST PUSH1 0x40 MLOAD PUSH4 0x1FFC9A7 PUSH1 0xE0 SHL DUP2 MSTORE PUSH4 0x204CBD1 PUSH1 0xE5 SHL PUSH1 0x4 DUP3 ADD MSTORE SWAP3 SWAP4 SWAP1 SWAP2 PUSH1 0x20 DUP5 PUSH1 0x24 DUP2 DUP5 GAS STATICCALL SWAP3 DUP4 ISZERO PUSH2 0x2D2 JUMPI PUSH2 0x20F PUSH1 0x20 SWAP5 PUSH2 0x244 SWAP7 DUP9 SWAP2 PUSH2 0x2A5 JUMPI JUMPDEST POP PUSH2 0x1CCD JUMP JUMPDEST PUSH1 0x40 MLOAD PUSH4 0xD30D968D PUSH1 0xE0 SHL DUP2 MSTORE PUSH1 0x1 PUSH1 0x1 PUSH1 0xA0 SHL SUB SWAP1 SWAP2 AND PUSH1 0x4 DUP3 ADD MSTORE PUSH1 0x24 DUP2 ADD SWAP3 SWAP1 SWAP3 MSTORE SWAP1 SWAP3 DUP4 SWAP2 SWAP1 DUP3 SWAP1 DUP2 SWAP1 PUSH1 0x44 DUP3 ADD SWAP1 JUMP JUMPDEST SUB SWAP2 GAS STATICCALL SWAP1 DUP2 ISZERO PUSH2 0x29A JUMPI DUP3 SWAP2 PUSH2 0x260 JUMPI JUMPDEST POP PUSH1 0x20 SWAP2 POP PUSH2 0x1C2 JUMP JUMPDEST SWAP1 POP PUSH1 0x20 DUP2 RETURNDATASIZE PUSH1 0x20 GT PUSH2 0x292 JUMPI JUMPDEST DUP2 PUSH2 0x27B PUSH1 0x20 SWAP4 DUP4 PUSH2 0x1191 JUMP JUMPDEST DUP2 ADD SUB SLT PUSH2 0x28E JUMPI PUSH1 0x20 SWAP2 POP MLOAD DUP3 PUSH2 0x256 JUMP JUMPDEST POP DUP1 REVERT JUMPDEST RETURNDATASIZE SWAP2 POP PUSH2 0x26E JUMP JUMPDEST PUSH1 0x40 MLOAD RETURNDATASIZE DUP5 DUP3 RETURNDATACOPY RETURNDATASIZE SWAP1 REVERT JUMPDEST PUSH2 0x2C5 SWAP2 POP DUP7 RETURNDATASIZE DUP9 GT PUSH2 0x2CB JUMPI JUMPDEST PUSH2 0x2BD DUP2 DUP4 PUSH2 0x1191 JUMP JUMPDEST DUP2 ADD SWAP1 PUSH2 0x1CB5 JUMP JUMPDEST DUP9 PUSH2 0x209 JUMP JUMPDEST POP RETURNDATASIZE PUSH2 0x2B3 JUMP JUMPDEST PUSH1 0x40 MLOAD RETURNDATASIZE DUP8 DUP3 RETURNDATACOPY RETURNDATASIZE SWAP1 REVERT JUMPDEST CALLVALUE PUSH2 0x156 JUMPI PUSH1 0x20 CALLDATASIZE PUSH1 0x3 NOT ADD SLT PUSH2 0x156 JUMPI PUSH2 0x310 PUSH2 0x2FC PUSH1 0x4 CALLDATALOAD PUSH2 0x22DA JUMP JUMPDEST PUSH1 0x40 MLOAD SWAP2 DUP3 SWAP2 PUSH1 0x20 DUP4 MSTORE PUSH1 0x20 DUP4 ADD SWAP1 PUSH2 0x1126 JUMP JUMPDEST SUB SWAP1 RETURN JUMPDEST CALLVALUE PUSH2 0x156 JUMPI PUSH1 0x80 CALLDATASIZE PUSH1 0x3 NOT ADD SLT PUSH2 0x156 JUMPI PUSH2 0x32D PUSH2 0x1165 JUMP JUMPDEST PUSH2 0x335 PUSH2 0x117B JUMP JUMPDEST SWAP1 PUSH1 0x44 CALLDATALOAD PUSH1 0x64 CALLDATALOAD SWAP3 PUSH1 0x1 PUSH1 0x1 PUSH1 0x40 SHL SUB DUP5 GT PUSH2 0x156 JUMPI CALLDATASIZE PUSH1 0x23 DUP6 ADD SLT ISZERO PUSH2 0x156 JUMPI PUSH2 0x36D PUSH2 0x37F SWAP5 CALLDATASIZE SWAP1 PUSH1 0x24 DUP2 PUSH1 0x4 ADD CALLDATALOAD SWAP2 ADD PUSH2 0x11CD JUMP JUMPDEST SWAP3 PUSH2 0x379 DUP4 DUP4 DUP4 PUSH2 0x15B6 JUMP JUMPDEST CALLER PUSH2 0x219D JUMP JUMPDEST STOP JUMPDEST CALLVALUE PUSH2 0x156 JUMPI PUSH1 0x40 CALLDATASIZE PUSH1 0x3 NOT ADD SLT PUSH2 0x156 JUMPI PUSH2 0x39A PUSH2 0x1165 JUMP JUMPDEST PUSH1 0x1 PUSH1 0x1 PUSH1 0xA0 SHL SUB DUP2 AND SWAP1 PUSH1 0x24 CALLDATALOAD SWAP1 PUSH1 0x0 SWAP1 ADDRESS DUP5 SUB PUSH2 0x49F JUMPI POP SWAP1 SWAP2 POP PUSH2 0x3CD SWAP1 POP PUSH1 0x1 PUSH1 0x1 PUSH1 0xA0 SHL SUB PUSH2 0x1A6 DUP4 PUSH2 0x1E99 JUMP JUMPDEST PUSH1 0x0 SWAP1 DUP2 MSTORE PUSH1 0x7 PUSH1 0x20 MSTORE PUSH1 0x40 DUP2 KECCAK256 PUSH2 0x3E7 PUSH1 0x2 DUP3 ADD PUSH2 0x2032 JUMP JUMPDEST SWAP2 PUSH2 0x3F2 DUP4 MLOAD PUSH2 0x2088 JUMP JUMPDEST SWAP1 DUP1 JUMPDEST DUP5 MLOAD DUP2 LT ISZERO PUSH2 0x48A JUMPI PUSH1 0x1 PUSH1 0x1 PUSH1 0xA0 SHL SUB PUSH2 0x410 DUP3 DUP8 PUSH2 0x174C JUMP JUMPDEST MLOAD AND PUSH1 0x1 PUSH1 0x1 PUSH1 0xA0 SHL SUB AND DUP3 MSTORE PUSH1 0x20 DUP5 DUP2 MSTORE PUSH1 0x40 DUP1 DUP5 KECCAK256 SWAP1 MLOAD DUP2 SLOAD DUP1 DUP3 MSTORE SWAP2 DUP6 MSTORE DUP3 DUP6 KECCAK256 SWAP1 SWAP3 DUP4 ADD SWAP2 DUP6 SWAP1 JUMPDEST DUP1 DUP3 LT PUSH2 0x472 JUMPI POP POP POP SWAP1 PUSH2 0x456 DUP2 PUSH1 0x1 SWAP5 SWAP4 SUB DUP3 PUSH2 0x1191 JUMP JUMPDEST PUSH2 0x460 DUP3 DUP7 PUSH2 0x174C JUMP JUMPDEST MSTORE PUSH2 0x46B DUP2 DUP6 PUSH2 0x174C JUMP JUMPDEST POP ADD PUSH2 0x3F5 JUMP JUMPDEST SWAP1 SWAP2 SWAP3 PUSH1 0x1 PUSH1 0x20 DUP2 SWAP3 DUP7 SLOAD DUP2 MSTORE ADD SWAP5 ADD SWAP3 ADD SWAP1 PUSH2 0x43C JUMP JUMPDEST POP POP SWAP1 POP SWAP1 JUMPDEST PUSH2 0x310 PUSH1 0x40 MLOAD SWAP3 DUP4 SWAP3 DUP4 PUSH2 0x14A0 JUMP JUMPDEST SWAP2 DUP2 SWAP4 PUSH1 0x40 MLOAD SWAP4 PUSH4 0x1FFC9A7 PUSH1 0xE0 SHL DUP6 MSTORE PUSH4 0x204CBD1 PUSH1 0xE5 SHL PUSH1 0x4 DUP7 ADD MSTORE PUSH1 0x20 DUP6 PUSH1 0x24 DUP2 DUP6 GAS STATICCALL SWAP5 DUP6 ISZERO PUSH2 0x570 JUMPI PUSH2 0x516 SWAP6 PUSH2 0x4E1 SWAP2 DUP7 SWAP2 PUSH2 0x557 JUMPI POP PUSH2 0x1CCD JUMP JUMPDEST PUSH1 0x40 MLOAD PUSH4 0x28D4E46B PUSH1 0xE2 SHL DUP2 MSTORE PUSH1 0x1 PUSH1 0x1 PUSH1 0xA0 SHL SUB SWAP1 SWAP2 AND PUSH1 0x4 DUP3 ADD MSTORE PUSH1 0x24 DUP2 ADD SWAP3 SWAP1 SWAP3 MSTORE SWAP1 SWAP3 DUP4 SWAP2 SWAP1 DUP3 SWAP1 DUP2 SWAP1 PUSH1 0x44 DUP3 ADD SWAP1 JUMP JUMPDEST SUB SWAP2 GAS STATICCALL SWAP1 DUP2 ISZERO PUSH2 0x29A JUMPI DUP3 DUP1 SWAP3 PUSH2 0x531 JUMPI JUMPDEST POP POP SWAP1 PUSH2 0x490 JUMP JUMPDEST SWAP1 SWAP2 POP PUSH2 0x550 SWAP3 POP RETURNDATASIZE DUP1 SWAP2 DUP4 RETURNDATACOPY PUSH2 0x548 DUP2 DUP4 PUSH2 0x1191 JUMP JUMPDEST DUP2 ADD SWAP1 PUSH2 0x1D29 JUMP JUMPDEST DUP3 DUP1 PUSH2 0x529 JUMP JUMPDEST PUSH2 0x2C5 SWAP2 POP PUSH1 0x20 RETURNDATASIZE PUSH1 0x20 GT PUSH2 0x2CB JUMPI PUSH2 0x2BD DUP2 DUP4 PUSH2 0x1191 JUMP JUMPDEST PUSH1 0x40 MLOAD RETURNDATASIZE DUP7 DUP3 RETURNDATACOPY RETURNDATASIZE SWAP1 REVERT JUMPDEST CALLVALUE PUSH2 0x156 JUMPI PUSH1 0x40 CALLDATASIZE PUSH1 0x3 NOT ADD SLT PUSH2 0x156 JUMPI PUSH2 0x594 PUSH2 0x1165 JUMP JUMPDEST PUSH1 0x24 CALLDATALOAD SWAP1 DUP2 ISZERO ISZERO DUP1 SWAP3 SUB PUSH2 0x156 JUMPI PUSH1 0x1 PUSH1 0x1 PUSH1 0xA0 SHL SUB AND SWAP1 DUP2 ISZERO PUSH2 0x607 JUMPI CALLER PUSH1 0x0 MSTORE PUSH1 0x5 PUSH1 0x20 MSTORE PUSH1 0x40 PUSH1 0x0 KECCAK256 DUP3 PUSH1 0x0 MSTORE PUSH1 0x20 MSTORE PUSH1 0x40 PUSH1 0x0 KECCAK256 PUSH1 0xFF NOT DUP2 SLOAD AND PUSH1 0xFF DUP4 AND OR SWAP1 SSTORE PUSH1 0x40 MLOAD SWAP1 DUP2 MSTORE PUSH32 0x17307EAB39AB6107E8899845AD3D59BD9653F200F220920489CA2B5937696C31 PUSH1 0x20 CALLER SWAP3 LOG3 STOP JUMPDEST POP PUSH4 0xB611743 PUSH1 0xE3 SHL PUSH1 0x0 MSTORE PUSH1 0x4 MSTORE PUSH1 0x24 PUSH1 0x0 REVERT JUMPDEST CALLVALUE PUSH2 0x156 JUMPI PUSH1 0x0 CALLDATASIZE PUSH1 0x3 NOT ADD SLT PUSH2 0x156 JUMPI PUSH1 0x40 MLOAD PUSH1 0x0 PUSH1 0x1 SLOAD PUSH2 0x63E DUP2 PUSH2 0x14C8 JUMP JUMPDEST DUP1 DUP5 MSTORE SWAP1 PUSH1 0x1 DUP2 AND SWAP1 DUP2 ISZERO PUSH2 0x6C6 JUMPI POP PUSH1 0x1 EQ PUSH2 0x666 JUMPI JUMPDEST PUSH2 0x310 DUP4 PUSH2 0x2FC DUP2 DUP6 SUB DUP3 PUSH2 0x1191 JUMP JUMPDEST SWAP2 SWAP1 POP PUSH1 0x1 PUSH1 0x0 MSTORE PUSH32 0xB10E2D527612073B26EECDFD717E6A320CF44B4AFAC2B0732D9FCBE2B7FA0CF6 SWAP2 PUSH1 0x0 SWAP1 JUMPDEST DUP1 DUP3 LT PUSH2 0x6AC JUMPI POP SWAP1 SWAP2 POP DUP2 ADD PUSH1 0x20 ADD PUSH2 0x2FC PUSH2 0x656 JUMP JUMPDEST SWAP2 SWAP3 PUSH1 0x1 DUP2 PUSH1 0x20 SWAP3 SLOAD DUP4 DUP6 DUP9 ADD ADD MSTORE ADD SWAP2 ADD SWAP1 SWAP3 SWAP2 PUSH2 0x694 JUMP JUMPDEST PUSH1 0xFF NOT AND PUSH1 0x20 DUP1 DUP7 ADD SWAP2 SWAP1 SWAP2 MSTORE SWAP2 ISZERO ISZERO PUSH1 0x5 SHL DUP5 ADD SWAP1 SWAP2 ADD SWAP2 POP PUSH2 0x2FC SWAP1 POP PUSH2 0x656 JUMP JUMPDEST CALLVALUE PUSH2 0x156 JUMPI PUSH1 0x20 CALLDATASIZE PUSH1 0x3 NOT ADD SLT PUSH2 0x156 JUMPI PUSH1 0x1 PUSH1 0x1 PUSH1 0xA0 SHL SUB PUSH2 0x70B PUSH2 0x1165 JUMP JUMPDEST AND DUP1 ISZERO PUSH2 0x72A JUMPI PUSH1 0x0 MSTORE PUSH1 0x3 PUSH1 0x20 MSTORE PUSH1 0x20 PUSH1 0x40 PUSH1 0x0 KECCAK256 SLOAD PUSH1 0x40 MLOAD SWAP1 DUP2 MSTORE RETURN JUMPDEST PUSH4 0x22718AD9 PUSH1 0xE2 SHL PUSH1 0x0 MSTORE PUSH1 0x0 PUSH1 0x4 MSTORE PUSH1 0x24 PUSH1 0x0 REVERT JUMPDEST CALLVALUE PUSH2 0x156 JUMPI PUSH2 0x74E CALLDATASIZE PUSH2 0x12B2 JUMP JUMPDEST PUSH1 0x40 MLOAD PUSH1 0x20 SWAP4 SWAP3 SWAP1 PUSH2 0x760 DUP6 DUP3 PUSH2 0x1191 JUMP JUMPDEST PUSH1 0x0 DUP2 MSTORE CALLER ISZERO PUSH2 0x97B JUMPI PUSH1 0x0 DUP5 DUP2 MSTORE PUSH1 0x2 DUP7 MSTORE PUSH1 0x40 DUP2 KECCAK256 SLOAD PUSH1 0x1 PUSH1 0x1 PUSH1 0xA0 SHL SUB AND DUP1 ISZERO ISZERO SWAP2 DUP7 SWAP1 DUP4 PUSH2 0x947 JUMPI JUMPDEST CALLER DUP1 DUP3 MSTORE PUSH1 0x3 DUP11 MSTORE PUSH1 0x40 DUP1 DUP4 KECCAK256 DUP1 SLOAD PUSH1 0x1 ADD SWAP1 SSTORE DUP4 DUP4 MSTORE PUSH1 0x2 DUP12 MSTORE DUP3 KECCAK256 DUP1 SLOAD PUSH1 0x1 PUSH1 0x1 PUSH1 0xA0 SHL SUB NOT AND DUP3 OR SWAP1 SSTORE SWAP1 DUP4 SWAP1 PUSH32 0xDDF252AD1BE2C89B69C2B068FC378DAA952BA7F163C4A11628F55A4DF523B3EF SWAP1 DUP1 LOG4 POP PUSH2 0x931 JUMPI CALLER EXTCODESIZE PUSH2 0x815 JUMPI JUMPDEST POP SWAP1 DUP1 SWAP3 SWAP4 POP MLOAD ISZERO ISZERO DUP1 PUSH2 0x80B JUMPI JUMPDEST PUSH2 0x802 JUMPI STOP JUMPDEST PUSH2 0x37F SWAP3 PUSH2 0x1804 JUMP JUMPDEST POP DUP1 MLOAD ISZERO ISZERO PUSH2 0x7FC JUMP JUMPDEST DUP5 PUSH2 0x84F SWAP2 PUSH1 0x40 MLOAD DUP1 SWAP4 DUP2 SWAP3 PUSH4 0xA85BD01 PUSH1 0xE1 SHL DUP4 MSTORE CALLER PUSH1 0x4 DUP5 ADD MSTORE PUSH1 0x0 PUSH1 0x24 DUP5 ADD MSTORE DUP9 PUSH1 0x44 DUP5 ADD MSTORE PUSH1 0x80 PUSH1 0x64 DUP5 ADD MSTORE PUSH1 0x84 DUP4 ADD SWAP1 PUSH2 0x1126 JUMP JUMPDEST SUB DUP2 PUSH1 0x0 CALLER GAS CALL DUP1 SWAP2 PUSH1 0x0 SWAP2 PUSH2 0x8F0 JUMPI JUMPDEST POP SWAP1 PUSH2 0x8B6 JUMPI DUP5 RETURNDATASIZE ISZERO PUSH2 0x8AF JUMPI RETURNDATASIZE PUSH2 0x877 DUP2 PUSH2 0x11B2 JUMP JUMPDEST SWAP1 PUSH2 0x885 PUSH1 0x40 MLOAD SWAP3 DUP4 PUSH2 0x1191 JUMP JUMPDEST DUP2 MSTORE RETURNDATASIZE PUSH1 0x0 DUP4 DUP4 ADD RETURNDATACOPY JUMPDEST DUP1 MLOAD SWAP2 DUP3 PUSH2 0x8AC JUMPI PUSH4 0x32505749 PUSH1 0xE1 SHL PUSH1 0x0 MSTORE CALLER PUSH1 0x4 MSTORE PUSH1 0x24 PUSH1 0x0 REVERT JUMPDEST ADD REVERT JUMPDEST PUSH1 0x60 PUSH2 0x88F JUMP JUMPDEST SWAP3 SWAP4 POP SWAP1 SWAP2 PUSH1 0x1 PUSH1 0x1 PUSH1 0xE0 SHL SUB NOT AND PUSH4 0x757A42FF PUSH1 0xE1 SHL ADD PUSH2 0x8DB JUMPI SWAP1 DUP3 SWAP2 DUP5 PUSH2 0x7ED JUMP JUMPDEST PUSH4 0x32505749 PUSH1 0xE1 SHL PUSH1 0x0 MSTORE CALLER PUSH1 0x4 MSTORE PUSH1 0x24 PUSH1 0x0 REVERT JUMPDEST DUP7 DUP2 DUP2 RETURNDATASIZE DUP4 GT PUSH2 0x92A JUMPI JUMPDEST PUSH2 0x905 DUP2 DUP4 PUSH2 0x1191 JUMP JUMPDEST DUP2 ADD SUB SLT PUSH2 0x28E JUMPI MLOAD SWAP1 PUSH1 0x1 PUSH1 0x1 PUSH1 0xE0 SHL SUB NOT DUP3 AND DUP3 SUB PUSH2 0x927 JUMPI POP DUP7 PUSH2 0x860 JUMP JUMPDEST DUP1 REVERT JUMPDEST POP RETURNDATASIZE PUSH2 0x8FB JUMP JUMPDEST PUSH4 0x39E35637 PUSH1 0xE1 SHL PUSH1 0x0 MSTORE PUSH1 0x0 PUSH1 0x4 MSTORE PUSH1 0x24 PUSH1 0x0 REVERT JUMPDEST PUSH1 0x0 DUP3 DUP2 MSTORE PUSH1 0x4 PUSH1 0x20 MSTORE PUSH1 0x40 SWAP1 KECCAK256 DUP1 SLOAD PUSH1 0x1 PUSH1 0x1 PUSH1 0xA0 SHL SUB NOT AND SWAP1 SSTORE DUP3 DUP2 MSTORE PUSH1 0x3 DUP10 MSTORE PUSH1 0x40 DUP2 KECCAK256 DUP1 SLOAD PUSH1 0x0 NOT ADD SWAP1 SSTORE PUSH2 0x78D JUMP JUMPDEST PUSH4 0x32505749 PUSH1 0xE1 SHL PUSH1 0x0 MSTORE PUSH1 0x0 PUSH1 0x4 MSTORE PUSH1 0x24 PUSH1 0x0 REVERT JUMPDEST CALLVALUE PUSH2 0x156 JUMPI PUSH1 0x40 CALLDATASIZE PUSH1 0x3 NOT ADD SLT PUSH2 0x156 JUMPI PUSH2 0x9AA PUSH2 0x1165 JUMP JUMPDEST PUSH1 0x1 PUSH1 0x1 PUSH1 0xA0 SHL SUB DUP2 AND SWAP1 PUSH1 0x24 CALLDATALOAD SWAP1 PUSH1 0x0 SWAP1 ADDRESS DUP5 SUB PUSH2 0x9F4 JUMPI POP PUSH2 0x9E4 SWAP3 POP PUSH2 0x9DF SWAP1 POP PUSH1 0x1 PUSH1 0x1 PUSH1 0xA0 SHL SUB PUSH2 0x1A6 DUP4 PUSH2 0x1E99 JUMP JUMPDEST PUSH2 0x20D2 JUMP JUMPDEST SWAP1 PUSH2 0x310 PUSH1 0x40 MLOAD SWAP3 DUP4 SWAP3 DUP4 PUSH2 0x14A0 JUMP JUMPDEST SWAP2 DUP2 SWAP4 PUSH1 0x40 MLOAD SWAP4 PUSH4 0x1FFC9A7 PUSH1 0xE0 SHL DUP6 MSTORE PUSH4 0x204CBD1 PUSH1 0xE5 SHL PUSH1 0x4 DUP7 ADD MSTORE PUSH1 0x20 DUP6 PUSH1 0x24 DUP2 DUP6 GAS STATICCALL SWAP5 DUP6 ISZERO PUSH2 0x570 JUMPI PUSH2 0x516 SWAP6 PUSH2 0xA36 SWAP2 DUP7 SWAP2 PUSH2 0x557 JUMPI POP PUSH2 0x1CCD JUMP JUMPDEST PUSH1 0x40 MLOAD PUSH4 0x327CD873 PUSH1 0xE1 SHL DUP2 MSTORE PUSH1 0x1 PUSH1 0x1 PUSH1 0xA0 SHL SUB SWAP1 SWAP2 AND PUSH1 0x4 DUP3 ADD MSTORE PUSH1 0x24 DUP2 ADD SWAP3 SWAP1 SWAP3 MSTORE SWAP1 SWAP3 DUP4 SWAP2 SWAP1 DUP3 SWAP1 DUP2 SWAP1 PUSH1 0x44 DUP3 ADD SWAP1 JUMP JUMPDEST CALLVALUE PUSH2 0x156 JUMPI PUSH1 0x20 CALLDATASIZE PUSH1 0x3 NOT ADD SLT PUSH2 0x156 JUMPI PUSH1 0x20 PUSH2 0xA89 PUSH1 0x4 CALLDATALOAD PUSH2 0x1E99 JUMP JUMPDEST PUSH1 0x40 MLOAD PUSH1 0x1 PUSH1 0x1 PUSH1 0xA0 SHL SUB SWAP1 SWAP2 AND DUP2 MSTORE RETURN JUMPDEST CALLVALUE PUSH2 0x156 JUMPI PUSH2 0x37F PUSH2 0xAAC CALLDATASIZE PUSH2 0x12B2 JUMP JUMPDEST SWAP2 PUSH2 0x1804 JUMP JUMPDEST CALLVALUE PUSH2 0x156 JUMPI PUSH1 0x60 CALLDATASIZE PUSH1 0x3 NOT ADD SLT PUSH2 0x156 JUMPI PUSH2 0xACB PUSH2 0x1165 JUMP JUMPDEST PUSH1 0x24 CALLDATALOAD SWAP1 PUSH1 0x44 CALLDATALOAD PUSH1 0x1 PUSH1 0x1 PUSH1 0x40 SHL SUB DUP2 GT PUSH2 0x156 JUMPI PUSH2 0xAEE SWAP1 CALLDATASIZE SWAP1 PUSH1 0x4 ADD PUSH2 0x1255 JUMP JUMPDEST PUSH1 0x1 PUSH1 0x1 PUSH1 0xA0 SHL SUB DUP3 AND ADDRESS DUP2 EQ SWAP3 SWAP2 SWAP1 PUSH1 0x0 JUMPDEST DUP3 MLOAD DUP2 LT ISZERO PUSH2 0x37F JUMPI PUSH2 0xB14 DUP2 DUP5 PUSH2 0x174C JUMP JUMPDEST MLOAD PUSH1 0x0 MSTORE PUSH1 0x7 PUSH1 0x20 MSTORE PUSH1 0x40 PUSH1 0x0 KECCAK256 SWAP1 PUSH1 0x1 DUP3 ADD SWAP2 DUP7 PUSH1 0x40 PUSH1 0x0 DUP7 DUP2 MSTORE DUP6 PUSH1 0x20 MSTORE KECCAK256 SLOAD ISZERO PUSH2 0xC55 JUMPI JUMPDEST PUSH2 0xBF4 JUMPI PUSH1 0x4 TIMESTAMP SWAP2 ADD SLOAD LT ISZERO PUSH2 0xB91 JUMPI PUSH2 0xB64 DUP8 PUSH1 0x40 PUSH1 0x1 SWAP5 PUSH1 0x0 SWAP1 DUP8 DUP3 MSTORE PUSH1 0x20 MSTORE KECCAK256 PUSH2 0x17CF JUMP JUMPDEST PUSH2 0xB8B PUSH2 0xB71 DUP3 DUP7 PUSH2 0x174C JUMP JUMPDEST MLOAD PUSH2 0xB85 PUSH2 0xB7F DUP5 DUP9 PUSH2 0x174C JUMP JUMPDEST MLOAD PUSH2 0x1E99 JUMP JUMPDEST SWAP1 PUSH2 0x1EE7 JUMP JUMPDEST ADD PUSH2 0xB01 JUMP JUMPDEST PUSH1 0x40 MLOAD PUSH3 0x461BCD PUSH1 0xE5 SHL DUP2 MSTORE PUSH1 0x20 PUSH1 0x4 DUP3 ADD MSTORE PUSH1 0x35 PUSH1 0x24 DUP3 ADD MSTORE PUSH32 0x4552435F353532313A2074686520726566657272656420724E4654206E656564 PUSH1 0x44 DUP3 ADD MSTORE PUSH21 0x39903A37903132903090383932B232B1B2B9B9B7B9 PUSH1 0x59 SHL PUSH1 0x64 DUP3 ADD MSTORE PUSH1 0x84 SWAP1 REVERT JUMPDEST PUSH1 0x40 MLOAD PUSH3 0x461BCD PUSH1 0xE5 SHL DUP2 MSTORE PUSH1 0x20 PUSH1 0x4 DUP3 ADD MSTORE PUSH1 0x33 PUSH1 0x24 DUP3 ADD MSTORE PUSH32 0x4552435F353532313A2074686973206D75737420626520616E2065787465726E PUSH1 0x44 DUP3 ADD MSTORE PUSH19 0x616C20636F6E74726163742061646472657373 PUSH1 0x68 SHL PUSH1 0x64 DUP3 ADD MSTORE PUSH1 0x84 SWAP1 REVERT JUMPDEST PUSH2 0xC62 DUP8 PUSH1 0x3 DUP5 ADD PUSH2 0x178E JUMP JUMPDEST PUSH2 0xB3C JUMP JUMPDEST CALLVALUE PUSH2 0x156 JUMPI PUSH2 0x37F PUSH2 0xC78 CALLDATASIZE PUSH2 0x1204 JUMP JUMPDEST SWAP1 PUSH1 0x40 MLOAD SWAP3 PUSH2 0xC88 PUSH1 0x20 DUP6 PUSH2 0x1191 JUMP JUMPDEST PUSH1 0x0 DUP5 MSTORE PUSH2 0x379 DUP4 DUP4 DUP4 PUSH2 0x15B6 JUMP JUMPDEST CALLVALUE PUSH2 0x156 JUMPI PUSH2 0x37F PUSH2 0xCA8 CALLDATASIZE PUSH2 0x1204 JUMP JUMPDEST SWAP2 PUSH2 0x15B6 JUMP JUMPDEST CALLVALUE PUSH2 0x156 JUMPI PUSH1 0x40 CALLDATASIZE PUSH1 0x3 NOT ADD SLT PUSH2 0x156 JUMPI PUSH1 0x4 CALLDATALOAD PUSH1 0x24 CALLDATALOAD PUSH1 0x1 PUSH1 0x1 PUSH1 0x40 SHL SUB DUP2 GT PUSH2 0x156 JUMPI CALLDATASIZE PUSH1 0x23 DUP3 ADD SLT ISZERO PUSH2 0x156 JUMPI PUSH2 0xCF2 SWAP1 CALLDATASIZE SWAP1 PUSH1 0x24 DUP2 PUSH1 0x4 ADD CALLDATALOAD SWAP2 ADD PUSH2 0x11CD JUMP JUMPDEST PUSH2 0xD06 PUSH1 0x1 PUSH1 0x1 PUSH1 0xA0 SHL SUB PUSH2 0x1A6 DUP5 PUSH2 0x1E99 JUMP JUMPDEST PUSH2 0xD22 PUSH2 0xD12 DUP4 PUSH2 0x1E99 JUMP JUMPDEST PUSH1 0x1 PUSH1 0x1 PUSH1 0xA0 SHL SUB AND CALLER EQ PUSH2 0x154E JUMP JUMPDEST DUP2 PUSH1 0x0 MSTORE PUSH1 0x6 PUSH1 0x20 MSTORE PUSH1 0x40 PUSH1 0x0 KECCAK256 SWAP1 DUP1 MLOAD SWAP1 PUSH1 0x1 PUSH1 0x1 PUSH1 0x40 SHL SUB DUP3 GT PUSH2 0xE87 JUMPI PUSH2 0xD4C DUP4 SLOAD PUSH2 0x14C8 JUMP JUMPDEST PUSH1 0x1F DUP2 GT PUSH2 0xE4A JUMPI JUMPDEST POP PUSH1 0x20 SWAP1 PUSH1 0x1F DUP4 GT PUSH1 0x1 EQ PUSH2 0xDBE JUMPI SWAP2 DUP1 PUSH1 0x20 SWAP5 SWAP3 PUSH32 0xF8E1A15ABA9398E019F0B49DF1A4FDE98EE17AE345CB5F6B5E2C27F5033E8CE7 SWAP7 SWAP5 PUSH1 0x0 SWAP3 PUSH2 0xDB3 JUMPI JUMPDEST POP POP DUP2 PUSH1 0x1 SHL SWAP2 PUSH1 0x0 NOT SWAP1 PUSH1 0x3 SHL SHR NOT AND OR SWAP1 SSTORE JUMPDEST PUSH1 0x40 MLOAD SWAP1 DUP2 MSTORE LOG1 STOP JUMPDEST ADD MLOAD SWAP1 POP DUP7 DUP1 PUSH2 0xD95 JUMP JUMPDEST SWAP1 PUSH1 0x1F NOT DUP4 AND SWAP2 DUP5 PUSH1 0x0 MSTORE DUP2 PUSH1 0x0 KECCAK256 SWAP3 PUSH1 0x0 JUMPDEST DUP2 DUP2 LT PUSH2 0xE32 JUMPI POP SWAP3 PUSH1 0x1 SWAP3 DUP6 SWAP3 PUSH32 0xF8E1A15ABA9398E019F0B49DF1A4FDE98EE17AE345CB5F6B5E2C27F5033E8CE7 SWAP9 SWAP7 PUSH1 0x20 SWAP9 SWAP7 LT PUSH2 0xE19 JUMPI JUMPDEST POP POP POP DUP2 SHL ADD SWAP1 SSTORE PUSH2 0xDAA JUMP JUMPDEST ADD MLOAD PUSH1 0x0 NOT PUSH1 0xF8 DUP5 PUSH1 0x3 SHL AND SHR NOT AND SWAP1 SSTORE DUP7 DUP1 DUP1 PUSH2 0xE0C JUMP JUMPDEST SWAP3 SWAP4 PUSH1 0x20 PUSH1 0x1 DUP2 SWAP3 DUP8 DUP7 ADD MLOAD DUP2 SSTORE ADD SWAP6 ADD SWAP4 ADD PUSH2 0xDD1 JUMP JUMPDEST PUSH2 0xE77 SWAP1 DUP5 PUSH1 0x0 MSTORE PUSH1 0x20 PUSH1 0x0 KECCAK256 PUSH1 0x1F DUP6 ADD PUSH1 0x5 SHR DUP2 ADD SWAP2 PUSH1 0x20 DUP7 LT PUSH2 0xE7D JUMPI JUMPDEST PUSH1 0x1F ADD PUSH1 0x5 SHR ADD SWAP1 PUSH2 0x1ED0 JUMP JUMPDEST DUP5 PUSH2 0xD55 JUMP JUMPDEST SWAP1 SWAP2 POP DUP2 SWAP1 PUSH2 0xE6A JUMP JUMPDEST PUSH4 0x4E487B71 PUSH1 0xE0 SHL PUSH1 0x0 MSTORE PUSH1 0x41 PUSH1 0x4 MSTORE PUSH1 0x24 PUSH1 0x0 REVERT JUMPDEST CALLVALUE PUSH2 0x156 JUMPI PUSH1 0x40 CALLDATASIZE PUSH1 0x3 NOT ADD SLT PUSH2 0x156 JUMPI PUSH2 0xEB6 PUSH2 0x1165 JUMP JUMPDEST PUSH1 0x24 CALLDATALOAD PUSH2 0xEC2 DUP2 PUSH2 0x1E99 JUMP JUMPDEST CALLER ISZERO ISZERO DUP1 PUSH2 0xF79 JUMPI JUMPDEST DUP1 PUSH2 0xF4B JUMPI JUMPDEST PUSH2 0xF36 JUMPI DUP2 SWAP1 PUSH1 0x1 PUSH1 0x1 PUSH1 0xA0 SHL SUB DUP5 DUP2 AND SWAP2 AND PUSH32 0x8C5BE1E5EBEC7D5BD14F71427D1E84F3DD0314C0F7B2291E5B200AC8C7C3B925 PUSH1 0x0 DUP1 LOG4 PUSH1 0x0 SWAP1 DUP2 MSTORE PUSH1 0x4 PUSH1 0x20 MSTORE PUSH1 0x40 SWAP1 KECCAK256 DUP1 SLOAD PUSH1 0x1 PUSH1 0x1 PUSH1 0xA0 SHL SUB NOT AND PUSH1 0x1 PUSH1 0x1 PUSH1 0xA0 SHL SUB SWAP1 SWAP3 AND SWAP2 SWAP1 SWAP2 OR SWAP1 SSTORE STOP JUMPDEST PUSH4 0xA9FBF51F PUSH1 0xE0 SHL PUSH1 0x0 MSTORE CALLER PUSH1 0x4 MSTORE PUSH1 0x24 PUSH1 0x0 REVERT JUMPDEST POP PUSH1 0x1 PUSH1 0x1 PUSH1 0xA0 SHL SUB DUP2 AND PUSH1 0x0 SWAP1 DUP2 MSTORE PUSH1 0x5 PUSH1 0x20 SWAP1 DUP2 MSTORE PUSH1 0x40 DUP1 DUP4 KECCAK256 CALLER DUP5 MSTORE SWAP1 SWAP2 MSTORE SWAP1 KECCAK256 SLOAD PUSH1 0xFF AND ISZERO PUSH2 0xED1 JUMP JUMPDEST POP PUSH1 0x1 PUSH1 0x1 PUSH1 0xA0 SHL SUB DUP2 AND CALLER EQ ISZERO PUSH2 0xECB JUMP JUMPDEST CALLVALUE PUSH2 0x156 JUMPI PUSH1 0x20 CALLDATASIZE PUSH1 0x3 NOT ADD SLT PUSH2 0x156 JUMPI PUSH1 0x4 CALLDATALOAD PUSH2 0xFA9 DUP2 PUSH2 0x1E99 JUMP JUMPDEST POP PUSH1 0x0 MSTORE PUSH1 0x4 PUSH1 0x20 MSTORE PUSH1 0x20 PUSH1 0x1 DUP1 PUSH1 0xA0 SHL SUB PUSH1 0x40 PUSH1 0x0 KECCAK256 SLOAD AND PUSH1 0x40 MLOAD SWAP1 DUP2 MSTORE RETURN JUMPDEST CALLVALUE PUSH2 0x156 JUMPI PUSH1 0x0 CALLDATASIZE PUSH1 0x3 NOT ADD SLT PUSH2 0x156 JUMPI PUSH1 0x40 MLOAD PUSH1 0x0 DUP1 SLOAD PUSH2 0xFEB DUP2 PUSH2 0x14C8 JUMP JUMPDEST DUP1 DUP5 MSTORE SWAP1 PUSH1 0x1 DUP2 AND SWAP1 DUP2 ISZERO PUSH2 0x6C6 JUMPI POP PUSH1 0x1 EQ PUSH2 0x1012 JUMPI PUSH2 0x310 DUP4 PUSH2 0x2FC DUP2 DUP6 SUB DUP3 PUSH2 0x1191 JUMP JUMPDEST PUSH1 0x0 DUP1 DUP1 MSTORE PUSH32 0x290DECD9548B62A8D60345A988386FC84BA6BC95484008F6362F93160EF3E563 SWAP4 SWAP3 POP SWAP1 JUMPDEST DUP1 DUP3 LT PUSH2 0x1055 JUMPI POP SWAP1 SWAP2 POP DUP2 ADD PUSH1 0x20 ADD PUSH2 0x2FC PUSH2 0x656 JUMP JUMPDEST SWAP2 SWAP3 PUSH1 0x1 DUP2 PUSH1 0x20 SWAP3 SLOAD DUP4 DUP6 DUP9 ADD ADD MSTORE ADD SWAP2 ADD SWAP1 SWAP3 SWAP2 PUSH2 0x103D JUMP JUMPDEST CALLVALUE PUSH2 0x156 JUMPI PUSH1 0x20 CALLDATASIZE PUSH1 0x3 NOT ADD SLT PUSH2 0x156 JUMPI PUSH1 0x4 CALLDATALOAD SWAP1 PUSH4 0xFFFFFFFF PUSH1 0xE0 SHL DUP3 AND DUP1 SWAP3 SUB PUSH2 0x156 JUMPI PUSH1 0x20 SWAP2 PUSH4 0x74342B55 PUSH1 0xE0 SHL DUP2 EQ SWAP1 DUP2 ISZERO PUSH2 0x1115 JUMPI JUMPDEST DUP2 ISZERO PUSH2 0x10B8 JUMPI JUMPDEST POP ISZERO ISZERO DUP2 MSTORE RETURN JUMPDEST PUSH4 0x24832483 PUSH1 0xE1 SHL DUP2 EQ SWAP2 POP DUP2 ISZERO PUSH2 0x10D2 JUMPI JUMPDEST POP DUP4 PUSH2 0x10B1 JUMP JUMPDEST PUSH4 0x80AC58CD PUSH1 0xE0 SHL DUP2 EQ SWAP2 POP DUP2 ISZERO PUSH2 0x1104 JUMPI JUMPDEST DUP2 ISZERO PUSH2 0x10F3 JUMPI JUMPDEST POP DUP4 PUSH2 0x10CB JUMP JUMPDEST PUSH4 0x1FFC9A7 PUSH1 0xE0 SHL EQ SWAP1 POP DUP4 PUSH2 0x10EC JUMP JUMPDEST PUSH4 0x5B5E139F PUSH1 0xE0 SHL DUP2 EQ SWAP2 POP PUSH2 0x10E5 JUMP JUMPDEST PUSH4 0x204CBD1 PUSH1 0xE5 SHL DUP2 EQ SWAP2 POP PUSH2 0x10AA JUMP JUMPDEST SWAP2 SWAP1 DUP3 MLOAD DUP1 DUP3 MSTORE PUSH1 0x20 DUP1 DUP4 ADD SWAP5 ADD PUSH1 0x0 JUMPDEST DUP3 DUP2 LT PUSH2 0x1155 JUMPI POP POP PUSH1 0x0 DUP2 PUSH1 0x20 SWAP5 SWAP6 ADD MSTORE PUSH1 0x1F DUP1 NOT SWAP2 ADD AND ADD ADD SWAP1 JUMP JUMPDEST DUP2 DUP2 ADD MLOAD DUP7 DUP3 ADD MSTORE PUSH1 0x20 ADD PUSH2 0x1137 JUMP JUMPDEST PUSH1 0x4 CALLDATALOAD SWAP1 PUSH1 0x1 PUSH1 0x1 PUSH1 0xA0 SHL SUB DUP3 AND DUP3 SUB PUSH2 0x156 JUMPI JUMP JUMPDEST PUSH1 0x24 CALLDATALOAD SWAP1 PUSH1 0x1 PUSH1 0x1 PUSH1 0xA0 SHL SUB DUP3 AND DUP3 SUB PUSH2 0x156 JUMPI JUMP JUMPDEST SWAP1 PUSH1 0x1F DUP1 NOT SWAP2 ADD AND DUP2 ADD SWAP1 DUP2 LT PUSH1 0x1 PUSH1 0x1 PUSH1 0x40 SHL SUB DUP3 GT OR PUSH2 0xE87 JUMPI PUSH1 0x40 MSTORE JUMP JUMPDEST PUSH1 0x1 PUSH1 0x1 PUSH1 0x40 SHL SUB DUP2 GT PUSH2 0xE87 JUMPI PUSH1 0x1F ADD PUSH1 0x1F NOT AND PUSH1 0x20 ADD SWAP1 JUMP JUMPDEST SWAP3 SWAP2 SWAP3 PUSH2 0x11D9 DUP3 PUSH2 0x11B2 JUMP JUMPDEST SWAP2 PUSH2 0x11E7 PUSH1 0x40 MLOAD SWAP4 DUP5 PUSH2 0x1191 JUMP JUMPDEST DUP3 SWAP5 DUP2 DUP5 MSTORE DUP2 DUP4 ADD GT PUSH2 0x156 JUMPI DUP3 DUP2 PUSH1 0x20 SWAP4 DUP5 PUSH1 0x0 SWAP7 ADD CALLDATACOPY ADD ADD MSTORE JUMP JUMPDEST PUSH1 0x60 SWAP1 PUSH1 0x3 NOT ADD SLT PUSH2 0x156 JUMPI PUSH1 0x4 CALLDATALOAD PUSH1 0x1 PUSH1 0x1 PUSH1 0xA0 SHL SUB DUP2 AND DUP2 SUB PUSH2 0x156 JUMPI SWAP1 PUSH1 0x24 CALLDATALOAD PUSH1 0x1 PUSH1 0x1 PUSH1 0xA0 SHL SUB DUP2 AND DUP2 SUB PUSH2 0x156 JUMPI SWAP1 PUSH1 0x44 CALLDATALOAD SWAP1 JUMP JUMPDEST PUSH1 0x1 PUSH1 0x1 PUSH1 0x40 SHL SUB DUP2 GT PUSH2 0xE87 JUMPI PUSH1 0x5 SHL PUSH1 0x20 ADD SWAP1 JUMP JUMPDEST SWAP1 DUP1 PUSH1 0x1F DUP4 ADD SLT ISZERO PUSH2 0x156 JUMPI DUP2 CALLDATALOAD PUSH2 0x126C DUP2 PUSH2 0x123E JUMP JUMPDEST SWAP3 PUSH2 0x127A PUSH1 0x40 MLOAD SWAP5 DUP6 PUSH2 0x1191 JUMP JUMPDEST DUP2 DUP5 MSTORE PUSH1 0x20 DUP1 DUP6 ADD SWAP3 PUSH1 0x5 SHL DUP3 ADD ADD SWAP3 DUP4 GT PUSH2 0x156 JUMPI PUSH1 0x20 ADD SWAP1 JUMPDEST DUP3 DUP3 LT PUSH2 0x12A2 JUMPI POP POP POP SWAP1 JUMP JUMPDEST DUP2 CALLDATALOAD DUP2 MSTORE PUSH1 0x20 SWAP2 DUP3 ADD SWAP2 ADD PUSH2 0x1295 JUMP JUMPDEST PUSH1 0x60 PUSH1 0x3 NOT DUP3 ADD SLT PUSH2 0x156 JUMPI PUSH1 0x4 CALLDATALOAD SWAP2 PUSH1 0x24 CALLDATALOAD PUSH1 0x1 PUSH1 0x1 PUSH1 0x40 SHL SUB DUP2 GT PUSH2 0x156 JUMPI DUP3 PUSH1 0x23 DUP3 ADD SLT ISZERO PUSH2 0x156 JUMPI DUP1 PUSH1 0x4 ADD CALLDATALOAD PUSH2 0x12EC DUP2 PUSH2 0x123E JUMP JUMPDEST SWAP2 PUSH2 0x12FA PUSH1 0x40 MLOAD SWAP4 DUP5 PUSH2 0x1191 JUMP JUMPDEST DUP2 DUP4 MSTORE PUSH1 0x24 PUSH1 0x20 DUP5 ADD SWAP3 PUSH1 0x5 SHL DUP3 ADD ADD SWAP1 DUP6 DUP3 GT PUSH2 0x156 JUMPI PUSH1 0x24 ADD SWAP2 JUMPDEST DUP2 DUP4 LT PUSH2 0x13B6 JUMPI POP POP POP SWAP2 PUSH1 0x44 CALLDATALOAD SWAP1 PUSH1 0x1 PUSH1 0x1 PUSH1 0x40 SHL SUB DUP3 GT PUSH2 0x156 JUMPI DUP1 PUSH1 0x23 DUP4 ADD SLT ISZERO PUSH2 0x156 JUMPI DUP2 PUSH1 0x4 ADD CALLDATALOAD PUSH2 0x134D DUP2 PUSH2 0x123E JUMP JUMPDEST SWAP3 PUSH2 0x135B PUSH1 0x40 MLOAD SWAP5 DUP6 PUSH2 0x1191 JUMP JUMPDEST DUP2 DUP5 MSTORE PUSH1 0x24 PUSH1 0x20 DUP6 ADD SWAP3 PUSH1 0x5 SHL DUP3 ADD ADD SWAP2 DUP4 DUP4 GT PUSH2 0x156 JUMPI PUSH1 0x24 DUP3 ADD SWAP1 JUMPDEST DUP4 DUP3 LT PUSH2 0x1388 JUMPI POP POP POP POP POP SWAP1 JUMP JUMPDEST DUP2 CALLDATALOAD PUSH1 0x1 PUSH1 0x1 PUSH1 0x40 SHL SUB DUP2 GT PUSH2 0x156 JUMPI PUSH1 0x20 SWAP2 PUSH2 0x13AB DUP8 PUSH1 0x24 DUP6 SWAP5 DUP9 ADD ADD PUSH2 0x1255 JUMP JUMPDEST DUP2 MSTORE ADD SWAP2 ADD SWAP1 PUSH2 0x1379 JUMP JUMPDEST DUP3 CALLDATALOAD PUSH1 0x1 PUSH1 0x1 PUSH1 0xA0 SHL SUB DUP2 AND DUP2 SUB PUSH2 0x156 JUMPI DUP2 MSTORE PUSH1 0x20 SWAP3 DUP4 ADD SWAP3 ADD PUSH2 0x1317 JUMP JUMPDEST SWAP1 PUSH1 0x20 DUP1 DUP4 MLOAD SWAP3 DUP4 DUP2 MSTORE ADD SWAP3 ADD SWAP1 PUSH1 0x0 JUMPDEST DUP2 DUP2 LT PUSH2 0x13F4 JUMPI POP POP POP SWAP1 JUMP JUMPDEST DUP3 MLOAD PUSH1 0x1 PUSH1 0x1 PUSH1 0xA0 SHL SUB AND DUP5 MSTORE PUSH1 0x20 SWAP4 DUP5 ADD SWAP4 SWAP1 SWAP3 ADD SWAP2 PUSH1 0x1 ADD PUSH2 0x13E7 JUMP JUMPDEST SWAP1 PUSH1 0x20 DUP1 DUP4 MLOAD SWAP3 DUP4 DUP2 MSTORE ADD SWAP3 ADD SWAP1 PUSH1 0x0 JUMPDEST DUP2 DUP2 LT PUSH2 0x1431 JUMPI POP POP POP SWAP1 JUMP JUMPDEST DUP3 MLOAD DUP5 MSTORE PUSH1 0x20 SWAP4 DUP5 ADD SWAP4 SWAP1 SWAP3 ADD SWAP2 PUSH1 0x1 ADD PUSH2 0x1424 JUMP JUMPDEST SWAP1 DUP1 PUSH1 0x20 DUP4 MLOAD SWAP2 DUP3 DUP2 MSTORE ADD SWAP2 PUSH1 0x20 DUP1 DUP4 PUSH1 0x5 SHL DUP4 ADD ADD SWAP5 ADD SWAP3 PUSH1 0x0 SWAP2 JUMPDEST DUP4 DUP4 LT PUSH2 0x1473 JUMPI POP POP POP POP POP SWAP1 JUMP JUMPDEST SWAP1 SWAP2 SWAP3 SWAP4 SWAP5 PUSH1 0x20 DUP1 PUSH2 0x1491 PUSH1 0x1 SWAP4 PUSH1 0x1F NOT DUP7 DUP3 SUB ADD DUP8 MSTORE DUP10 MLOAD PUSH2 0x1413 JUMP JUMPDEST SWAP8 ADD SWAP4 ADD SWAP4 ADD SWAP2 SWAP4 SWAP3 SWAP1 PUSH2 0x1464 JUMP JUMPDEST SWAP1 SWAP2 PUSH2 0x14B7 PUSH2 0x14C5 SWAP4 PUSH1 0x40 DUP5 MSTORE PUSH1 0x40 DUP5 ADD SWAP1 PUSH2 0x13D6 JUMP JUMPDEST SWAP2 PUSH1 0x20 DUP2 DUP5 SUB SWAP2 ADD MSTORE PUSH2 0x1447 JUMP JUMPDEST SWAP1 JUMP JUMPDEST SWAP1 PUSH1 0x1 DUP3 DUP2 SHR SWAP3 AND DUP1 ISZERO PUSH2 0x14F8 JUMPI JUMPDEST PUSH1 0x20 DUP4 LT EQ PUSH2 0x14E2 JUMPI JUMP JUMPDEST PUSH4 0x4E487B71 PUSH1 0xE0 SHL PUSH1 0x0 MSTORE PUSH1 0x22 PUSH1 0x4 MSTORE PUSH1 0x24 PUSH1 0x0 REVERT JUMPDEST SWAP2 PUSH1 0x7F AND SWAP2 PUSH2 0x14D7 JUMP JUMPDEST ISZERO PUSH2 0x1509 JUMPI JUMP JUMPDEST PUSH1 0x40 MLOAD PUSH3 0x461BCD PUSH1 0xE5 SHL DUP2 MSTORE PUSH1 0x20 PUSH1 0x4 DUP3 ADD MSTORE PUSH1 0x1E PUSH1 0x24 DUP3 ADD MSTORE PUSH32 0x4552435F353532313A20746F6B656E204944206E6F7420657869737465640000 PUSH1 0x44 DUP3 ADD MSTORE PUSH1 0x64 SWAP1 REVERT JUMPDEST ISZERO PUSH2 0x1555 JUMPI JUMP JUMPDEST PUSH1 0x40 MLOAD PUSH3 0x461BCD PUSH1 0xE5 SHL DUP2 MSTORE PUSH1 0x20 PUSH1 0x4 DUP3 ADD MSTORE PUSH1 0x33 PUSH1 0x24 DUP3 ADD MSTORE PUSH32 0x4552435F353532313A207472616E736665722063616C6C6572206973206E6F74 PUSH1 0x44 DUP3 ADD MSTORE PUSH19 0x81BDDDB995C881B9BDC88185C1C1C9BDD9959 PUSH1 0x6A SHL PUSH1 0x64 DUP3 ADD MSTORE PUSH1 0x84 SWAP1 REVERT JUMPDEST PUSH1 0x1 PUSH1 0x1 PUSH1 0xA0 SHL SUB SWAP1 SWAP2 AND SWAP2 SWAP1 DUP3 ISZERO PUSH2 0x97B JUMPI PUSH1 0x0 DUP3 DUP2 MSTORE PUSH1 0x2 PUSH1 0x20 MSTORE PUSH1 0x40 DUP2 KECCAK256 SLOAD PUSH1 0x1 PUSH1 0x1 PUSH1 0xA0 SHL SUB AND SWAP4 DUP4 SWAP2 DUP6 SWAP1 CALLER ISZERO ISZERO DUP1 PUSH2 0x16B4 JUMPI JUMPDEST POP PUSH32 0xDDF252AD1BE2C89B69C2B068FC378DAA952BA7F163C4A11628F55A4DF523B3EF SWAP1 DUP3 PUSH2 0x167F JUMPI JUMPDEST DUP4 DUP2 MSTORE PUSH1 0x3 PUSH1 0x20 MSTORE PUSH1 0x40 DUP2 KECCAK256 PUSH1 0x1 DUP2 SLOAD ADD SWAP1 SSTORE DUP5 DUP2 MSTORE PUSH1 0x2 PUSH1 0x20 MSTORE PUSH1 0x40 DUP2 KECCAK256 DUP5 PUSH12 0xFFFFFFFFFFFFFFFFFFFFFFFF PUSH1 0xA0 SHL DUP3 SLOAD AND OR SWAP1 SSTORE DUP1 LOG4 PUSH1 0x1 PUSH1 0x1 PUSH1 0xA0 SHL SUB AND DUP1 DUP4 SUB PUSH2 0x1665 JUMPI POP POP POP JUMP JUMPDEST PUSH4 0x64283D7B PUSH1 0xE0 SHL PUSH1 0x0 MSTORE PUSH1 0x4 MSTORE PUSH1 0x24 MSTORE PUSH1 0x44 MSTORE PUSH1 0x64 PUSH1 0x0 REVERT JUMPDEST PUSH1 0x0 DUP6 DUP2 MSTORE PUSH1 0x4 PUSH1 0x20 MSTORE PUSH1 0x40 SWAP1 KECCAK256 DUP1 SLOAD PUSH1 0x1 PUSH1 0x1 PUSH1 0xA0 SHL SUB NOT AND SWAP1 SSTORE DUP3 DUP2 MSTORE PUSH1 0x3 PUSH1 0x20 MSTORE PUSH1 0x40 DUP2 KECCAK256 DUP1 SLOAD PUSH1 0x0 NOT ADD SWAP1 SSTORE PUSH2 0x1618 JUMP JUMPDEST SWAP2 POP SWAP2 SWAP3 POP DUP1 PUSH2 0x16FD JUMPI JUMPDEST ISZERO PUSH2 0x16CE JUMPI SWAP1 DUP5 DUP5 SWAP3 CODESIZE PUSH2 0x15EF JUMP JUMPDEST DUP4 SWAP1 DUP6 PUSH2 0x16E7 JUMPI PUSH1 0x24 SWAP2 PUSH4 0x7E273289 PUSH1 0xE0 SHL DUP3 MSTORE PUSH1 0x4 MSTORE REVERT JUMPDEST PUSH1 0x44 SWAP2 PUSH4 0x177E802F PUSH1 0xE0 SHL DUP3 MSTORE CALLER PUSH1 0x4 MSTORE PUSH1 0x24 MSTORE REVERT JUMPDEST POP CALLER DUP6 EQ DUP1 ISZERO PUSH2 0x172B JUMPI JUMPDEST DUP1 PUSH2 0x16BF JUMPI POP DUP4 DUP2 MSTORE PUSH1 0x4 PUSH1 0x20 MSTORE PUSH1 0x40 DUP2 KECCAK256 SLOAD PUSH1 0x1 PUSH1 0x1 PUSH1 0xA0 SHL SUB AND CALLER EQ PUSH2 0x16BF JUMP JUMPDEST POP DUP5 DUP2 MSTORE PUSH1 0x5 PUSH1 0x20 SWAP1 DUP2 MSTORE PUSH1 0x40 DUP1 DUP4 KECCAK256 CALLER DUP5 MSTORE SWAP1 SWAP2 MSTORE DUP2 KECCAK256 SLOAD PUSH1 0xFF AND PUSH2 0x1708 JUMP JUMPDEST DUP1 MLOAD DUP3 LT ISZERO PUSH2 0x1760 JUMPI PUSH1 0x20 SWAP2 PUSH1 0x5 SHL ADD ADD SWAP1 JUMP JUMPDEST PUSH4 0x4E487B71 PUSH1 0xE0 SHL PUSH1 0x0 MSTORE PUSH1 0x32 PUSH1 0x4 MSTORE PUSH1 0x24 PUSH1 0x0 REVERT JUMPDEST DUP1 SLOAD DUP3 LT ISZERO PUSH2 0x1760 JUMPI PUSH1 0x0 MSTORE PUSH1 0x20 PUSH1 0x0 KECCAK256 ADD SWAP1 PUSH1 0x0 SWAP1 JUMP JUMPDEST DUP1 SLOAD PUSH1 0x1 PUSH1 0x40 SHL DUP2 LT ISZERO PUSH2 0xE87 JUMPI PUSH2 0x17AB SWAP2 PUSH1 0x1 DUP3 ADD DUP2 SSTORE PUSH2 0x1776 JUMP JUMPDEST DUP2 SLOAD PUSH1 0x1 PUSH1 0x1 PUSH1 0xA0 SHL SUB SWAP4 DUP5 AND PUSH1 0x3 SWAP3 SWAP1 SWAP3 SHL SWAP2 DUP3 SHL SWAP4 SWAP1 SWAP2 SHL NOT AND SWAP2 SWAP1 SWAP2 OR SWAP1 SSTORE JUMP JUMPDEST DUP1 SLOAD PUSH1 0x1 PUSH1 0x40 SHL DUP2 LT ISZERO PUSH2 0xE87 JUMPI PUSH2 0x17EC SWAP2 PUSH1 0x1 DUP3 ADD DUP2 SSTORE PUSH2 0x1776 JUMP JUMPDEST DUP2 SWAP3 SWAP2 SLOAD SWAP1 PUSH1 0x3 SHL SWAP2 DUP3 SHL SWAP2 PUSH1 0x0 NOT SWAP1 SHL NOT AND OR SWAP1 SSTORE JUMP JUMPDEST SWAP3 DUP2 MLOAD DUP4 MLOAD SUB PUSH2 0x1C51 JUMPI PUSH1 0x0 JUMPDEST DUP4 MLOAD DUP2 LT ISZERO PUSH2 0x188D JUMPI PUSH2 0x1824 DUP2 DUP6 PUSH2 0x174C JUMP JUMPDEST MLOAD MLOAD ISZERO PUSH2 0x1833 JUMPI PUSH1 0x1 ADD PUSH2 0x1811 JUMP JUMPDEST PUSH1 0x40 MLOAD PUSH3 0x461BCD PUSH1 0xE5 SHL DUP2 MSTORE PUSH1 0x20 PUSH1 0x4 DUP3 ADD MSTORE PUSH1 0x2C PUSH1 0x24 DUP3 ADD MSTORE PUSH32 0x4552435F353532313A2074686520726566657272696E67206C6973742063616E PUSH1 0x44 DUP3 ADD MSTORE PUSH12 0x6E6F7420626520656D707479 PUSH1 0xA0 SHL PUSH1 0x64 DUP3 ADD MSTORE PUSH1 0x84 SWAP1 REVERT JUMPDEST POP SWAP2 SWAP3 SWAP1 SWAP3 PUSH2 0x189E PUSH2 0xD12 DUP4 PUSH2 0x1E99 JUMP JUMPDEST DUP2 PUSH1 0x0 MSTORE PUSH1 0x7 PUSH1 0x20 MSTORE PUSH1 0x40 PUSH1 0x0 KECCAK256 SWAP2 PUSH1 0x0 JUMPDEST DUP6 MLOAD DUP2 LT ISZERO PUSH2 0x19C2 JUMPI PUSH1 0x40 PUSH1 0x1 PUSH1 0x1 PUSH1 0xA0 SHL SUB PUSH2 0x18CD DUP4 DUP10 PUSH2 0x174C JUMP JUMPDEST MLOAD AND PUSH1 0x1 PUSH1 0x1 PUSH1 0xA0 SHL SUB AND PUSH1 0x0 SWAP1 DUP2 MSTORE PUSH1 0x20 DUP7 SWAP1 MSTORE KECCAK256 SLOAD ISZERO PUSH2 0x199D JUMPI JUMPDEST PUSH2 0x18F4 DUP2 DUP5 PUSH2 0x174C JUMP JUMPDEST MLOAD PUSH1 0x40 PUSH1 0x1 PUSH1 0x1 PUSH1 0xA0 SHL SUB PUSH2 0x1909 DUP5 DUP11 PUSH2 0x174C JUMP JUMPDEST MLOAD AND PUSH1 0x1 PUSH1 0x1 PUSH1 0xA0 SHL SUB AND PUSH1 0x0 SWAP1 DUP2 MSTORE PUSH1 0x20 DUP8 SWAP1 MSTORE KECCAK256 DUP2 MLOAD SWAP2 PUSH1 0x1 PUSH1 0x1 PUSH1 0x40 SHL SUB DUP4 GT PUSH2 0xE87 JUMPI PUSH1 0x1 PUSH1 0x40 SHL DUP4 GT PUSH2 0xE87 JUMPI PUSH1 0x20 SWAP1 DUP3 SLOAD DUP5 DUP5 SSTORE DUP1 DUP6 LT PUSH2 0x1980 JUMPI JUMPDEST POP ADD SWAP1 PUSH1 0x0 MSTORE PUSH1 0x20 PUSH1 0x0 KECCAK256 PUSH1 0x0 JUMPDEST DUP4 DUP2 LT PUSH2 0x196C JUMPI POP POP POP POP PUSH1 0x1 ADD PUSH2 0x18B0 JUMP JUMPDEST PUSH1 0x1 SWAP1 PUSH1 0x20 DUP5 MLOAD SWAP5 ADD SWAP4 DUP2 DUP5 ADD SSTORE ADD PUSH2 0x1959 JUMP JUMPDEST PUSH2 0x1997 SWAP1 DUP5 PUSH1 0x0 MSTORE DUP6 DUP5 PUSH1 0x0 KECCAK256 SWAP2 DUP3 ADD SWAP2 ADD PUSH2 0x1ED0 JUMP JUMPDEST CODESIZE PUSH2 0x194B JUMP JUMPDEST PUSH2 0x19BD PUSH1 0x1 PUSH1 0x1 PUSH1 0xA0 SHL SUB PUSH2 0x19B2 DUP4 DUP10 PUSH2 0x174C JUMP JUMPDEST MLOAD AND PUSH1 0x2 DUP7 ADD PUSH2 0x178E JUMP JUMPDEST PUSH2 0x18EA JUMP JUMPDEST POP SWAP4 SWAP2 PUSH1 0x4 TIMESTAMP SWAP2 ADD SSTORE PUSH2 0x19D5 CALLER DUP6 PUSH2 0x1EE7 JUMP JUMPDEST PUSH1 0x0 JUMPDEST DUP3 MLOAD DUP2 LT ISZERO PUSH2 0x1C4A JUMPI ADDRESS PUSH1 0x1 PUSH1 0x1 PUSH1 0xA0 SHL SUB PUSH2 0x19F4 DUP4 DUP7 PUSH2 0x174C JUMP JUMPDEST MLOAD AND SUB PUSH2 0x1B52 JUMPI ADDRESS SWAP4 PUSH1 0x0 JUMPDEST PUSH2 0x1A0A DUP4 DUP6 PUSH2 0x174C JUMP JUMPDEST MLOAD MLOAD DUP2 LT ISZERO PUSH2 0x1B45 JUMPI PUSH2 0x1A27 DUP2 PUSH2 0x1A21 DUP6 DUP8 PUSH2 0x174C JUMP JUMPDEST MLOAD PUSH2 0x174C JUMP JUMPDEST MLOAD PUSH1 0x0 SWAP1 DUP2 MSTORE PUSH1 0x7 PUSH1 0x20 MSTORE PUSH1 0x40 SWAP1 DUP2 SWAP1 KECCAK256 PUSH1 0x1 DUP2 ADD SWAP3 SWAP2 PUSH1 0x1 PUSH1 0x1 PUSH1 0xA0 SHL SUB PUSH2 0x1A50 DUP8 DUP11 PUSH2 0x174C JUMP JUMPDEST MLOAD AND PUSH1 0x1 PUSH1 0x1 PUSH1 0xA0 SHL SUB AND PUSH1 0x0 SWAP1 DUP2 MSTORE PUSH1 0x20 DUP6 SWAP1 MSTORE KECCAK256 SLOAD ISZERO PUSH2 0x1B20 JUMPI JUMPDEST PUSH2 0x1A7B DUP3 PUSH2 0x1A21 DUP8 DUP10 PUSH2 0x174C JUMP JUMPDEST MLOAD DUP10 EQ PUSH2 0x1ACF JUMPI PUSH1 0x4 TIMESTAMP SWAP2 ADD SLOAD LT ISZERO PUSH2 0xB91 JUMPI PUSH2 0x1AA6 DUP9 PUSH1 0x40 PUSH1 0x1 SWAP5 PUSH1 0x0 SWAP1 DUP12 DUP3 MSTORE PUSH1 0x20 MSTORE KECCAK256 PUSH2 0x17CF JUMP JUMPDEST PUSH2 0x1AC9 PUSH2 0x1AB7 DUP3 PUSH2 0x1A21 DUP8 DUP10 PUSH2 0x174C JUMP JUMPDEST MLOAD PUSH2 0xB85 PUSH2 0xB7F DUP5 PUSH2 0x1A21 DUP10 DUP12 PUSH2 0x174C JUMP JUMPDEST ADD PUSH2 0x1A00 JUMP JUMPDEST PUSH1 0x40 MLOAD PUSH3 0x461BCD PUSH1 0xE5 SHL DUP2 MSTORE PUSH1 0x20 PUSH1 0x4 DUP3 ADD MSTORE PUSH1 0x24 DUP1 DUP3 ADD MSTORE PUSH32 0x4552435F353532313A2073656C662D7265666572656E6365206E6F7420616C6C PUSH1 0x44 DUP3 ADD MSTORE PUSH4 0x1BDDD959 PUSH1 0xE2 SHL PUSH1 0x64 DUP3 ADD MSTORE PUSH1 0x84 SWAP1 REVERT JUMPDEST PUSH2 0x1B40 PUSH1 0x1 PUSH1 0x1 PUSH1 0xA0 SHL SUB PUSH2 0x1B35 DUP8 DUP11 PUSH2 0x174C JUMP JUMPDEST MLOAD AND PUSH1 0x3 DUP4 ADD PUSH2 0x178E JUMP JUMPDEST PUSH2 0x1A6D JUMP JUMPDEST POP SWAP4 POP PUSH1 0x1 SWAP1 JUMPDEST ADD PUSH2 0x19D8 JUMP JUMPDEST PUSH1 0x1 PUSH1 0x1 PUSH1 0xA0 SHL SUB PUSH2 0x1B64 DUP3 DUP6 PUSH2 0x174C JUMP JUMPDEST MLOAD PUSH1 0x40 MLOAD PUSH4 0x1FFC9A7 PUSH1 0xE0 SHL DUP2 MSTORE PUSH4 0x204CBD1 PUSH1 0xE5 SHL PUSH1 0x4 DUP3 ADD MSTORE SWAP2 AND SWAP2 SWAP1 PUSH1 0x20 DUP2 PUSH1 0x24 DUP2 DUP7 GAS STATICCALL SWAP1 DUP2 ISZERO PUSH2 0x1C20 JUMPI PUSH1 0x0 SWAP2 PUSH2 0x1C2C JUMPI JUMPDEST POP PUSH2 0x1BAA JUMPI JUMPDEST PUSH1 0x1 SWAP2 POP PUSH2 0x1B4C JUMP JUMPDEST PUSH2 0x1BB4 DUP2 DUP5 PUSH2 0x174C JUMP JUMPDEST MLOAD SWAP2 DUP1 EXTCODESIZE ISZERO PUSH2 0x156 JUMPI PUSH2 0x1BF6 PUSH1 0x0 SWAP4 SWAP2 DUP5 SWAP3 PUSH1 0x40 MLOAD SWAP6 DUP7 DUP1 SWAP5 DUP2 SWAP4 PUSH4 0x1570411 PUSH1 0xE6 SHL DUP4 MSTORE ADDRESS PUSH1 0x4 DUP5 ADD MSTORE DUP14 PUSH1 0x24 DUP5 ADD MSTORE PUSH1 0x60 PUSH1 0x44 DUP5 ADD MSTORE PUSH1 0x64 DUP4 ADD SWAP1 PUSH2 0x1413 JUMP JUMPDEST SUB SWAP3 GAS CALL SWAP2 DUP3 ISZERO PUSH2 0x1C20 JUMPI PUSH1 0x1 SWAP3 PUSH2 0x1C0F JUMPI JUMPDEST POP PUSH2 0x1BA1 JUMP JUMPDEST PUSH1 0x0 PUSH2 0x1C1A SWAP2 PUSH2 0x1191 JUMP JUMPDEST CODESIZE PUSH2 0x1C09 JUMP JUMPDEST PUSH1 0x40 MLOAD RETURNDATASIZE PUSH1 0x0 DUP3 RETURNDATACOPY RETURNDATASIZE SWAP1 REVERT JUMPDEST PUSH2 0x1C44 SWAP2 POP PUSH1 0x20 RETURNDATASIZE DUP2 GT PUSH2 0x2CB JUMPI PUSH2 0x2BD DUP2 DUP4 PUSH2 0x1191 JUMP JUMPDEST CODESIZE PUSH2 0x1B9B JUMP JUMPDEST POP POP POP SWAP1 POP JUMP JUMPDEST PUSH1 0x40 MLOAD PUSH3 0x461BCD PUSH1 0xE5 SHL DUP2 MSTORE PUSH1 0x20 PUSH1 0x4 DUP3 ADD MSTORE PUSH1 0x36 PUSH1 0x24 DUP3 ADD MSTORE PUSH32 0x41646472657373657320616E6420546F6B656E494420617272617973206D7573 PUSH1 0x44 DUP3 ADD MSTORE PUSH22 0xE840D0C2ECCA40E8D0CA40E6C2DACA40D8CADCCEE8D PUSH1 0x53 SHL PUSH1 0x64 DUP3 ADD MSTORE PUSH1 0x84 SWAP1 REVERT JUMPDEST SWAP1 DUP2 PUSH1 0x20 SWAP2 SUB SLT PUSH2 0x156 JUMPI MLOAD DUP1 ISZERO ISZERO DUP2 SUB PUSH2 0x156 JUMPI SWAP1 JUMP JUMPDEST ISZERO PUSH2 0x1CD4 JUMPI JUMP JUMPDEST PUSH1 0x40 MLOAD PUSH3 0x461BCD PUSH1 0xE5 SHL DUP2 MSTORE PUSH1 0x20 PUSH1 0x4 DUP3 ADD MSTORE PUSH1 0x27 PUSH1 0x24 DUP3 ADD MSTORE PUSH32 0x4552435F353532313A2074617267657420636F6E7472616374206E6F74207375 PUSH1 0x44 DUP3 ADD MSTORE PUSH7 0x1C1C1BDC9D1959 PUSH1 0xCA SHL PUSH1 0x64 DUP3 ADD MSTORE PUSH1 0x84 SWAP1 REVERT JUMPDEST SWAP2 SWAP1 PUSH1 0x40 DUP4 DUP3 SUB SLT PUSH2 0x156 JUMPI DUP3 MLOAD PUSH1 0x1 PUSH1 0x1 PUSH1 0x40 SHL SUB DUP2 GT PUSH2 0x156 JUMPI DUP4 ADD DUP2 PUSH1 0x1F DUP3 ADD SLT ISZERO PUSH2 0x156 JUMPI DUP1 MLOAD PUSH2 0x1D5D DUP2 PUSH2 0x123E JUMP JUMPDEST SWAP2 PUSH2 0x1D6B PUSH1 0x40 MLOAD SWAP4 DUP5 PUSH2 0x1191 JUMP JUMPDEST DUP2 DUP4 MSTORE PUSH1 0x20 DUP1 DUP5 ADD SWAP3 PUSH1 0x5 SHL DUP3 ADD ADD SWAP1 DUP5 DUP3 GT PUSH2 0x156 JUMPI PUSH1 0x20 ADD SWAP2 JUMPDEST DUP2 DUP4 LT PUSH2 0x1E79 JUMPI POP POP POP SWAP3 PUSH1 0x20 DUP2 ADD MLOAD SWAP1 PUSH1 0x1 PUSH1 0x1 PUSH1 0x40 SHL SUB DUP3 GT PUSH2 0x156 JUMPI ADD SWAP1 DUP1 PUSH1 0x1F DUP4 ADD SLT ISZERO PUSH2 0x156 JUMPI DUP2 MLOAD SWAP1 PUSH2 0x1DBF DUP3 PUSH2 0x123E JUMP JUMPDEST SWAP3 PUSH2 0x1DCD PUSH1 0x40 MLOAD SWAP5 DUP6 PUSH2 0x1191 JUMP JUMPDEST DUP3 DUP5 MSTORE PUSH1 0x20 DUP1 DUP6 ADD SWAP4 PUSH1 0x5 SHL DUP3 ADD ADD SWAP1 DUP3 DUP3 GT PUSH2 0x156 JUMPI PUSH1 0x20 DUP2 ADD SWAP4 JUMPDEST DUP3 DUP6 LT PUSH2 0x1DF9 JUMPI POP POP POP POP POP SWAP1 JUMP JUMPDEST DUP5 MLOAD PUSH1 0x1 PUSH1 0x1 PUSH1 0x40 SHL SUB DUP2 GT PUSH2 0x156 JUMPI DUP3 ADD DUP5 PUSH1 0x3F DUP3 ADD SLT ISZERO PUSH2 0x156 JUMPI PUSH1 0x20 DUP2 ADD MLOAD SWAP1 PUSH2 0x1E25 DUP3 PUSH2 0x123E JUMP JUMPDEST SWAP2 PUSH2 0x1E33 PUSH1 0x40 MLOAD SWAP4 DUP5 PUSH2 0x1191 JUMP JUMPDEST DUP1 DUP4 MSTORE PUSH1 0x20 DUP1 DUP1 DUP6 ADD SWAP3 PUSH1 0x5 SHL DUP5 ADD ADD ADD SWAP2 DUP8 DUP4 GT PUSH2 0x156 JUMPI PUSH1 0x40 ADD SWAP1 JUMPDEST DUP3 DUP3 LT PUSH2 0x1E69 JUMPI POP POP POP DUP2 MSTORE PUSH1 0x20 SWAP5 DUP6 ADD SWAP5 ADD PUSH2 0x1DEA JUMP JUMPDEST DUP2 MLOAD DUP2 MSTORE PUSH1 0x20 SWAP2 DUP3 ADD SWAP2 ADD PUSH2 0x1E51 JUMP JUMPDEST DUP3 MLOAD PUSH1 0x1 PUSH1 0x1 PUSH1 0xA0 SHL SUB DUP2 AND DUP2 SUB PUSH2 0x156 JUMPI DUP2 MSTORE PUSH1 0x20 SWAP3 DUP4 ADD SWAP3 ADD PUSH2 0x1D87 JUMP JUMPDEST PUSH1 0x0 DUP2 DUP2 MSTORE PUSH1 0x2 PUSH1 0x20 MSTORE PUSH1 0x40 SWAP1 KECCAK256 SLOAD PUSH1 0x1 PUSH1 0x1 PUSH1 0xA0 SHL SUB AND SWAP1 DUP2 ISZERO PUSH2 0x1EBC JUMPI POP SWAP1 JUMP JUMPDEST PUSH4 0x7E273289 PUSH1 0xE0 SHL PUSH1 0x0 MSTORE PUSH1 0x4 MSTORE PUSH1 0x24 PUSH1 0x0 REVERT JUMPDEST DUP2 DUP2 LT PUSH2 0x1EDB JUMPI POP POP JUMP JUMPDEST PUSH1 0x0 DUP2 SSTORE PUSH1 0x1 ADD PUSH2 0x1ED0 JUMP JUMPDEST PUSH1 0x0 DUP2 DUP2 MSTORE PUSH1 0x7 PUSH1 0x20 MSTORE PUSH1 0x40 DUP2 KECCAK256 PUSH2 0x1F01 PUSH1 0x2 DUP3 ADD PUSH2 0x2032 JUMP JUMPDEST PUSH2 0x1F0B DUP2 MLOAD PUSH2 0x2088 JUMP JUMPDEST SWAP4 DUP4 JUMPDEST DUP3 MLOAD DUP2 LT ISZERO PUSH2 0x1FA3 JUMPI PUSH1 0x1 PUSH1 0x1 PUSH1 0xA0 SHL SUB PUSH2 0x1F29 DUP3 DUP6 PUSH2 0x174C JUMP JUMPDEST MLOAD AND PUSH1 0x1 PUSH1 0x1 PUSH1 0xA0 SHL SUB AND DUP6 MSTORE PUSH1 0x20 DUP5 DUP2 MSTORE PUSH1 0x40 DUP1 DUP8 KECCAK256 SWAP1 MLOAD DUP2 SLOAD DUP1 DUP3 MSTORE SWAP2 DUP9 MSTORE DUP3 DUP9 KECCAK256 SWAP1 SWAP3 DUP4 ADD SWAP2 DUP9 SWAP1 JUMPDEST DUP1 DUP3 LT PUSH2 0x1F8B JUMPI POP POP POP SWAP1 PUSH2 0x1F6F DUP2 PUSH1 0x1 SWAP5 SWAP4 SUB DUP3 PUSH2 0x1191 JUMP JUMPDEST PUSH2 0x1F79 DUP3 DUP10 PUSH2 0x174C JUMP JUMPDEST MSTORE PUSH2 0x1F84 DUP2 DUP9 PUSH2 0x174C JUMP JUMPDEST POP ADD PUSH2 0x1F0E JUMP JUMPDEST SWAP1 SWAP2 SWAP3 PUSH1 0x1 PUSH1 0x20 DUP2 SWAP3 DUP7 SLOAD DUP2 MSTORE ADD SWAP5 ADD SWAP3 ADD SWAP1 PUSH2 0x1F55 JUMP JUMPDEST POP SWAP4 PUSH32 0x81BED52C04E8CD65796985202162BAD7E20A8FFAA732FE2E0A0BC79F687E4D66 SWAP4 POP PUSH2 0x1FF8 SWAP3 POP PUSH2 0x2006 SWAP6 PUSH2 0x2014 PUSH2 0x202D SWAP3 PUSH2 0x1FE1 DUP9 PUSH2 0x20D2 JUMP JUMPDEST SWAP10 SWAP1 SWAP2 PUSH1 0x40 MLOAD SWAP8 DUP9 SWAP8 PUSH1 0x80 DUP10 MSTORE PUSH1 0x80 DUP10 ADD SWAP1 PUSH2 0x13D6 JUMP JUMPDEST SWAP1 DUP8 DUP3 SUB PUSH1 0x20 DUP10 ADD MSTORE PUSH2 0x1447 JUMP JUMPDEST SWAP1 DUP6 DUP3 SUB PUSH1 0x40 DUP8 ADD MSTORE PUSH2 0x13D6 JUMP JUMPDEST DUP4 DUP2 SUB PUSH1 0x60 DUP6 ADD MSTORE PUSH1 0x1 PUSH1 0x1 PUSH1 0xA0 SHL SUB SWAP1 SWAP2 AND SWAP7 PUSH2 0x1447 JUMP JUMPDEST SUB SWAP1 LOG3 JUMP JUMPDEST SWAP1 PUSH1 0x40 MLOAD SWAP2 DUP3 DUP2 SLOAD SWAP2 DUP3 DUP3 MSTORE PUSH1 0x20 DUP3 ADD SWAP1 PUSH1 0x0 MSTORE PUSH1 0x20 PUSH1 0x0 KECCAK256 SWAP3 PUSH1 0x0 JUMPDEST DUP2 DUP2 LT PUSH2 0x2066 JUMPI POP POP PUSH2 0x2064 SWAP3 POP SUB DUP4 PUSH2 0x1191 JUMP JUMPDEST JUMP JUMPDEST DUP5 SLOAD PUSH1 0x1 PUSH1 0x1 PUSH1 0xA0 SHL SUB AND DUP4 MSTORE PUSH1 0x1 SWAP5 DUP6 ADD SWAP5 DUP8 SWAP5 POP PUSH1 0x20 SWAP1 SWAP4 ADD SWAP3 ADD PUSH2 0x204F JUMP JUMPDEST SWAP1 PUSH2 0x2092 DUP3 PUSH2 0x123E JUMP JUMPDEST PUSH2 0x209F PUSH1 0x40 MLOAD SWAP2 DUP3 PUSH2 0x1191 JUMP JUMPDEST DUP3 DUP2 MSTORE DUP1 SWAP3 PUSH2 0x20B0 PUSH1 0x1F NOT SWAP2 PUSH2 0x123E JUMP JUMPDEST ADD SWAP1 PUSH1 0x0 JUMPDEST DUP3 DUP2 LT PUSH2 0x20C1 JUMPI POP POP POP JUMP JUMPDEST DUP1 PUSH1 0x60 PUSH1 0x20 DUP1 SWAP4 DUP6 ADD ADD MSTORE ADD PUSH2 0x20B5 JUMP JUMPDEST PUSH1 0x0 SWAP1 DUP2 MSTORE PUSH1 0x7 PUSH1 0x20 MSTORE PUSH1 0x40 SWAP1 KECCAK256 SWAP1 PUSH2 0x20ED PUSH1 0x3 DUP4 ADD PUSH2 0x2032 JUMP JUMPDEST SWAP2 PUSH2 0x20F8 DUP4 MLOAD PUSH2 0x2088 JUMP JUMPDEST SWAP1 PUSH1 0x1 ADD PUSH1 0x0 JUMPDEST DUP5 MLOAD DUP2 LT ISZERO PUSH2 0x2198 JUMPI PUSH1 0x40 PUSH1 0x1 PUSH1 0x1 PUSH1 0xA0 SHL SUB PUSH2 0x211C DUP4 DUP9 PUSH2 0x174C JUMP JUMPDEST MLOAD AND PUSH1 0x1 PUSH1 0x1 PUSH1 0xA0 SHL SUB AND PUSH1 0x0 SWAP1 DUP2 MSTORE PUSH1 0x20 DUP5 DUP2 MSTORE SWAP2 DUP2 KECCAK256 PUSH1 0x40 MLOAD DUP2 SLOAD DUP1 DUP3 MSTORE SWAP2 DUP4 MSTORE DUP4 DUP4 KECCAK256 SWAP1 SWAP4 DUP5 ADD SWAP3 SWAP1 SWAP2 JUMPDEST DUP1 DUP3 LT PUSH2 0x2180 JUMPI POP POP POP SWAP1 PUSH2 0x2164 DUP2 PUSH1 0x1 SWAP5 SWAP4 SUB DUP3 PUSH2 0x1191 JUMP JUMPDEST PUSH2 0x216E DUP3 DUP7 PUSH2 0x174C JUMP JUMPDEST MSTORE PUSH2 0x2179 DUP2 DUP6 PUSH2 0x174C JUMP JUMPDEST POP ADD PUSH2 0x20FF JUMP JUMPDEST SWAP1 SWAP2 SWAP3 PUSH1 0x1 PUSH1 0x20 DUP2 SWAP3 DUP7 SLOAD DUP2 MSTORE ADD SWAP5 ADD SWAP3 ADD SWAP1 PUSH2 0x214A JUMP JUMPDEST POP POP SWAP1 JUMP JUMPDEST DUP3 EXTCODESIZE PUSH2 0x21AB JUMPI JUMPDEST POP POP POP POP POP JUMP JUMPDEST PUSH1 0x40 MLOAD PUSH4 0xA85BD01 PUSH1 0xE1 SHL DUP2 MSTORE PUSH1 0x1 PUSH1 0x1 PUSH1 0xA0 SHL SUB SWAP2 DUP3 AND PUSH1 0x4 DUP3 ADD MSTORE SWAP2 DUP2 AND PUSH1 0x24 DUP4 ADD MSTORE PUSH1 0x44 DUP3 ADD SWAP4 SWAP1 SWAP4 MSTORE PUSH1 0x80 PUSH1 0x64 DUP3 ADD MSTORE SWAP2 AND SWAP2 PUSH1 0x20 SWAP1 DUP3 SWAP1 DUP2 SWAP1 PUSH2 0x21F7 SWAP1 PUSH1 0x84 DUP4 ADD SWAP1 PUSH2 0x1126 JUMP JUMPDEST SUB DUP2 PUSH1 0x0 DUP7 GAS CALL DUP1 SWAP2 PUSH1 0x0 SWAP2 PUSH2 0x2297 JUMPI JUMPDEST POP SWAP1 PUSH2 0x2261 JUMPI POP RETURNDATASIZE ISZERO PUSH2 0x225A JUMPI RETURNDATASIZE PUSH2 0x221F DUP2 PUSH2 0x11B2 JUMP JUMPDEST SWAP1 PUSH2 0x222D PUSH1 0x40 MLOAD SWAP3 DUP4 PUSH2 0x1191 JUMP JUMPDEST DUP2 MSTORE RETURNDATASIZE PUSH1 0x0 PUSH1 0x20 DUP4 ADD RETURNDATACOPY JUMPDEST DUP1 MLOAD SWAP1 DUP2 PUSH2 0x2255 JUMPI DUP3 PUSH4 0x32505749 PUSH1 0xE1 SHL PUSH1 0x0 MSTORE PUSH1 0x4 MSTORE PUSH1 0x24 PUSH1 0x0 REVERT JUMPDEST PUSH1 0x20 ADD REVERT JUMPDEST PUSH1 0x60 PUSH2 0x2238 JUMP JUMPDEST PUSH1 0x1 PUSH1 0x1 PUSH1 0xE0 SHL SUB NOT AND PUSH4 0x757A42FF PUSH1 0xE1 SHL ADD PUSH2 0x2283 JUMPI POP CODESIZE DUP1 DUP1 DUP1 DUP1 PUSH2 0x21A4 JUMP JUMPDEST PUSH4 0x32505749 PUSH1 0xE1 SHL PUSH1 0x0 MSTORE PUSH1 0x4 MSTORE PUSH1 0x24 PUSH1 0x0 REVERT JUMPDEST PUSH1 0x20 DUP2 RETURNDATASIZE PUSH1 0x20 GT PUSH2 0x22D2 JUMPI JUMPDEST DUP2 PUSH2 0x22B0 PUSH1 0x20 SWAP4 DUP4 PUSH2 0x1191 JUMP JUMPDEST DUP2 ADD SUB SLT PUSH2 0x28E JUMPI MLOAD SWAP1 PUSH1 0x1 PUSH1 0x1 PUSH1 0xE0 SHL SUB NOT DUP3 AND DUP3 SUB PUSH2 0x927 JUMPI POP CODESIZE PUSH2 0x2208 JUMP JUMPDEST RETURNDATASIZE SWAP2 POP PUSH2 0x22A3 JUMP JUMPDEST PUSH2 0x22E3 DUP2 PUSH2 0x1E99 JUMP JUMPDEST POP PUSH1 0x0 MSTORE PUSH1 0x6 PUSH1 0x20 MSTORE PUSH1 0x40 PUSH1 0x0 KECCAK256 PUSH1 0x40 MLOAD SWAP1 DUP2 PUSH1 0x0 DUP3 SLOAD SWAP3 PUSH2 0x2304 DUP5 PUSH2 0x14C8 JUMP JUMPDEST DUP1 DUP5 MSTORE SWAP4 PUSH1 0x1 DUP2 AND SWAP1 DUP2 ISZERO PUSH2 0x2384 JUMPI POP PUSH1 0x1 EQ PUSH2 0x233D JUMPI JUMPDEST POP PUSH2 0x2329 SWAP3 POP SUB DUP3 PUSH2 0x1191 JUMP JUMPDEST PUSH1 0x0 PUSH1 0x40 MLOAD PUSH2 0x2339 PUSH1 0x20 DUP3 PUSH2 0x1191 JUMP JUMPDEST MSTORE SWAP1 JUMP JUMPDEST SWAP1 POP PUSH1 0x0 SWAP3 SWAP2 SWAP3 MSTORE PUSH1 0x20 PUSH1 0x0 KECCAK256 SWAP1 PUSH1 0x0 SWAP2 JUMPDEST DUP2 DUP4 LT PUSH2 0x2368 JUMPI POP POP SWAP1 PUSH1 0x20 PUSH2 0x2329 SWAP3 DUP3 ADD ADD CODESIZE PUSH2 0x231C JUMP JUMPDEST PUSH1 0x20 SWAP2 SWAP4 POP DUP1 PUSH1 0x1 SWAP2 SLOAD DUP4 DUP6 DUP9 ADD ADD MSTORE ADD SWAP2 ADD SWAP1 SWAP2 DUP4 SWAP3 PUSH2 0x234F JUMP JUMPDEST SWAP1 POP PUSH1 0x20 SWAP3 POP PUSH2 0x2329 SWAP5 SWAP2 POP PUSH1 0xFF NOT AND DUP3 DUP5 ADD MSTORE ISZERO ISZERO PUSH1 0x5 SHL DUP3 ADD ADD CODESIZE PUSH2 0x231C JUMP INVALID LOG2 PUSH5 0x6970667358 0x22 SLT KECCAK256 PUSH28 0x105740AF2C60C680390D4DC0632716427F0E19B981A07B85AC0F14FF PUSH30 0xE8BE64736F6C634300081C00330000000000000000000000000000000000 "},"methodIdentifiers":{"approve(address,uint256)":"095ea7b3","balanceOf(address)":"70a08231","createdTimestampOf(address,uint256)":"d30d968d","getApproved(uint256)":"081812fc","isApprovedForAll(address,address)":"e985e9c5","name()":"06fdde03","ownerOf(uint256)":"6352211e","referredOf(address,uint256)":"64f9b0e6","referringOf(address,uint256)":"a35391ac","safeMint(uint256,address[],uint256[][])":"66a8b8dc","safeTransferFrom(address,address,uint256)":"42842e0e","safeTransferFrom(address,address,uint256,bytes)":"b88d4fde","setApprovalForAll(address,bool)":"a22cb465","setNode(uint256,address[],uint256[][])":"616c5535","setNodeReferredExternal(address,uint256,uint256[])":"55c10440","setTokenURI(uint256,string)":"162094c4","supportsInterface(bytes4)":"01ffc9a7","symbol()":"95d89b41","tokenURI(uint256)":"c87b56dd","transferFrom(address,address,uint256)":"23b872dd"}}}}}