{"contracts/Marketplace.sol":{"Marketplace":{"abi":[{"inputs":[{"internalType":"address","name":"_registry","type":"address"}],"stateMutability":"nonpayable","type":"constructor"},{"anonymous":false,"inputs":[{"indexed":false,"internalType":"string","name":"message","type":"string"}],"name":"Debug","type":"event"},{"anonymous":false,"inputs":[{"indexed":true,"internalType":"address","name":"buyer","type":"address"},{"indexed":true,"internalType":"address","name":"nftContract","type":"address"},{"indexed":true,"internalType":"uint256","name":"tokenId","type":"uint256"},{"indexed":false,"internalType":"uint256","name":"licenseId","type":"uint256"},{"indexed":false,"internalType":"uint256","name":"price","type":"uint256"}],"name":"LicensePurchased","type":"event"},{"anonymous":false,"inputs":[{"indexed":true,"internalType":"address","name":"nftContract","type":"address"},{"indexed":true,"internalType":"uint256","name":"tokenId","type":"uint256"},{"indexed":true,"internalType":"address","name":"developer","type":"address"},{"indexed":false,"internalType":"uint256","name":"price","type":"uint256"}],"name":"SoftwareListed","type":"event"},{"inputs":[{"internalType":"address","name":"repository","type":"address"},{"internalType":"uint256","name":"tokenId","type":"uint256"}],"name":"buySoftware","outputs":[{"internalType":"uint256","name":"","type":"uint256"}],"stateMutability":"payable","type":"function"},{"inputs":[{"internalType":"uint256","name":"tokenId","type":"uint256"},{"internalType":"uint256","name":"price","type":"uint256"}],"name":"listSoftware","outputs":[],"stateMutability":"nonpayable","type":"function"}],"evm":{"bytecode":{"linkReferences":{},"object":"608034607057601f6108f938819003918201601f19168301916001600160401b03831184841017607557808492602094604052833981010312607057516001600160a01b03811690819003607057600080546001600160a01b03191691909117905560405161086d908161008c8239f35b600080fd5b634e487b7160e01b600052604160045260246000fdfe608080604052600436101561001357600080fd5b600090813560e01c9081631f739c751461044f5750635cf738d51461003757600080fd5b604036600319011261044c576004356001600160a01b038116919082900361044c5760243582825260016020526040822081835260205260016040832001541561041a5782825260016020526040822081835260205260018060a01b0360408320541633146103d55782825260016020526040822081835260205260016040832001549283341061039d5780835260016020526040832082845260205260018060a01b0360408420541693600a8102818104600a148215171561038957606490048082038281116103755785808080938a8287891461036c575bf1156103615784546040516376c25e6f60e01b815290602090829060049082906001600160a01b03165afa908115610356578691610314575b506001600160a01b03169081156102cf578581838282156102c6575b839283928392f1156102b757813b156102c257859160a48392604051948593849263025f3b8b60e11b84523360048501528c60248501528960448501528a606485015260848401525af180156102b7576102a2575b508354604051630e3ff06560e21b81523360048201526024810196909652604486018490526020908690606490829088906001600160a01b03165af193841561029657809461025d575b6020955082815260018652604081208482528652600160408220828155015560405190848252858201527f96264bbc207fc189d5e12e353cb56e88076d3850c35b256d63c541521d4d46f260403392a4604051908152f35b93506020853d60201161028e575b81610278602093836107c3565b8101031261028a576020945193610205565b8380fd5b3d915061026b565b604051903d90823e3d90fd5b936102b081602097966107c3565b93946101bb565b6040513d87823e3d90fd5b8580fd5b506108fc610166565b60405162461bcd60e51b815260206004820152601a60248201527f526f79616c7469657320636f6e7472616374206e6f74207365740000000000006044820152606490fd5b90506020813d60201161034e575b8161032f602093836107c3565b810103126102c257516001600160a01b03811681036102c2573861014a565b3d9150610322565b6040513d88823e3d90fd5b6040513d86823e3d90fd5b506108fc610111565b634e487b7160e01b86526011600452602486fd5b634e487b7160e01b85526011600452602485fd5b60405162461bcd60e51b815260206004820152601060248201526f4e6f7420656e6f7567682066756e647360801b6044820152606490fd5b60405162461bcd60e51b815260206004820152601c60248201527f43616e6e6f742062757920796f7572206f776e20736f667477617265000000006044820152606490fd5b60405162461bcd60e51b815260206004820152600a602482015269139bdd081b1a5cdd195960b21b6044820152606490fd5b80fd5b9050346107bf5760403660031901126107bf576004356024359160018060a01b0384541690630d3e0bbf60e11b8152336004820152602081602481855afa9081156102b75785916107a0575b506001600160a01b031684526001602081815260408087208588529091528520015461076a576040516305eca4a760e41b8152336004820152602081602481855afa9081156102b757859161074b575b50156106fc57604051630d3e0bbf60e11b8152336004820152602081602481855afa9081156102b75785916106cd575b506001600160a01b031690811561068857602060449160405192838092635db717c360e11b82528660048301528760248301525afa9081156102b7578591610659575b5015610609576040516040810181811067ffffffffffffffff8211176105f55760405233815260016020820185815283875281602052604087208588526020526040872092828060a01b039051166bffffffffffffffffffffffff60a01b845416178355519101556040519283527fb2fe8b8db74b35ecf28fa902c2c92ffaf61ea5c839bd93f41159fa3d174b9faa60203394a480f35b634e487b7160e01b86526041600452602486fd5b60405162461bcd60e51b815260206004820152602260248201527f5265706f7369746f727920646f6573206e6f74206f776e207468697320746f6b60448201526132b760f11b6064820152608490fd5b61067b915060203d602011610681575b61067381836107c3565b81019061081f565b3861055e565b503d610669565b60405162461bcd60e51b815260206004820152601b60248201527f446576656c6f70657220686173206e6f207265706f7369746f727900000000006044820152606490fd5b6106ef915060203d6020116106f5575b6106e781836107c3565b8101906107fb565b3861051b565b503d6106dd565b60405162461bcd60e51b815260206004820152602160248201527f4f6e6c7920646576656c6f706572732063616e206c69737420736f66747761726044820152606560f81b6064820152608490fd5b610764915060203d6020116106815761067381836107c3565b386104eb565b60405162461bcd60e51b815260206004820152600e60248201526d105b1c9958591e481b1a5cdd195960921b6044820152606490fd5b6107b9915060203d6020116106f5576106e781836107c3565b3861049b565b5080fd5b90601f8019910116810190811067ffffffffffffffff8211176107e557604052565b634e487b7160e01b600052604160045260246000fd5b9081602091031261081a57516001600160a01b038116810361081a5790565b600080fd5b9081602091031261081a5751801515810361081a579056fea2646970667358221220c0b91817bd34eda612deb589fb86365fd67d75aed07d54c13765315e2ef3ac6564736f6c634300081c0033","opcodes":"PUSH1 0x80 CALLVALUE PUSH1 0x70 JUMPI PUSH1 0x1F PUSH2 0x8F9 CODESIZE DUP2 SWAP1 SUB SWAP2 DUP3 ADD PUSH1 0x1F NOT AND DUP4 ADD SWAP2 PUSH1 0x1 PUSH1 0x1 PUSH1 0x40 SHL SUB DUP4 GT DUP5 DUP5 LT OR PUSH1 0x75 JUMPI DUP1 DUP5 SWAP3 PUSH1 0x20 SWAP5 PUSH1 0x40 MSTORE DUP4 CODECOPY DUP2 ADD SUB SLT PUSH1 0x70 JUMPI MLOAD PUSH1 0x1 PUSH1 0x1 PUSH1 0xA0 SHL SUB DUP2 AND SWAP1 DUP2 SWAP1 SUB PUSH1 0x70 JUMPI PUSH1 0x0 DUP1 SLOAD PUSH1 0x1 PUSH1 0x1 PUSH1 0xA0 SHL SUB NOT AND SWAP2 SWAP1 SWAP2 OR SWAP1 SSTORE PUSH1 0x40 MLOAD PUSH2 0x86D SWAP1 DUP2 PUSH2 0x8C DUP3 CODECOPY RETURN JUMPDEST PUSH1 0x0 DUP1 REVERT JUMPDEST PUSH4 0x4E487B71 PUSH1 0xE0 SHL PUSH1 0x0 MSTORE PUSH1 0x41 PUSH1 0x4 MSTORE PUSH1 0x24 PUSH1 0x0 REVERT INVALID PUSH1 0x80 DUP1 PUSH1 0x40 MSTORE PUSH1 0x4 CALLDATASIZE LT ISZERO PUSH2 0x13 JUMPI PUSH1 0x0 DUP1 REVERT JUMPDEST PUSH1 0x0 SWAP1 DUP2 CALLDATALOAD PUSH1 0xE0 SHR SWAP1 DUP2 PUSH4 0x1F739C75 EQ PUSH2 0x44F JUMPI POP PUSH4 0x5CF738D5 EQ PUSH2 0x37 JUMPI PUSH1 0x0 DUP1 REVERT JUMPDEST PUSH1 0x40 CALLDATASIZE PUSH1 0x3 NOT ADD SLT PUSH2 0x44C JUMPI PUSH1 0x4 CALLDATALOAD PUSH1 0x1 PUSH1 0x1 PUSH1 0xA0 SHL SUB DUP2 AND SWAP2 SWAP1 DUP3 SWAP1 SUB PUSH2 0x44C JUMPI PUSH1 0x24 CALLDATALOAD DUP3 DUP3 MSTORE PUSH1 0x1 PUSH1 0x20 MSTORE PUSH1 0x40 DUP3 KECCAK256 DUP2 DUP4 MSTORE PUSH1 0x20 MSTORE PUSH1 0x1 PUSH1 0x40 DUP4 KECCAK256 ADD SLOAD ISZERO PUSH2 0x41A JUMPI DUP3 DUP3 MSTORE PUSH1 0x1 PUSH1 0x20 MSTORE PUSH1 0x40 DUP3 KECCAK256 DUP2 DUP4 MSTORE PUSH1 0x20 MSTORE PUSH1 0x1 DUP1 PUSH1 0xA0 SHL SUB PUSH1 0x40 DUP4 KECCAK256 SLOAD AND CALLER EQ PUSH2 0x3D5 JUMPI DUP3 DUP3 MSTORE PUSH1 0x1 PUSH1 0x20 MSTORE PUSH1 0x40 DUP3 KECCAK256 DUP2 DUP4 MSTORE PUSH1 0x20 MSTORE PUSH1 0x1 PUSH1 0x40 DUP4 KECCAK256 ADD SLOAD SWAP3 DUP4 CALLVALUE LT PUSH2 0x39D JUMPI DUP1 DUP4 MSTORE PUSH1 0x1 PUSH1 0x20 MSTORE PUSH1 0x40 DUP4 KECCAK256 DUP3 DUP5 MSTORE PUSH1 0x20 MSTORE PUSH1 0x1 DUP1 PUSH1 0xA0 SHL SUB PUSH1 0x40 DUP5 KECCAK256 SLOAD AND SWAP4 PUSH1 0xA DUP2 MUL DUP2 DUP2 DIV PUSH1 0xA EQ DUP3 ISZERO OR ISZERO PUSH2 0x389 JUMPI PUSH1 0x64 SWAP1 DIV DUP1 DUP3 SUB DUP3 DUP2 GT PUSH2 0x375 JUMPI DUP6 DUP1 DUP1 DUP1 SWAP4 DUP11 DUP3 DUP8 DUP10 EQ PUSH2 0x36C JUMPI JUMPDEST CALL ISZERO PUSH2 0x361 JUMPI DUP5 SLOAD PUSH1 0x40 MLOAD PUSH4 0x76C25E6F PUSH1 0xE0 SHL DUP2 MSTORE SWAP1 PUSH1 0x20 SWAP1 DUP3 SWAP1 PUSH1 0x4 SWAP1 DUP3 SWAP1 PUSH1 0x1 PUSH1 0x1 PUSH1 0xA0 SHL SUB AND GAS STATICCALL SWAP1 DUP2 ISZERO PUSH2 0x356 JUMPI DUP7 SWAP2 PUSH2 0x314 JUMPI JUMPDEST POP PUSH1 0x1 PUSH1 0x1 PUSH1 0xA0 SHL SUB AND SWAP1 DUP2 ISZERO PUSH2 0x2CF JUMPI DUP6 DUP2 DUP4 DUP3 DUP3 ISZERO PUSH2 0x2C6 JUMPI JUMPDEST DUP4 SWAP3 DUP4 SWAP3 DUP4 SWAP3 CALL ISZERO PUSH2 0x2B7 JUMPI DUP2 EXTCODESIZE ISZERO PUSH2 0x2C2 JUMPI DUP6 SWAP2 PUSH1 0xA4 DUP4 SWAP3 PUSH1 0x40 MLOAD SWAP5 DUP6 SWAP4 DUP5 SWAP3 PUSH4 0x25F3B8B PUSH1 0xE1 SHL DUP5 MSTORE CALLER PUSH1 0x4 DUP6 ADD MSTORE DUP13 PUSH1 0x24 DUP6 ADD MSTORE DUP10 PUSH1 0x44 DUP6 ADD MSTORE DUP11 PUSH1 0x64 DUP6 ADD MSTORE PUSH1 0x84 DUP5 ADD MSTORE GAS CALL DUP1 ISZERO PUSH2 0x2B7 JUMPI PUSH2 0x2A2 JUMPI JUMPDEST POP DUP4 SLOAD PUSH1 0x40 MLOAD PUSH4 0xE3FF065 PUSH1 0xE2 SHL DUP2 MSTORE CALLER PUSH1 0x4 DUP3 ADD MSTORE PUSH1 0x24 DUP2 ADD SWAP7 SWAP1 SWAP7 MSTORE PUSH1 0x44 DUP7 ADD DUP5 SWAP1 MSTORE PUSH1 0x20 SWAP1 DUP7 SWAP1 PUSH1 0x64 SWAP1 DUP3 SWAP1 DUP9 SWAP1 PUSH1 0x1 PUSH1 0x1 PUSH1 0xA0 SHL SUB AND GAS CALL SWAP4 DUP5 ISZERO PUSH2 0x296 JUMPI DUP1 SWAP5 PUSH2 0x25D JUMPI JUMPDEST PUSH1 0x20 SWAP6 POP DUP3 DUP2 MSTORE PUSH1 0x1 DUP7 MSTORE PUSH1 0x40 DUP2 KECCAK256 DUP5 DUP3 MSTORE DUP7 MSTORE PUSH1 0x1 PUSH1 0x40 DUP3 KECCAK256 DUP3 DUP2 SSTORE ADD SSTORE PUSH1 0x40 MLOAD SWAP1 DUP5 DUP3 MSTORE DUP6 DUP3 ADD MSTORE PUSH32 0x96264BBC207FC189D5E12E353CB56E88076D3850C35B256D63C541521D4D46F2 PUSH1 0x40 CALLER SWAP3 LOG4 PUSH1 0x40 MLOAD SWAP1 DUP2 MSTORE RETURN JUMPDEST SWAP4 POP PUSH1 0x20 DUP6 RETURNDATASIZE PUSH1 0x20 GT PUSH2 0x28E JUMPI JUMPDEST DUP2 PUSH2 0x278 PUSH1 0x20 SWAP4 DUP4 PUSH2 0x7C3 JUMP JUMPDEST DUP2 ADD SUB SLT PUSH2 0x28A JUMPI PUSH1 0x20 SWAP5 MLOAD SWAP4 PUSH2 0x205 JUMP JUMPDEST DUP4 DUP1 REVERT JUMPDEST RETURNDATASIZE SWAP2 POP PUSH2 0x26B JUMP JUMPDEST PUSH1 0x40 MLOAD SWAP1 RETURNDATASIZE SWAP1 DUP3 RETURNDATACOPY RETURNDATASIZE SWAP1 REVERT JUMPDEST SWAP4 PUSH2 0x2B0 DUP2 PUSH1 0x20 SWAP8 SWAP7 PUSH2 0x7C3 JUMP JUMPDEST SWAP4 SWAP5 PUSH2 0x1BB JUMP JUMPDEST PUSH1 0x40 MLOAD RETURNDATASIZE DUP8 DUP3 RETURNDATACOPY RETURNDATASIZE SWAP1 REVERT JUMPDEST DUP6 DUP1 REVERT JUMPDEST POP PUSH2 0x8FC PUSH2 0x166 JUMP JUMPDEST PUSH1 0x40 MLOAD PUSH3 0x461BCD PUSH1 0xE5 SHL DUP2 MSTORE PUSH1 0x20 PUSH1 0x4 DUP3 ADD MSTORE PUSH1 0x1A PUSH1 0x24 DUP3 ADD MSTORE PUSH32 0x526F79616C7469657320636F6E7472616374206E6F7420736574000000000000 PUSH1 0x44 DUP3 ADD MSTORE PUSH1 0x64 SWAP1 REVERT JUMPDEST SWAP1 POP PUSH1 0x20 DUP2 RETURNDATASIZE PUSH1 0x20 GT PUSH2 0x34E JUMPI JUMPDEST DUP2 PUSH2 0x32F PUSH1 0x20 SWAP4 DUP4 PUSH2 0x7C3 JUMP JUMPDEST DUP2 ADD SUB SLT PUSH2 0x2C2 JUMPI MLOAD PUSH1 0x1 PUSH1 0x1 PUSH1 0xA0 SHL SUB DUP2 AND DUP2 SUB PUSH2 0x2C2 JUMPI CODESIZE PUSH2 0x14A JUMP JUMPDEST RETURNDATASIZE SWAP2 POP PUSH2 0x322 JUMP JUMPDEST PUSH1 0x40 MLOAD RETURNDATASIZE DUP9 DUP3 RETURNDATACOPY RETURNDATASIZE SWAP1 REVERT JUMPDEST PUSH1 0x40 MLOAD RETURNDATASIZE DUP7 DUP3 RETURNDATACOPY RETURNDATASIZE SWAP1 REVERT JUMPDEST POP PUSH2 0x8FC PUSH2 0x111 JUMP JUMPDEST PUSH4 0x4E487B71 PUSH1 0xE0 SHL DUP7 MSTORE PUSH1 0x11 PUSH1 0x4 MSTORE PUSH1 0x24 DUP7 REVERT JUMPDEST PUSH4 0x4E487B71 PUSH1 0xE0 SHL DUP6 MSTORE PUSH1 0x11 PUSH1 0x4 MSTORE PUSH1 0x24 DUP6 REVERT JUMPDEST PUSH1 0x40 MLOAD PUSH3 0x461BCD PUSH1 0xE5 SHL DUP2 MSTORE PUSH1 0x20 PUSH1 0x4 DUP3 ADD MSTORE PUSH1 0x10 PUSH1 0x24 DUP3 ADD MSTORE PUSH16 0x4E6F7420656E6F7567682066756E6473 PUSH1 0x80 SHL PUSH1 0x44 DUP3 ADD MSTORE PUSH1 0x64 SWAP1 REVERT JUMPDEST PUSH1 0x40 MLOAD PUSH3 0x461BCD PUSH1 0xE5 SHL DUP2 MSTORE PUSH1 0x20 PUSH1 0x4 DUP3 ADD MSTORE PUSH1 0x1C PUSH1 0x24 DUP3 ADD MSTORE PUSH32 0x43616E6E6F742062757920796F7572206F776E20736F66747761726500000000 PUSH1 0x44 DUP3 ADD MSTORE PUSH1 0x64 SWAP1 REVERT JUMPDEST PUSH1 0x40 MLOAD PUSH3 0x461BCD PUSH1 0xE5 SHL DUP2 MSTORE PUSH1 0x20 PUSH1 0x4 DUP3 ADD MSTORE PUSH1 0xA PUSH1 0x24 DUP3 ADD MSTORE PUSH10 0x139BDD081B1A5CDD1959 PUSH1 0xB2 SHL PUSH1 0x44 DUP3 ADD MSTORE PUSH1 0x64 SWAP1 REVERT JUMPDEST DUP1 REVERT JUMPDEST SWAP1 POP CALLVALUE PUSH2 0x7BF JUMPI PUSH1 0x40 CALLDATASIZE PUSH1 0x3 NOT ADD SLT PUSH2 0x7BF JUMPI PUSH1 0x4 CALLDATALOAD PUSH1 0x24 CALLDATALOAD SWAP2 PUSH1 0x1 DUP1 PUSH1 0xA0 SHL SUB DUP5 SLOAD AND SWAP1 PUSH4 0xD3E0BBF PUSH1 0xE1 SHL DUP2 MSTORE CALLER PUSH1 0x4 DUP3 ADD MSTORE PUSH1 0x20 DUP2 PUSH1 0x24 DUP2 DUP6 GAS STATICCALL SWAP1 DUP2 ISZERO PUSH2 0x2B7 JUMPI DUP6 SWAP2 PUSH2 0x7A0 JUMPI JUMPDEST POP PUSH1 0x1 PUSH1 0x1 PUSH1 0xA0 SHL SUB AND DUP5 MSTORE PUSH1 0x1 PUSH1 0x20 DUP2 DUP2 MSTORE PUSH1 0x40 DUP1 DUP8 KECCAK256 DUP6 DUP9 MSTORE SWAP1 SWAP2 MSTORE DUP6 KECCAK256 ADD SLOAD PUSH2 0x76A JUMPI PUSH1 0x40 MLOAD PUSH4 0x5ECA4A7 PUSH1 0xE4 SHL DUP2 MSTORE CALLER PUSH1 0x4 DUP3 ADD MSTORE PUSH1 0x20 DUP2 PUSH1 0x24 DUP2 DUP6 GAS STATICCALL SWAP1 DUP2 ISZERO PUSH2 0x2B7 JUMPI DUP6 SWAP2 PUSH2 0x74B JUMPI JUMPDEST POP ISZERO PUSH2 0x6FC JUMPI PUSH1 0x40 MLOAD PUSH4 0xD3E0BBF PUSH1 0xE1 SHL DUP2 MSTORE CALLER PUSH1 0x4 DUP3 ADD MSTORE PUSH1 0x20 DUP2 PUSH1 0x24 DUP2 DUP6 GAS STATICCALL SWAP1 DUP2 ISZERO PUSH2 0x2B7 JUMPI DUP6 SWAP2 PUSH2 0x6CD JUMPI JUMPDEST POP PUSH1 0x1 PUSH1 0x1 PUSH1 0xA0 SHL SUB AND SWAP1 DUP2 ISZERO PUSH2 0x688 JUMPI PUSH1 0x20 PUSH1 0x44 SWAP2 PUSH1 0x40 MLOAD SWAP3 DUP4 DUP1 SWAP3 PUSH4 0x5DB717C3 PUSH1 0xE1 SHL DUP3 MSTORE DUP7 PUSH1 0x4 DUP4 ADD MSTORE DUP8 PUSH1 0x24 DUP4 ADD MSTORE GAS STATICCALL SWAP1 DUP2 ISZERO PUSH2 0x2B7 JUMPI DUP6 SWAP2 PUSH2 0x659 JUMPI JUMPDEST POP ISZERO PUSH2 0x609 JUMPI PUSH1 0x40 MLOAD PUSH1 0x40 DUP2 ADD DUP2 DUP2 LT PUSH8 0xFFFFFFFFFFFFFFFF DUP3 GT OR PUSH2 0x5F5 JUMPI PUSH1 0x40 MSTORE CALLER DUP2 MSTORE PUSH1 0x1 PUSH1 0x20 DUP3 ADD DUP6 DUP2 MSTORE DUP4 DUP8 MSTORE DUP2 PUSH1 0x20 MSTORE PUSH1 0x40 DUP8 KECCAK256 DUP6 DUP9 MSTORE PUSH1 0x20 MSTORE PUSH1 0x40 DUP8 KECCAK256 SWAP3 DUP3 DUP1 PUSH1 0xA0 SHL SUB SWAP1 MLOAD AND PUSH12 0xFFFFFFFFFFFFFFFFFFFFFFFF PUSH1 0xA0 SHL DUP5 SLOAD AND OR DUP4 SSTORE MLOAD SWAP2 ADD SSTORE PUSH1 0x40 MLOAD SWAP3 DUP4 MSTORE PUSH32 0xB2FE8B8DB74B35ECF28FA902C2C92FFAF61EA5C839BD93F41159FA3D174B9FAA PUSH1 0x20 CALLER SWAP5 LOG4 DUP1 RETURN JUMPDEST PUSH4 0x4E487B71 PUSH1 0xE0 SHL DUP7 MSTORE PUSH1 0x41 PUSH1 0x4 MSTORE PUSH1 0x24 DUP7 REVERT JUMPDEST PUSH1 0x40 MLOAD PUSH3 0x461BCD PUSH1 0xE5 SHL DUP2 MSTORE PUSH1 0x20 PUSH1 0x4 DUP3 ADD MSTORE PUSH1 0x22 PUSH1 0x24 DUP3 ADD MSTORE PUSH32 0x5265706F7369746F727920646F6573206E6F74206F776E207468697320746F6B PUSH1 0x44 DUP3 ADD MSTORE PUSH2 0x32B7 PUSH1 0xF1 SHL PUSH1 0x64 DUP3 ADD MSTORE PUSH1 0x84 SWAP1 REVERT JUMPDEST PUSH2 0x67B SWAP2 POP PUSH1 0x20 RETURNDATASIZE PUSH1 0x20 GT PUSH2 0x681 JUMPI JUMPDEST PUSH2 0x673 DUP2 DUP4 PUSH2 0x7C3 JUMP JUMPDEST DUP2 ADD SWAP1 PUSH2 0x81F JUMP JUMPDEST CODESIZE PUSH2 0x55E JUMP JUMPDEST POP RETURNDATASIZE PUSH2 0x669 JUMP JUMPDEST PUSH1 0x40 MLOAD PUSH3 0x461BCD PUSH1 0xE5 SHL DUP2 MSTORE PUSH1 0x20 PUSH1 0x4 DUP3 ADD MSTORE PUSH1 0x1B PUSH1 0x24 DUP3 ADD MSTORE PUSH32 0x446576656C6F70657220686173206E6F207265706F7369746F72790000000000 PUSH1 0x44 DUP3 ADD MSTORE PUSH1 0x64 SWAP1 REVERT JUMPDEST PUSH2 0x6EF SWAP2 POP PUSH1 0x20 RETURNDATASIZE PUSH1 0x20 GT PUSH2 0x6F5 JUMPI JUMPDEST PUSH2 0x6E7 DUP2 DUP4 PUSH2 0x7C3 JUMP JUMPDEST DUP2 ADD SWAP1 PUSH2 0x7FB JUMP JUMPDEST CODESIZE PUSH2 0x51B JUMP JUMPDEST POP RETURNDATASIZE PUSH2 0x6DD JUMP JUMPDEST PUSH1 0x40 MLOAD PUSH3 0x461BCD PUSH1 0xE5 SHL DUP2 MSTORE PUSH1 0x20 PUSH1 0x4 DUP3 ADD MSTORE PUSH1 0x21 PUSH1 0x24 DUP3 ADD MSTORE PUSH32 0x4F6E6C7920646576656C6F706572732063616E206C69737420736F6674776172 PUSH1 0x44 DUP3 ADD MSTORE PUSH1 0x65 PUSH1 0xF8 SHL PUSH1 0x64 DUP3 ADD MSTORE PUSH1 0x84 SWAP1 REVERT JUMPDEST PUSH2 0x764 SWAP2 POP PUSH1 0x20 RETURNDATASIZE PUSH1 0x20 GT PUSH2 0x681 JUMPI PUSH2 0x673 DUP2 DUP4 PUSH2 0x7C3 JUMP JUMPDEST CODESIZE PUSH2 0x4EB JUMP JUMPDEST PUSH1 0x40 MLOAD PUSH3 0x461BCD PUSH1 0xE5 SHL DUP2 MSTORE PUSH1 0x20 PUSH1 0x4 DUP3 ADD MSTORE PUSH1 0xE PUSH1 0x24 DUP3 ADD MSTORE PUSH14 0x105B1C9958591E481B1A5CDD1959 PUSH1 0x92 SHL PUSH1 0x44 DUP3 ADD MSTORE PUSH1 0x64 SWAP1 REVERT JUMPDEST PUSH2 0x7B9 SWAP2 POP PUSH1 0x20 RETURNDATASIZE PUSH1 0x20 GT PUSH2 0x6F5 JUMPI PUSH2 0x6E7 DUP2 DUP4 PUSH2 0x7C3 JUMP JUMPDEST CODESIZE PUSH2 0x49B JUMP JUMPDEST POP DUP1 REVERT JUMPDEST SWAP1 PUSH1 0x1F DUP1 NOT SWAP2 ADD AND DUP2 ADD SWAP1 DUP2 LT PUSH8 0xFFFFFFFFFFFFFFFF DUP3 GT OR PUSH2 0x7E5 JUMPI PUSH1 0x40 MSTORE JUMP JUMPDEST PUSH4 0x4E487B71 PUSH1 0xE0 SHL PUSH1 0x0 MSTORE PUSH1 0x41 PUSH1 0x4 MSTORE PUSH1 0x24 PUSH1 0x0 REVERT JUMPDEST SWAP1 DUP2 PUSH1 0x20 SWAP2 SUB SLT PUSH2 0x81A JUMPI MLOAD PUSH1 0x1 PUSH1 0x1 PUSH1 0xA0 SHL SUB DUP2 AND DUP2 SUB PUSH2 0x81A JUMPI SWAP1 JUMP JUMPDEST PUSH1 0x0 DUP1 REVERT JUMPDEST SWAP1 DUP2 PUSH1 0x20 SWAP2 SUB SLT PUSH2 0x81A JUMPI MLOAD DUP1 ISZERO ISZERO DUP2 SUB PUSH2 0x81A JUMPI SWAP1 JUMP INVALID LOG2 PUSH5 0x6970667358 0x22 SLT KECCAK256 0xC0 0xB9 XOR OR 0xBD CALLVALUE 0xED 0xA6 SLT 0xDE 0xB5 DUP10 0xFB DUP7 CALLDATASIZE PUSH0 0xD6 PUSH30 0x75AED07D54C13765315E2EF3AC6564736F6C634300081C00330000000000 "},"methodIdentifiers":{"buySoftware(address,uint256)":"5cf738d5","listSoftware(uint256,uint256)":"1f739c75"}}}}}