{"contracts/RegistryRoyalties.sol":{"RegistryRoyalties":{"abi":[{"inputs":[{"internalType":"address","name":"_registry","type":"address"}],"stateMutability":"nonpayable","type":"constructor"},{"anonymous":false,"inputs":[{"indexed":true,"internalType":"address","name":"creator","type":"address"},{"indexed":false,"internalType":"uint256","name":"amount","type":"uint256"},{"indexed":false,"internalType":"uint256","name":"timestamp","type":"uint256"}],"name":"RoyaltiesWithdrawn","type":"event"},{"anonymous":false,"inputs":[{"indexed":true,"internalType":"address","name":"creator","type":"address"},{"indexed":false,"internalType":"uint256","name":"amount","type":"uint256"},{"indexed":false,"internalType":"uint256","name":"softwareId","type":"uint256"},{"indexed":false,"internalType":"uint256","name":"depth","type":"uint256"},{"indexed":false,"internalType":"uint256","name":"timestamp","type":"uint256"}],"name":"RoyaltyPaid","type":"event"},{"inputs":[],"name":"BASIS_POINTS_DENOMINATOR","outputs":[{"internalType":"uint256","name":"","type":"uint256"}],"stateMutability":"view","type":"function"},{"inputs":[],"name":"DIRECT_ROYALTY_BASIS_POINTS","outputs":[{"internalType":"uint256","name":"","type":"uint256"}],"stateMutability":"view","type":"function"},{"inputs":[],"name":"INDIRECT_ROYALTY_BASIS_POINTS","outputs":[{"internalType":"uint256","name":"","type":"uint256"}],"stateMutability":"view","type":"function"},{"inputs":[],"name":"MAX_DEPTH","outputs":[{"internalType":"uint256","name":"","type":"uint256"}],"stateMutability":"view","type":"function"},{"inputs":[{"internalType":"address","name":"buyer","type":"address"},{"internalType":"address","name":"seller","type":"address"},{"internalType":"address","name":"repositoryAddr","type":"address"},{"internalType":"uint256","name":"softwareId","type":"uint256"},{"internalType":"uint256","name":"paymentAmount","type":"uint256"}],"name":"distributeRoyalties","outputs":[],"stateMutability":"nonpayable","type":"function"},{"inputs":[{"internalType":"address","name":"creator","type":"address"}],"name":"getRoyaltiesForCreator","outputs":[{"internalType":"uint256","name":"","type":"uint256"}],"stateMutability":"view","type":"function"},{"inputs":[{"internalType":"address","name":"","type":"address"}],"name":"pendingRoyalties","outputs":[{"internalType":"uint256","name":"","type":"uint256"}],"stateMutability":"view","type":"function"},{"inputs":[],"name":"registry","outputs":[{"internalType":"contract Registry","name":"","type":"address"}],"stateMutability":"view","type":"function"},{"inputs":[],"name":"withdrawRoyalties","outputs":[],"stateMutability":"nonpayable","type":"function"},{"stateMutability":"payable","type":"receive"}],"evm":{"bytecode":{"linkReferences":{},"object":"60a034607657601f610c1c38819003918201601f19168301916001600160401b03831184841017607b57808492602094604052833981010312607657516001600160a01b03811690819003607657608052604051610b8a9081610092823960805181818161011b0152818161030f0152610ab70152f35b600080fd5b634e487b7160e01b600052604160045260246000fdfe608080604052600436101561001d575b50361561001b57600080fd5b005b60003560e01c90816304be7716146102cb575080630f8febda146102ae57806321c34fcb146101665780635201c53a1461014a57806378e30153146100cb5780637b103999146101055780639a2fa9bb146100cb578063a27154ba146100af5763cfa498a31461008d573861000f565b346100aa5760003660031901126100aa5760206040516127108152f35b600080fd5b346100aa5760003660031901126100aa57602060405160058152f35b346100aa5760203660031901126100aa576001600160a01b036100ec610524565b1660005260006020526020604060002054604051908152f35b346100aa5760003660031901126100aa576040517f00000000000000000000000000000000000000000000000000000000000000006001600160a01b03168152602090f35b346100aa5760003660031901126100aa57602060405160c88152f35b346100aa5760003660031901126100aa5733600052600060205260406000205480156102695733600052600060205260006040812055600080808084335af13d15610264573d67ffffffffffffffff811161024e57604051906101d3601f8201601f191660200183610550565b8152600060203d92013e5b15610217576040519081524260208201527f17fa61e1edcb52b7cde15506e02c61b67d96dce3ee6b1f753b6b63ad88f1151360403392a2005b60405162461bcd60e51b815260206004820152600f60248201526e151c985b9cd9995c8819985a5b1959608a1b6044820152606490fd5b634e487b7160e01b600052604160045260246000fd5b6101de565b60405162461bcd60e51b815260206004820152601860248201527f4e6f20726f79616c7469657320746f20776974686472617700000000000000006044820152606490fd5b346100aa5760003660031901126100aa5760206040516101f48152f35b346100aa5760a03660031901126100aa576102e4610524565b506102ed61053a565b50604435906001600160a01b0382168083036100aa5763abc8c7af60e01b82527f00000000000000000000000000000000000000000000000000000000000000006001600160a01b031691602081600481865afa908115610487576000916104ea575b506001600160a01b0316330361049357602090602460405180948193633b05875360e01b835260048301525afa90811561048757600091610458575b5015610413576001546000600155806103b1575b61001b600160843560643585610633565b60016000527fb10e2d527612073b26eecdfd717e6a320cf44b4afac2b0732d9fcbe2b7fa0cf6017fb10e2d527612073b26eecdfd717e6a320cf44b4afac2b0732d9fcbe2b7fa0cf65b81811061040757506103a0565b600081556001016103fa565b60405162461bcd60e51b815260206004820152601960248201527f5265706f7369746f7279206e6f742072656769737465726564000000000000006044820152606490fd5b61047a915060203d602011610480575b6104728183610550565b810190610586565b8261038c565b503d610468565b6040513d6000823e3d90fd5b60405162461bcd60e51b815260206004820152602960248201527f4f6e6c79206d61726b6574706c6163652063616e206469737472696275746520604482015268726f79616c7469657360b81b6064820152608490fd5b90506020813d60201161051c575b8161050560209383610550565b810103126100aa5761051690610572565b84610350565b3d91506104f8565b600435906001600160a01b03821682036100aa57565b602435906001600160a01b03821682036100aa57565b90601f8019910116810190811067ffffffffffffffff82111761024e57604052565b51906001600160a01b03821682036100aa57565b908160209103126100aa575180151581036100aa5790565b6001548110156105b957600160005260206000200190600090565b634e487b7160e01b600052603260045260246000fd5b6001546801000000000000000081101561024e5760018101600155600060015482101561061f57600190527fb10e2d527612073b26eecdfd717e6a320cf44b4afac2b0732d9fcbe2b7fa0cf60155565b634e487b7160e01b81526032600452602490fd5b929190600583116106d05760405160208101906bffffffffffffffffffffffff198660601b16825282603482015260348152610670605482610550565b519020936000600154905b8181106106a35750506106906106a1956105cf565b61069c848484846106fa565b6109cc565b565b866106ba6106b08361059e565b90549060031b1c90565b146106c75760010161067b565b50505050505050565b50505050565b90600182018092116106e457565b634e487b7160e01b600052601160045260246000fd5b604051636a4731c560e11b8152600481018390529293919290602090829060249082906001600160a01b03165afa600091816107f8575b5061073c5750505050565b92600182036107f0576101f4905b8181029181830414901517156106e457612710900492831515806107de575b6107735750505050565b60018060a01b0316928360005260006020526040600020918254938285018095116106e4577fd8af8dc706c999aa6a19bcc08c4653db2b8b85bcb1ec2bffa7b5233b3bd974fb946080945560405192835260208301526040820152426060820152a2388080806106d0565b506001600160a01b0381161515610769565b60c89061074a565b9091506020813d60201161082c575b8161081460209383610550565b810103126100aa5761082590610572565b9038610731565b3d9150610807565b67ffffffffffffffff811161024e5760051b60200190565b91906040838203126100aa57825167ffffffffffffffff81116100aa57830181601f820112156100aa5780519061088282610834565b916108906040519384610550565b80835260208084019160051b830101918483116100aa57602001905b8282106109a0575050509260208101519067ffffffffffffffff82116100aa57019080601f830112156100aa578151906108e582610834565b926108f36040519485610550565b82845260208085019360051b820101908282116100aa5760208101935b82851061091f57505050505090565b845167ffffffffffffffff81116100aa57820184603f820112156100aa5760208101519061094c82610834565b9161095a6040519384610550565b8083526020808085019260051b84010101918783116100aa57604001905b82821061099057505050815260209485019401610910565b8151815260209182019101610978565b602080916109ad84610572565b8152019101906108ac565b80518210156105b95760209160051b010190565b604051631bae46d360e31b8152600481019290925290939291906000908190869060249082906001600160a01b03165afa8095828097610a61575b5050610a14575050509050565b9360005b8551811015610a5957610a518484610a40610a33858b6109b8565b516001600160a01b031690565b610a4a85876109b8565b5190610a89565b600101610a18565b505050509050565b90919650610a8192503d8091833e610a798183610550565b81019061084c565b943880610a07565b604051633b05875360e01b81526001600160a01b0382166004820152919493909291602081806024810103817f00000000000000000000000000000000000000000000000000000000000000006001600160a01b03165afa908115610b4f57600091610b30575b5015610b295760005b8551811015610a5957610b21610b0f82886109b8565b5184610b1a856106d6565b9187610633565b600101610af9565b5050509050565b610b49915060203d602011610480576104728183610550565b38610af0565b61048756fea2646970667358221220bf09f3bda178f8c092c8f99fac5009acc00dc9e4fc2720cd5a23d7943fd8631a64736f6c634300081c0033","opcodes":"PUSH1 0xA0 CALLVALUE PUSH1 0x76 JUMPI PUSH1 0x1F PUSH2 0xC1C CODESIZE DUP2 SWAP1 SUB SWAP2 DUP3 ADD PUSH1 0x1F NOT AND DUP4 ADD SWAP2 PUSH1 0x1 PUSH1 0x1 PUSH1 0x40 SHL SUB DUP4 GT DUP5 DUP5 LT OR PUSH1 0x7B JUMPI DUP1 DUP5 SWAP3 PUSH1 0x20 SWAP5 PUSH1 0x40 MSTORE DUP4 CODECOPY DUP2 ADD SUB SLT PUSH1 0x76 JUMPI MLOAD PUSH1 0x1 PUSH1 0x1 PUSH1 0xA0 SHL SUB DUP2 AND SWAP1 DUP2 SWAP1 SUB PUSH1 0x76 JUMPI PUSH1 0x80 MSTORE PUSH1 0x40 MLOAD PUSH2 0xB8A SWAP1 DUP2 PUSH2 0x92 DUP3 CODECOPY PUSH1 0x80 MLOAD DUP2 DUP2 DUP2 PUSH2 0x11B ADD MSTORE DUP2 DUP2 PUSH2 0x30F ADD MSTORE PUSH2 0xAB7 ADD MSTORE RETURN JUMPDEST PUSH1 0x0 DUP1 REVERT JUMPDEST PUSH4 0x4E487B71 PUSH1 0xE0 SHL PUSH1 0x0 MSTORE PUSH1 0x41 PUSH1 0x4 MSTORE PUSH1 0x24 PUSH1 0x0 REVERT INVALID PUSH1 0x80 DUP1 PUSH1 0x40 MSTORE PUSH1 0x4 CALLDATASIZE LT ISZERO PUSH2 0x1D JUMPI JUMPDEST POP CALLDATASIZE ISZERO PUSH2 0x1B JUMPI PUSH1 0x0 DUP1 REVERT JUMPDEST STOP JUMPDEST PUSH1 0x0 CALLDATALOAD PUSH1 0xE0 SHR SWAP1 DUP2 PUSH4 0x4BE7716 EQ PUSH2 0x2CB JUMPI POP DUP1 PUSH4 0xF8FEBDA EQ PUSH2 0x2AE JUMPI DUP1 PUSH4 0x21C34FCB EQ PUSH2 0x166 JUMPI DUP1 PUSH4 0x5201C53A EQ PUSH2 0x14A JUMPI DUP1 PUSH4 0x78E30153 EQ PUSH2 0xCB JUMPI DUP1 PUSH4 0x7B103999 EQ PUSH2 0x105 JUMPI DUP1 PUSH4 0x9A2FA9BB EQ PUSH2 0xCB JUMPI DUP1 PUSH4 0xA27154BA EQ PUSH2 0xAF JUMPI PUSH4 0xCFA498A3 EQ PUSH2 0x8D JUMPI CODESIZE PUSH2 0xF JUMP JUMPDEST CALLVALUE PUSH2 0xAA JUMPI PUSH1 0x0 CALLDATASIZE PUSH1 0x3 NOT ADD SLT PUSH2 0xAA JUMPI PUSH1 0x20 PUSH1 0x40 MLOAD PUSH2 0x2710 DUP2 MSTORE RETURN JUMPDEST PUSH1 0x0 DUP1 REVERT JUMPDEST CALLVALUE PUSH2 0xAA JUMPI PUSH1 0x0 CALLDATASIZE PUSH1 0x3 NOT ADD SLT PUSH2 0xAA JUMPI PUSH1 0x20 PUSH1 0x40 MLOAD PUSH1 0x5 DUP2 MSTORE RETURN JUMPDEST CALLVALUE PUSH2 0xAA JUMPI PUSH1 0x20 CALLDATASIZE PUSH1 0x3 NOT ADD SLT PUSH2 0xAA JUMPI PUSH1 0x1 PUSH1 0x1 PUSH1 0xA0 SHL SUB PUSH2 0xEC PUSH2 0x524 JUMP JUMPDEST AND PUSH1 0x0 MSTORE PUSH1 0x0 PUSH1 0x20 MSTORE PUSH1 0x20 PUSH1 0x40 PUSH1 0x0 KECCAK256 SLOAD PUSH1 0x40 MLOAD SWAP1 DUP2 MSTORE RETURN JUMPDEST CALLVALUE PUSH2 0xAA JUMPI PUSH1 0x0 CALLDATASIZE PUSH1 0x3 NOT ADD SLT PUSH2 0xAA JUMPI PUSH1 0x40 MLOAD PUSH32 0x0 PUSH1 0x1 PUSH1 0x1 PUSH1 0xA0 SHL SUB AND DUP2 MSTORE PUSH1 0x20 SWAP1 RETURN JUMPDEST CALLVALUE PUSH2 0xAA JUMPI PUSH1 0x0 CALLDATASIZE PUSH1 0x3 NOT ADD SLT PUSH2 0xAA JUMPI PUSH1 0x20 PUSH1 0x40 MLOAD PUSH1 0xC8 DUP2 MSTORE RETURN JUMPDEST CALLVALUE PUSH2 0xAA JUMPI PUSH1 0x0 CALLDATASIZE PUSH1 0x3 NOT ADD SLT PUSH2 0xAA JUMPI CALLER PUSH1 0x0 MSTORE PUSH1 0x0 PUSH1 0x20 MSTORE PUSH1 0x40 PUSH1 0x0 KECCAK256 SLOAD DUP1 ISZERO PUSH2 0x269 JUMPI CALLER PUSH1 0x0 MSTORE PUSH1 0x0 PUSH1 0x20 MSTORE PUSH1 0x0 PUSH1 0x40 DUP2 KECCAK256 SSTORE PUSH1 0x0 DUP1 DUP1 DUP1 DUP5 CALLER GAS CALL RETURNDATASIZE ISZERO PUSH2 0x264 JUMPI RETURNDATASIZE PUSH8 0xFFFFFFFFFFFFFFFF DUP2 GT PUSH2 0x24E JUMPI PUSH1 0x40 MLOAD SWAP1 PUSH2 0x1D3 PUSH1 0x1F DUP3 ADD PUSH1 0x1F NOT AND PUSH1 0x20 ADD DUP4 PUSH2 0x550 JUMP JUMPDEST DUP2 MSTORE PUSH1 0x0 PUSH1 0x20 RETURNDATASIZE SWAP3 ADD RETURNDATACOPY JUMPDEST ISZERO PUSH2 0x217 JUMPI PUSH1 0x40 MLOAD SWAP1 DUP2 MSTORE TIMESTAMP PUSH1 0x20 DUP3 ADD MSTORE PUSH32 0x17FA61E1EDCB52B7CDE15506E02C61B67D96DCE3EE6B1F753B6B63AD88F11513 PUSH1 0x40 CALLER SWAP3 LOG2 STOP JUMPDEST PUSH1 0x40 MLOAD PUSH3 0x461BCD PUSH1 0xE5 SHL DUP2 MSTORE PUSH1 0x20 PUSH1 0x4 DUP3 ADD MSTORE PUSH1 0xF PUSH1 0x24 DUP3 ADD MSTORE PUSH15 0x151C985B9CD9995C8819985A5B1959 PUSH1 0x8A SHL PUSH1 0x44 DUP3 ADD MSTORE PUSH1 0x64 SWAP1 REVERT JUMPDEST PUSH4 0x4E487B71 PUSH1 0xE0 SHL PUSH1 0x0 MSTORE PUSH1 0x41 PUSH1 0x4 MSTORE PUSH1 0x24 PUSH1 0x0 REVERT JUMPDEST PUSH2 0x1DE JUMP JUMPDEST PUSH1 0x40 MLOAD PUSH3 0x461BCD PUSH1 0xE5 SHL DUP2 MSTORE PUSH1 0x20 PUSH1 0x4 DUP3 ADD MSTORE PUSH1 0x18 PUSH1 0x24 DUP3 ADD MSTORE PUSH32 0x4E6F20726F79616C7469657320746F2077697468647261770000000000000000 PUSH1 0x44 DUP3 ADD MSTORE PUSH1 0x64 SWAP1 REVERT JUMPDEST CALLVALUE PUSH2 0xAA JUMPI PUSH1 0x0 CALLDATASIZE PUSH1 0x3 NOT ADD SLT PUSH2 0xAA JUMPI PUSH1 0x20 PUSH1 0x40 MLOAD PUSH2 0x1F4 DUP2 MSTORE RETURN JUMPDEST CALLVALUE PUSH2 0xAA JUMPI PUSH1 0xA0 CALLDATASIZE PUSH1 0x3 NOT ADD SLT PUSH2 0xAA JUMPI PUSH2 0x2E4 PUSH2 0x524 JUMP JUMPDEST POP PUSH2 0x2ED PUSH2 0x53A JUMP JUMPDEST POP PUSH1 0x44 CALLDATALOAD SWAP1 PUSH1 0x1 PUSH1 0x1 PUSH1 0xA0 SHL SUB DUP3 AND DUP1 DUP4 SUB PUSH2 0xAA JUMPI PUSH4 0xABC8C7AF PUSH1 0xE0 SHL DUP3 MSTORE PUSH32 0x0 PUSH1 0x1 PUSH1 0x1 PUSH1 0xA0 SHL SUB AND SWAP2 PUSH1 0x20 DUP2 PUSH1 0x4 DUP2 DUP7 GAS STATICCALL SWAP1 DUP2 ISZERO PUSH2 0x487 JUMPI PUSH1 0x0 SWAP2 PUSH2 0x4EA JUMPI JUMPDEST POP PUSH1 0x1 PUSH1 0x1 PUSH1 0xA0 SHL SUB AND CALLER SUB PUSH2 0x493 JUMPI PUSH1 0x20 SWAP1 PUSH1 0x24 PUSH1 0x40 MLOAD DUP1 SWAP5 DUP2 SWAP4 PUSH4 0x3B058753 PUSH1 0xE0 SHL DUP4 MSTORE PUSH1 0x4 DUP4 ADD MSTORE GAS STATICCALL SWAP1 DUP2 ISZERO PUSH2 0x487 JUMPI PUSH1 0x0 SWAP2 PUSH2 0x458 JUMPI JUMPDEST POP ISZERO PUSH2 0x413 JUMPI PUSH1 0x1 SLOAD PUSH1 0x0 PUSH1 0x1 SSTORE DUP1 PUSH2 0x3B1 JUMPI JUMPDEST PUSH2 0x1B PUSH1 0x1 PUSH1 0x84 CALLDATALOAD PUSH1 0x64 CALLDATALOAD DUP6 PUSH2 0x633 JUMP JUMPDEST PUSH1 0x1 PUSH1 0x0 MSTORE PUSH32 0xB10E2D527612073B26EECDFD717E6A320CF44B4AFAC2B0732D9FCBE2B7FA0CF6 ADD PUSH32 0xB10E2D527612073B26EECDFD717E6A320CF44B4AFAC2B0732D9FCBE2B7FA0CF6 JUMPDEST DUP2 DUP2 LT PUSH2 0x407 JUMPI POP PUSH2 0x3A0 JUMP JUMPDEST PUSH1 0x0 DUP2 SSTORE PUSH1 0x1 ADD PUSH2 0x3FA JUMP JUMPDEST PUSH1 0x40 MLOAD PUSH3 0x461BCD PUSH1 0xE5 SHL DUP2 MSTORE PUSH1 0x20 PUSH1 0x4 DUP3 ADD MSTORE PUSH1 0x19 PUSH1 0x24 DUP3 ADD MSTORE PUSH32 0x5265706F7369746F7279206E6F74207265676973746572656400000000000000 PUSH1 0x44 DUP3 ADD MSTORE PUSH1 0x64 SWAP1 REVERT JUMPDEST PUSH2 0x47A SWAP2 POP PUSH1 0x20 RETURNDATASIZE PUSH1 0x20 GT PUSH2 0x480 JUMPI JUMPDEST PUSH2 0x472 DUP2 DUP4 PUSH2 0x550 JUMP JUMPDEST DUP2 ADD SWAP1 PUSH2 0x586 JUMP JUMPDEST DUP3 PUSH2 0x38C JUMP JUMPDEST POP RETURNDATASIZE PUSH2 0x468 JUMP JUMPDEST PUSH1 0x40 MLOAD RETURNDATASIZE PUSH1 0x0 DUP3 RETURNDATACOPY RETURNDATASIZE SWAP1 REVERT JUMPDEST PUSH1 0x40 MLOAD PUSH3 0x461BCD PUSH1 0xE5 SHL DUP2 MSTORE PUSH1 0x20 PUSH1 0x4 DUP3 ADD MSTORE PUSH1 0x29 PUSH1 0x24 DUP3 ADD MSTORE PUSH32 0x4F6E6C79206D61726B6574706C6163652063616E206469737472696275746520 PUSH1 0x44 DUP3 ADD MSTORE PUSH9 0x726F79616C74696573 PUSH1 0xB8 SHL PUSH1 0x64 DUP3 ADD MSTORE PUSH1 0x84 SWAP1 REVERT JUMPDEST SWAP1 POP PUSH1 0x20 DUP2 RETURNDATASIZE PUSH1 0x20 GT PUSH2 0x51C JUMPI JUMPDEST DUP2 PUSH2 0x505 PUSH1 0x20 SWAP4 DUP4 PUSH2 0x550 JUMP JUMPDEST DUP2 ADD SUB SLT PUSH2 0xAA JUMPI PUSH2 0x516 SWAP1 PUSH2 0x572 JUMP JUMPDEST DUP5 PUSH2 0x350 JUMP JUMPDEST RETURNDATASIZE SWAP2 POP PUSH2 0x4F8 JUMP JUMPDEST PUSH1 0x4 CALLDATALOAD SWAP1 PUSH1 0x1 PUSH1 0x1 PUSH1 0xA0 SHL SUB DUP3 AND DUP3 SUB PUSH2 0xAA JUMPI JUMP JUMPDEST PUSH1 0x24 CALLDATALOAD SWAP1 PUSH1 0x1 PUSH1 0x1 PUSH1 0xA0 SHL SUB DUP3 AND DUP3 SUB PUSH2 0xAA JUMPI JUMP JUMPDEST SWAP1 PUSH1 0x1F DUP1 NOT SWAP2 ADD AND DUP2 ADD SWAP1 DUP2 LT PUSH8 0xFFFFFFFFFFFFFFFF DUP3 GT OR PUSH2 0x24E JUMPI PUSH1 0x40 MSTORE JUMP JUMPDEST MLOAD SWAP1 PUSH1 0x1 PUSH1 0x1 PUSH1 0xA0 SHL SUB DUP3 AND DUP3 SUB PUSH2 0xAA JUMPI JUMP JUMPDEST SWAP1 DUP2 PUSH1 0x20 SWAP2 SUB SLT PUSH2 0xAA JUMPI MLOAD DUP1 ISZERO ISZERO DUP2 SUB PUSH2 0xAA JUMPI SWAP1 JUMP JUMPDEST PUSH1 0x1 SLOAD DUP2 LT ISZERO PUSH2 0x5B9 JUMPI PUSH1 0x1 PUSH1 0x0 MSTORE PUSH1 0x20 PUSH1 0x0 KECCAK256 ADD SWAP1 PUSH1 0x0 SWAP1 JUMP JUMPDEST PUSH4 0x4E487B71 PUSH1 0xE0 SHL PUSH1 0x0 MSTORE PUSH1 0x32 PUSH1 0x4 MSTORE PUSH1 0x24 PUSH1 0x0 REVERT JUMPDEST PUSH1 0x1 SLOAD PUSH9 0x10000000000000000 DUP2 LT ISZERO PUSH2 0x24E JUMPI PUSH1 0x1 DUP2 ADD PUSH1 0x1 SSTORE PUSH1 0x0 PUSH1 0x1 SLOAD DUP3 LT ISZERO PUSH2 0x61F JUMPI PUSH1 0x1 SWAP1 MSTORE PUSH32 0xB10E2D527612073B26EECDFD717E6A320CF44B4AFAC2B0732D9FCBE2B7FA0CF6 ADD SSTORE JUMP JUMPDEST PUSH4 0x4E487B71 PUSH1 0xE0 SHL DUP2 MSTORE PUSH1 0x32 PUSH1 0x4 MSTORE PUSH1 0x24 SWAP1 REVERT JUMPDEST SWAP3 SWAP2 SWAP1 PUSH1 0x5 DUP4 GT PUSH2 0x6D0 JUMPI PUSH1 0x40 MLOAD PUSH1 0x20 DUP2 ADD SWAP1 PUSH12 0xFFFFFFFFFFFFFFFFFFFFFFFF NOT DUP7 PUSH1 0x60 SHL AND DUP3 MSTORE DUP3 PUSH1 0x34 DUP3 ADD MSTORE PUSH1 0x34 DUP2 MSTORE PUSH2 0x670 PUSH1 0x54 DUP3 PUSH2 0x550 JUMP JUMPDEST MLOAD SWAP1 KECCAK256 SWAP4 PUSH1 0x0 PUSH1 0x1 SLOAD SWAP1 JUMPDEST DUP2 DUP2 LT PUSH2 0x6A3 JUMPI POP POP PUSH2 0x690 PUSH2 0x6A1 SWAP6 PUSH2 0x5CF JUMP JUMPDEST PUSH2 0x69C DUP5 DUP5 DUP5 DUP5 PUSH2 0x6FA JUMP JUMPDEST PUSH2 0x9CC JUMP JUMPDEST JUMP JUMPDEST DUP7 PUSH2 0x6BA PUSH2 0x6B0 DUP4 PUSH2 0x59E JUMP JUMPDEST SWAP1 SLOAD SWAP1 PUSH1 0x3 SHL SHR SWAP1 JUMP JUMPDEST EQ PUSH2 0x6C7 JUMPI PUSH1 0x1 ADD PUSH2 0x67B JUMP JUMPDEST POP POP POP POP POP POP POP JUMP JUMPDEST POP POP POP POP JUMP JUMPDEST SWAP1 PUSH1 0x1 DUP3 ADD DUP1 SWAP3 GT PUSH2 0x6E4 JUMPI JUMP JUMPDEST PUSH4 0x4E487B71 PUSH1 0xE0 SHL PUSH1 0x0 MSTORE PUSH1 0x11 PUSH1 0x4 MSTORE PUSH1 0x24 PUSH1 0x0 REVERT JUMPDEST PUSH1 0x40 MLOAD PUSH4 0x6A4731C5 PUSH1 0xE1 SHL DUP2 MSTORE PUSH1 0x4 DUP2 ADD DUP4 SWAP1 MSTORE SWAP3 SWAP4 SWAP2 SWAP3 SWAP1 PUSH1 0x20 SWAP1 DUP3 SWAP1 PUSH1 0x24 SWAP1 DUP3 SWAP1 PUSH1 0x1 PUSH1 0x1 PUSH1 0xA0 SHL SUB AND GAS STATICCALL PUSH1 0x0 SWAP2 DUP2 PUSH2 0x7F8 JUMPI JUMPDEST POP PUSH2 0x73C JUMPI POP POP POP POP JUMP JUMPDEST SWAP3 PUSH1 0x1 DUP3 SUB PUSH2 0x7F0 JUMPI PUSH2 0x1F4 SWAP1 JUMPDEST DUP2 DUP2 MUL SWAP2 DUP2 DUP4 DIV EQ SWAP1 ISZERO OR ISZERO PUSH2 0x6E4 JUMPI PUSH2 0x2710 SWAP1 DIV SWAP3 DUP4 ISZERO ISZERO DUP1 PUSH2 0x7DE JUMPI JUMPDEST PUSH2 0x773 JUMPI POP POP POP POP JUMP JUMPDEST PUSH1 0x1 DUP1 PUSH1 0xA0 SHL SUB AND SWAP3 DUP4 PUSH1 0x0 MSTORE PUSH1 0x0 PUSH1 0x20 MSTORE PUSH1 0x40 PUSH1 0x0 KECCAK256 SWAP2 DUP3 SLOAD SWAP4 DUP3 DUP6 ADD DUP1 SWAP6 GT PUSH2 0x6E4 JUMPI PUSH32 0xD8AF8DC706C999AA6A19BCC08C4653DB2B8B85BCB1EC2BFFA7B5233B3BD974FB SWAP5 PUSH1 0x80 SWAP5 SSTORE PUSH1 0x40 MLOAD SWAP3 DUP4 MSTORE PUSH1 0x20 DUP4 ADD MSTORE PUSH1 0x40 DUP3 ADD MSTORE TIMESTAMP PUSH1 0x60 DUP3 ADD MSTORE LOG2 CODESIZE DUP1 DUP1 DUP1 PUSH2 0x6D0 JUMP JUMPDEST POP PUSH1 0x1 PUSH1 0x1 PUSH1 0xA0 SHL SUB DUP2 AND ISZERO ISZERO PUSH2 0x769 JUMP JUMPDEST PUSH1 0xC8 SWAP1 PUSH2 0x74A JUMP JUMPDEST SWAP1 SWAP2 POP PUSH1 0x20 DUP2 RETURNDATASIZE PUSH1 0x20 GT PUSH2 0x82C JUMPI JUMPDEST DUP2 PUSH2 0x814 PUSH1 0x20 SWAP4 DUP4 PUSH2 0x550 JUMP JUMPDEST DUP2 ADD SUB SLT PUSH2 0xAA JUMPI PUSH2 0x825 SWAP1 PUSH2 0x572 JUMP JUMPDEST SWAP1 CODESIZE PUSH2 0x731 JUMP JUMPDEST RETURNDATASIZE SWAP2 POP PUSH2 0x807 JUMP JUMPDEST PUSH8 0xFFFFFFFFFFFFFFFF DUP2 GT PUSH2 0x24E JUMPI PUSH1 0x5 SHL PUSH1 0x20 ADD SWAP1 JUMP JUMPDEST SWAP2 SWAP1 PUSH1 0x40 DUP4 DUP3 SUB SLT PUSH2 0xAA JUMPI DUP3 MLOAD PUSH8 0xFFFFFFFFFFFFFFFF DUP2 GT PUSH2 0xAA JUMPI DUP4 ADD DUP2 PUSH1 0x1F DUP3 ADD SLT ISZERO PUSH2 0xAA JUMPI DUP1 MLOAD SWAP1 PUSH2 0x882 DUP3 PUSH2 0x834 JUMP JUMPDEST SWAP2 PUSH2 0x890 PUSH1 0x40 MLOAD SWAP4 DUP5 PUSH2 0x550 JUMP JUMPDEST DUP1 DUP4 MSTORE PUSH1 0x20 DUP1 DUP5 ADD SWAP2 PUSH1 0x5 SHL DUP4 ADD ADD SWAP2 DUP5 DUP4 GT PUSH2 0xAA JUMPI PUSH1 0x20 ADD SWAP1 JUMPDEST DUP3 DUP3 LT PUSH2 0x9A0 JUMPI POP POP POP SWAP3 PUSH1 0x20 DUP2 ADD MLOAD SWAP1 PUSH8 0xFFFFFFFFFFFFFFFF DUP3 GT PUSH2 0xAA JUMPI ADD SWAP1 DUP1 PUSH1 0x1F DUP4 ADD SLT ISZERO PUSH2 0xAA JUMPI DUP2 MLOAD SWAP1 PUSH2 0x8E5 DUP3 PUSH2 0x834 JUMP JUMPDEST SWAP3 PUSH2 0x8F3 PUSH1 0x40 MLOAD SWAP5 DUP6 PUSH2 0x550 JUMP JUMPDEST DUP3 DUP5 MSTORE PUSH1 0x20 DUP1 DUP6 ADD SWAP4 PUSH1 0x5 SHL DUP3 ADD ADD SWAP1 DUP3 DUP3 GT PUSH2 0xAA JUMPI PUSH1 0x20 DUP2 ADD SWAP4 JUMPDEST DUP3 DUP6 LT PUSH2 0x91F JUMPI POP POP POP POP POP SWAP1 JUMP JUMPDEST DUP5 MLOAD PUSH8 0xFFFFFFFFFFFFFFFF DUP2 GT PUSH2 0xAA JUMPI DUP3 ADD DUP5 PUSH1 0x3F DUP3 ADD SLT ISZERO PUSH2 0xAA JUMPI PUSH1 0x20 DUP2 ADD MLOAD SWAP1 PUSH2 0x94C DUP3 PUSH2 0x834 JUMP JUMPDEST SWAP2 PUSH2 0x95A PUSH1 0x40 MLOAD SWAP4 DUP5 PUSH2 0x550 JUMP JUMPDEST DUP1 DUP4 MSTORE PUSH1 0x20 DUP1 DUP1 DUP6 ADD SWAP3 PUSH1 0x5 SHL DUP5 ADD ADD ADD SWAP2 DUP8 DUP4 GT PUSH2 0xAA JUMPI PUSH1 0x40 ADD SWAP1 JUMPDEST DUP3 DUP3 LT PUSH2 0x990 JUMPI POP POP POP DUP2 MSTORE PUSH1 0x20 SWAP5 DUP6 ADD SWAP5 ADD PUSH2 0x910 JUMP JUMPDEST DUP2 MLOAD DUP2 MSTORE PUSH1 0x20 SWAP2 DUP3 ADD SWAP2 ADD PUSH2 0x978 JUMP JUMPDEST PUSH1 0x20 DUP1 SWAP2 PUSH2 0x9AD DUP5 PUSH2 0x572 JUMP JUMPDEST DUP2 MSTORE ADD SWAP2 ADD SWAP1 PUSH2 0x8AC JUMP JUMPDEST DUP1 MLOAD DUP3 LT ISZERO PUSH2 0x5B9 JUMPI PUSH1 0x20 SWAP2 PUSH1 0x5 SHL ADD ADD SWAP1 JUMP JUMPDEST PUSH1 0x40 MLOAD PUSH4 0x1BAE46D3 PUSH1 0xE3 SHL DUP2 MSTORE PUSH1 0x4 DUP2 ADD SWAP3 SWAP1 SWAP3 MSTORE SWAP1 SWAP4 SWAP3 SWAP2 SWAP1 PUSH1 0x0 SWAP1 DUP2 SWAP1 DUP7 SWAP1 PUSH1 0x24 SWAP1 DUP3 SWAP1 PUSH1 0x1 PUSH1 0x1 PUSH1 0xA0 SHL SUB AND GAS STATICCALL DUP1 SWAP6 DUP3 DUP1 SWAP8 PUSH2 0xA61 JUMPI JUMPDEST POP POP PUSH2 0xA14 JUMPI POP POP POP SWAP1 POP JUMP JUMPDEST SWAP4 PUSH1 0x0 JUMPDEST DUP6 MLOAD DUP2 LT ISZERO PUSH2 0xA59 JUMPI PUSH2 0xA51 DUP5 DUP5 PUSH2 0xA40 PUSH2 0xA33 DUP6 DUP12 PUSH2 0x9B8 JUMP JUMPDEST MLOAD PUSH1 0x1 PUSH1 0x1 PUSH1 0xA0 SHL SUB AND SWAP1 JUMP JUMPDEST PUSH2 0xA4A DUP6 DUP8 PUSH2 0x9B8 JUMP JUMPDEST MLOAD SWAP1 PUSH2 0xA89 JUMP JUMPDEST PUSH1 0x1 ADD PUSH2 0xA18 JUMP JUMPDEST POP POP POP POP SWAP1 POP JUMP JUMPDEST SWAP1 SWAP2 SWAP7 POP PUSH2 0xA81 SWAP3 POP RETURNDATASIZE DUP1 SWAP2 DUP4 RETURNDATACOPY PUSH2 0xA79 DUP2 DUP4 PUSH2 0x550 JUMP JUMPDEST DUP2 ADD SWAP1 PUSH2 0x84C JUMP JUMPDEST SWAP5 CODESIZE DUP1 PUSH2 0xA07 JUMP JUMPDEST PUSH1 0x40 MLOAD PUSH4 0x3B058753 PUSH1 0xE0 SHL DUP2 MSTORE PUSH1 0x1 PUSH1 0x1 PUSH1 0xA0 SHL SUB DUP3 AND PUSH1 0x4 DUP3 ADD MSTORE SWAP2 SWAP5 SWAP4 SWAP1 SWAP3 SWAP2 PUSH1 0x20 DUP2 DUP1 PUSH1 0x24 DUP2 ADD SUB DUP2 PUSH32 0x0 PUSH1 0x1 PUSH1 0x1 PUSH1 0xA0 SHL SUB AND GAS STATICCALL SWAP1 DUP2 ISZERO PUSH2 0xB4F JUMPI PUSH1 0x0 SWAP2 PUSH2 0xB30 JUMPI JUMPDEST POP ISZERO PUSH2 0xB29 JUMPI PUSH1 0x0 JUMPDEST DUP6 MLOAD DUP2 LT ISZERO PUSH2 0xA59 JUMPI PUSH2 0xB21 PUSH2 0xB0F DUP3 DUP9 PUSH2 0x9B8 JUMP JUMPDEST MLOAD DUP5 PUSH2 0xB1A DUP6 PUSH2 0x6D6 JUMP JUMPDEST SWAP2 DUP8 PUSH2 0x633 JUMP JUMPDEST PUSH1 0x1 ADD PUSH2 0xAF9 JUMP JUMPDEST POP POP POP SWAP1 POP JUMP JUMPDEST PUSH2 0xB49 SWAP2 POP PUSH1 0x20 RETURNDATASIZE PUSH1 0x20 GT PUSH2 0x480 JUMPI PUSH2 0x472 DUP2 DUP4 PUSH2 0x550 JUMP JUMPDEST CODESIZE PUSH2 0xAF0 JUMP JUMPDEST PUSH2 0x487 JUMP INVALID LOG2 PUSH5 0x6970667358 0x22 SLT KECCAK256 0xBF MULMOD RETURN 0xBD LOG1 PUSH25 0xF8C092C8F99FAC5009ACC00DC9E4FC2720CD5A23D7943FD863 BYTE PUSH5 0x736F6C6343 STOP ADDMOD SHR STOP CALLER "},"methodIdentifiers":{"BASIS_POINTS_DENOMINATOR()":"cfa498a3","DIRECT_ROYALTY_BASIS_POINTS()":"0f8febda","INDIRECT_ROYALTY_BASIS_POINTS()":"5201c53a","MAX_DEPTH()":"a27154ba","distributeRoyalties(address,address,address,uint256,uint256)":"04be7716","getRoyaltiesForCreator(address)":"78e30153","pendingRoyalties(address)":"9a2fa9bb","registry()":"7b103999","withdrawRoyalties()":"21c34fcb"}}}}}