{
  "_format": "hh-sol-artifact-1",
  "contractName": "Registry",
  "sourceName": "contracts/Registry.sol",
  "abi": [
    {
      "inputs": [],
      "stateMutability": "nonpayable",
      "type": "constructor"
    },
    {
      "anonymous": false,
      "inputs": [
        {
          "indexed": true,
          "internalType": "address",
          "name": "buyer",
          "type": "address"
        },
        {
          "indexed": true,
          "internalType": "address",
          "name": "developer",
          "type": "address"
        },
        {
          "indexed": true,
          "internalType": "uint256",
          "name": "softwareId",
          "type": "uint256"
        },
        {
          "indexed": false,
          "internalType": "uint256",
          "name": "licenseId",
          "type": "uint256"
        }
      ],
      "name": "LicenseMinted",
      "type": "event"
    },
    {
      "anonymous": false,
      "inputs": [
        {
          "indexed": true,
          "internalType": "address",
          "name": "developer",
          "type": "address"
        },
        {
          "indexed": true,
          "internalType": "uint256",
          "name": "softwareId",
          "type": "uint256"
        },
        {
          "indexed": false,
          "internalType": "string",
          "name": "tokenURI",
          "type": "string"
        }
      ],
      "name": "SoftwareMinted",
      "type": "event"
    },
    {
      "inputs": [],
      "name": "createRepository",
      "outputs": [],
      "stateMutability": "nonpayable",
      "type": "function"
    },
    {
      "inputs": [
        {
          "internalType": "address",
          "name": "_sender",
          "type": "address"
        }
      ],
      "name": "getRepositoryContract",
      "outputs": [
        {
          "internalType": "address",
          "name": "",
          "type": "address"
        }
      ],
      "stateMutability": "view",
      "type": "function"
    },
    {
      "inputs": [
        {
          "internalType": "address",
          "name": "_sender",
          "type": "address"
        }
      ],
      "name": "isDeveloper",
      "outputs": [
        {
          "internalType": "bool",
          "name": "",
          "type": "bool"
        }
      ],
      "stateMutability": "view",
      "type": "function"
    },
    {
      "inputs": [
        {
          "internalType": "address",
          "name": "_repositoryAddress",
          "type": "address"
        }
      ],
      "name": "isRepository",
      "outputs": [
        {
          "internalType": "bool",
          "name": "",
          "type": "bool"
        }
      ],
      "stateMutability": "view",
      "type": "function"
    },
    {
      "inputs": [
        {
          "internalType": "address",
          "name": "buyer",
          "type": "address"
        },
        {
          "internalType": "address",
          "name": "developer",
          "type": "address"
        },
        {
          "internalType": "uint256",
          "name": "softwareId",
          "type": "uint256"
        }
      ],
      "name": "mintLicense",
      "outputs": [
        {
          "internalType": "uint256",
          "name": "",
          "type": "uint256"
        }
      ],
      "stateMutability": "nonpayable",
      "type": "function"
    },
    {
      "inputs": [
        {
          "internalType": "string",
          "name": "_tokenURI",
          "type": "string"
        },
        {
          "internalType": "address[]",
          "name": "addresses",
          "type": "address[]"
        },
        {
          "internalType": "uint256[][]",
          "name": "_tokenIds",
          "type": "uint256[][]"
        }
      ],
      "name": "mintSoftware",
      "outputs": [
        {
          "internalType": "uint256",
          "name": "",
          "type": "uint256"
        }
      ],
      "stateMutability": "nonpayable",
      "type": "function"
    },
    {
      "inputs": [
        {
          "internalType": "address",
          "name": "operator",
          "type": "address"
        },
        {
          "internalType": "address",
          "name": "from",
          "type": "address"
        },
        {
          "internalType": "uint256",
          "name": "tokenId",
          "type": "uint256"
        },
        {
          "internalType": "bytes",
          "name": "data",
          "type": "bytes"
        }
      ],
      "name": "onERC721Received",
      "outputs": [
        {
          "internalType": "bytes4",
          "name": "",
          "type": "bytes4"
        }
      ],
      "stateMutability": "pure",
      "type": "function"
    },
    {
      "inputs": [
        {
          "internalType": "address",
          "name": "_repository",
          "type": "address"
        },
        {
          "internalType": "uint256",
          "name": "_tokenId",
          "type": "uint256"
        }
      ],
      "name": "repositoryOwnsSoftware",
      "outputs": [
        {
          "internalType": "bool",
          "name": "",
          "type": "bool"
        }
      ],
      "stateMutability": "view",
      "type": "function"
    },
    {
      "inputs": [
        {
          "internalType": "address",
          "name": "_marketplace",
          "type": "address"
        }
      ],
      "name": "setMarketplace",
      "outputs": [],
      "stateMutability": "nonpayable",
      "type": "function"
    }
  ],
  "bytecode": "0x60a08060405234602a57336080526000805560018055613b1790816100308239608051816101b70152f35b600080fdfe608080604052600436101561001357600080fd5b60003560e01c908163150b7a0214610a12575080631a7c177e146109d057806338ffc194146107d65780633b058753146107975780633ff7ca361461069e5780634b8a72bf146102895780635eca4a701461024557806373ad6c2d1461019c5763bb6e2f861461008257600080fd5b34610197576040366003190112610197576001600160a01b036100a3610a80565b1680600052600460205260ff604060002054161561015257604051906331a9108f60e11b82526024356004830152602082602481845afa918215610146576000926100ff575b6040516001600160a01b03841683148152602090f35b6020813d60201161013e575b8161011860209383610aac565b8101031261013a57516001600160a01b038116810361013a57915060206100e9565b8280fd5b3d915061010b565b6040513d6000823e3d90fd5b60405162461bcd60e51b815260206004820152601b60248201527f4e6f7420612072656769737465726564207265706f7369746f727900000000006044820152606490fd5b600080fd5b34610197576020366003190112610197576101b5610a80565b7f00000000000000000000000000000000000000000000000000000000000000006001600160a01b0316330361020757600380546001600160a01b0319166001600160a01b0392909216919091179055005b60405162461bcd60e51b81526020600482015260166024820152752737ba103a34329031b7b73a3930b1ba1037bbb732b960511b6044820152606490fd5b34610197576020366003190112610197576001600160a01b03610266610a80565b166000526005602052602060018060a01b03604060002054161515604051908152f35b346101975760603660031901126101975760043567ffffffffffffffff8111610197573660238201121561019757806004013567ffffffffffffffff811161068857604051916102e3601f8301601f191660200184610aac565b8183523660248383010111610197578160009260246020930183860137830101526024359067ffffffffffffffff8211610197573660238301121561019757816004013561033081610ace565b9261033e6040519485610aac565b81845260208401906024829360051b8201019036821161019757602401915b818310610668575050506044359067ffffffffffffffff821161019757366023830112156101975781600401359061039482610ace565b926103a26040519485610aac565b828452602084016024819460051b830101913683116101975760248101915b8383106105e6575050505033600052600560205260018060a01b0360406000205416156105a157919033600052600560205260018060a01b03604060002054169260015492604051968794634c55b25760e11b865260048601526080602486015260206104316084870189610af5565b86810360031901604488015291518083529101929060005b81811061057f5750505060031984830301606485015251808252602082019160208260051b82010193926000915b838310610522578689602082808a038160008e5af1918215610146576000926104ef575b60208380846104ab600154610ae6565b6001557fc22959efb680c6d8228e97bab1f5c623b45568d2b75cc1b828362fe1eea2df65604051858152806104e4339488830190610af5565b0390a3604051908152f35b6020813d60201161051a575b8161050860209383610aac565b8101031261013a57519150602061049b565b3d91506104fb565b919395509193601f19828203018352855190602080835192838152019201906000905b8082106105675750505060208060019297019301930190928895949293610477565b90919260208060019286518152019401920190610545565b82516001600160a01b0316855289965060209485019490920191600101610449565b60405162461bcd60e51b815260206004820152601860248201527f4f6e6c7920646576656c6f706572732063616e206d696e7400000000000000006044820152606490fd5b823567ffffffffffffffff8111610197578201366043820112156101975760248101359061061382610ace565b916106216040519384610aac565b808352602060248185019260051b840101019136831161019757604401905b828210610658575050508152602092830192016103c1565b8135815260209182019101610640565b82356001600160a01b03811681036101975781526020928301920161035d565b634e487b7160e01b600052604160045260246000fd5b3461019757600036600319011261019757336000908152600560205260409020546001600160a01b031661075257604051612fab8082019082821067ffffffffffffffff831117610688576020918391610b3783393081520301906000f08015610146576001600160a01b03166000818152600460209081526040808320805460ff191660011790553383526005909152812080546001600160a01b0319169092179091555461074d90610ae6565b600055005b60405162461bcd60e51b815260206004820152601c60248201527f446576656c6f70657220616c72656164792072656769737465726564000000006044820152606490fd5b34610197576020366003190112610197576001600160a01b036107b8610a80565b166000526004602052602060ff604060002054166040519015158152f35b34610197576060366003190112610197576107ef610a80565b6107f7610a96565b6003546044359291906001600160a01b03163303610995576001600160a01b039081166000818152600560205260409020549091161561095057600090815260056020526040902054600254620186a0810193916001600160a01b03169084811161093a5761086590610ae6565b600255604051632276982b60e21b81526001600160a01b039093166004840181905260248401839052604484018590526020846064816000865af1938415610146576000946108e4575b507f7d6c807015644a13677b72fa64b4723e35fda24690206e70b5a90980a58e6e5660208096604051908152a4604051908152f35b9493506020853d602011610932575b8161090060209383610aac565b8101031261019757935192937f7d6c807015644a13677b72fa64b4723e35fda24690206e70b5a90980a58e6e566108af565b3d91506108f3565b634e487b7160e01b600052601160045260246000fd5b60405162461bcd60e51b815260206004820152601860248201527f446576656c6f706572206e6f74207265676973746572656400000000000000006044820152606490fd5b60405162461bcd60e51b81526020600482015260136024820152724e6f7420746865206d61726b6574706c61636560681b6044820152606490fd5b34610197576020366003190112610197576001600160a01b036109f1610a80565b166000526005602052602060018060a01b0360406000205416604051908152f35b3461019757608036600319011261019757610a2b610a80565b50610a34610a96565b5060643567ffffffffffffffff8111610197573660238201121561019757806004013567ffffffffffffffff8111610197573691016024011161019757630a85bd0160e11b8152602090f35b600435906001600160a01b038216820361019757565b602435906001600160a01b038216820361019757565b90601f8019910116810190811067ffffffffffffffff82111761068857604052565b67ffffffffffffffff81116106885760051b60200190565b600019811461093a5760010190565b919082519283825260005b848110610b21575050826000602080949584010152601f8019910116010190565b80602080928401015182828601015201610b0056fe60a06040523461036f57612fab6020813803918261001c81610374565b93849283398101031261036f57516001600160a01b038116810361036f576100446040610374565b906008825267536f66747761726560c01b60208301526100646040610374565b600381526229a7a360e91b602082015282519091906001600160401b03811161027a57600054600181811c91168015610365575b602082101461025a57601f8111610301575b506020601f821160011461029b5781929394600092610290575b50508160011b916000199060031b1c1916176000555b81516001600160401b03811161027a57600154600181811c91168015610270575b602082101461025a57601f81116101f5575b50602092601f82116001146101905792819293600092610185575b50508160011b916000199060031b1c1916176001555b600880546001600160a01b03191633179055620f42406009556000600a55608052604051612c11908161039a823960805181818161067001528181610ad30152610c960152f35b015190503880610128565b601f198216936001600052806000209160005b8681106101dd57508360019596106101c4575b505050811b0160015561013e565b015160001960f88460031b161c191690553880806101b6565b919260206001819286850151815501940192016101a3565b60016000527fb10e2d527612073b26eecdfd717e6a320cf44b4afac2b0732d9fcbe2b7fa0cf6601f830160051c81019160208410610250575b601f0160051c01905b818110610244575061010d565b60008155600101610237565b909150819061022e565b634e487b7160e01b600052602260045260246000fd5b90607f16906100fb565b634e487b7160e01b600052604160045260246000fd5b0151905038806100c4565b601f1982169060008052806000209160005b8181106102e9575095836001959697106102d0575b505050811b016000556100da565b015160001960f88460031b161c191690553880806102c2565b9192602060018192868b0151815501940192016102ad565b600080527f290decd9548b62a8d60345a988386fc84ba6bc95484008f6362f93160ef3e563601f830160051c8101916020841061035b575b601f0160051c01905b81811061034f57506100aa565b60008155600101610342565b9091508190610339565b90607f1690610098565b600080fd5b6040519190601f01601f191682016001600160401b0381118382101761027a5760405256fe608080604052600436101561001357600080fd5b60003560e01c90816301ffc9a7146113c15750806306fdde031461131c578063081812fc146112de578063095ea7b3146111ef578063162094c41461118357806323b872dd1461116c57806342842e0e1461113c57806355c1044014610f87578063615f45a814610f30578063616c553514610f195780636352211e14610ee957806364f9b0e614610d5057806366a8b8dc14610d3957806370a0823114610ce3578063853b592f14610cc5578063893d20e814610c8057806389da60ac14610aac5780638cf5624814610a8957806395d89b41146109bc57806398ab64ae146105f7578063a22cb46514610556578063a35391ac14610416578063b88d4fde146103a9578063c87b56dd14610372578063d30d968d146101f0578063e5c91052146101a85763e985e9c51461014857600080fd5b346101a35760403660031901126101a3576101616114c0565b6101696114d6565b9060018060a01b0316600052600560205260406000209060018060a01b0316600052602052602060ff604060002054166040519015158152f35b600080fd5b346101a35760403660031901126101a357602435600435600052600c602052604060002080548210156101a3576020916101e191611931565b90549060031b1c604051908152f35b346101a35760403660031901126101a3576102096114c0565b602435906000906001600160a01b0381169030820361025f575061024391506001600160a01b03905061023b8361253f565b16151561195f565b600052600760205260206004604060002001545b604051908152f35b6040516301ffc9a760e01b8152630204cbd160e51b600482015292939091602084602481845afa928315610367576102a46020946102d996889161033a575b506120f3565b60405163d30d968d60e01b81526001600160a01b03909116600482015260248101929092529092839190829081906044820190565b03915afa90811561032f5782916102f5575b5060209150610257565b90506020813d602011610327575b81610310602093836114ec565b81010312610323576020915051826102eb565b5080fd5b3d9150610303565b6040513d84823e3d90fd5b61035a9150863d8811610360575b61035281836114ec565b8101906120db565b8861029e565b503d610348565b6040513d87823e3d90fd5b346101a35760203660031901126101a3576103a5610391600435612ba8565b60405191829160208352602083019061149b565b0390f35b346101a35760803660031901126101a3576103c26114c0565b6103ca6114d6565b90604435606435926001600160401b0384116101a357366023850112156101a357610402610414943690602481600401359101611528565b9261040e838383611a13565b33612a6b565b005b346101a35760403660031901126101a35761042f6114c0565b6001600160a01b038116906024359060009030840361047a5750610469925061046490506001600160a01b0361023b8361253f565b612948565b905b6103a56040519283928361190c565b918193604051936301ffc9a760e01b8552630204cbd160e51b6004860152602085602481855afa94851561054b576104f1956104bc91869161053257506120f3565b6040516328d4e46b60e21b81526001600160a01b03909116600482015260248101929092529092839190829081906044820190565b03915afa90811561032f5782809261050c575b50509061046b565b90915061052b92503d8091833e61052381836114ec565b81019061214f565b8280610504565b61035a915060203d6020116103605761035281836114ec565b6040513d86823e3d90fd5b346101a35760403660031901126101a35761056f6114c0565b602435908115158092036101a3576001600160a01b03169081156105e257336000526005602052604060002082600052602052604060002060ff1981541660ff83161790556040519081527f17307eab39ab6107e8899845ad3d59bd9653f200f220920489ca2b5937696c3160203392a3005b50630b61174360e31b60005260045260246000fd5b346101a35760803660031901126101a3576004356024356001600160401b0381116101a35761062a90369060040161155f565b906044356001600160401b0381116101a35761064a903690600401611709565b6064356001600160401b0381116101a357610669903690600401611777565b9261069e337f00000000000000000000000000000000000000000000000000000000000000006001600160a01b03161461245c565b604051608081018181106001600160401b0382111761088d576040908152328252602080830184815283830186815260608501898152600a546000908152600b90945293909220935184546001600160a01b0319166001600160a01b039190911617845551805192939260018401916001600160401b03821161088d578190610727845461162b565b601f811161097f575b50602090601f831160011461091a5760009261090f575b50508160011b916000199060031b1c19161790555b5180519060028301906001600160401b03831161088d57600160401b831161088d5760209061079084845481865585612502565b0190600052602060002060005b8381106108f257505050506003019051805190600160401b821161088d5782548284558083106108a3575b50602001916000526020600020916000905b82821061082f5750505050600a5460001981146108195760209461080e9360016108089301600a55856122bf565b82612576565b610257813033612a0f565b634e487b7160e01b600052601160045260246000fd5b80518051906001600160401b03821161088d5760209061084f8388612525565b0185600052602060002060005b8381106108795750505050600160208192019401910190926107da565b60019060208451940193818401550161085c565b634e487b7160e01b600052604160045260246000fd5b8360005282602060002091820191015b8181106108c057506107c8565b600190805460008255806108d6575b50016108b3565b6108ec90826000526020600020908101906124eb565b8a6108cf565b82516001600160a01b03168183015560209092019160010161079d565b015190508a80610747565b60008581528281209350601f198516905b818110610967575090846001959493921061094e575b505050811b01905561075c565b015160001960f88460031b161c191690558a8080610941565b9293602060018192878601518155019501930161092b565b6109ac90856000526020600020601f850160051c810191602086106109b2575b601f0160051c01906124eb565b8b610730565b909150819061099f565b346101a35760003660031901126101a35760405160006001546109de8161162b565b8084529060018116908115610a655750600114610a06575b6103a583610391818503826114ec565b600160009081527fb10e2d527612073b26eecdfd717e6a320cf44b4afac2b0732d9fcbe2b7fa0cf6939250905b808210610a4b575090915081016020016103916109f6565b919260018160209254838588010152019101909291610a33565b60ff191660208086019190915291151560051b8401909101915061039190506109f6565b346101a35760203660031901126101a3576020604051620f424060043510158152f35b346101a35760603660031901126101a357610ac56114c0565b6024359060443590610b01337f00000000000000000000000000000000000000000000000000000000000000006001600160a01b03161461245c565b6001600160a01b03610b128461253f565b1615610c3b57604090815193610b2883866114ec565b60018552601f1983018036602088013730610b4287611bbf565b5283516040969091610b5488846114ec565b600183529186939194928860209950601f190160005b818110610c2957505090610c2395610bb792885190610b898a836114ec565b60018252368c83013784610b9c82611bbf565b52610ba683611bbf565b52610bb082611bbf565b50856122bf565b610c09610bc382612ba8565b610c03602c885180936b6c6963656e73652d666f722d60a01b8d830152610bf2815180928f8686019101611478565b81010301601f1981018352826114ec565b84612576565b600052600c8652610c1d8285600020611c21565b33612a0f565b51908152f35b60608185018c01528996508a01610b6a565b60405162461bcd60e51b815260206004820152601760248201527f536f66747761726520646f6573206e6f742065786973740000000000000000006044820152606490fd5b346101a35760003660031901126101a3576040517f00000000000000000000000000000000000000000000000000000000000000006001600160a01b03168152602090f35b346101a35760003660031901126101a3576020600a54604051908152f35b346101a35760203660031901126101a3576001600160a01b03610d046114c0565b168015610d235760005260036020526020604060002054604051908152f35b6322718ad960e21b600052600060045260246000fd5b346101a357610414610d4a366117f5565b916122bf565b346101a35760403660031901126101a357610d696114c0565b6001600160a01b0381169060243590600090308403610e725750909150610d9c90506001600160a01b0361023b8361253f565b6000908152600760205260408120610db6600382016128f4565b91610dc183516124a1565b906001819301925b8451811015610e5e576001600160a01b03610de48287611bcc565b51166001600160a01b031682526020848152604080842090518154808252918552828520909283019185905b808210610e465750505090610e2a816001949303826114ec565b610e348286611bcc565b52610e3f8185611bcc565b5001610dc9565b90919260016020819286548152019401920190610e10565b50509050906103a56040519283928361190c565b918193604051936301ffc9a760e01b8552630204cbd160e51b6004860152602085602481855afa94851561054b576104f195610eb491869161053257506120f3565b60405163327cd87360e11b81526001600160a01b03909116600482015260248101929092529092839190829081906044820190565b346101a35760203660031901126101a3576020610f0760043561253f565b6040516001600160a01b039091168152f35b346101a357610414610f2a366117f5565b91611c56565b346101a35760203660031901126101a3576004356000908152600b6020526040902080546001600160a01b031690610f6a90600101611665565b906103a5604051928392835260406020840152604083019061149b565b346101a35760603660031901126101a357610fa06114c0565b602435906044356001600160401b0381116101a357610fc39036906004016115ce565b6001600160a01b03821630811492919060005b825181101561041457610fe98184611bcc565b516000526007602052604060002090600182019186604060008681528560205220541561112a575b6110c95760044291015410156110665761103987604060019460009087825260205220611c21565b6110606110468286611bcc565b5161105a6110548488611bcc565b5161253f565b9061279f565b01610fd6565b60405162461bcd60e51b815260206004820152603560248201527f4552435f353532313a2074686520726566657272656420724e4654206e65656460448201527439903a37903132903090383932b232b1b2b9b9b7b960591b6064820152608490fd5b60405162461bcd60e51b815260206004820152603360248201527f4552435f353532313a2074686973206d75737420626520616e2065787465726e604482015272616c20636f6e7472616374206164647265737360681b6064820152608490fd5b6111378760038401611be0565b611011565b346101a35761041461114d3661157d565b906040519261115d6020856114ec565b6000845261040e838383611a13565b346101a35761041461117d3661157d565b91611a13565b346101a35760403660031901126101a3576024356004356001600160401b0382116101a3576111b961041492369060040161155f565b906111ce6001600160a01b0361023b8361253f565b6111ea6111da8261253f565b6001600160a01b031633146119ab565b612576565b346101a35760403660031901126101a3576112086114c0565b6024356112148161253f565b331515806112cb575b8061129d575b6112885781906001600160a01b0384811691167f8c5be1e5ebec7d5bd14f71427d1e84f3dd0314c0f7b2291e5b200ac8c7c3b925600080a4600090815260046020526040902080546001600160a01b0319166001600160a01b03909216919091179055005b63a9fbf51f60e01b6000523360045260246000fd5b506001600160a01b038116600090815260056020908152604080832033845290915290205460ff1615611223565b506001600160a01b03811633141561121d565b346101a35760203660031901126101a3576004356112fb8161253f565b506000526004602052602060018060a01b0360406000205416604051908152f35b346101a35760003660031901126101a3576040516000805461133d8161162b565b8084529060018116908115610a655750600114611364576103a583610391818503826114ec565b60008080527f290decd9548b62a8d60345a988386fc84ba6bc95484008f6362f93160ef3e563939250905b8082106113a7575090915081016020016103916109f6565b91926001816020925483858801015201910190929161138f565b346101a35760203660031901126101a3576004359063ffffffff60e01b82168092036101a3576020916374342b5560e01b8114908115611467575b811561140a575b5015158152f35b632483248360e11b811491508115611424575b5083611403565b6380ac58cd60e01b811491508115611456575b8115611445575b508361141d565b6301ffc9a760e01b1490508361143e565b635b5e139f60e01b81149150611437565b630204cbd160e51b811491506113fc565b60005b83811061148b5750506000910152565b818101518382015260200161147b565b906020916114b481518092818552858086019101611478565b601f01601f1916010190565b600435906001600160a01b03821682036101a357565b602435906001600160a01b03821682036101a357565b90601f801991011681019081106001600160401b0382111761088d57604052565b6001600160401b03811161088d57601f01601f191660200190565b9291926115348261150d565b9161154260405193846114ec565b8294818452818301116101a3578281602093846000960137010152565b9080601f830112156101a35781602061157a93359101611528565b90565b60609060031901126101a3576004356001600160a01b03811681036101a357906024356001600160a01b03811681036101a3579060443590565b6001600160401b03811161088d5760051b60200190565b9080601f830112156101a35781356115e5816115b7565b926115f360405194856114ec565b81845260208085019260051b8201019283116101a357602001905b82821061161b5750505090565b813581526020918201910161160e565b90600182811c9216801561165b575b602083101461164557565b634e487b7160e01b600052602260045260246000fd5b91607f169161163a565b90604051918260008254926116798461162b565b80845293600181169081156116e757506001146116a0575b5061169e925003836114ec565b565b90506000929192526020600020906000915b8183106116cb57505090602061169e9282010138611691565b60209193508060019154838589010152019101909184926116b2565b90506020925061169e94915060ff191682840152151560051b82010138611691565b9080601f830112156101a357813590611721826115b7565b9261172f60405194856114ec565b82845260208085019360051b8201019182116101a357602001915b8183106117575750505090565b82356001600160a01b03811681036101a35781526020928301920161174a565b9080601f830112156101a357813561178e816115b7565b9261179c60405194856114ec565b81845260208085019260051b820101918383116101a35760208201905b8382106117c857505050505090565b81356001600160401b0381116101a3576020916117ea878480948801016115ce565b8152019101906117b9565b60606003198201126101a357600435916024356001600160401b0381116101a3578261182391600401611709565b91604435906001600160401b0382116101a35761157a91600401611777565b906020808351928381520192019060005b8181106118605750505090565b82516001600160a01b0316845260209384019390920191600101611853565b906020808351928381520192019060005b81811061189d5750505090565b8251845260209384019390920191600101611890565b9080602083519182815201916020808360051b8301019401926000915b8383106118df57505050505090565b90919293946020806118fd600193601f19868203018752895161187f565b970193019301919392906118d0565b909161192361157a93604084526040840190611842565b9160208184039101526118b3565b80548210156119495760005260206000200190600090565b634e487b7160e01b600052603260045260246000fd5b1561196657565b60405162461bcd60e51b815260206004820152601e60248201527f4552435f353532313a20746f6b656e204944206e6f74206578697374656400006044820152606490fd5b156119b257565b60405162461bcd60e51b815260206004820152603360248201527f4552435f353532313a207472616e736665722063616c6c6572206973206e6f74604482015272081bdddb995c881b9bdc88185c1c1c9bdd9959606a1b6064820152608490fd5b6001600160a01b0390911691908215611ba9576000828152600260205260408120546001600160a01b0316938391859033151580611b11575b507fddf252ad1be2c89b69c2b068fc378daa952ba7f163c4a11628f55a4df523b3ef9082611adc575b83815260036020526040812060018154019055848152600260205260408120846bffffffffffffffffffffffff60a01b82541617905580a46001600160a01b0316808303611ac257505050565b6364283d7b60e01b60005260045260245260445260646000fd5b600085815260046020526040902080546001600160a01b03191690558281526003602052604081208054600019019055611a75565b915091925080611b5a575b15611b2b579084849238611a4c565b839085611b4457602491637e27328960e01b8252600452fd5b60449163177e802f60e01b825233600452602452fd5b503385148015611b88575b80611b1c5750838152600460205260408120546001600160a01b03163314611b1c565b5084815260056020908152604080832033845290915281205460ff16611b65565b633250574960e11b600052600060045260246000fd5b8051156119495760200190565b80518210156119495760209160051b010190565b8054600160401b81101561088d57611bfd91600182018155611931565b81546001600160a01b0393841660039290921b91821b9390911b1916919091179055565b8054600160401b81101561088d57611c3e91600182018155611931565b819291549060031b91821b91600019901b1916179055565b9281518351036120775760005b8351811015611cdf57611c768185611bcc565b515115611c8557600101611c63565b60405162461bcd60e51b815260206004820152602c60248201527f4552435f353532313a2074686520726566657272696e67206c6973742063616e60448201526b6e6f7420626520656d70747960a01b6064820152608490fd5b5091929092611cf06111da8361253f565b81600052600760205260406000209160005b8551811015611de85760406001600160a01b03611d1f8389611bcc565b51166001600160a01b031660009081526020869052205415611dc3575b611d468184611bcc565b5160406001600160a01b03611d5b848a611bcc565b51166001600160a01b031660009081526020879052208151916001600160401b03831161088d57602090611d8f8484612525565b0190600052602060002060005b838110611daf5750505050600101611d02565b600190602084519401938184015501611d9c565b611de36001600160a01b03611dd88389611bcc565b511660028601611be0565b611d3c565b509391600442910155611dfb338561279f565b60005b825181101561207057306001600160a01b03611e1a8386611bcc565b511603611f7857309360005b611e308385611bcc565b5151811015611f6b57611e4d81611e478587611bcc565b51611bcc565b51600090815260076020526040908190206001810192916001600160a01b03611e76878a611bcc565b51166001600160a01b031660009081526020859052205415611f46575b611ea182611e478789611bcc565b518914611ef557600442910154101561106657611ecc8860406001946000908b825260205220611c21565b611eef611edd82611e478789611bcc565b5161105a61105484611e47898b611bcc565b01611e26565b60405162461bcd60e51b8152602060048201526024808201527f4552435f353532313a2073656c662d7265666572656e6365206e6f7420616c6c6044820152631bddd95960e21b6064820152608490fd5b611f666001600160a01b03611f5b878a611bcc565b511660038301611be0565b611e93565b5093506001905b01611dfe565b6001600160a01b03611f8a8285611bcc565b516040516301ffc9a760e01b8152630204cbd160e51b600482015291169190602081602481865afa90811561204657600091612052575b50611fd0575b60019150611f72565b611fda8184611bcc565b5191803b156101a35761201c600093918492604051958680948193630157041160e61b83523060048401528d602484015260606044840152606483019061187f565b03925af191821561204657600192612035575b50611fc7565b6000612040916114ec565b3861202f565b6040513d6000823e3d90fd5b61206a915060203d81116103605761035281836114ec565b38611fc1565b5050509050565b60405162461bcd60e51b815260206004820152603660248201527f41646472657373657320616e6420546f6b656e494420617272617973206d75736044820152750e840d0c2ecca40e8d0ca40e6c2daca40d8cadccee8d60531b6064820152608490fd5b908160209103126101a3575180151581036101a35790565b156120fa57565b60405162461bcd60e51b815260206004820152602760248201527f4552435f353532313a2074617267657420636f6e7472616374206e6f742073756044820152661c1c1bdc9d195960ca1b6064820152608490fd5b91906040838203126101a35782516001600160401b0381116101a357830181601f820112156101a3578051612183816115b7565b9161219160405193846114ec565b81835260208084019260051b820101908482116101a357602001915b81831061229f57505050926020810151906001600160401b0382116101a357019080601f830112156101a3578151906121e5826115b7565b926121f360405194856114ec565b82845260208085019360051b820101908282116101a35760208101935b82851061221f57505050505090565b84516001600160401b0381116101a357820184603f820112156101a35760208101519061224b826115b7565b9161225960405193846114ec565b8083526020808085019260051b84010101918783116101a357604001905b82821061228f57505050815260209485019401612210565b8151815260209182019101612277565b82516001600160a01b03811681036101a3578152602092830192016121ad565b9092916020936040516122d286826114ec565b600081523315611ba9576001600160a01b036122ee85336126d1565b1661244657333b612326575b509080929394505115158061231c575b61231357505050565b61169e92611c56565b508051151561230a565b856123609160405180938192630a85bd0160e11b83523360048401526000602484015288604484015260806064840152608483019061149b565b03816000335af18091600091612405575b50906123c757853d156123c0573d6123888161150d565b9061239660405192836114ec565b81523d60008383013e5b805191826123bd57633250574960e11b6000523360045260246000fd5b01fd5b60606123a0565b93945091929091906001600160e01b03191663757a42ff60e11b016123f05790839291386122fa565b633250574960e11b6000523360045260246000fd5b8781813d831161243f575b61241a81836114ec565b810103126103235751906001600160e01b03198216820361243c575038612371565b80fd5b503d612410565b6339e3563760e11b600052600060045260246000fd5b1561246357565b60405162461bcd60e51b81526020600482015260166024820152752737ba103a34329031b7b73a3930b1ba1037bbb732b960511b6044820152606490fd5b906124ab826115b7565b6124b860405191826114ec565b82815280926124c9601f19916115b7565b019060005b8281106124da57505050565b8060606020809385010152016124ce565b8181106124f6575050565b600081556001016124eb565b9181811061250f57505050565b61169e92600052602060002091820191016124eb565b90600160401b811161088d57815481835561169e92612502565b6000818152600260205260409020546001600160a01b0316908115612562575090565b637e27328960e01b60005260045260246000fd5b919091806000526006602052604060002083516001600160401b03811161088d576125a1825461162b565b601f811161269f575b506020601f821160011461261357908060209493927ff8e1a15aba9398e019f0b49df1a4fde98ee17ae345cb5f6b5e2c27f5033e8ce79697600092612608575b50508160011b916000199060031b1c19161790555b604051908152a1565b0151905038806125ea565b601f1982169583600052816000209660005b818110612687575096600192849260209796957ff8e1a15aba9398e019f0b49df1a4fde98ee17ae345cb5f6b5e2c27f5033e8ce7999a1061266e575b505050811b0190556125ff565b015160001960f88460031b161c19169055388080612661565b83830151895560019098019760209384019301612625565b6126cb90836000526020600020601f840160051c810191602085106109b257601f0160051c01906124eb565b386125aa565b6000828152600260205260409020546001600160a01b0316919082612768575b6001600160a01b03168061274e575b8160005260026020526040600020816bffffffffffffffffffffffff60a01b825416179055827fddf252ad1be2c89b69c2b068fc378daa952ba7f163c4a11628f55a4df523b3ef600080a490565b806000526003602052604060002060018154019055612700565b600082815260046020526040902080546001600160a01b0319169055826000526003602052604060002060001981540190556126f1565b906127a982612948565b92600091818352600760205260408320916127c6600384016128f4565b916127d183516124a1565b956001869501945b845181101561286e576001600160a01b036127f48287611bcc565b51166001600160a01b031687526020868152604080892090518154808252918a52828a2090928301918a905b808210612856575050509061283a816001949303826114ec565b612844828b611bcc565b5261284f818a611bcc565b50016127d9565b90919260016020819286548152019401920190612820565b5090927f81bed52c04e8cd65796985202162bad7e20a8ffaa732fe2e0a0bc79f687e4d6695506128ba94506128d6906128c86128ef949899604051978897608089526080890190611842565b9087820360208901526118b3565b908582036040870152611842565b83810360608501526001600160a01b03909116966118b3565b0390a3565b906040519182815491828252602082019060005260206000209260005b81811061292657505061169e925003836114ec565b84546001600160a01b0316835260019485019487945060209093019201612911565b6000526007602052604060002090612962600283016128f4565b9161296d83516124a1565b9060005b8451811015612a0a5760406001600160a01b0361298e8388611bcc565b51166001600160a01b0316600090815260208481529181206040518154808252918352838320909384019290915b8082106129f257505050906129d6816001949303826114ec565b6129e08286611bcc565b526129eb8185611bcc565b5001612971565b909192600160208192865481520194019201906129bc565b505090565b919291906001600160a01b03811615611ba9576001600160a01b0390612a369085906126d1565b169081612a525783637e27328960e01b60005260045260246000fd5b919290916001600160a01b0316808303611ac257505050565b823b612a79575b5050505050565b604051630a85bd0160e11b81526001600160a01b039182166004820152918116602483015260448201939093526080606482015291169160209082908190612ac590608483019061149b565b03816000865af18091600091612b65575b5090612b2f57503d15612b28573d612aed8161150d565b90612afb60405192836114ec565b81523d6000602083013e5b80519081612b235782633250574960e11b60005260045260246000fd5b602001fd5b6060612b06565b6001600160e01b03191663757a42ff60e11b01612b5157503880808080612a72565b633250574960e11b60005260045260246000fd5b6020813d602011612ba0575b81612b7e602093836114ec565b810103126103235751906001600160e01b03198216820361243c575038612ad6565b3d9150612b71565b612bb18161253f565b506000526006602052612bc76040600020611665565b6000604051612bd76020826114ec565b529056fea2646970667358221220603e68b655e7cd3519816a70ff79d0b4aa89ccbc9167f4f75b2129a8a00a282e64736f6c634300081c0033a26469706673582212201b1250d8c9386faba2a509af4d0203dd47dfd7462a67c1578b67f53b86c2f85564736f6c634300081c0033",
  "linkReferences": {},
  "deployedLinkReferences": {}
}