{
  "_format": "hh-sol-artifact-1",
  "contractName": "Registry",
  "sourceName": "contracts/Registry.sol",
  "abi": [
    {
      "inputs": [],
      "stateMutability": "nonpayable",
      "type": "constructor"
    },
    {
      "anonymous": false,
      "inputs": [
        {
          "indexed": true,
          "internalType": "address",
          "name": "buyer",
          "type": "address"
        },
        {
          "indexed": true,
          "internalType": "address",
          "name": "developer",
          "type": "address"
        },
        {
          "indexed": true,
          "internalType": "uint256",
          "name": "softwareId",
          "type": "uint256"
        },
        {
          "indexed": false,
          "internalType": "uint256",
          "name": "licenseId",
          "type": "uint256"
        }
      ],
      "name": "LicenseMinted",
      "type": "event"
    },
    {
      "anonymous": false,
      "inputs": [
        {
          "indexed": true,
          "internalType": "address",
          "name": "developer",
          "type": "address"
        },
        {
          "indexed": true,
          "internalType": "uint256",
          "name": "softwareId",
          "type": "uint256"
        },
        {
          "indexed": false,
          "internalType": "string",
          "name": "tokenURI",
          "type": "string"
        }
      ],
      "name": "SoftwareMinted",
      "type": "event"
    },
    {
      "inputs": [],
      "name": "createRepository",
      "outputs": [],
      "stateMutability": "nonpayable",
      "type": "function"
    },
    {
      "inputs": [
        {
          "internalType": "address",
          "name": "_sender",
          "type": "address"
        }
      ],
      "name": "getRepositoryContract",
      "outputs": [
        {
          "internalType": "address",
          "name": "",
          "type": "address"
        }
      ],
      "stateMutability": "view",
      "type": "function"
    },
    {
      "inputs": [
        {
          "internalType": "address",
          "name": "_sender",
          "type": "address"
        }
      ],
      "name": "isDeveloper",
      "outputs": [
        {
          "internalType": "bool",
          "name": "",
          "type": "bool"
        }
      ],
      "stateMutability": "view",
      "type": "function"
    },
    {
      "inputs": [
        {
          "internalType": "address",
          "name": "_repositoryAddress",
          "type": "address"
        }
      ],
      "name": "isRepository",
      "outputs": [
        {
          "internalType": "bool",
          "name": "",
          "type": "bool"
        }
      ],
      "stateMutability": "view",
      "type": "function"
    },
    {
      "inputs": [
        {
          "internalType": "address",
          "name": "buyer",
          "type": "address"
        },
        {
          "internalType": "address",
          "name": "developer",
          "type": "address"
        },
        {
          "internalType": "uint256",
          "name": "softwareId",
          "type": "uint256"
        }
      ],
      "name": "mintLicense",
      "outputs": [
        {
          "internalType": "uint256",
          "name": "",
          "type": "uint256"
        }
      ],
      "stateMutability": "nonpayable",
      "type": "function"
    },
    {
      "inputs": [
        {
          "internalType": "string",
          "name": "_tokenURI",
          "type": "string"
        },
        {
          "internalType": "address[]",
          "name": "addresses",
          "type": "address[]"
        },
        {
          "internalType": "uint256[][]",
          "name": "_tokenIds",
          "type": "uint256[][]"
        }
      ],
      "name": "mintSoftware",
      "outputs": [
        {
          "internalType": "uint256",
          "name": "",
          "type": "uint256"
        }
      ],
      "stateMutability": "nonpayable",
      "type": "function"
    },
    {
      "inputs": [
        {
          "internalType": "address",
          "name": "operator",
          "type": "address"
        },
        {
          "internalType": "address",
          "name": "from",
          "type": "address"
        },
        {
          "internalType": "uint256",
          "name": "tokenId",
          "type": "uint256"
        },
        {
          "internalType": "bytes",
          "name": "data",
          "type": "bytes"
        }
      ],
      "name": "onERC721Received",
      "outputs": [
        {
          "internalType": "bytes4",
          "name": "",
          "type": "bytes4"
        }
      ],
      "stateMutability": "nonpayable",
      "type": "function"
    },
    {
      "inputs": [
        {
          "internalType": "address",
          "name": "_repository",
          "type": "address"
        },
        {
          "internalType": "uint256",
          "name": "_tokenId",
          "type": "uint256"
        }
      ],
      "name": "repositoryOwnsSoftware",
      "outputs": [
        {
          "internalType": "bool",
          "name": "",
          "type": "bool"
        }
      ],
      "stateMutability": "view",
      "type": "function"
    },
    {
      "inputs": [
        {
          "internalType": "address",
          "name": "_marketplace",
          "type": "address"
        }
      ],
      "name": "setMarketplace",
      "outputs": [],
      "stateMutability": "nonpayable",
      "type": "function"
    }
  ],
  "bytecode": "0x60a08060405234602a57336080526000805560018055613a3190816100308239608051816101b70152f35b600080fdfe608080604052600436101561001357600080fd5b60003560e01c908163150b7a0214610a12575080631a7c177e146109d057806338ffc194146107d65780633b058753146107975780633ff7ca361461069e5780634b8a72bf146102895780635eca4a701461024557806373ad6c2d1461019c5763bb6e2f861461008257600080fd5b34610197576040366003190112610197576001600160a01b036100a3610a80565b1680600052600460205260ff604060002054161561015257604051906331a9108f60e11b82526024356004830152602082602481845afa918215610146576000926100ff575b6040516001600160a01b03841683148152602090f35b6020813d60201161013e575b8161011860209383610aac565b8101031261013a57516001600160a01b038116810361013a57915060206100e9565b8280fd5b3d915061010b565b6040513d6000823e3d90fd5b60405162461bcd60e51b815260206004820152601b60248201527f4e6f7420612072656769737465726564207265706f7369746f727900000000006044820152606490fd5b600080fd5b34610197576020366003190112610197576101b5610a80565b7f00000000000000000000000000000000000000000000000000000000000000006001600160a01b0316330361020757600380546001600160a01b0319166001600160a01b0392909216919091179055005b60405162461bcd60e51b81526020600482015260166024820152752737ba103a34329031b7b73a3930b1ba1037bbb732b960511b6044820152606490fd5b34610197576020366003190112610197576001600160a01b03610266610a80565b166000526005602052602060018060a01b03604060002054161515604051908152f35b346101975760603660031901126101975760043567ffffffffffffffff8111610197573660238201121561019757806004013567ffffffffffffffff811161068857604051916102e3601f8301601f191660200184610aac565b8183523660248383010111610197578160009260246020930183860137830101526024359067ffffffffffffffff8211610197573660238301121561019757816004013561033081610ace565b9261033e6040519485610aac565b81845260208401906024829360051b8201019036821161019757602401915b818310610668575050506044359067ffffffffffffffff821161019757366023830112156101975781600401359061039482610ace565b926103a26040519485610aac565b828452602084016024819460051b830101913683116101975760248101915b8383106105e6575050505033600052600560205260018060a01b0360406000205416156105a157919033600052600560205260018060a01b03604060002054169260015492604051968794634c55b25760e11b865260048601526080602486015260206104316084870189610af5565b86810360031901604488015291518083529101929060005b81811061057f5750505060031984830301606485015251808252602082019160208260051b82010193926000915b838310610522578689602082808a038160008e5af1918215610146576000926104ef575b60208380846104ab600154610ae6565b6001557fc22959efb680c6d8228e97bab1f5c623b45568d2b75cc1b828362fe1eea2df65604051858152806104e4339488830190610af5565b0390a3604051908152f35b6020813d60201161051a575b8161050860209383610aac565b8101031261013a57519150602061049b565b3d91506104fb565b919395509193601f19828203018352855190602080835192838152019201906000905b8082106105675750505060208060019297019301930190928895949293610477565b90919260208060019286518152019401920190610545565b82516001600160a01b0316855289965060209485019490920191600101610449565b60405162461bcd60e51b815260206004820152601860248201527f4f6e6c7920646576656c6f706572732063616e206d696e7400000000000000006044820152606490fd5b823567ffffffffffffffff8111610197578201366043820112156101975760248101359061061382610ace565b916106216040519384610aac565b808352602060248185019260051b840101019136831161019757604401905b828210610658575050508152602092830192016103c1565b8135815260209182019101610640565b82356001600160a01b03811681036101975781526020928301920161035d565b634e487b7160e01b600052604160045260246000fd5b3461019757600036600319011261019757336000908152600560205260409020546001600160a01b031661075257604051612ec58082019082821067ffffffffffffffff831117610688576020918391610b3783393081520301906000f08015610146576001600160a01b03166000818152600460209081526040808320805460ff191660011790553383526005909152812080546001600160a01b0319169092179091555461074d90610ae6565b600055005b60405162461bcd60e51b815260206004820152601c60248201527f446576656c6f70657220616c72656164792072656769737465726564000000006044820152606490fd5b34610197576020366003190112610197576001600160a01b036107b8610a80565b166000526004602052602060ff604060002054166040519015158152f35b34610197576060366003190112610197576107ef610a80565b6107f7610a96565b6003546044359291906001600160a01b03163303610995576001600160a01b039081166000818152600560205260409020549091161561095057600090815260056020526040902054600254620186a0810193916001600160a01b03169084811161093a5761086590610ae6565b600255604051632276982b60e21b81526001600160a01b039093166004840181905260248401839052604484018590526020846064816000865af1938415610146576000946108e4575b507f7d6c807015644a13677b72fa64b4723e35fda24690206e70b5a90980a58e6e5660208096604051908152a4604051908152f35b9493506020853d602011610932575b8161090060209383610aac565b8101031261019757935192937f7d6c807015644a13677b72fa64b4723e35fda24690206e70b5a90980a58e6e566108af565b3d91506108f3565b634e487b7160e01b600052601160045260246000fd5b60405162461bcd60e51b815260206004820152601860248201527f446576656c6f706572206e6f74207265676973746572656400000000000000006044820152606490fd5b60405162461bcd60e51b81526020600482015260136024820152724e6f7420746865206d61726b6574706c61636560681b6044820152606490fd5b34610197576020366003190112610197576001600160a01b036109f1610a80565b166000526005602052602060018060a01b0360406000205416604051908152f35b3461019757608036600319011261019757610a2b610a80565b50610a34610a96565b5060643567ffffffffffffffff8111610197573660238201121561019757806004013567ffffffffffffffff8111610197573691016024011161019757630a85bd0160e11b8152602090f35b600435906001600160a01b038216820361019757565b602435906001600160a01b038216820361019757565b90601f8019910116810190811067ffffffffffffffff82111761068857604052565b67ffffffffffffffff81116106885760051b60200190565b600019811461093a5760010190565b919082519283825260005b848110610b21575050826000602080949584010152601f8019910116010190565b80602080928401015182828601015201610b0056fe60a06040523461036f57612ec56020813803918261001c81610374565b93849283398101031261036f57516001600160a01b038116810361036f576100446040610374565b906008825267536f66747761726560c01b60208301526100646040610374565b600381526229a7a360e91b602082015282519091906001600160401b03811161027a57600054600181811c91168015610365575b602082101461025a57601f8111610301575b506020601f821160011461029b5781929394600092610290575b50508160011b916000199060031b1c1916176000555b81516001600160401b03811161027a57600154600181811c91168015610270575b602082101461025a57601f81116101f5575b50602092601f82116001146101905792819293600092610185575b50508160011b916000199060031b1c1916176001555b600880546001600160a01b03191633179055620f42406009556000600a55608052604051612b2b908161039a823960805181818161060701528181610a6b0152610c2e0152f35b015190503880610128565b601f198216936001600052806000209160005b8681106101dd57508360019596106101c4575b505050811b0160015561013e565b015160001960f88460031b161c191690553880806101b6565b919260206001819286850151815501940192016101a3565b60016000527fb10e2d527612073b26eecdfd717e6a320cf44b4afac2b0732d9fcbe2b7fa0cf6601f830160051c81019160208410610250575b601f0160051c01905b818110610244575061010d565b60008155600101610237565b909150819061022e565b634e487b7160e01b600052602260045260246000fd5b90607f16906100fb565b634e487b7160e01b600052604160045260246000fd5b0151905038806100c4565b601f1982169060008052806000209160005b8181106102e9575095836001959697106102d0575b505050811b016000556100da565b015160001960f88460031b161c191690553880806102c2565b9192602060018192868b0151815501940192016102ad565b600080527f290decd9548b62a8d60345a988386fc84ba6bc95484008f6362f93160ef3e563601f830160051c8101916020841061035b575b601f0160051c01905b81811061034f57506100aa565b60008155600101610342565b9091508190610339565b90607f1690610098565b600080fd5b6040519190601f01601f191682016001600160401b0381118382101761027a5760405256fe608080604052600436101561001357600080fd5b60003560e01c90816301ffc9a7146112e45750806306fdde031461123f578063081812fc14611201578063095ea7b314611112578063162094c4146110a657806323b872dd1461108f57806342842e0e1461105f57806355c1044014610eaa578063616c553514610e935780636352211e14610e6357806364f9b0e614610cca57806366a8b8dc14610cb357806370a0823114610c5d578063893d20e814610c1857806389da60ac14610a445780638cf5624814610a2157806395d89b411461095357806398ab64ae1461058e578063a22cb465146104ed578063a35391ac146103ad578063b88d4fde14610340578063c87b56dd14610309578063d30d968d146101875763e985e9c51461012757600080fd5b34610182576040366003190112610182576101406113e3565b6101486113f9565b9060018060a01b0316600052600560205260406000209060018060a01b0316600052602052602060ff604060002054166040519015158152f35b600080fd5b34610182576040366003190112610182576101a06113e3565b602435906000906001600160a01b038116903082036101f657506101da91506001600160a01b0390506101d2836123c0565b1615156117b0565b600052600760205260206004604060002001545b604051908152f35b6040516301ffc9a760e01b8152630204cbd160e51b600482015292939091602084602481845afa9283156102fe5761023b6020946102709688916102d1575b50611f72565b60405163d30d968d60e01b81526001600160a01b03909116600482015260248101929092529092839190829081906044820190565b03915afa9081156102c657829161028c575b50602091506101ee565b90506020813d6020116102be575b816102a76020938361140f565b810103126102ba57602091505182610282565b5080fd5b3d915061029a565b6040513d84823e3d90fd5b6102f19150863d88116102f7575b6102e9818361140f565b810190611f5a565b88610235565b503d6102df565b6040513d87823e3d90fd5b346101825760203660031901126101825761033c610328600435612a29565b6040519182916020835260208301906113be565b0390f35b34610182576080366003190112610182576103596113e3565b6103616113f9565b90604435606435926001600160401b0384116101825736602385011215610182576103996103ab94369060248160040135910161144b565b926103a5838383611864565b336128ec565b005b34610182576040366003190112610182576103c66113e3565b6001600160a01b0381169060243590600090308403610411575061040092506103fb90506001600160a01b036101d2836123c0565b6127c9565b905b61033c60405192839283611751565b918193604051936301ffc9a760e01b8552630204cbd160e51b6004860152602085602481855afa9485156104e257610488956104539186916104c95750611f72565b6040516328d4e46b60e21b81526001600160a01b03909116600482015260248101929092529092839190829081906044820190565b03915afa9081156102c6578280926104a3575b505090610402565b9091506104c292503d8091833e6104ba818361140f565b810190611fce565b828061049b565b6102f1915060203d6020116102f7576102e9818361140f565b6040513d86823e3d90fd5b34610182576040366003190112610182576105066113e3565b60243590811515809203610182576001600160a01b031690811561057957336000526005602052604060002082600052602052604060002060ff1981541660ff83161790556040519081527f17307eab39ab6107e8899845ad3d59bd9653f200f220920489ca2b5937696c3160203392a3005b50630b61174360e31b60005260045260246000fd5b34610182576080366003190112610182576004356024356001600160401b038111610182576105c1903690600401611482565b906044356001600160401b038111610182576105e190369060040161154e565b6064356001600160401b038111610182576106009036906004016115bc565b92610635337f00000000000000000000000000000000000000000000000000000000000000006001600160a01b0316146122dd565b604051608081018181106001600160401b03821117610824576040908152328252602080830184815283830186815260608501898152600a546000908152600b90945293909220935184546001600160a01b0319166001600160a01b039190911617845551805192939260018401916001600160401b0382116108245781906106be8454611776565b601f8111610916575b50602090601f83116001146108b1576000926108a6575b50508160011b916000199060031b1c19161790555b5180519060028301906001600160401b03831161082457600160401b83116108245760209061072784845481865585612383565b0190600052602060002060005b83811061088957505050506003019051805190600160401b821161082457825482845580831061083a575b50602001916000526020600020916000905b8282106107c65750505050600a5460001981146107b0576020946107a593600161079f9301600a558561213e565b826123f7565b6101ee813033612890565b634e487b7160e01b600052601160045260246000fd5b80518051906001600160401b038211610824576020906107e683886123a6565b0185600052602060002060005b838110610810575050505060016020819201940191019092610771565b6001906020845194019381840155016107f3565b634e487b7160e01b600052604160045260246000fd5b8360005282602060002091820191015b818110610857575061075f565b6001908054600082558061086d575b500161084a565b610883908260005260206000209081019061236c565b8a610866565b82516001600160a01b031681830155602090920191600101610734565b015190508a806106de565b60008581528281209350601f198516905b8181106108fe57509084600195949392106108e5575b505050811b0190556106f3565b015160001960f88460031b161c191690558a80806108d8565b929360206001819287860151815501950193016108c2565b61094390856000526020600020601f850160051c81019160208610610949575b601f0160051c019061236c565b8b6106c7565b9091508190610936565b3461018257600036600319011261018257604051600060015461097581611776565b80845290600181169081156109fd575060011461099d575b61033c836103288185038261140f565b91905060016000527fb10e2d527612073b26eecdfd717e6a320cf44b4afac2b0732d9fcbe2b7fa0cf6916000905b8082106109e35750909150810160200161032861098d565b9192600181602092548385880101520191019092916109cb565b60ff191660208086019190915291151560051b84019091019150610328905061098d565b34610182576020366003190112610182576020604051620f424060043510158152f35b3461018257606036600319011261018257610a5d6113e3565b6024359060443590610a99337f00000000000000000000000000000000000000000000000000000000000000006001600160a01b0316146122dd565b6001600160a01b03610aaa846123c0565b1615610bd357604090815193610ac0838661140f565b60018552601f1983018036602088013730610ada87611a10565b5283516040969091610aec888461140f565b600183529186939194928860209950601f190160005b818110610bc157505090610bbb95610b4f92885190610b218a8361140f565b60018252368c83013784610b3482611a10565b52610b3e83611a10565b52610b4882611a10565b508561213e565b610ba1610b5b82612a29565b610b9b602c885180936b6c6963656e73652d666f722d60a01b8d830152610b8a815180928f868601910161139b565b81010301601f19810183528261140f565b846123f7565b600052600c8652610bb58285600020611aa0565b33612890565b51908152f35b60608185018c01528996508a01610b02565b60405162461bcd60e51b815260206004820152601760248201527f536f66747761726520646f6573206e6f742065786973740000000000000000006044820152606490fd5b34610182576000366003190112610182576040517f00000000000000000000000000000000000000000000000000000000000000006001600160a01b03168152602090f35b34610182576020366003190112610182576001600160a01b03610c7e6113e3565b168015610c9d5760005260036020526020604060002054604051908152f35b6322718ad960e21b600052600060045260246000fd5b34610182576103ab610cc43661163a565b9161213e565b3461018257604036600319011261018257610ce36113e3565b6001600160a01b0381169060243590600090308403610dec5750909150610d1690506001600160a01b036101d2836123c0565b6000908152600760205260408120610d3060038201612775565b91610d3b8351612322565b906001819301925b8451811015610dd8576001600160a01b03610d5e8287611a33565b51166001600160a01b031682526020848152604080842090518154808252918552828520909283019185905b808210610dc05750505090610da48160019493038261140f565b610dae8286611a33565b52610db98185611a33565b5001610d43565b90919260016020819286548152019401920190610d8a565b505090509061033c60405192839283611751565b918193604051936301ffc9a760e01b8552630204cbd160e51b6004860152602085602481855afa9485156104e25761048895610e2e9186916104c95750611f72565b60405163327cd87360e11b81526001600160a01b03909116600482015260248101929092529092839190829081906044820190565b34610182576020366003190112610182576020610e816004356123c0565b6040516001600160a01b039091168152f35b34610182576103ab610ea43661163a565b91611ad5565b3461018257606036600319011261018257610ec36113e3565b602435906044356001600160401b03811161018257610ee69036906004016114f1565b6001600160a01b03821630811492919060005b82518110156103ab57610f0c8184611a33565b516000526007602052604060002090600182019186604060008681528560205220541561104d575b610fec576004429101541015610f8957610f5c87604060019460009087825260205220611aa0565b610f83610f698286611a33565b51610f7d610f778488611a33565b516123c0565b90612620565b01610ef9565b60405162461bcd60e51b815260206004820152603560248201527f4552435f353532313a2074686520726566657272656420724e4654206e65656460448201527439903a37903132903090383932b232b1b2b9b9b7b960591b6064820152608490fd5b60405162461bcd60e51b815260206004820152603360248201527f4552435f353532313a2074686973206d75737420626520616e2065787465726e604482015272616c20636f6e7472616374206164647265737360681b6064820152608490fd5b61105a8760038401611a5f565b610f34565b34610182576103ab611070366114a0565b906040519261108060208561140f565b600084526103a5838383611864565b34610182576103ab6110a0366114a0565b91611864565b34610182576040366003190112610182576024356004356001600160401b038211610182576110dc6103ab923690600401611482565b906110f16001600160a01b036101d2836123c0565b61110d6110fd826123c0565b6001600160a01b031633146117fc565b6123f7565b346101825760403660031901126101825761112b6113e3565b602435611137816123c0565b331515806111ee575b806111c0575b6111ab5781906001600160a01b0384811691167f8c5be1e5ebec7d5bd14f71427d1e84f3dd0314c0f7b2291e5b200ac8c7c3b925600080a4600090815260046020526040902080546001600160a01b0319166001600160a01b03909216919091179055005b63a9fbf51f60e01b6000523360045260246000fd5b506001600160a01b038116600090815260056020908152604080832033845290915290205460ff1615611146565b506001600160a01b038116331415611140565b346101825760203660031901126101825760043561121e816123c0565b506000526004602052602060018060a01b0360406000205416604051908152f35b34610182576000366003190112610182576040516000805461126081611776565b80845290600181169081156109fd57506001146112875761033c836103288185038261140f565b60008080527f290decd9548b62a8d60345a988386fc84ba6bc95484008f6362f93160ef3e563939250905b8082106112ca5750909150810160200161032861098d565b9192600181602092548385880101520191019092916112b2565b34610182576020366003190112610182576004359063ffffffff60e01b8216809203610182576020916374342b5560e01b811490811561138a575b811561132d575b5015158152f35b632483248360e11b811491508115611347575b5083611326565b6380ac58cd60e01b811491508115611379575b8115611368575b5083611340565b6301ffc9a760e01b14905083611361565b635b5e139f60e01b8114915061135a565b630204cbd160e51b8114915061131f565b60005b8381106113ae5750506000910152565b818101518382015260200161139e565b906020916113d78151809281855285808601910161139b565b601f01601f1916010190565b600435906001600160a01b038216820361018257565b602435906001600160a01b038216820361018257565b90601f801991011681019081106001600160401b0382111761082457604052565b6001600160401b03811161082457601f01601f191660200190565b92919261145782611430565b91611465604051938461140f565b829481845281830111610182578281602093846000960137010152565b9080601f830112156101825781602061149d9335910161144b565b90565b6060906003190112610182576004356001600160a01b038116810361018257906024356001600160a01b0381168103610182579060443590565b6001600160401b0381116108245760051b60200190565b9080601f83011215610182578135611508816114da565b92611516604051948561140f565b81845260208085019260051b82010192831161018257602001905b82821061153e5750505090565b8135815260209182019101611531565b9080601f8301121561018257813590611566826114da565b92611574604051948561140f565b82845260208085019360051b82010191821161018257602001915b81831061159c5750505090565b82356001600160a01b03811681036101825781526020928301920161158f565b9080601f830112156101825781356115d3816114da565b926115e1604051948561140f565b81845260208085019260051b820101918383116101825760208201905b83821061160d57505050505090565b81356001600160401b0381116101825760209161162f878480948801016114f1565b8152019101906115fe565b606060031982011261018257600435916024356001600160401b03811161018257826116689160040161154e565b91604435906001600160401b0382116101825761149d916004016115bc565b906020808351928381520192019060005b8181106116a55750505090565b82516001600160a01b0316845260209384019390920191600101611698565b906020808351928381520192019060005b8181106116e25750505090565b82518452602093840193909201916001016116d5565b9080602083519182815201916020808360051b8301019401926000915b83831061172457505050505090565b9091929394602080611742600193601f1986820301875289516116c4565b97019301930191939290611715565b909161176861149d93604084526040840190611687565b9160208184039101526116f8565b90600182811c921680156117a6575b602083101461179057565b634e487b7160e01b600052602260045260246000fd5b91607f1691611785565b156117b757565b60405162461bcd60e51b815260206004820152601e60248201527f4552435f353532313a20746f6b656e204944206e6f74206578697374656400006044820152606490fd5b1561180357565b60405162461bcd60e51b815260206004820152603360248201527f4552435f353532313a207472616e736665722063616c6c6572206973206e6f74604482015272081bdddb995c881b9bdc88185c1c1c9bdd9959606a1b6064820152608490fd5b6001600160a01b03909116919082156119fa576000828152600260205260408120546001600160a01b0316938391859033151580611962575b507fddf252ad1be2c89b69c2b068fc378daa952ba7f163c4a11628f55a4df523b3ef908261192d575b83815260036020526040812060018154019055848152600260205260408120846bffffffffffffffffffffffff60a01b82541617905580a46001600160a01b031680830361191357505050565b6364283d7b60e01b60005260045260245260445260646000fd5b600085815260046020526040902080546001600160a01b031916905582815260036020526040812080546000190190556118c6565b9150919250806119ab575b1561197c57908484923861189d565b83908561199557602491637e27328960e01b8252600452fd5b60449163177e802f60e01b825233600452602452fd5b5033851480156119d9575b8061196d5750838152600460205260408120546001600160a01b0316331461196d565b5084815260056020908152604080832033845290915281205460ff166119b6565b633250574960e11b600052600060045260246000fd5b805115611a1d5760200190565b634e487b7160e01b600052603260045260246000fd5b8051821015611a1d5760209160051b010190565b8054821015611a1d5760005260206000200190600090565b8054600160401b81101561082457611a7c91600182018155611a47565b81546001600160a01b0393841660039290921b91821b9390911b1916919091179055565b8054600160401b81101561082457611abd91600182018155611a47565b819291549060031b91821b91600019901b1916179055565b928151835103611ef65760005b8351811015611b5e57611af58185611a33565b515115611b0457600101611ae2565b60405162461bcd60e51b815260206004820152602c60248201527f4552435f353532313a2074686520726566657272696e67206c6973742063616e60448201526b6e6f7420626520656d70747960a01b6064820152608490fd5b5091929092611b6f6110fd836123c0565b81600052600760205260406000209160005b8551811015611c675760406001600160a01b03611b9e8389611a33565b51166001600160a01b031660009081526020869052205415611c42575b611bc58184611a33565b5160406001600160a01b03611bda848a611a33565b51166001600160a01b031660009081526020879052208151916001600160401b03831161082457602090611c0e84846123a6565b0190600052602060002060005b838110611c2e5750505050600101611b81565b600190602084519401938184015501611c1b565b611c626001600160a01b03611c578389611a33565b511660028601611a5f565b611bbb565b509391600442910155611c7a3385612620565b60005b8251811015611eef57306001600160a01b03611c998386611a33565b511603611df757309360005b611caf8385611a33565b5151811015611dea57611ccc81611cc68587611a33565b51611a33565b51600090815260076020526040908190206001810192916001600160a01b03611cf5878a611a33565b51166001600160a01b031660009081526020859052205415611dc5575b611d2082611cc68789611a33565b518914611d74576004429101541015610f8957611d4b8860406001946000908b825260205220611aa0565b611d6e611d5c82611cc68789611a33565b51610f7d610f7784611cc6898b611a33565b01611ca5565b60405162461bcd60e51b8152602060048201526024808201527f4552435f353532313a2073656c662d7265666572656e6365206e6f7420616c6c6044820152631bddd95960e21b6064820152608490fd5b611de56001600160a01b03611dda878a611a33565b511660038301611a5f565b611d12565b5093506001905b01611c7d565b6001600160a01b03611e098285611a33565b516040516301ffc9a760e01b8152630204cbd160e51b600482015291169190602081602481865afa908115611ec557600091611ed1575b50611e4f575b60019150611df1565b611e598184611a33565b5191803b1561018257611e9b600093918492604051958680948193630157041160e61b83523060048401528d60248401526060604484015260648301906116c4565b03925af1918215611ec557600192611eb4575b50611e46565b6000611ebf9161140f565b38611eae565b6040513d6000823e3d90fd5b611ee9915060203d81116102f7576102e9818361140f565b38611e40565b5050509050565b60405162461bcd60e51b815260206004820152603660248201527f41646472657373657320616e6420546f6b656e494420617272617973206d75736044820152750e840d0c2ecca40e8d0ca40e6c2daca40d8cadccee8d60531b6064820152608490fd5b90816020910312610182575180151581036101825790565b15611f7957565b60405162461bcd60e51b815260206004820152602760248201527f4552435f353532313a2074617267657420636f6e7472616374206e6f742073756044820152661c1c1bdc9d195960ca1b6064820152608490fd5b91906040838203126101825782516001600160401b03811161018257830181601f82011215610182578051612002816114da565b91612010604051938461140f565b81835260208084019260051b8201019084821161018257602001915b81831061211e57505050926020810151906001600160401b03821161018257019080601f8301121561018257815190612064826114da565b92612072604051948561140f565b82845260208085019360051b820101908282116101825760208101935b82851061209e57505050505090565b84516001600160401b03811161018257820184603f82011215610182576020810151906120ca826114da565b916120d8604051938461140f565b8083526020808085019260051b840101019187831161018257604001905b82821061210e5750505081526020948501940161208f565b81518152602091820191016120f6565b82516001600160a01b03811681036101825781526020928301920161202c565b909291602093604051612151868261140f565b6000815233156119fa576001600160a01b0361216d8533612552565b166122c757333b6121a7575b509080929394505115158061219d575b61219257505050565b61219b92611ad5565b565b5080511515612189565b856121e19160405180938192630a85bd0160e11b8352336004840152600060248401528860448401526080606484015260848301906113be565b03816000335af18091600091612286575b509061224857853d15612241573d61220981611430565b90612217604051928361140f565b81523d60008383013e5b8051918261223e57633250574960e11b6000523360045260246000fd5b01fd5b6060612221565b93945091929091906001600160e01b03191663757a42ff60e11b01612271579083929138612179565b633250574960e11b6000523360045260246000fd5b8781813d83116122c0575b61229b818361140f565b810103126102ba5751906001600160e01b0319821682036122bd5750386121f2565b80fd5b503d612291565b6339e3563760e11b600052600060045260246000fd5b156122e457565b60405162461bcd60e51b81526020600482015260166024820152752737ba103a34329031b7b73a3930b1ba1037bbb732b960511b6044820152606490fd5b9061232c826114da565b612339604051918261140f565b828152809261234a601f19916114da565b019060005b82811061235b57505050565b80606060208093850101520161234f565b818110612377575050565b6000815560010161236c565b9181811061239057505050565b61219b926000526020600020918201910161236c565b90600160401b811161082457815481835561219b92612383565b6000818152600260205260409020546001600160a01b03169081156123e3575090565b637e27328960e01b60005260045260246000fd5b919091806000526006602052604060002083516001600160401b038111610824576124228254611776565b601f8111612520575b506020601f821160011461249457908060209493927ff8e1a15aba9398e019f0b49df1a4fde98ee17ae345cb5f6b5e2c27f5033e8ce79697600092612489575b50508160011b916000199060031b1c19161790555b604051908152a1565b01519050388061246b565b601f1982169583600052816000209660005b818110612508575096600192849260209796957ff8e1a15aba9398e019f0b49df1a4fde98ee17ae345cb5f6b5e2c27f5033e8ce7999a106124ef575b505050811b019055612480565b015160001960f88460031b161c191690553880806124e2565b838301518955600190980197602093840193016124a6565b61254c90836000526020600020601f840160051c8101916020851061094957601f0160051c019061236c565b3861242b565b6000828152600260205260409020546001600160a01b03169190826125e9575b6001600160a01b0316806125cf575b8160005260026020526040600020816bffffffffffffffffffffffff60a01b825416179055827fddf252ad1be2c89b69c2b068fc378daa952ba7f163c4a11628f55a4df523b3ef600080a490565b806000526003602052604060002060018154019055612581565b600082815260046020526040902080546001600160a01b031916905582600052600360205260406000206000198154019055612572565b9061262a826127c9565b926000918183526007602052604083209161264760038401612775565b916126528351612322565b956001869501945b84518110156126ef576001600160a01b036126758287611a33565b51166001600160a01b031687526020868152604080892090518154808252918a52828a2090928301918a905b8082106126d757505050906126bb8160019493038261140f565b6126c5828b611a33565b526126d0818a611a33565b500161265a565b909192600160208192865481520194019201906126a1565b5090927f81bed52c04e8cd65796985202162bad7e20a8ffaa732fe2e0a0bc79f687e4d66955061273b945061275790612749612770949899604051978897608089526080890190611687565b9087820360208901526116f8565b908582036040870152611687565b83810360608501526001600160a01b03909116966116f8565b0390a3565b906040519182815491828252602082019060005260206000209260005b8181106127a757505061219b9250038361140f565b84546001600160a01b0316835260019485019487945060209093019201612792565b60005260076020526040600020906127e360028301612775565b916127ee8351612322565b9060005b845181101561288b5760406001600160a01b0361280f8388611a33565b51166001600160a01b0316600090815260208481529181206040518154808252918352838320909384019290915b80821061287357505050906128578160019493038261140f565b6128618286611a33565b5261286c8185611a33565b50016127f2565b9091926001602081928654815201940192019061283d565b505090565b919291906001600160a01b038116156119fa576001600160a01b03906128b7908590612552565b1690816128d35783637e27328960e01b60005260045260246000fd5b919290916001600160a01b031680830361191357505050565b823b6128fa575b5050505050565b604051630a85bd0160e11b81526001600160a01b0391821660048201529181166024830152604482019390935260806064820152911691602090829081906129469060848301906113be565b03816000865af180916000916129e6575b50906129b057503d156129a9573d61296e81611430565b9061297c604051928361140f565b81523d6000602083013e5b805190816129a45782633250574960e11b60005260045260246000fd5b602001fd5b6060612987565b6001600160e01b03191663757a42ff60e11b016129d2575038808080806128f3565b633250574960e11b60005260045260246000fd5b6020813d602011612a21575b816129ff6020938361140f565b810103126102ba5751906001600160e01b0319821682036122bd575038612957565b3d91506129f2565b612a32816123c0565b506000526006602052604060002060405190816000825492612a5384611776565b8084529360018116908115612ad35750600114612a8c575b50612a789250038261140f565b6000604051612a8860208261140f565b5290565b90506000929192526020600020906000915b818310612ab7575050906020612a789282010138612a6b565b6020919350806001915483858801015201910190918392612a9e565b905060209250612a7894915060ff191682840152151560051b82010138612a6b56fea2646970667358221220f5e3f41b50ed85f78b95a284a596d339184cb662488cf7fa034c973cd1229e7064736f6c634300081c0033a2646970667358221220e26e45f5edc3584b013c845e970ea5331f72185c8e8ccd29fe1c462f2722d29664736f6c634300081c0033",
  "linkReferences": {},
  "deployedLinkReferences": {}
}