{
  "_format": "hh-sol-artifact-1",
  "contractName": "Marketplace",
  "sourceName": "contracts/Marketplace.sol",
  "abi": [
    {
      "inputs": [
        {
          "internalType": "address",
          "name": "_registry",
          "type": "address"
        }
      ],
      "stateMutability": "nonpayable",
      "type": "constructor"
    },
    {
      "anonymous": false,
      "inputs": [
        {
          "indexed": false,
          "internalType": "string",
          "name": "message",
          "type": "string"
        }
      ],
      "name": "Debug",
      "type": "event"
    },
    {
      "anonymous": false,
      "inputs": [
        {
          "indexed": true,
          "internalType": "address",
          "name": "buyer",
          "type": "address"
        },
        {
          "indexed": true,
          "internalType": "address",
          "name": "nftContract",
          "type": "address"
        },
        {
          "indexed": true,
          "internalType": "uint256",
          "name": "tokenId",
          "type": "uint256"
        },
        {
          "indexed": false,
          "internalType": "uint256",
          "name": "licenseId",
          "type": "uint256"
        },
        {
          "indexed": false,
          "internalType": "uint256",
          "name": "price",
          "type": "uint256"
        }
      ],
      "name": "LicensePurchased",
      "type": "event"
    },
    {
      "anonymous": false,
      "inputs": [
        {
          "indexed": true,
          "internalType": "address",
          "name": "nftContract",
          "type": "address"
        },
        {
          "indexed": true,
          "internalType": "uint256",
          "name": "tokenId",
          "type": "uint256"
        },
        {
          "indexed": true,
          "internalType": "address",
          "name": "developer",
          "type": "address"
        },
        {
          "indexed": false,
          "internalType": "uint256",
          "name": "price",
          "type": "uint256"
        }
      ],
      "name": "SoftwareListed",
      "type": "event"
    },
    {
      "inputs": [
        {
          "internalType": "address",
          "name": "repository",
          "type": "address"
        },
        {
          "internalType": "uint256",
          "name": "tokenId",
          "type": "uint256"
        }
      ],
      "name": "buySoftware",
      "outputs": [
        {
          "internalType": "uint256",
          "name": "",
          "type": "uint256"
        }
      ],
      "stateMutability": "payable",
      "type": "function"
    },
    {
      "inputs": [
        {
          "internalType": "uint256",
          "name": "tokenId",
          "type": "uint256"
        },
        {
          "internalType": "uint256",
          "name": "price",
          "type": "uint256"
        }
      ],
      "name": "listSoftware",
      "outputs": [],
      "stateMutability": "nonpayable",
      "type": "function"
    }
  ],
  "bytecode": "0x608034607057601f61073838819003918201601f19168301916001600160401b03831184841017607557808492602094604052833981010312607057516001600160a01b03811690819003607057600080546001600160a01b0319169190911790556040516106ac908161008c8239f35b600080fd5b634e487b7160e01b600052604160045260246000fdfe608080604052600436101561001357600080fd5b60003560e01c9081631f739c75146102a15750635cf738d51461003557600080fd5b60403660031901126101cf576004356001600160a01b038116908190036101cf576024358160005260016020526040600020816000526020526001604060002001541561026f5781600052600160205260406000208160005260205260018060a01b0360406000205416331461022a57816000526001602052604060002081600052602052600160406000200154908134106101f257826000526001602052604060002081600052602052600080808060018060a01b03604082205416819034156101e8575b3491f1156101dc57600080548482526001602090815260408084208585528252808420549051630e3ff06560e21b81523360048201526001600160a01b039182166024820152604481018690529693919287926064928492165af19283156101dc576000936101a2575b6020945060405190848252858201527f96264bbc207fc189d5e12e353cb56e88076d3850c35b256d63c541521d4d46f260403392a4604051908152f35b92506020843d6020116101d4575b816101bd6020938361061d565b810103126101cf576020935192610165565b600080fd5b3d91506101b0565b6040513d6000823e3d90fd5b6108fc91506100fb565b60405162461bcd60e51b815260206004820152601060248201526f4e6f7420656e6f7567682066756e647360801b6044820152606490fd5b60405162461bcd60e51b815260206004820152601c60248201527f43616e6e6f742062757920796f7572206f776e20736f667477617265000000006044820152606490fd5b60405162461bcd60e51b815260206004820152600a602482015269139bdd081b1a5cdd195960b21b6044820152606490fd5b346101cf5760403660031901126101cf576004356024359160018060a01b036000541690630d3e0bbf60e11b8152336004820152602081602481855afa9081156101dc576000916105fe575b5060018060a01b031660005260016020526040600020826000526020526001604060002001546105c8576040516305eca4a760e41b8152336004820152602081602481855afa9081156101dc576000916105a9575b501561055a57604051630d3e0bbf60e11b8152336004820152602081602481855afa9081156101dc5760009161052b575b506001600160a01b03169081156104e657602060449160405192838092635db717c360e11b82528660048301528760248301525afa9081156101dc576000916104b7575b5015610467576040516040810181811067ffffffffffffffff821117610451576040523381526001602082018581528360005281602052604060002085600052602052604060002092828060a01b039051166bffffffffffffffffffffffff60a01b845416178355519101556040519283527fb2fe8b8db74b35ecf28fa902c2c92ffaf61ea5c839bd93f41159fa3d174b9faa60203394a4005b634e487b7160e01b600052604160045260246000fd5b60405162461bcd60e51b815260206004820152602260248201527f5265706f7369746f727920646f6573206e6f74206f776e207468697320746f6b60448201526132b760f11b6064820152608490fd5b6104d9915060203d6020116104df575b6104d1818361061d565b81019061065e565b846103b7565b503d6104c7565b60405162461bcd60e51b815260206004820152601b60248201527f446576656c6f70657220686173206e6f207265706f7369746f727900000000006044820152606490fd5b61054d915060203d602011610553575b610545818361061d565b81019061063f565b84610373565b503d61053b565b60405162461bcd60e51b815260206004820152602160248201527f4f6e6c7920646576656c6f706572732063616e206c69737420736f66747761726044820152606560f81b6064820152608490fd5b6105c2915060203d6020116104df576104d1818361061d565b84610342565b60405162461bcd60e51b815260206004820152600e60248201526d105b1c9958591e481b1a5cdd195960921b6044820152606490fd5b610617915060203d60201161055357610545818361061d565b846102ed565b90601f8019910116810190811067ffffffffffffffff82111761045157604052565b908160209103126101cf57516001600160a01b03811681036101cf5790565b908160209103126101cf575180151581036101cf579056fea2646970667358221220544cdde50765540807007d5dbb16979b87f5e45b218cf71b6506c9423bc0a16064736f6c634300081c0033",
  "linkReferences": {},
  "deployedLinkReferences": {}
}